{"contracts/DemoAdapter(Full).sol":{"DemoAdapter1":{"abi":[{"inputs":[{"internalType":"address","name":"_weth","type":"address"}],"stateMutability":"nonpayable","type":"constructor"},{"anonymous":false,"inputs":[{"indexed":false,"internalType":"address","name":"partner","type":"address"},{"indexed":false,"internalType":"address","name":"tokenOut","type":"address"},{"indexed":false,"internalType":"uint256","name":"partnerFee","type":"uint256"}],"name":"ClaimPartnerFee","type":"event"},{"anonymous":false,"inputs":[{"indexed":false,"internalType":"string","name":"name","type":"string"},{"indexed":false,"internalType":"address","name":"partner","type":"address"}],"name":"DeactivePartner","type":"event"},{"anonymous":false,"inputs":[{"indexed":true,"internalType":"address","name":"previousOwner","type":"address"},{"indexed":true,"internalType":"address","name":"newOwner","type":"address"}],"name":"OwnershipTransferred","type":"event"},{"anonymous":false,"inputs":[{"indexed":false,"internalType":"string","name":"name","type":"string"},{"indexed":false,"internalType":"address","name":"partner","type":"address"}],"name":"SetPartner","type":"event"},{"anonymous":false,"inputs":[{"indexed":false,"internalType":"uint256","name":"_partnerFee","type":"uint256"}],"name":"SetPartnerFee","type":"event"},{"anonymous":false,"inputs":[{"indexed":false,"internalType":"uint256","name":"_protocolFee","type":"uint256"}],"name":"SetProtocolFee","type":"event"},{"inputs":[],"name":"PARTNER_FEE","outputs":[{"internalType":"uint256","name":"","type":"uint256"}],"stateMutability":"view","type":"function"},{"inputs":[],"name":"PROTOCOL_FEE","outputs":[{"internalType":"uint256","name":"","type":"uint256"}],"stateMutability":"view","type":"function"},{"inputs":[{"internalType":"address","name":"","type":"address"}],"name":"Partners","outputs":[{"internalType":"bool","name":"isActive","type":"bool"},{"internalType":"string","name":"name","type":"string"},{"internalType":"uint256","name":"registrationTime","type":"uint256"}],"stateMutability":"view","type":"function"},{"inputs":[],"name":"owner","outputs":[{"internalType":"address","name":"","type":"address"}],"stateMutability":"view","type":"function"},{"inputs":[],"name":"renounceOwnership","outputs":[],"stateMutability":"nonpayable","type":"function"},{"inputs":[{"internalType":"address","name":"_partner","type":"address"},{"internalType":"string","name":"_name","type":"string"},{"internalType":"bool","name":"_isActive","type":"bool"}],"name":"setPartner","outputs":[],"stateMutability":"nonpayable","type":"function"},{"inputs":[{"internalType":"uint256","name":"_partnerFee","type":"uint256"}],"name":"setPartnerFee","outputs":[],"stateMutability":"nonpayable","type":"function"},{"inputs":[{"internalType":"uint256","name":"_protocolFee","type":"uint256"}],"name":"setProtocolFee","outputs":[],"stateMutability":"nonpayable","type":"function"},{"inputs":[{"internalType":"uint256","name":"fromAmount","type":"uint256"},{"internalType":"address","name":"fromToken","type":"address"},{"internalType":"address","name":"toToken","type":"address"},{"internalType":"bytes","name":"data","type":"bytes"},{"internalType":"contract IExecutor","name":"executor","type":"address"}],"name":"swapRoutes","outputs":[],"stateMutability":"payable","type":"function"},{"inputs":[{"internalType":"uint256","name":"fromAmount","type":"uint256"},{"internalType":"address","name":"fromToken","type":"address"},{"internalType":"address","name":"toToken","type":"address"},{"internalType":"contract SwapAdapter[]","name":"routers","type":"address[]"},{"internalType":"bytes[]","name":"payloads","type":"bytes[]"},{"internalType":"uint256[]","name":"amountOut","type":"uint256[]"}],"name":"swapStraight","outputs":[],"stateMutability":"payable","type":"function"},{"inputs":[{"internalType":"address","name":"newOwner","type":"address"}],"name":"transferOwnership","outputs":[],"stateMutability":"nonpayable","type":"function"},{"inputs":[],"name":"weth","outputs":[{"internalType":"address","name":"","type":"address"}],"stateMutability":"view","type":"function"},{"inputs":[{"internalType":"address","name":"_token","type":"address"}],"name":"withdrawStuckERC20","outputs":[],"stateMutability":"payable","type":"function"},{"stateMutability":"payable","type":"receive"}],"evm":{"bytecode":{"linkReferences":{},"object":"60806040526050600155600a6002556127106003553480156200002157600080fd5b5060405162002488380380620024888339810160408190526200004491620000c5565b6200004f3362000075565b600480546001600160a01b0319166001600160a01b0392909216919091179055620000f5565b600080546001600160a01b038381166001600160a01b0319831681178455604051919092169283917f8be0079c531659141344cd1fd0a4f28419497f9722a3daafe3b4186f6b6457e09190a35050565b600060208284031215620000d7578081fd5b81516001600160a01b0381168114620000ee578182fd5b9392505050565b61238380620001056000396000f3fe6080604052600436106100d65760003560e01c80638743f4021161007f5780638ed3747c116100595780638ed3747c146102a1578063c3ca7f31146102b4578063f2fde38b146102ca578063feee9977146102ea57600080fd5b80638743f402146102345780638da5cb5b146102475780638e9b7ab81461027257600080fd5b80633fc8cef3116100b05780633fc8cef3146101ad578063715018a6146101ff578063787dce3d1461021457600080fd5b80630b4501fd146101515780633741454d1461017a5780633963510b1461019a57600080fd5b3661014c573332141561014a576040517f08c379a000000000000000000000000000000000000000000000000000000000815260206004820152601460248201527f455448206465706f7369742072656a656374656400000000000000000000000060448201526064015b60405180910390fd5b005b600080fd5b34801561015d57600080fd5b5061016760025481565b6040519081526020015b60405180910390f35b34801561018657600080fd5b5061014a610195366004611de2565b61030a565b61014a6101a8366004611c5a565b6103de565b3480156101b957600080fd5b506004546101da9073ffffffffffffffffffffffffffffffffffffffff1681565b60405173ffffffffffffffffffffffffffffffffffffffff9091168152602001610171565b34801561020b57600080fd5b5061014a6105c4565b34801561022057600080fd5b5061014a61022f366004611de2565b6105d8565b61014a610242366004611e12565b6106a5565b34801561025357600080fd5b5060005473ffffffffffffffffffffffffffffffffffffffff166101da565b34801561027e57600080fd5b5061029261028d366004611c5a565b610fc3565b6040516101719392919061200d565b61014a6102af366004611f28565b611072565b3480156102c057600080fd5b5061016760015481565b3480156102d657600080fd5b5061014a6102e5366004611c5a565b6114b2565b3480156102f657600080fd5b5061014a610305366004611c76565b611569565b610312611717565b600081116103a2576040517f08c379a000000000000000000000000000000000000000000000000000000000815260206004820152603e60248201527f53757065724c696e6b3a20466565206d757374206265206120706f736974697660448201527f65206e756d62657220616e642067726561746572207468616e207a65726f00006064820152608401610141565b60018190556040518181527fd8a1a03d14cf70b1537a82ecf286cf743b3d756d06d6c3279d312b9279cb36c4906020015b60405180910390a150565b6103e6611717565b6040517f70a0823100000000000000000000000000000000000000000000000000000000815230600482015260009073ffffffffffffffffffffffffffffffffffffffff8316906370a082319060240160206040518083038186803b15801561044e57600080fd5b505afa158015610462573d6000803e3d6000fd5b505050506040513d601f19601f820116820180604052508101906104869190611dfa565b9050478115610571578273ffffffffffffffffffffffffffffffffffffffff1663a9059cbb6104ca60005473ffffffffffffffffffffffffffffffffffffffff1690565b6040517fffffffff0000000000000000000000000000000000000000000000000000000060e084901b16815273ffffffffffffffffffffffffffffffffffffffff909116600482015260248101859052604401602060405180830381600087803b15801561053757600080fd5b505af115801561054b573d6000803e3d6000fd5b505050506040513d601f19601f8201168201806040525081019061056f9190611ceb565b505b80156105bf576000805460405173ffffffffffffffffffffffffffffffffffffffff9091169184156108fc02918591818181858888f193505050501580156105bd573d6000803e3d6000fd5b505b505050565b6105cc611717565b6105d66000611798565b565b6105e0611717565b60008111610670576040517f08c379a000000000000000000000000000000000000000000000000000000000815260206004820152603e60248201527f53757065724c696e6b3a20466565206d757374206265206120706f736974697660448201527f65206e756d62657220616e642067726561746572207468616e207a65726f00006064820152608401610141565b60028190556040518181527fdc0410a296e1e33943a772020d333d5f99319d7fcad932a484c53889f7aaa2b1906020016103d3565b73ffffffffffffffffffffffffffffffffffffffff851661072a578534101561072a576040517f08c379a000000000000000000000000000000000000000000000000000000000815260206004820152601460248201527f4e6f7420656e6f75676820656666696369656e740000000000000000000000006044820152606401610141565b60008573ffffffffffffffffffffffffffffffffffffffff166370a0823185600081518110610782577f4e487b7100000000000000000000000000000000000000000000000000000000600052603260045260246000fd5b60200260200101516040518263ffffffff1660e01b81526004016107c2919073ffffffffffffffffffffffffffffffffffffffff91909116815260200190565b60206040518083038186803b1580156107da57600080fd5b505afa1580156107ee573d6000803e3d6000fd5b505050506040513d601f19601f820116820180604052508101906108129190611dfa565b6040517f70a0823100000000000000000000000000000000000000000000000000000000815230600482015290915060009073ffffffffffffffffffffffffffffffffffffffff8716906370a082319060240160206040518083038186803b15801561087d57600080fd5b505afa158015610891573d6000803e3d6000fd5b505050506040513d601f19601f820116820180604052508101906108b59190611dfa565b90506109038789876000815181106108f6577f4e487b7100000000000000000000000000000000000000000000000000000000600052603260045260246000fd5b602002602001015161180d565b845160005b81811015610e1e57600086828151811061094b577f4e487b7100000000000000000000000000000000000000000000000000000000600052603260045260246000fd5b60200260200101518060200190518101906109669190611d07565b90506000816000015173ffffffffffffffffffffffffffffffffffffffff166370a082318a85815181106109c3577f4e487b7100000000000000000000000000000000000000000000000000000000600052603260045260246000fd5b60200260200101516040518263ffffffff1660e01b8152600401610a03919073ffffffffffffffffffffffffffffffffffffffff91909116815260200190565b60206040518083038186803b158015610a1b57600080fd5b505afa158015610a2f573d6000803e3d6000fd5b505050506040513d601f19601f82011682018060405250810190610a539190611dfa565b90506000610a6187836121ef565b90506000610a706001876121ef565b8514610ac6578a610a828660016121d7565b81518110610ab9577f4e487b7100000000000000000000000000000000000000000000000000000000600052603260045260246000fd5b6020026020010151610ac8565b305b9050610ad56001876121ef565b8514610bd357602084015173ffffffffffffffffffffffffffffffffffffffff166370a082318c610b078860016121d7565b81518110610b3e577f4e487b7100000000000000000000000000000000000000000000000000000000600052603260045260246000fd5b60200260200101516040518263ffffffff1660e01b8152600401610b7e919073ffffffffffffffffffffffffffffffffffffffff91909116815260200190565b60206040518083038186803b158015610b9657600080fd5b505afa158015610baa573d6000803e3d6000fd5b505050506040513d601f19601f82011682018060405250810190610bce9190611dfa565b610bd6565b60005b975060008b8681518110610c13577f4e487b7100000000000000000000000000000000000000000000000000000000600052603260045260246000fd5b602002602001015173ffffffffffffffffffffffffffffffffffffffff1663022c0d9f60e01b848c8981518110610c73577f4e487b7100000000000000000000000000000000000000000000000000000000600052603260045260246000fd5b6020026020010151858f8b81518110610cb5577f4e487b7100000000000000000000000000000000000000000000000000000000600052603260045260246000fd5b6020026020010151604051602401610cd094939291906120b0565b604080517fffffffffffffffffffffffffffffffffffffffffffffffffffffffffffffffe08184030181529181526020820180517bffffffffffffffffffffffffffffffffffffffffffffffffffffffff167fffffffff00000000000000000000000000000000000000000000000000000000909416939093179092529051610d599190611ff1565b6000604051808303816000865af19150503d8060008114610d96576040519150601f19603f3d011682016040523d82523d6000602084013e610d9b565b606091505b5050905080610e06576040517f08c379a000000000000000000000000000000000000000000000000000000000815260206004820152600b60248201527f6661696c65642063616c6c0000000000000000000000000000000000000000006044820152606401610141565b50505050508080610e1690612286565b915050610908565b5073ffffffffffffffffffffffffffffffffffffffff8716610efd57600480546040517f70a082310000000000000000000000000000000000000000000000000000000081523092810192909252600091849173ffffffffffffffffffffffffffffffffffffffff16906370a082319060240160206040518083038186803b158015610ea957600080fd5b505afa158015610ebd573d6000803e3d6000fd5b505050506040513d601f19601f82011682018060405250810190610ee19190611dfa565b610eeb91906121ef565b9050610ef781336119aa565b50610fb8565b6040517f70a08231000000000000000000000000000000000000000000000000000000008152306004820152600090839073ffffffffffffffffffffffffffffffffffffffff8a16906370a082319060240160206040518083038186803b158015610f6757600080fd5b505afa158015610f7b573d6000803e3d6000fd5b505050506040513d601f19601f82011682018060405250810190610f9f9190611dfa565b610fa991906121ef565b9050610fb6888233611a23565b505b505050505050505050565b6005602052600090815260409020805460018201805460ff9092169291610fe990612232565b80601f016020809104026020016040519081016040528092919081815260200182805461101590612232565b80156110625780601f1061103757610100808354040283529160200191611062565b820191906000526020600020905b81548152906001019060200180831161104557829003601f168201915b5050505050908060020154905083565b73ffffffffffffffffffffffffffffffffffffffff84166110f757843410156110f7576040517f08c379a000000000000000000000000000000000000000000000000000000000815260206004820152601460248201527f4e6f7420656e6f75676820656666696369656e740000000000000000000000006044820152606401610141565b6040517f70a0823100000000000000000000000000000000000000000000000000000000815230600482015260009073ffffffffffffffffffffffffffffffffffffffff8516906370a082319060240160206040518083038186803b15801561115f57600080fd5b505afa158015611173573d6000803e3d6000fd5b505050506040513d601f19601f820116820180604052508101906111979190611dfa565b90506111a485878461180d565b60008273ffffffffffffffffffffffffffffffffffffffff166379532f1460e01b8530886040516024016111da93929190612038565b604080517fffffffffffffffffffffffffffffffffffffffffffffffffffffffffffffffe08184030181529181526020820180517bffffffffffffffffffffffffffffffffffffffffffffffffffffffff167fffffffff000000000000000000000000000000000000000000000000000000009094169390931790925290516112639190611ff1565b6000604051808303816000865af19150503d80600081146112a0576040519150601f19603f3d011682016040523d82523d6000602084013e6112a5565b606091505b5050905080611310576040517f08c379a000000000000000000000000000000000000000000000000000000000815260206004820152600660248201527f4661696c656400000000000000000000000000000000000000000000000000006044820152606401610141565b73ffffffffffffffffffffffffffffffffffffffff85166113ee57600480546040517f70a082310000000000000000000000000000000000000000000000000000000081523092810192909252600091849173ffffffffffffffffffffffffffffffffffffffff16906370a082319060240160206040518083038186803b15801561139a57600080fd5b505afa1580156113ae573d6000803e3d6000fd5b505050506040513d601f19601f820116820180604052508101906113d29190611dfa565b6113dc91906121ef565b90506113e881336119aa565b506114a9565b6040517f70a08231000000000000000000000000000000000000000000000000000000008152306004820152600090839073ffffffffffffffffffffffffffffffffffffffff8816906370a082319060240160206040518083038186803b15801561145857600080fd5b505afa15801561146c573d6000803e3d6000fd5b505050506040513d601f19601f820116820180604052508101906114909190611dfa565b61149a91906121ef565b90506114a7868233611a23565b505b50505050505050565b6114ba611717565b73ffffffffffffffffffffffffffffffffffffffff811661155d576040517f08c379a000000000000000000000000000000000000000000000000000000000815260206004820152602660248201527f4f776e61626c653a206e6577206f776e657220697320746865207a65726f206160448201527f64647265737300000000000000000000000000000000000000000000000000006064820152608401610141565b61156681611798565b50565b611571611717565b73ffffffffffffffffffffffffffffffffffffffff831660009081526005602052604090208161169157805460ff1661162c576040517f08c379a000000000000000000000000000000000000000000000000000000000815260206004820152602360248201527f53757065724c696e6b3a20506172746e657220616c726561647920646561637460448201527f69766500000000000000000000000000000000000000000000000000000000006064820152608401610141565b80547fffffffffffffffffffffffffffffffffffffffffffffffffffffffffffffff001681556040517fa21850025daabc70fe4a4d95cb5ff2b0220d335c70ec66ec912b3846f17368dd906116849085908790612078565b60405180910390a16105bd565b80547fffffffffffffffffffffffffffffffffffffffffffffffffffffffffffffff001682151517815582516116d09060018301906020860190611a73565b504260028201556040517fef384e7f5414ffff90018f9ab6c0621f523b5b11d1d17a831cc331baf00e26f7906117099085908790612078565b60405180910390a150505050565b60005473ffffffffffffffffffffffffffffffffffffffff1633146105d6576040517f08c379a000000000000000000000000000000000000000000000000000000000815260206004820181905260248201527f4f776e61626c653a2063616c6c6572206973206e6f7420746865206f776e65726044820152606401610141565b6000805473ffffffffffffffffffffffffffffffffffffffff8381167fffffffffffffffffffffffff0000000000000000000000000000000000000000831681178455604051919092169283917f8be0079c531659141344cd1fd0a4f28419497f9722a3daafe3b4186f6b6457e09190a35050565b61186a565b3d6000803e3d6000fd5b7f08c379a0000000000000000000000000000000000000000000000000000000006000527c200000000000000000000000000000000000000000000000000000000060205280604052816000fd5b60405160c0810160405283600081146118fc5734156118ab576118ab60557c11696e76616c6964206d73672e76616c7565000000000000000000000061181c565b7f23b872dd0000000000000000000000000000000000000000000000000000000082523360048301528260248301528360448301526000806064846000895af16118f7576118f7611812565b6119a3565b7fd0e30db00000000000000000000000000000000000000000000000000000000082526000806004848773ae13d989dac2f0debff460ac112a837c89baa7cd5af161194957611949611812565b7fa9059cbb000000000000000000000000000000000000000000000000000000008252826004830152836024830152600080604484600073ae13d989dac2f0debff460ac112a837c89baa7cd5af16119a3576119a3611812565b5050505050565b60405160c081016040527f2e1a7d4d000000000000000000000000000000000000000000000000000000008152826004820152600080602483600073ae13d989dac2f0debff460ac112a837c89baa7cd5af1611a0857611a08611812565b5060008060008085855af1611a1f57611a1f611812565b5050565b60405160c081016040527fa9059cbb0000000000000000000000000000000000000000000000000000000081528160048201528260248201526000806044836000885af16105bd576105bd611812565b828054611a7f90612232565b90600052602060002090601f016020900481019282611aa15760008555611ae7565b82601f10611aba57805160ff1916838001178555611ae7565b82800160010185558215611ae7579182015b82811115611ae7578251825591602001919060010190611acc565b50611af3929150611af7565b5090565b5b80821115611af35760008155600101611af8565b6000611b1f611b1a84612191565b61211e565b9050828152838383011115611b3357600080fd5b828260208301376000602084830101529392505050565b600082601f830112611b5a578081fd5b81356020611b6a611b1a8361216d565b80838252828201915082860187848660051b8901011115611b89578586fd5b855b85811015611bca57813567ffffffffffffffff811115611ba9578788fd5b611bb78a87838c0101611c34565b8552509284019290840190600101611b8b565b5090979650505050505050565b600082601f830112611be7578081fd5b81356020611bf7611b1a8361216d565b80838252828201915082860187848660051b8901011115611c16578586fd5b855b85811015611bca57813584529284019290840190600101611c18565b600082601f830112611c44578081fd5b611c5383833560208501611b0c565b9392505050565b600060208284031215611c6b578081fd5b8135611c538161231d565b600080600060608486031215611c8a578182fd5b8335611c958161231d565b9250602084013567ffffffffffffffff811115611cb0578283fd5b8401601f81018613611cc0578283fd5b611ccf86823560208401611b0c565b9250506040840135611ce08161233f565b809150509250925092565b600060208284031215611cfc578081fd5b8151611c538161233f565b60006020808385031215611d19578182fd5b825167ffffffffffffffff80821115611d30578384fd5b9084019060808287031215611d43578384fd5b611d4b6120f5565b8251611d568161231d565b815282840151611d658161231d565b818501526040830151611d778161231d565b6040820152606083015182811115611d8d578586fd5b80840193505086601f840112611da1578485fd5b82519150611db1611b1a83612191565b8281528785848601011115611dc4578586fd5b611dd383868301878701612206565b60608201529695505050505050565b600060208284031215611df3578081fd5b5035919050565b600060208284031215611e0b578081fd5b5051919050565b60008060008060008060c08789031215611e2a578384fd5b86359550602080880135611e3d8161231d565b95506040880135611e4d8161231d565b9450606088013567ffffffffffffffff80821115611e69578485fd5b818a0191508a601f830112611e7c578485fd5b8135611e8a611b1a8261216d565b8082825285820191508585018e878560051b8801011115611ea9578889fd5b8895505b83861015611ed4578035611ec08161231d565b835260019590950194918601918601611ead565b509750505060808a0135925080831115611eec578485fd5b611ef88b848c01611b4a565b945060a08a0135925080831115611f0d578384fd5b5050611f1b89828a01611bd7565b9150509295509295509295565b600080600080600060a08688031215611f3f578283fd5b853594506020860135611f518161231d565b93506040860135611f618161231d565b9250606086013567ffffffffffffffff811115611f7c578182fd5b611f8888828901611c34565b9250506080860135611f998161231d565b809150509295509295909350565b60008151808452611fbf816020860160208601612206565b601f017fffffffffffffffffffffffffffffffffffffffffffffffffffffffffffffffe0169290920160200192915050565b60008251612003818460208701612206565b9190910192915050565b83151581526060602082015260006120286060830185611fa7565b9050826040830152949350505050565b60608152600061204b6060830186611fa7565b73ffffffffffffffffffffffffffffffffffffffff94851660208401529290931660409091015292915050565b60408152600061208b6040830185611fa7565b905073ffffffffffffffffffffffffffffffffffffffff831660208301529392505050565b84815283602082015273ffffffffffffffffffffffffffffffffffffffff831660408201526080606082015260006120eb6080830184611fa7565b9695505050505050565b6040516080810167ffffffffffffffff81118282101715612118576121186122ee565b60405290565b604051601f82017fffffffffffffffffffffffffffffffffffffffffffffffffffffffffffffffe016810167ffffffffffffffff81118282101715612165576121656122ee565b604052919050565b600067ffffffffffffffff821115612187576121876122ee565b5060051b60200190565b600067ffffffffffffffff8211156121ab576121ab6122ee565b50601f017fffffffffffffffffffffffffffffffffffffffffffffffffffffffffffffffe01660200190565b600082198211156121ea576121ea6122bf565b500190565b600082821015612201576122016122bf565b500390565b60005b83811015612221578181015183820152602001612209565b838111156105bd5750506000910152565b600181811c9082168061224657607f821691505b60208210811415612280577f4e487b7100000000000000000000000000000000000000000000000000000000600052602260045260246000fd5b50919050565b60007fffffffffffffffffffffffffffffffffffffffffffffffffffffffffffffffff8214156122b8576122b86122bf565b5060010190565b7f4e487b7100000000000000000000000000000000000000000000000000000000600052601160045260246000fd5b7f4e487b7100000000000000000000000000000000000000000000000000000000600052604160045260246000fd5b73ffffffffffffffffffffffffffffffffffffffff8116811461156657600080fd5b801515811461156657600080fdfea2646970667358221220399121684d3fba7dd5604cacc8fa49877ee4550869648c0a330a5e8e9990a74564736f6c63430008040033","opcodes":"PUSH1 0x80 PUSH1 0x40 MSTORE PUSH1 0x50 PUSH1 0x1 SSTORE PUSH1 0xA PUSH1 0x2 SSTORE PUSH2 0x2710 PUSH1 0x3 SSTORE CALLVALUE DUP1 ISZERO PUSH3 0x21 JUMPI PUSH1 0x0 DUP1 REVERT JUMPDEST POP PUSH1 0x40 MLOAD PUSH3 0x2488 CODESIZE SUB DUP1 PUSH3 0x2488 DUP4 CODECOPY DUP2 ADD PUSH1 0x40 DUP2 SWAP1 MSTORE PUSH3 0x44 SWAP2 PUSH3 0xC5 JUMP JUMPDEST PUSH3 0x4F CALLER PUSH3 0x75 JUMP JUMPDEST PUSH1 0x4 DUP1 SLOAD PUSH1 0x1 PUSH1 0x1 PUSH1 0xA0 SHL SUB NOT AND PUSH1 0x1 PUSH1 0x1 PUSH1 0xA0 SHL SUB SWAP3 SWAP1 SWAP3 AND SWAP2 SWAP1 SWAP2 OR SWAP1 SSTORE PUSH3 0xF5 JUMP JUMPDEST PUSH1 0x0 DUP1 SLOAD PUSH1 0x1 PUSH1 0x1 PUSH1 0xA0 SHL SUB DUP4 DUP2 AND PUSH1 0x1 PUSH1 0x1 PUSH1 0xA0 SHL SUB NOT DUP4 AND DUP2 OR DUP5 SSTORE PUSH1 0x40 MLOAD SWAP2 SWAP1 SWAP3 AND SWAP3 DUP4 SWAP2 PUSH32 0x8BE0079C531659141344CD1FD0A4F28419497F9722A3DAAFE3B4186F6B6457E0 SWAP2 SWAP1 LOG3 POP POP JUMP JUMPDEST PUSH1 0x0 PUSH1 0x20 DUP3 DUP5 SUB SLT ISZERO PUSH3 0xD7 JUMPI DUP1 DUP2 REVERT JUMPDEST DUP2 MLOAD PUSH1 0x1 PUSH1 0x1 PUSH1 0xA0 SHL SUB DUP2 AND DUP2 EQ PUSH3 0xEE JUMPI DUP2 DUP3 REVERT JUMPDEST SWAP4 SWAP3 POP POP POP JUMP JUMPDEST PUSH2 0x2383 DUP1 PUSH3 0x105 PUSH1 0x0 CODECOPY PUSH1 0x0 RETURN INVALID PUSH1 0x80 PUSH1 0x40 MSTORE PUSH1 0x4 CALLDATASIZE LT PUSH2 0xD6 JUMPI PUSH1 0x0 CALLDATALOAD PUSH1 0xE0 SHR DUP1 PUSH4 0x8743F402 GT PUSH2 0x7F JUMPI DUP1 PUSH4 0x8ED3747C GT PUSH2 0x59 JUMPI DUP1 PUSH4 0x8ED3747C EQ PUSH2 0x2A1 JUMPI DUP1 PUSH4 0xC3CA7F31 EQ PUSH2 0x2B4 JUMPI DUP1 PUSH4 0xF2FDE38B EQ PUSH2 0x2CA JUMPI DUP1 PUSH4 0xFEEE9977 EQ PUSH2 0x2EA JUMPI PUSH1 0x0 DUP1 REVERT JUMPDEST DUP1 PUSH4 0x8743F402 EQ PUSH2 0x234 JUMPI DUP1 PUSH4 0x8DA5CB5B EQ PUSH2 0x247 JUMPI DUP1 PUSH4 0x8E9B7AB8 EQ PUSH2 0x272 JUMPI PUSH1 0x0 DUP1 REVERT JUMPDEST DUP1 PUSH4 0x3FC8CEF3 GT PUSH2 0xB0 JUMPI DUP1 PUSH4 0x3FC8CEF3 EQ PUSH2 0x1AD JUMPI DUP1 PUSH4 0x715018A6 EQ PUSH2 0x1FF JUMPI DUP1 PUSH4 0x787DCE3D EQ PUSH2 0x214 JUMPI PUSH1 0x0 DUP1 REVERT JUMPDEST DUP1 PUSH4 0xB4501FD EQ PUSH2 0x151 JUMPI DUP1 PUSH4 0x3741454D EQ PUSH2 0x17A JUMPI DUP1 PUSH4 0x3963510B EQ PUSH2 0x19A JUMPI PUSH1 0x0 DUP1 REVERT JUMPDEST CALLDATASIZE PUSH2 0x14C JUMPI CALLER ORIGIN EQ ISZERO PUSH2 0x14A JUMPI PUSH1 0x40 MLOAD PUSH32 0x8C379A000000000000000000000000000000000000000000000000000000000 DUP2 MSTORE PUSH1 0x20 PUSH1 0x4 DUP3 ADD MSTORE PUSH1 0x14 PUSH1 0x24 DUP3 ADD MSTORE PUSH32 0x455448206465706F7369742072656A6563746564000000000000000000000000 PUSH1 0x44 DUP3 ADD MSTORE PUSH1 0x64 ADD JUMPDEST PUSH1 0x40 MLOAD DUP1 SWAP2 SUB SWAP1 REVERT JUMPDEST STOP JUMPDEST PUSH1 0x0 DUP1 REVERT JUMPDEST CALLVALUE DUP1 ISZERO PUSH2 0x15D JUMPI PUSH1 0x0 DUP1 REVERT JUMPDEST POP PUSH2 0x167 PUSH1 0x2 SLOAD DUP2 JUMP JUMPDEST PUSH1 0x40 MLOAD SWAP1 DUP2 MSTORE PUSH1 0x20 ADD JUMPDEST PUSH1 0x40 MLOAD DUP1 SWAP2 SUB SWAP1 RETURN JUMPDEST CALLVALUE DUP1 ISZERO PUSH2 0x186 JUMPI PUSH1 0x0 DUP1 REVERT JUMPDEST POP PUSH2 0x14A PUSH2 0x195 CALLDATASIZE PUSH1 0x4 PUSH2 0x1DE2 JUMP JUMPDEST PUSH2 0x30A JUMP JUMPDEST PUSH2 0x14A PUSH2 0x1A8 CALLDATASIZE PUSH1 0x4 PUSH2 0x1C5A JUMP JUMPDEST PUSH2 0x3DE JUMP JUMPDEST CALLVALUE DUP1 ISZERO PUSH2 0x1B9 JUMPI PUSH1 0x0 DUP1 REVERT JUMPDEST POP PUSH1 0x4 SLOAD PUSH2 0x1DA SWAP1 PUSH20 0xFFFFFFFFFFFFFFFFFFFFFFFFFFFFFFFFFFFFFFFF AND DUP2 JUMP JUMPDEST PUSH1 0x40 MLOAD PUSH20 0xFFFFFFFFFFFFFFFFFFFFFFFFFFFFFFFFFFFFFFFF SWAP1 SWAP2 AND DUP2 MSTORE PUSH1 0x20 ADD PUSH2 0x171 JUMP JUMPDEST CALLVALUE DUP1 ISZERO PUSH2 0x20B JUMPI PUSH1 0x0 DUP1 REVERT JUMPDEST POP PUSH2 0x14A PUSH2 0x5C4 JUMP JUMPDEST CALLVALUE DUP1 ISZERO PUSH2 0x220 JUMPI PUSH1 0x0 DUP1 REVERT JUMPDEST POP PUSH2 0x14A PUSH2 0x22F CALLDATASIZE PUSH1 0x4 PUSH2 0x1DE2 JUMP JUMPDEST PUSH2 0x5D8 JUMP JUMPDEST PUSH2 0x14A PUSH2 0x242 CALLDATASIZE PUSH1 0x4 PUSH2 0x1E12 JUMP JUMPDEST PUSH2 0x6A5 JUMP JUMPDEST CALLVALUE DUP1 ISZERO PUSH2 0x253 JUMPI PUSH1 0x0 DUP1 REVERT JUMPDEST POP PUSH1 0x0 SLOAD PUSH20 0xFFFFFFFFFFFFFFFFFFFFFFFFFFFFFFFFFFFFFFFF AND PUSH2 0x1DA JUMP JUMPDEST CALLVALUE DUP1 ISZERO PUSH2 0x27E JUMPI PUSH1 0x0 DUP1 REVERT JUMPDEST POP PUSH2 0x292 PUSH2 0x28D CALLDATASIZE PUSH1 0x4 PUSH2 0x1C5A JUMP JUMPDEST PUSH2 0xFC3 JUMP JUMPDEST PUSH1 0x40 MLOAD PUSH2 0x171 SWAP4 SWAP3 SWAP2 SWAP1 PUSH2 0x200D JUMP JUMPDEST PUSH2 0x14A PUSH2 0x2AF CALLDATASIZE PUSH1 0x4 PUSH2 0x1F28 JUMP JUMPDEST PUSH2 0x1072 JUMP JUMPDEST CALLVALUE DUP1 ISZERO PUSH2 0x2C0 JUMPI PUSH1 0x0 DUP1 REVERT JUMPDEST POP PUSH2 0x167 PUSH1 0x1 SLOAD DUP2 JUMP JUMPDEST CALLVALUE DUP1 ISZERO PUSH2 0x2D6 JUMPI PUSH1 0x0 DUP1 REVERT JUMPDEST POP PUSH2 0x14A PUSH2 0x2E5 CALLDATASIZE PUSH1 0x4 PUSH2 0x1C5A JUMP JUMPDEST PUSH2 0x14B2 JUMP JUMPDEST CALLVALUE DUP1 ISZERO PUSH2 0x2F6 JUMPI PUSH1 0x0 DUP1 REVERT JUMPDEST POP PUSH2 0x14A PUSH2 0x305 CALLDATASIZE PUSH1 0x4 PUSH2 0x1C76 JUMP JUMPDEST PUSH2 0x1569 JUMP JUMPDEST PUSH2 0x312 PUSH2 0x1717 JUMP JUMPDEST PUSH1 0x0 DUP2 GT PUSH2 0x3A2 JUMPI PUSH1 0x40 MLOAD PUSH32 0x8C379A000000000000000000000000000000000000000000000000000000000 DUP2 MSTORE PUSH1 0x20 PUSH1 0x4 DUP3 ADD MSTORE PUSH1 0x3E PUSH1 0x24 DUP3 ADD MSTORE PUSH32 0x53757065724C696E6B3A20466565206D757374206265206120706F7369746976 PUSH1 0x44 DUP3 ADD MSTORE PUSH32 0x65206E756D62657220616E642067726561746572207468616E207A65726F0000 PUSH1 0x64 DUP3 ADD MSTORE PUSH1 0x84 ADD PUSH2 0x141 JUMP JUMPDEST PUSH1 0x1 DUP2 SWAP1 SSTORE PUSH1 0x40 MLOAD DUP2 DUP2 MSTORE PUSH32 0xD8A1A03D14CF70B1537A82ECF286CF743B3D756D06D6C3279D312B9279CB36C4 SWAP1 PUSH1 0x20 ADD JUMPDEST PUSH1 0x40 MLOAD DUP1 SWAP2 SUB SWAP1 LOG1 POP JUMP JUMPDEST PUSH2 0x3E6 PUSH2 0x1717 JUMP JUMPDEST PUSH1 0x40 MLOAD PUSH32 0x70A0823100000000000000000000000000000000000000000000000000000000 DUP2 MSTORE ADDRESS PUSH1 0x4 DUP3 ADD MSTORE PUSH1 0x0 SWAP1 PUSH20 0xFFFFFFFFFFFFFFFFFFFFFFFFFFFFFFFFFFFFFFFF DUP4 AND SWAP1 PUSH4 0x70A08231 SWAP1 PUSH1 0x24 ADD PUSH1 0x20 PUSH1 0x40 MLOAD DUP1 DUP4 SUB DUP2 DUP7 DUP1 EXTCODESIZE ISZERO DUP1 ISZERO PUSH2 0x44E JUMPI PUSH1 0x0 DUP1 REVERT JUMPDEST POP GAS STATICCALL ISZERO DUP1 ISZERO PUSH2 0x462 JUMPI RETURNDATASIZE PUSH1 0x0 DUP1 RETURNDATACOPY RETURNDATASIZE PUSH1 0x0 REVERT JUMPDEST POP POP POP POP PUSH1 0x40 MLOAD RETURNDATASIZE PUSH1 0x1F NOT PUSH1 0x1F DUP3 ADD AND DUP3 ADD DUP1 PUSH1 0x40 MSTORE POP DUP2 ADD SWAP1 PUSH2 0x486 SWAP2 SWAP1 PUSH2 0x1DFA JUMP JUMPDEST SWAP1 POP SELFBALANCE DUP2 ISZERO PUSH2 0x571 JUMPI DUP3 PUSH20 0xFFFFFFFFFFFFFFFFFFFFFFFFFFFFFFFFFFFFFFFF AND PUSH4 0xA9059CBB PUSH2 0x4CA PUSH1 0x0 SLOAD PUSH20 0xFFFFFFFFFFFFFFFFFFFFFFFFFFFFFFFFFFFFFFFF AND SWAP1 JUMP JUMPDEST PUSH1 0x40 MLOAD PUSH32 0xFFFFFFFF00000000000000000000000000000000000000000000000000000000 PUSH1 0xE0 DUP5 SWAP1 SHL AND DUP2 MSTORE PUSH20 0xFFFFFFFFFFFFFFFFFFFFFFFFFFFFFFFFFFFFFFFF SWAP1 SWAP2 AND PUSH1 0x4 DUP3 ADD MSTORE PUSH1 0x24 DUP2 ADD DUP6 SWAP1 MSTORE PUSH1 0x44 ADD PUSH1 0x20 PUSH1 0x40 MLOAD DUP1 DUP4 SUB DUP2 PUSH1 0x0 DUP8 DUP1 EXTCODESIZE ISZERO DUP1 ISZERO PUSH2 0x537 JUMPI PUSH1 0x0 DUP1 REVERT JUMPDEST POP GAS CALL ISZERO DUP1 ISZERO PUSH2 0x54B JUMPI RETURNDATASIZE PUSH1 0x0 DUP1 RETURNDATACOPY RETURNDATASIZE PUSH1 0x0 REVERT JUMPDEST POP POP POP POP PUSH1 0x40 MLOAD RETURNDATASIZE PUSH1 0x1F NOT PUSH1 0x1F DUP3 ADD AND DUP3 ADD DUP1 PUSH1 0x40 MSTORE POP DUP2 ADD SWAP1 PUSH2 0x56F SWAP2 SWAP1 PUSH2 0x1CEB JUMP JUMPDEST POP JUMPDEST DUP1 ISZERO PUSH2 0x5BF JUMPI PUSH1 0x0 DUP1 SLOAD PUSH1 0x40 MLOAD PUSH20 0xFFFFFFFFFFFFFFFFFFFFFFFFFFFFFFFFFFFFFFFF SWAP1 SWAP2 AND SWAP2 DUP5 ISZERO PUSH2 0x8FC MUL SWAP2 DUP6 SWAP2 DUP2 DUP2 DUP2 DUP6 DUP9 DUP9 CALL SWAP4 POP POP POP POP ISZERO DUP1 ISZERO PUSH2 0x5BD JUMPI RETURNDATASIZE PUSH1 0x0 DUP1 RETURNDATACOPY RETURNDATASIZE PUSH1 0x0 REVERT JUMPDEST POP JUMPDEST POP POP POP JUMP JUMPDEST PUSH2 0x5CC PUSH2 0x1717 JUMP JUMPDEST PUSH2 0x5D6 PUSH1 0x0 PUSH2 0x1798 JUMP JUMPDEST JUMP JUMPDEST PUSH2 0x5E0 PUSH2 0x1717 JUMP JUMPDEST PUSH1 0x0 DUP2 GT PUSH2 0x670 JUMPI PUSH1 0x40 MLOAD PUSH32 0x8C379A000000000000000000000000000000000000000000000000000000000 DUP2 MSTORE PUSH1 0x20 PUSH1 0x4 DUP3 ADD MSTORE PUSH1 0x3E PUSH1 0x24 DUP3 ADD MSTORE PUSH32 0x53757065724C696E6B3A20466565206D757374206265206120706F7369746976 PUSH1 0x44 DUP3 ADD MSTORE PUSH32 0x65206E756D62657220616E642067726561746572207468616E207A65726F0000 PUSH1 0x64 DUP3 ADD MSTORE PUSH1 0x84 ADD PUSH2 0x141 JUMP JUMPDEST PUSH1 0x2 DUP2 SWAP1 SSTORE PUSH1 0x40 MLOAD DUP2 DUP2 MSTORE PUSH32 0xDC0410A296E1E33943A772020D333D5F99319D7FCAD932A484C53889F7AAA2B1 SWAP1 PUSH1 0x20 ADD PUSH2 0x3D3 JUMP JUMPDEST PUSH20 0xFFFFFFFFFFFFFFFFFFFFFFFFFFFFFFFFFFFFFFFF DUP6 AND PUSH2 0x72A JUMPI DUP6 CALLVALUE LT ISZERO PUSH2 0x72A JUMPI PUSH1 0x40 MLOAD PUSH32 0x8C379A000000000000000000000000000000000000000000000000000000000 DUP2 MSTORE PUSH1 0x20 PUSH1 0x4 DUP3 ADD MSTORE PUSH1 0x14 PUSH1 0x24 DUP3 ADD MSTORE PUSH32 0x4E6F7420656E6F75676820656666696369656E74000000000000000000000000 PUSH1 0x44 DUP3 ADD MSTORE PUSH1 0x64 ADD PUSH2 0x141 JUMP JUMPDEST PUSH1 0x0 DUP6 PUSH20 0xFFFFFFFFFFFFFFFFFFFFFFFFFFFFFFFFFFFFFFFF AND PUSH4 0x70A08231 DUP6 PUSH1 0x0 DUP2 MLOAD DUP2 LT PUSH2 0x782 JUMPI PUSH32 0x4E487B7100000000000000000000000000000000000000000000000000000000 PUSH1 0x0 MSTORE PUSH1 0x32 PUSH1 0x4 MSTORE PUSH1 0x24 PUSH1 0x0 REVERT JUMPDEST PUSH1 0x20 MUL PUSH1 0x20 ADD ADD MLOAD PUSH1 0x40 MLOAD DUP3 PUSH4 0xFFFFFFFF AND PUSH1 0xE0 SHL DUP2 MSTORE PUSH1 0x4 ADD PUSH2 0x7C2 SWAP2 SWAP1 PUSH20 0xFFFFFFFFFFFFFFFFFFFFFFFFFFFFFFFFFFFFFFFF SWAP2 SWAP1 SWAP2 AND DUP2 MSTORE PUSH1 0x20 ADD SWAP1 JUMP JUMPDEST PUSH1 0x20 PUSH1 0x40 MLOAD DUP1 DUP4 SUB DUP2 DUP7 DUP1 EXTCODESIZE ISZERO DUP1 ISZERO PUSH2 0x7DA JUMPI PUSH1 0x0 DUP1 REVERT JUMPDEST POP GAS STATICCALL ISZERO DUP1 ISZERO PUSH2 0x7EE JUMPI RETURNDATASIZE PUSH1 0x0 DUP1 RETURNDATACOPY RETURNDATASIZE PUSH1 0x0 REVERT JUMPDEST POP POP POP POP PUSH1 0x40 MLOAD RETURNDATASIZE PUSH1 0x1F NOT PUSH1 0x1F DUP3 ADD AND DUP3 ADD DUP1 PUSH1 0x40 MSTORE POP DUP2 ADD SWAP1 PUSH2 0x812 SWAP2 SWAP1 PUSH2 0x1DFA JUMP JUMPDEST PUSH1 0x40 MLOAD PUSH32 0x70A0823100000000000000000000000000000000000000000000000000000000 DUP2 MSTORE ADDRESS PUSH1 0x4 DUP3 ADD MSTORE SWAP1 SWAP2 POP PUSH1 0x0 SWAP1 PUSH20 0xFFFFFFFFFFFFFFFFFFFFFFFFFFFFFFFFFFFFFFFF DUP8 AND SWAP1 PUSH4 0x70A08231 SWAP1 PUSH1 0x24 ADD PUSH1 0x20 PUSH1 0x40 MLOAD DUP1 DUP4 SUB DUP2 DUP7 DUP1 EXTCODESIZE ISZERO DUP1 ISZERO PUSH2 0x87D JUMPI PUSH1 0x0 DUP1 REVERT JUMPDEST POP GAS STATICCALL ISZERO DUP1 ISZERO PUSH2 0x891 JUMPI RETURNDATASIZE PUSH1 0x0 DUP1 RETURNDATACOPY RETURNDATASIZE PUSH1 0x0 REVERT JUMPDEST POP POP POP POP PUSH1 0x40 MLOAD RETURNDATASIZE PUSH1 0x1F NOT PUSH1 0x1F DUP3 ADD AND DUP3 ADD DUP1 PUSH1 0x40 MSTORE POP DUP2 ADD SWAP1 PUSH2 0x8B5 SWAP2 SWAP1 PUSH2 0x1DFA JUMP JUMPDEST SWAP1 POP PUSH2 0x903 DUP8 DUP10 DUP8 PUSH1 0x0 DUP2 MLOAD DUP2 LT PUSH2 0x8F6 JUMPI PUSH32 0x4E487B7100000000000000000000000000000000000000000000000000000000 PUSH1 0x0 MSTORE PUSH1 0x32 PUSH1 0x4 MSTORE PUSH1 0x24 PUSH1 0x0 REVERT JUMPDEST PUSH1 0x20 MUL PUSH1 0x20 ADD ADD MLOAD PUSH2 0x180D JUMP JUMPDEST DUP5 MLOAD PUSH1 0x0 JUMPDEST DUP2 DUP2 LT ISZERO PUSH2 0xE1E JUMPI PUSH1 0x0 DUP7 DUP3 DUP2 MLOAD DUP2 LT PUSH2 0x94B JUMPI PUSH32 0x4E487B7100000000000000000000000000000000000000000000000000000000 PUSH1 0x0 MSTORE PUSH1 0x32 PUSH1 0x4 MSTORE PUSH1 0x24 PUSH1 0x0 REVERT JUMPDEST PUSH1 0x20 MUL PUSH1 0x20 ADD ADD MLOAD DUP1 PUSH1 0x20 ADD SWAP1 MLOAD DUP2 ADD SWAP1 PUSH2 0x966 SWAP2 SWAP1 PUSH2 0x1D07 JUMP JUMPDEST SWAP1 POP PUSH1 0x0 DUP2 PUSH1 0x0 ADD MLOAD PUSH20 0xFFFFFFFFFFFFFFFFFFFFFFFFFFFFFFFFFFFFFFFF AND PUSH4 0x70A08231 DUP11 DUP6 DUP2 MLOAD DUP2 LT PUSH2 0x9C3 JUMPI PUSH32 0x4E487B7100000000000000000000000000000000000000000000000000000000 PUSH1 0x0 MSTORE PUSH1 0x32 PUSH1 0x4 MSTORE PUSH1 0x24 PUSH1 0x0 REVERT JUMPDEST PUSH1 0x20 MUL PUSH1 0x20 ADD ADD MLOAD PUSH1 0x40 MLOAD DUP3 PUSH4 0xFFFFFFFF AND PUSH1 0xE0 SHL DUP2 MSTORE PUSH1 0x4 ADD PUSH2 0xA03 SWAP2 SWAP1 PUSH20 0xFFFFFFFFFFFFFFFFFFFFFFFFFFFFFFFFFFFFFFFF SWAP2 SWAP1 SWAP2 AND DUP2 MSTORE PUSH1 0x20 ADD SWAP1 JUMP JUMPDEST PUSH1 0x20 PUSH1 0x40 MLOAD DUP1 DUP4 SUB DUP2 DUP7 DUP1 EXTCODESIZE ISZERO DUP1 ISZERO PUSH2 0xA1B JUMPI PUSH1 0x0 DUP1 REVERT JUMPDEST POP GAS STATICCALL ISZERO DUP1 ISZERO PUSH2 0xA2F JUMPI RETURNDATASIZE PUSH1 0x0 DUP1 RETURNDATACOPY RETURNDATASIZE PUSH1 0x0 REVERT JUMPDEST POP POP POP POP PUSH1 0x40 MLOAD RETURNDATASIZE PUSH1 0x1F NOT PUSH1 0x1F DUP3 ADD AND DUP3 ADD DUP1 PUSH1 0x40 MSTORE POP DUP2 ADD SWAP1 PUSH2 0xA53 SWAP2 SWAP1 PUSH2 0x1DFA JUMP JUMPDEST SWAP1 POP PUSH1 0x0 PUSH2 0xA61 DUP8 DUP4 PUSH2 0x21EF JUMP JUMPDEST SWAP1 POP PUSH1 0x0 PUSH2 0xA70 PUSH1 0x1 DUP8 PUSH2 0x21EF JUMP JUMPDEST DUP6 EQ PUSH2 0xAC6 JUMPI DUP11 PUSH2 0xA82 DUP7 PUSH1 0x1 PUSH2 0x21D7 JUMP JUMPDEST DUP2 MLOAD DUP2 LT PUSH2 0xAB9 JUMPI PUSH32 0x4E487B7100000000000000000000000000000000000000000000000000000000 PUSH1 0x0 MSTORE PUSH1 0x32 PUSH1 0x4 MSTORE PUSH1 0x24 PUSH1 0x0 REVERT JUMPDEST PUSH1 0x20 MUL PUSH1 0x20 ADD ADD MLOAD PUSH2 0xAC8 JUMP JUMPDEST ADDRESS JUMPDEST SWAP1 POP PUSH2 0xAD5 PUSH1 0x1 DUP8 PUSH2 0x21EF JUMP JUMPDEST DUP6 EQ PUSH2 0xBD3 JUMPI PUSH1 0x20 DUP5 ADD MLOAD PUSH20 0xFFFFFFFFFFFFFFFFFFFFFFFFFFFFFFFFFFFFFFFF AND PUSH4 0x70A08231 DUP13 PUSH2 0xB07 DUP9 PUSH1 0x1 PUSH2 0x21D7 JUMP JUMPDEST DUP2 MLOAD DUP2 LT PUSH2 0xB3E JUMPI PUSH32 0x4E487B7100000000000000000000000000000000000000000000000000000000 PUSH1 0x0 MSTORE PUSH1 0x32 PUSH1 0x4 MSTORE PUSH1 0x24 PUSH1 0x0 REVERT JUMPDEST PUSH1 0x20 MUL PUSH1 0x20 ADD ADD MLOAD PUSH1 0x40 MLOAD DUP3 PUSH4 0xFFFFFFFF AND PUSH1 0xE0 SHL DUP2 MSTORE PUSH1 0x4 ADD PUSH2 0xB7E SWAP2 SWAP1 PUSH20 0xFFFFFFFFFFFFFFFFFFFFFFFFFFFFFFFFFFFFFFFF SWAP2 SWAP1 SWAP2 AND DUP2 MSTORE PUSH1 0x20 ADD SWAP1 JUMP JUMPDEST PUSH1 0x20 PUSH1 0x40 MLOAD DUP1 DUP4 SUB DUP2 DUP7 DUP1 EXTCODESIZE ISZERO DUP1 ISZERO PUSH2 0xB96 JUMPI PUSH1 0x0 DUP1 REVERT JUMPDEST POP GAS STATICCALL ISZERO DUP1 ISZERO PUSH2 0xBAA JUMPI RETURNDATASIZE PUSH1 0x0 DUP1 RETURNDATACOPY RETURNDATASIZE PUSH1 0x0 REVERT JUMPDEST POP POP POP POP PUSH1 0x40 MLOAD RETURNDATASIZE PUSH1 0x1F NOT PUSH1 0x1F DUP3 ADD AND DUP3 ADD DUP1 PUSH1 0x40 MSTORE POP DUP2 ADD SWAP1 PUSH2 0xBCE SWAP2 SWAP1 PUSH2 0x1DFA JUMP JUMPDEST PUSH2 0xBD6 JUMP JUMPDEST PUSH1 0x0 JUMPDEST SWAP8 POP PUSH1 0x0 DUP12 DUP7 DUP2 MLOAD DUP2 LT PUSH2 0xC13 JUMPI PUSH32 0x4E487B7100000000000000000000000000000000000000000000000000000000 PUSH1 0x0 MSTORE PUSH1 0x32 PUSH1 0x4 MSTORE PUSH1 0x24 PUSH1 0x0 REVERT JUMPDEST PUSH1 0x20 MUL PUSH1 0x20 ADD ADD MLOAD PUSH20 0xFFFFFFFFFFFFFFFFFFFFFFFFFFFFFFFFFFFFFFFF AND PUSH4 0x22C0D9F PUSH1 0xE0 SHL DUP5 DUP13 DUP10 DUP2 MLOAD DUP2 LT PUSH2 0xC73 JUMPI PUSH32 0x4E487B7100000000000000000000000000000000000000000000000000000000 PUSH1 0x0 MSTORE PUSH1 0x32 PUSH1 0x4 MSTORE PUSH1 0x24 PUSH1 0x0 REVERT JUMPDEST PUSH1 0x20 MUL PUSH1 0x20 ADD ADD MLOAD DUP6 DUP16 DUP12 DUP2 MLOAD DUP2 LT PUSH2 0xCB5 JUMPI PUSH32 0x4E487B7100000000000000000000000000000000000000000000000000000000 PUSH1 0x0 MSTORE PUSH1 0x32 PUSH1 0x4 MSTORE PUSH1 0x24 PUSH1 0x0 REVERT JUMPDEST PUSH1 0x20 MUL PUSH1 0x20 ADD ADD MLOAD PUSH1 0x40 MLOAD PUSH1 0x24 ADD PUSH2 0xCD0 SWAP5 SWAP4 SWAP3 SWAP2 SWAP1 PUSH2 0x20B0 JUMP JUMPDEST PUSH1 0x40 DUP1 MLOAD PUSH32 0xFFFFFFFFFFFFFFFFFFFFFFFFFFFFFFFFFFFFFFFFFFFFFFFFFFFFFFFFFFFFFFE0 DUP2 DUP5 SUB ADD DUP2 MSTORE SWAP2 DUP2 MSTORE PUSH1 0x20 DUP3 ADD DUP1 MLOAD PUSH28 0xFFFFFFFFFFFFFFFFFFFFFFFFFFFFFFFFFFFFFFFFFFFFFFFFFFFFFFFF AND PUSH32 0xFFFFFFFF00000000000000000000000000000000000000000000000000000000 SWAP1 SWAP5 AND SWAP4 SWAP1 SWAP4 OR SWAP1 SWAP3 MSTORE SWAP1 MLOAD PUSH2 0xD59 SWAP2 SWAP1 PUSH2 0x1FF1 JUMP JUMPDEST PUSH1 0x0 PUSH1 0x40 MLOAD DUP1 DUP4 SUB DUP2 PUSH1 0x0 DUP7 GAS CALL SWAP2 POP POP RETURNDATASIZE DUP1 PUSH1 0x0 DUP2 EQ PUSH2 0xD96 JUMPI PUSH1 0x40 MLOAD SWAP2 POP PUSH1 0x1F NOT PUSH1 0x3F RETURNDATASIZE ADD AND DUP3 ADD PUSH1 0x40 MSTORE RETURNDATASIZE DUP3 MSTORE RETURNDATASIZE PUSH1 0x0 PUSH1 0x20 DUP5 ADD RETURNDATACOPY PUSH2 0xD9B JUMP JUMPDEST PUSH1 0x60 SWAP2 POP JUMPDEST POP POP SWAP1 POP DUP1 PUSH2 0xE06 JUMPI PUSH1 0x40 MLOAD PUSH32 0x8C379A000000000000000000000000000000000000000000000000000000000 DUP2 MSTORE PUSH1 0x20 PUSH1 0x4 DUP3 ADD MSTORE PUSH1 0xB PUSH1 0x24 DUP3 ADD MSTORE PUSH32 0x6661696C65642063616C6C000000000000000000000000000000000000000000 PUSH1 0x44 DUP3 ADD MSTORE PUSH1 0x64 ADD PUSH2 0x141 JUMP JUMPDEST POP POP POP POP POP DUP1 DUP1 PUSH2 0xE16 SWAP1 PUSH2 0x2286 JUMP JUMPDEST SWAP2 POP POP PUSH2 0x908 JUMP JUMPDEST POP PUSH20 0xFFFFFFFFFFFFFFFFFFFFFFFFFFFFFFFFFFFFFFFF DUP8 AND PUSH2 0xEFD JUMPI PUSH1 0x4 DUP1 SLOAD PUSH1 0x40 MLOAD PUSH32 0x70A0823100000000000000000000000000000000000000000000000000000000 DUP2 MSTORE ADDRESS SWAP3 DUP2 ADD SWAP3 SWAP1 SWAP3 MSTORE PUSH1 0x0 SWAP2 DUP5 SWAP2 PUSH20 0xFFFFFFFFFFFFFFFFFFFFFFFFFFFFFFFFFFFFFFFF AND SWAP1 PUSH4 0x70A08231 SWAP1 PUSH1 0x24 ADD PUSH1 0x20 PUSH1 0x40 MLOAD DUP1 DUP4 SUB DUP2 DUP7 DUP1 EXTCODESIZE ISZERO DUP1 ISZERO PUSH2 0xEA9 JUMPI PUSH1 0x0 DUP1 REVERT JUMPDEST POP GAS STATICCALL ISZERO DUP1 ISZERO PUSH2 0xEBD JUMPI RETURNDATASIZE PUSH1 0x0 DUP1 RETURNDATACOPY RETURNDATASIZE PUSH1 0x0 REVERT JUMPDEST POP POP POP POP PUSH1 0x40 MLOAD RETURNDATASIZE PUSH1 0x1F NOT PUSH1 0x1F DUP3 ADD AND DUP3 ADD DUP1 PUSH1 0x40 MSTORE POP DUP2 ADD SWAP1 PUSH2 0xEE1 SWAP2 SWAP1 PUSH2 0x1DFA JUMP JUMPDEST PUSH2 0xEEB SWAP2 SWAP1 PUSH2 0x21EF JUMP JUMPDEST SWAP1 POP PUSH2 0xEF7 DUP2 CALLER PUSH2 0x19AA JUMP JUMPDEST POP PUSH2 0xFB8 JUMP JUMPDEST PUSH1 0x40 MLOAD PUSH32 0x70A0823100000000000000000000000000000000000000000000000000000000 DUP2 MSTORE ADDRESS PUSH1 0x4 DUP3 ADD MSTORE PUSH1 0x0 SWAP1 DUP4 SWAP1 PUSH20 0xFFFFFFFFFFFFFFFFFFFFFFFFFFFFFFFFFFFFFFFF DUP11 AND SWAP1 PUSH4 0x70A08231 SWAP1 PUSH1 0x24 ADD PUSH1 0x20 PUSH1 0x40 MLOAD DUP1 DUP4 SUB DUP2 DUP7 DUP1 EXTCODESIZE ISZERO DUP1 ISZERO PUSH2 0xF67 JUMPI PUSH1 0x0 DUP1 REVERT JUMPDEST POP GAS STATICCALL ISZERO DUP1 ISZERO PUSH2 0xF7B JUMPI RETURNDATASIZE PUSH1 0x0 DUP1 RETURNDATACOPY RETURNDATASIZE PUSH1 0x0 REVERT JUMPDEST POP POP POP POP PUSH1 0x40 MLOAD RETURNDATASIZE PUSH1 0x1F NOT PUSH1 0x1F DUP3 ADD AND DUP3 ADD DUP1 PUSH1 0x40 MSTORE POP DUP2 ADD SWAP1 PUSH2 0xF9F SWAP2 SWAP1 PUSH2 0x1DFA JUMP JUMPDEST PUSH2 0xFA9 SWAP2 SWAP1 PUSH2 0x21EF JUMP JUMPDEST SWAP1 POP PUSH2 0xFB6 DUP9 DUP3 CALLER PUSH2 0x1A23 JUMP JUMPDEST POP JUMPDEST POP POP POP POP POP POP POP POP POP JUMP JUMPDEST PUSH1 0x5 PUSH1 0x20 MSTORE PUSH1 0x0 SWAP1 DUP2 MSTORE PUSH1 0x40 SWAP1 KECCAK256 DUP1 SLOAD PUSH1 0x1 DUP3 ADD DUP1 SLOAD PUSH1 0xFF SWAP1 SWAP3 AND SWAP3 SWAP2 PUSH2 0xFE9 SWAP1 PUSH2 0x2232 JUMP JUMPDEST DUP1 PUSH1 0x1F ADD PUSH1 0x20 DUP1 SWAP2 DIV MUL PUSH1 0x20 ADD PUSH1 0x40 MLOAD SWAP1 DUP2 ADD PUSH1 0x40 MSTORE DUP1 SWAP3 SWAP2 SWAP1 DUP2 DUP2 MSTORE PUSH1 0x20 ADD DUP3 DUP1 SLOAD PUSH2 0x1015 SWAP1 PUSH2 0x2232 JUMP JUMPDEST DUP1 ISZERO PUSH2 0x1062 JUMPI DUP1 PUSH1 0x1F LT PUSH2 0x1037 JUMPI PUSH2 0x100 DUP1 DUP4 SLOAD DIV MUL DUP4 MSTORE SWAP2 PUSH1 0x20 ADD SWAP2 PUSH2 0x1062 JUMP JUMPDEST DUP3 ADD SWAP2 SWAP1 PUSH1 0x0 MSTORE PUSH1 0x20 PUSH1 0x0 KECCAK256 SWAP1 JUMPDEST DUP2 SLOAD DUP2 MSTORE SWAP1 PUSH1 0x1 ADD SWAP1 PUSH1 0x20 ADD DUP1 DUP4 GT PUSH2 0x1045 JUMPI DUP3 SWAP1 SUB PUSH1 0x1F AND DUP3 ADD SWAP2 JUMPDEST POP POP POP POP POP SWAP1 DUP1 PUSH1 0x2 ADD SLOAD SWAP1 POP DUP4 JUMP JUMPDEST PUSH20 0xFFFFFFFFFFFFFFFFFFFFFFFFFFFFFFFFFFFFFFFF DUP5 AND PUSH2 0x10F7 JUMPI DUP5 CALLVALUE LT ISZERO PUSH2 0x10F7 JUMPI PUSH1 0x40 MLOAD PUSH32 0x8C379A000000000000000000000000000000000000000000000000000000000 DUP2 MSTORE PUSH1 0x20 PUSH1 0x4 DUP3 ADD MSTORE PUSH1 0x14 PUSH1 0x24 DUP3 ADD MSTORE PUSH32 0x4E6F7420656E6F75676820656666696369656E74000000000000000000000000 PUSH1 0x44 DUP3 ADD MSTORE PUSH1 0x64 ADD PUSH2 0x141 JUMP JUMPDEST PUSH1 0x40 MLOAD PUSH32 0x70A0823100000000000000000000000000000000000000000000000000000000 DUP2 MSTORE ADDRESS PUSH1 0x4 DUP3 ADD MSTORE PUSH1 0x0 SWAP1 PUSH20 0xFFFFFFFFFFFFFFFFFFFFFFFFFFFFFFFFFFFFFFFF DUP6 AND SWAP1 PUSH4 0x70A08231 SWAP1 PUSH1 0x24 ADD PUSH1 0x20 PUSH1 0x40 MLOAD DUP1 DUP4 SUB DUP2 DUP7 DUP1 EXTCODESIZE ISZERO DUP1 ISZERO PUSH2 0x115F JUMPI PUSH1 0x0 DUP1 REVERT JUMPDEST POP GAS STATICCALL ISZERO DUP1 ISZERO PUSH2 0x1173 JUMPI RETURNDATASIZE PUSH1 0x0 DUP1 RETURNDATACOPY RETURNDATASIZE PUSH1 0x0 REVERT JUMPDEST POP POP POP POP PUSH1 0x40 MLOAD RETURNDATASIZE PUSH1 0x1F NOT PUSH1 0x1F DUP3 ADD AND DUP3 ADD DUP1 PUSH1 0x40 MSTORE POP DUP2 ADD SWAP1 PUSH2 0x1197 SWAP2 SWAP1 PUSH2 0x1DFA JUMP JUMPDEST SWAP1 POP PUSH2 0x11A4 DUP6 DUP8 DUP5 PUSH2 0x180D JUMP JUMPDEST PUSH1 0x0 DUP3 PUSH20 0xFFFFFFFFFFFFFFFFFFFFFFFFFFFFFFFFFFFFFFFF AND PUSH4 0x79532F14 PUSH1 0xE0 SHL DUP6 ADDRESS DUP9 PUSH1 0x40 MLOAD PUSH1 0x24 ADD PUSH2 0x11DA SWAP4 SWAP3 SWAP2 SWAP1 PUSH2 0x2038 JUMP JUMPDEST PUSH1 0x40 DUP1 MLOAD PUSH32 0xFFFFFFFFFFFFFFFFFFFFFFFFFFFFFFFFFFFFFFFFFFFFFFFFFFFFFFFFFFFFFFE0 DUP2 DUP5 SUB ADD DUP2 MSTORE SWAP2 DUP2 MSTORE PUSH1 0x20 DUP3 ADD DUP1 MLOAD PUSH28 0xFFFFFFFFFFFFFFFFFFFFFFFFFFFFFFFFFFFFFFFFFFFFFFFFFFFFFFFF AND PUSH32 0xFFFFFFFF00000000000000000000000000000000000000000000000000000000 SWAP1 SWAP5 AND SWAP4 SWAP1 SWAP4 OR SWAP1 SWAP3 MSTORE SWAP1 MLOAD PUSH2 0x1263 SWAP2 SWAP1 PUSH2 0x1FF1 JUMP JUMPDEST PUSH1 0x0 PUSH1 0x40 MLOAD DUP1 DUP4 SUB DUP2 PUSH1 0x0 DUP7 GAS CALL SWAP2 POP POP RETURNDATASIZE DUP1 PUSH1 0x0 DUP2 EQ PUSH2 0x12A0 JUMPI PUSH1 0x40 MLOAD SWAP2 POP PUSH1 0x1F NOT PUSH1 0x3F RETURNDATASIZE ADD AND DUP3 ADD PUSH1 0x40 MSTORE RETURNDATASIZE DUP3 MSTORE RETURNDATASIZE PUSH1 0x0 PUSH1 0x20 DUP5 ADD RETURNDATACOPY PUSH2 0x12A5 JUMP JUMPDEST PUSH1 0x60 SWAP2 POP JUMPDEST POP POP SWAP1 POP DUP1 PUSH2 0x1310 JUMPI PUSH1 0x40 MLOAD PUSH32 0x8C379A000000000000000000000000000000000000000000000000000000000 DUP2 MSTORE PUSH1 0x20 PUSH1 0x4 DUP3 ADD MSTORE PUSH1 0x6 PUSH1 0x24 DUP3 ADD MSTORE PUSH32 0x4661696C65640000000000000000000000000000000000000000000000000000 PUSH1 0x44 DUP3 ADD MSTORE PUSH1 0x64 ADD PUSH2 0x141 JUMP JUMPDEST PUSH20 0xFFFFFFFFFFFFFFFFFFFFFFFFFFFFFFFFFFFFFFFF DUP6 AND PUSH2 0x13EE JUMPI PUSH1 0x4 DUP1 SLOAD PUSH1 0x40 MLOAD PUSH32 0x70A0823100000000000000000000000000000000000000000000000000000000 DUP2 MSTORE ADDRESS SWAP3 DUP2 ADD SWAP3 SWAP1 SWAP3 MSTORE PUSH1 0x0 SWAP2 DUP5 SWAP2 PUSH20 0xFFFFFFFFFFFFFFFFFFFFFFFFFFFFFFFFFFFFFFFF AND SWAP1 PUSH4 0x70A08231 SWAP1 PUSH1 0x24 ADD PUSH1 0x20 PUSH1 0x40 MLOAD DUP1 DUP4 SUB DUP2 DUP7 DUP1 EXTCODESIZE ISZERO DUP1 ISZERO PUSH2 0x139A JUMPI PUSH1 0x0 DUP1 REVERT JUMPDEST POP GAS STATICCALL ISZERO DUP1 ISZERO PUSH2 0x13AE JUMPI RETURNDATASIZE PUSH1 0x0 DUP1 RETURNDATACOPY RETURNDATASIZE PUSH1 0x0 REVERT JUMPDEST POP POP POP POP PUSH1 0x40 MLOAD RETURNDATASIZE PUSH1 0x1F NOT PUSH1 0x1F DUP3 ADD AND DUP3 ADD DUP1 PUSH1 0x40 MSTORE POP DUP2 ADD SWAP1 PUSH2 0x13D2 SWAP2 SWAP1 PUSH2 0x1DFA JUMP JUMPDEST PUSH2 0x13DC SWAP2 SWAP1 PUSH2 0x21EF JUMP JUMPDEST SWAP1 POP PUSH2 0x13E8 DUP2 CALLER PUSH2 0x19AA JUMP JUMPDEST POP PUSH2 0x14A9 JUMP JUMPDEST PUSH1 0x40 MLOAD PUSH32 0x70A0823100000000000000000000000000000000000000000000000000000000 DUP2 MSTORE ADDRESS PUSH1 0x4 DUP3 ADD MSTORE PUSH1 0x0 SWAP1 DUP4 SWAP1 PUSH20 0xFFFFFFFFFFFFFFFFFFFFFFFFFFFFFFFFFFFFFFFF DUP9 AND SWAP1 PUSH4 0x70A08231 SWAP1 PUSH1 0x24 ADD PUSH1 0x20 PUSH1 0x40 MLOAD DUP1 DUP4 SUB DUP2 DUP7 DUP1 EXTCODESIZE ISZERO DUP1 ISZERO PUSH2 0x1458 JUMPI PUSH1 0x0 DUP1 REVERT JUMPDEST POP GAS STATICCALL ISZERO DUP1 ISZERO PUSH2 0x146C JUMPI RETURNDATASIZE PUSH1 0x0 DUP1 RETURNDATACOPY RETURNDATASIZE PUSH1 0x0 REVERT JUMPDEST POP POP POP POP PUSH1 0x40 MLOAD RETURNDATASIZE PUSH1 0x1F NOT PUSH1 0x1F DUP3 ADD AND DUP3 ADD DUP1 PUSH1 0x40 MSTORE POP DUP2 ADD SWAP1 PUSH2 0x1490 SWAP2 SWAP1 PUSH2 0x1DFA JUMP JUMPDEST PUSH2 0x149A SWAP2 SWAP1 PUSH2 0x21EF JUMP JUMPDEST SWAP1 POP PUSH2 0x14A7 DUP7 DUP3 CALLER PUSH2 0x1A23 JUMP JUMPDEST POP JUMPDEST POP POP POP POP POP POP POP JUMP JUMPDEST PUSH2 0x14BA PUSH2 0x1717 JUMP JUMPDEST PUSH20 0xFFFFFFFFFFFFFFFFFFFFFFFFFFFFFFFFFFFFFFFF DUP2 AND PUSH2 0x155D JUMPI PUSH1 0x40 MLOAD PUSH32 0x8C379A000000000000000000000000000000000000000000000000000000000 DUP2 MSTORE PUSH1 0x20 PUSH1 0x4 DUP3 ADD MSTORE PUSH1 0x26 PUSH1 0x24 DUP3 ADD MSTORE PUSH32 0x4F776E61626C653A206E6577206F776E657220697320746865207A65726F2061 PUSH1 0x44 DUP3 ADD MSTORE PUSH32 0x6464726573730000000000000000000000000000000000000000000000000000 PUSH1 0x64 DUP3 ADD MSTORE PUSH1 0x84 ADD PUSH2 0x141 JUMP JUMPDEST PUSH2 0x1566 DUP2 PUSH2 0x1798 JUMP JUMPDEST POP JUMP JUMPDEST PUSH2 0x1571 PUSH2 0x1717 JUMP JUMPDEST PUSH20 0xFFFFFFFFFFFFFFFFFFFFFFFFFFFFFFFFFFFFFFFF DUP4 AND PUSH1 0x0 SWAP1 DUP2 MSTORE PUSH1 0x5 PUSH1 0x20 MSTORE PUSH1 0x40 SWAP1 KECCAK256 DUP2 PUSH2 0x1691 JUMPI DUP1 SLOAD PUSH1 0xFF AND PUSH2 0x162C JUMPI PUSH1 0x40 MLOAD PUSH32 0x8C379A000000000000000000000000000000000000000000000000000000000 DUP2 MSTORE PUSH1 0x20 PUSH1 0x4 DUP3 ADD MSTORE PUSH1 0x23 PUSH1 0x24 DUP3 ADD MSTORE PUSH32 0x53757065724C696E6B3A20506172746E657220616C7265616479206465616374 PUSH1 0x44 DUP3 ADD MSTORE PUSH32 0x6976650000000000000000000000000000000000000000000000000000000000 PUSH1 0x64 DUP3 ADD MSTORE PUSH1 0x84 ADD PUSH2 0x141 JUMP JUMPDEST DUP1 SLOAD PUSH32 0xFFFFFFFFFFFFFFFFFFFFFFFFFFFFFFFFFFFFFFFFFFFFFFFFFFFFFFFFFFFFFF00 AND DUP2 SSTORE PUSH1 0x40 MLOAD PUSH32 0xA21850025DAABC70FE4A4D95CB5FF2B0220D335C70EC66EC912B3846F17368DD SWAP1 PUSH2 0x1684 SWAP1 DUP6 SWAP1 DUP8 SWAP1 PUSH2 0x2078 JUMP JUMPDEST PUSH1 0x40 MLOAD DUP1 SWAP2 SUB SWAP1 LOG1 PUSH2 0x5BD JUMP JUMPDEST DUP1 SLOAD PUSH32 0xFFFFFFFFFFFFFFFFFFFFFFFFFFFFFFFFFFFFFFFFFFFFFFFFFFFFFFFFFFFFFF00 AND DUP3 ISZERO ISZERO OR DUP2 SSTORE DUP3 MLOAD PUSH2 0x16D0 SWAP1 PUSH1 0x1 DUP4 ADD SWAP1 PUSH1 0x20 DUP7 ADD SWAP1 PUSH2 0x1A73 JUMP JUMPDEST POP TIMESTAMP PUSH1 0x2 DUP3 ADD SSTORE PUSH1 0x40 MLOAD PUSH32 0xEF384E7F5414FFFF90018F9AB6C0621F523B5B11D1D17A831CC331BAF00E26F7 SWAP1 PUSH2 0x1709 SWAP1 DUP6 SWAP1 DUP8 SWAP1 PUSH2 0x2078 JUMP JUMPDEST PUSH1 0x40 MLOAD DUP1 SWAP2 SUB SWAP1 LOG1 POP POP POP POP JUMP JUMPDEST PUSH1 0x0 SLOAD PUSH20 0xFFFFFFFFFFFFFFFFFFFFFFFFFFFFFFFFFFFFFFFF AND CALLER EQ PUSH2 0x5D6 JUMPI PUSH1 0x40 MLOAD PUSH32 0x8C379A000000000000000000000000000000000000000000000000000000000 DUP2 MSTORE PUSH1 0x20 PUSH1 0x4 DUP3 ADD DUP2 SWAP1 MSTORE PUSH1 0x24 DUP3 ADD MSTORE PUSH32 0x4F776E61626C653A2063616C6C6572206973206E6F7420746865206F776E6572 PUSH1 0x44 DUP3 ADD MSTORE PUSH1 0x64 ADD PUSH2 0x141 JUMP JUMPDEST PUSH1 0x0 DUP1 SLOAD PUSH20 0xFFFFFFFFFFFFFFFFFFFFFFFFFFFFFFFFFFFFFFFF DUP4 DUP2 AND PUSH32 0xFFFFFFFFFFFFFFFFFFFFFFFF0000000000000000000000000000000000000000 DUP4 AND DUP2 OR DUP5 SSTORE PUSH1 0x40 MLOAD SWAP2 SWAP1 SWAP3 AND SWAP3 DUP4 SWAP2 PUSH32 0x8BE0079C531659141344CD1FD0A4F28419497F9722A3DAAFE3B4186F6B6457E0 SWAP2 SWAP1 LOG3 POP POP JUMP JUMPDEST PUSH2 0x186A JUMP JUMPDEST RETURNDATASIZE PUSH1 0x0 DUP1 RETURNDATACOPY RETURNDATASIZE PUSH1 0x0 REVERT JUMPDEST PUSH32 0x8C379A000000000000000000000000000000000000000000000000000000000 PUSH1 0x0 MSTORE PUSH29 0x2000000000000000000000000000000000000000000000000000000000 PUSH1 0x20 MSTORE DUP1 PUSH1 0x40 MSTORE DUP2 PUSH1 0x0 REVERT JUMPDEST PUSH1 0x40 MLOAD PUSH1 0xC0 DUP2 ADD PUSH1 0x40 MSTORE DUP4 PUSH1 0x0 DUP2 EQ PUSH2 0x18FC JUMPI CALLVALUE ISZERO PUSH2 0x18AB JUMPI PUSH2 0x18AB PUSH1 0x55 PUSH29 0x11696E76616C6964206D73672E76616C75650000000000000000000000 PUSH2 0x181C JUMP JUMPDEST PUSH32 0x23B872DD00000000000000000000000000000000000000000000000000000000 DUP3 MSTORE CALLER PUSH1 0x4 DUP4 ADD MSTORE DUP3 PUSH1 0x24 DUP4 ADD MSTORE DUP4 PUSH1 0x44 DUP4 ADD MSTORE PUSH1 0x0 DUP1 PUSH1 0x64 DUP5 PUSH1 0x0 DUP10 GAS CALL PUSH2 0x18F7 JUMPI PUSH2 0x18F7 PUSH2 0x1812 JUMP JUMPDEST PUSH2 0x19A3 JUMP JUMPDEST PUSH32 0xD0E30DB000000000000000000000000000000000000000000000000000000000 DUP3 MSTORE PUSH1 0x0 DUP1 PUSH1 0x4 DUP5 DUP8 PUSH20 0xAE13D989DAC2F0DEBFF460AC112A837C89BAA7CD GAS CALL PUSH2 0x1949 JUMPI PUSH2 0x1949 PUSH2 0x1812 JUMP JUMPDEST PUSH32 0xA9059CBB00000000000000000000000000000000000000000000000000000000 DUP3 MSTORE DUP3 PUSH1 0x4 DUP4 ADD MSTORE DUP4 PUSH1 0x24 DUP4 ADD MSTORE PUSH1 0x0 DUP1 PUSH1 0x44 DUP5 PUSH1 0x0 PUSH20 0xAE13D989DAC2F0DEBFF460AC112A837C89BAA7CD GAS CALL PUSH2 0x19A3 JUMPI PUSH2 0x19A3 PUSH2 0x1812 JUMP JUMPDEST POP POP POP POP POP JUMP JUMPDEST PUSH1 0x40 MLOAD PUSH1 0xC0 DUP2 ADD PUSH1 0x40 MSTORE PUSH32 0x2E1A7D4D00000000000000000000000000000000000000000000000000000000 DUP2 MSTORE DUP3 PUSH1 0x4 DUP3 ADD MSTORE PUSH1 0x0 DUP1 PUSH1 0x24 DUP4 PUSH1 0x0 PUSH20 0xAE13D989DAC2F0DEBFF460AC112A837C89BAA7CD GAS CALL PUSH2 0x1A08 JUMPI PUSH2 0x1A08 PUSH2 0x1812 JUMP JUMPDEST POP PUSH1 0x0 DUP1 PUSH1 0x0 DUP1 DUP6 DUP6 GAS CALL PUSH2 0x1A1F JUMPI PUSH2 0x1A1F PUSH2 0x1812 JUMP JUMPDEST POP POP JUMP JUMPDEST PUSH1 0x40 MLOAD PUSH1 0xC0 DUP2 ADD PUSH1 0x40 MSTORE PUSH32 0xA9059CBB00000000000000000000000000000000000000000000000000000000 DUP2 MSTORE DUP2 PUSH1 0x4 DUP3 ADD MSTORE DUP3 PUSH1 0x24 DUP3 ADD MSTORE PUSH1 0x0 DUP1 PUSH1 0x44 DUP4 PUSH1 0x0 DUP9 GAS CALL PUSH2 0x5BD JUMPI PUSH2 0x5BD PUSH2 0x1812 JUMP JUMPDEST DUP3 DUP1 SLOAD PUSH2 0x1A7F SWAP1 PUSH2 0x2232 JUMP JUMPDEST SWAP1 PUSH1 0x0 MSTORE PUSH1 0x20 PUSH1 0x0 KECCAK256 SWAP1 PUSH1 0x1F ADD PUSH1 0x20 SWAP1 DIV DUP2 ADD SWAP3 DUP3 PUSH2 0x1AA1 JUMPI PUSH1 0x0 DUP6 SSTORE PUSH2 0x1AE7 JUMP JUMPDEST DUP3 PUSH1 0x1F LT PUSH2 0x1ABA JUMPI DUP1 MLOAD PUSH1 0xFF NOT AND DUP4 DUP1 ADD OR DUP6 SSTORE PUSH2 0x1AE7 JUMP JUMPDEST DUP3 DUP1 ADD PUSH1 0x1 ADD DUP6 SSTORE DUP3 ISZERO PUSH2 0x1AE7 JUMPI SWAP2 DUP3 ADD JUMPDEST DUP3 DUP2 GT ISZERO PUSH2 0x1AE7 JUMPI DUP3 MLOAD DUP3 SSTORE SWAP2 PUSH1 0x20 ADD SWAP2 SWAP1 PUSH1 0x1 ADD SWAP1 PUSH2 0x1ACC JUMP JUMPDEST POP PUSH2 0x1AF3 SWAP3 SWAP2 POP PUSH2 0x1AF7 JUMP JUMPDEST POP SWAP1 JUMP JUMPDEST JUMPDEST DUP1 DUP3 GT ISZERO PUSH2 0x1AF3 JUMPI PUSH1 0x0 DUP2 SSTORE PUSH1 0x1 ADD PUSH2 0x1AF8 JUMP JUMPDEST PUSH1 0x0 PUSH2 0x1B1F PUSH2 0x1B1A DUP5 PUSH2 0x2191 JUMP JUMPDEST PUSH2 0x211E JUMP JUMPDEST SWAP1 POP DUP3 DUP2 MSTORE DUP4 DUP4 DUP4 ADD GT ISZERO PUSH2 0x1B33 JUMPI PUSH1 0x0 DUP1 REVERT JUMPDEST DUP3 DUP3 PUSH1 0x20 DUP4 ADD CALLDATACOPY PUSH1 0x0 PUSH1 0x20 DUP5 DUP4 ADD ADD MSTORE SWAP4 SWAP3 POP POP POP JUMP JUMPDEST PUSH1 0x0 DUP3 PUSH1 0x1F DUP4 ADD SLT PUSH2 0x1B5A JUMPI DUP1 DUP2 REVERT JUMPDEST DUP2 CALLDATALOAD PUSH1 0x20 PUSH2 0x1B6A PUSH2 0x1B1A DUP4 PUSH2 0x216D JUMP JUMPDEST DUP1 DUP4 DUP3 MSTORE DUP3 DUP3 ADD SWAP2 POP DUP3 DUP7 ADD DUP8 DUP5 DUP7 PUSH1 0x5 SHL DUP10 ADD ADD GT ISZERO PUSH2 0x1B89 JUMPI DUP6 DUP7 REVERT JUMPDEST DUP6 JUMPDEST DUP6 DUP2 LT ISZERO PUSH2 0x1BCA JUMPI DUP2 CALLDATALOAD PUSH8 0xFFFFFFFFFFFFFFFF DUP2 GT ISZERO PUSH2 0x1BA9 JUMPI DUP8 DUP9 REVERT JUMPDEST PUSH2 0x1BB7 DUP11 DUP8 DUP4 DUP13 ADD ADD PUSH2 0x1C34 JUMP JUMPDEST DUP6 MSTORE POP SWAP3 DUP5 ADD SWAP3 SWAP1 DUP5 ADD SWAP1 PUSH1 0x1 ADD PUSH2 0x1B8B JUMP JUMPDEST POP SWAP1 SWAP8 SWAP7 POP POP POP POP POP POP POP JUMP JUMPDEST PUSH1 0x0 DUP3 PUSH1 0x1F DUP4 ADD SLT PUSH2 0x1BE7 JUMPI DUP1 DUP2 REVERT JUMPDEST DUP2 CALLDATALOAD PUSH1 0x20 PUSH2 0x1BF7 PUSH2 0x1B1A DUP4 PUSH2 0x216D JUMP JUMPDEST DUP1 DUP4 DUP3 MSTORE DUP3 DUP3 ADD SWAP2 POP DUP3 DUP7 ADD DUP8 DUP5 DUP7 PUSH1 0x5 SHL DUP10 ADD ADD GT ISZERO PUSH2 0x1C16 JUMPI DUP6 DUP7 REVERT JUMPDEST DUP6 JUMPDEST DUP6 DUP2 LT ISZERO PUSH2 0x1BCA JUMPI DUP2 CALLDATALOAD DUP5 MSTORE SWAP3 DUP5 ADD SWAP3 SWAP1 DUP5 ADD SWAP1 PUSH1 0x1 ADD PUSH2 0x1C18 JUMP JUMPDEST PUSH1 0x0 DUP3 PUSH1 0x1F DUP4 ADD SLT PUSH2 0x1C44 JUMPI DUP1 DUP2 REVERT JUMPDEST PUSH2 0x1C53 DUP4 DUP4 CALLDATALOAD PUSH1 0x20 DUP6 ADD PUSH2 0x1B0C JUMP JUMPDEST SWAP4 SWAP3 POP POP POP JUMP JUMPDEST PUSH1 0x0 PUSH1 0x20 DUP3 DUP5 SUB SLT ISZERO PUSH2 0x1C6B JUMPI DUP1 DUP2 REVERT JUMPDEST DUP2 CALLDATALOAD PUSH2 0x1C53 DUP2 PUSH2 0x231D JUMP JUMPDEST PUSH1 0x0 DUP1 PUSH1 0x0 PUSH1 0x60 DUP5 DUP7 SUB SLT ISZERO PUSH2 0x1C8A JUMPI DUP2 DUP3 REVERT JUMPDEST DUP4 CALLDATALOAD PUSH2 0x1C95 DUP2 PUSH2 0x231D JUMP JUMPDEST SWAP3 POP PUSH1 0x20 DUP5 ADD CALLDATALOAD PUSH8 0xFFFFFFFFFFFFFFFF DUP2 GT ISZERO PUSH2 0x1CB0 JUMPI DUP3 DUP4 REVERT JUMPDEST DUP5 ADD PUSH1 0x1F DUP2 ADD DUP7 SGT PUSH2 0x1CC0 JUMPI DUP3 DUP4 REVERT JUMPDEST PUSH2 0x1CCF DUP7 DUP3 CALLDATALOAD PUSH1 0x20 DUP5 ADD PUSH2 0x1B0C JUMP JUMPDEST SWAP3 POP POP PUSH1 0x40 DUP5 ADD CALLDATALOAD PUSH2 0x1CE0 DUP2 PUSH2 0x233F JUMP JUMPDEST DUP1 SWAP2 POP POP SWAP3 POP SWAP3 POP SWAP3 JUMP JUMPDEST PUSH1 0x0 PUSH1 0x20 DUP3 DUP5 SUB SLT ISZERO PUSH2 0x1CFC JUMPI DUP1 DUP2 REVERT JUMPDEST DUP2 MLOAD PUSH2 0x1C53 DUP2 PUSH2 0x233F JUMP JUMPDEST PUSH1 0x0 PUSH1 0x20 DUP1 DUP4 DUP6 SUB SLT ISZERO PUSH2 0x1D19 JUMPI DUP2 DUP3 REVERT JUMPDEST DUP3 MLOAD PUSH8 0xFFFFFFFFFFFFFFFF DUP1 DUP3 GT ISZERO PUSH2 0x1D30 JUMPI DUP4 DUP5 REVERT JUMPDEST SWAP1 DUP5 ADD SWAP1 PUSH1 0x80 DUP3 DUP8 SUB SLT ISZERO PUSH2 0x1D43 JUMPI DUP4 DUP5 REVERT JUMPDEST PUSH2 0x1D4B PUSH2 0x20F5 JUMP JUMPDEST DUP3 MLOAD PUSH2 0x1D56 DUP2 PUSH2 0x231D JUMP JUMPDEST DUP2 MSTORE DUP3 DUP5 ADD MLOAD PUSH2 0x1D65 DUP2 PUSH2 0x231D JUMP JUMPDEST DUP2 DUP6 ADD MSTORE PUSH1 0x40 DUP4 ADD MLOAD PUSH2 0x1D77 DUP2 PUSH2 0x231D JUMP JUMPDEST PUSH1 0x40 DUP3 ADD MSTORE PUSH1 0x60 DUP4 ADD MLOAD DUP3 DUP2 GT ISZERO PUSH2 0x1D8D JUMPI DUP6 DUP7 REVERT JUMPDEST DUP1 DUP5 ADD SWAP4 POP POP DUP7 PUSH1 0x1F DUP5 ADD SLT PUSH2 0x1DA1 JUMPI DUP5 DUP6 REVERT JUMPDEST DUP3 MLOAD SWAP2 POP PUSH2 0x1DB1 PUSH2 0x1B1A DUP4 PUSH2 0x2191 JUMP JUMPDEST DUP3 DUP2 MSTORE DUP8 DUP6 DUP5 DUP7 ADD ADD GT ISZERO PUSH2 0x1DC4 JUMPI DUP6 DUP7 REVERT JUMPDEST PUSH2 0x1DD3 DUP4 DUP7 DUP4 ADD DUP8 DUP8 ADD PUSH2 0x2206 JUMP JUMPDEST PUSH1 0x60 DUP3 ADD MSTORE SWAP7 SWAP6 POP POP POP POP POP POP JUMP JUMPDEST PUSH1 0x0 PUSH1 0x20 DUP3 DUP5 SUB SLT ISZERO PUSH2 0x1DF3 JUMPI DUP1 DUP2 REVERT JUMPDEST POP CALLDATALOAD SWAP2 SWAP1 POP JUMP JUMPDEST PUSH1 0x0 PUSH1 0x20 DUP3 DUP5 SUB SLT ISZERO PUSH2 0x1E0B JUMPI DUP1 DUP2 REVERT JUMPDEST POP MLOAD SWAP2 SWAP1 POP JUMP JUMPDEST PUSH1 0x0 DUP1 PUSH1 0x0 DUP1 PUSH1 0x0 DUP1 PUSH1 0xC0 DUP8 DUP10 SUB SLT ISZERO PUSH2 0x1E2A JUMPI DUP4 DUP5 REVERT JUMPDEST DUP7 CALLDATALOAD SWAP6 POP PUSH1 0x20 DUP1 DUP9 ADD CALLDATALOAD PUSH2 0x1E3D DUP2 PUSH2 0x231D JUMP JUMPDEST SWAP6 POP PUSH1 0x40 DUP9 ADD CALLDATALOAD PUSH2 0x1E4D DUP2 PUSH2 0x231D JUMP JUMPDEST SWAP5 POP PUSH1 0x60 DUP9 ADD CALLDATALOAD PUSH8 0xFFFFFFFFFFFFFFFF DUP1 DUP3 GT ISZERO PUSH2 0x1E69 JUMPI DUP5 DUP6 REVERT JUMPDEST DUP2 DUP11 ADD SWAP2 POP DUP11 PUSH1 0x1F DUP4 ADD SLT PUSH2 0x1E7C JUMPI DUP5 DUP6 REVERT JUMPDEST DUP2 CALLDATALOAD PUSH2 0x1E8A PUSH2 0x1B1A DUP3 PUSH2 0x216D JUMP JUMPDEST DUP1 DUP3 DUP3 MSTORE DUP6 DUP3 ADD SWAP2 POP DUP6 DUP6 ADD DUP15 DUP8 DUP6 PUSH1 0x5 SHL DUP9 ADD ADD GT ISZERO PUSH2 0x1EA9 JUMPI DUP9 DUP10 REVERT JUMPDEST DUP9 SWAP6 POP JUMPDEST DUP4 DUP7 LT ISZERO PUSH2 0x1ED4 JUMPI DUP1 CALLDATALOAD PUSH2 0x1EC0 DUP2 PUSH2 0x231D JUMP JUMPDEST DUP4 MSTORE PUSH1 0x1 SWAP6 SWAP1 SWAP6 ADD SWAP5 SWAP2 DUP7 ADD SWAP2 DUP7 ADD PUSH2 0x1EAD JUMP JUMPDEST POP SWAP8 POP POP POP PUSH1 0x80 DUP11 ADD CALLDATALOAD SWAP3 POP DUP1 DUP4 GT ISZERO PUSH2 0x1EEC JUMPI DUP5 DUP6 REVERT JUMPDEST PUSH2 0x1EF8 DUP12 DUP5 DUP13 ADD PUSH2 0x1B4A JUMP JUMPDEST SWAP5 POP PUSH1 0xA0 DUP11 ADD CALLDATALOAD SWAP3 POP DUP1 DUP4 GT ISZERO PUSH2 0x1F0D JUMPI DUP4 DUP5 REVERT JUMPDEST POP POP PUSH2 0x1F1B DUP10 DUP3 DUP11 ADD PUSH2 0x1BD7 JUMP JUMPDEST SWAP2 POP POP SWAP3 SWAP6 POP SWAP3 SWAP6 POP SWAP3 SWAP6 JUMP JUMPDEST PUSH1 0x0 DUP1 PUSH1 0x0 DUP1 PUSH1 0x0 PUSH1 0xA0 DUP7 DUP9 SUB SLT ISZERO PUSH2 0x1F3F JUMPI DUP3 DUP4 REVERT JUMPDEST DUP6 CALLDATALOAD SWAP5 POP PUSH1 0x20 DUP7 ADD CALLDATALOAD PUSH2 0x1F51 DUP2 PUSH2 0x231D JUMP JUMPDEST SWAP4 POP PUSH1 0x40 DUP7 ADD CALLDATALOAD PUSH2 0x1F61 DUP2 PUSH2 0x231D JUMP JUMPDEST SWAP3 POP PUSH1 0x60 DUP7 ADD CALLDATALOAD PUSH8 0xFFFFFFFFFFFFFFFF DUP2 GT ISZERO PUSH2 0x1F7C JUMPI DUP2 DUP3 REVERT JUMPDEST PUSH2 0x1F88 DUP9 DUP3 DUP10 ADD PUSH2 0x1C34 JUMP JUMPDEST SWAP3 POP POP PUSH1 0x80 DUP7 ADD CALLDATALOAD PUSH2 0x1F99 DUP2 PUSH2 0x231D JUMP JUMPDEST DUP1 SWAP2 POP POP SWAP3 SWAP6 POP SWAP3 SWAP6 SWAP1 SWAP4 POP JUMP JUMPDEST PUSH1 0x0 DUP2 MLOAD DUP1 DUP5 MSTORE PUSH2 0x1FBF DUP2 PUSH1 0x20 DUP7 ADD PUSH1 0x20 DUP7 ADD PUSH2 0x2206 JUMP JUMPDEST PUSH1 0x1F ADD PUSH32 0xFFFFFFFFFFFFFFFFFFFFFFFFFFFFFFFFFFFFFFFFFFFFFFFFFFFFFFFFFFFFFFE0 AND SWAP3 SWAP1 SWAP3 ADD PUSH1 0x20 ADD SWAP3 SWAP2 POP POP JUMP JUMPDEST PUSH1 0x0 DUP3 MLOAD PUSH2 0x2003 DUP2 DUP5 PUSH1 0x20 DUP8 ADD PUSH2 0x2206 JUMP JUMPDEST SWAP2 SWAP1 SWAP2 ADD SWAP3 SWAP2 POP POP JUMP JUMPDEST DUP4 ISZERO ISZERO DUP2 MSTORE PUSH1 0x60 PUSH1 0x20 DUP3 ADD MSTORE PUSH1 0x0 PUSH2 0x2028 PUSH1 0x60 DUP4 ADD DUP6 PUSH2 0x1FA7 JUMP JUMPDEST SWAP1 POP DUP3 PUSH1 0x40 DUP4 ADD MSTORE SWAP5 SWAP4 POP POP POP POP JUMP JUMPDEST PUSH1 0x60 DUP2 MSTORE PUSH1 0x0 PUSH2 0x204B PUSH1 0x60 DUP4 ADD DUP7 PUSH2 0x1FA7 JUMP JUMPDEST PUSH20 0xFFFFFFFFFFFFFFFFFFFFFFFFFFFFFFFFFFFFFFFF SWAP5 DUP6 AND PUSH1 0x20 DUP5 ADD MSTORE SWAP3 SWAP1 SWAP4 AND PUSH1 0x40 SWAP1 SWAP2 ADD MSTORE SWAP3 SWAP2 POP POP JUMP JUMPDEST PUSH1 0x40 DUP2 MSTORE PUSH1 0x0 PUSH2 0x208B PUSH1 0x40 DUP4 ADD DUP6 PUSH2 0x1FA7 JUMP JUMPDEST SWAP1 POP PUSH20 0xFFFFFFFFFFFFFFFFFFFFFFFFFFFFFFFFFFFFFFFF DUP4 AND PUSH1 0x20 DUP4 ADD MSTORE SWAP4 SWAP3 POP POP POP JUMP JUMPDEST DUP5 DUP2 MSTORE DUP4 PUSH1 0x20 DUP3 ADD MSTORE PUSH20 0xFFFFFFFFFFFFFFFFFFFFFFFFFFFFFFFFFFFFFFFF DUP4 AND PUSH1 0x40 DUP3 ADD MSTORE PUSH1 0x80 PUSH1 0x60 DUP3 ADD MSTORE PUSH1 0x0 PUSH2 0x20EB PUSH1 0x80 DUP4 ADD DUP5 PUSH2 0x1FA7 JUMP JUMPDEST SWAP7 SWAP6 POP POP POP POP POP POP JUMP JUMPDEST PUSH1 0x40 MLOAD PUSH1 0x80 DUP2 ADD PUSH8 0xFFFFFFFFFFFFFFFF DUP2 GT DUP3 DUP3 LT OR ISZERO PUSH2 0x2118 JUMPI PUSH2 0x2118 PUSH2 0x22EE JUMP JUMPDEST PUSH1 0x40 MSTORE SWAP1 JUMP JUMPDEST PUSH1 0x40 MLOAD PUSH1 0x1F DUP3 ADD PUSH32 0xFFFFFFFFFFFFFFFFFFFFFFFFFFFFFFFFFFFFFFFFFFFFFFFFFFFFFFFFFFFFFFE0 AND DUP2 ADD PUSH8 0xFFFFFFFFFFFFFFFF DUP2 GT DUP3 DUP3 LT OR ISZERO PUSH2 0x2165 JUMPI PUSH2 0x2165 PUSH2 0x22EE JUMP JUMPDEST PUSH1 0x40 MSTORE SWAP2 SWAP1 POP JUMP JUMPDEST PUSH1 0x0 PUSH8 0xFFFFFFFFFFFFFFFF DUP3 GT ISZERO PUSH2 0x2187 JUMPI PUSH2 0x2187 PUSH2 0x22EE JUMP JUMPDEST POP PUSH1 0x5 SHL PUSH1 0x20 ADD SWAP1 JUMP JUMPDEST PUSH1 0x0 PUSH8 0xFFFFFFFFFFFFFFFF DUP3 GT ISZERO PUSH2 0x21AB JUMPI PUSH2 0x21AB PUSH2 0x22EE JUMP JUMPDEST POP PUSH1 0x1F ADD PUSH32 0xFFFFFFFFFFFFFFFFFFFFFFFFFFFFFFFFFFFFFFFFFFFFFFFFFFFFFFFFFFFFFFE0 AND PUSH1 0x20 ADD SWAP1 JUMP JUMPDEST PUSH1 0x0 DUP3 NOT DUP3 GT ISZERO PUSH2 0x21EA JUMPI PUSH2 0x21EA PUSH2 0x22BF JUMP JUMPDEST POP ADD SWAP1 JUMP JUMPDEST PUSH1 0x0 DUP3 DUP3 LT ISZERO PUSH2 0x2201 JUMPI PUSH2 0x2201 PUSH2 0x22BF JUMP JUMPDEST POP SUB SWAP1 JUMP JUMPDEST PUSH1 0x0 JUMPDEST DUP4 DUP2 LT ISZERO PUSH2 0x2221 JUMPI DUP2 DUP2 ADD MLOAD DUP4 DUP3 ADD MSTORE PUSH1 0x20 ADD PUSH2 0x2209 JUMP JUMPDEST DUP4 DUP2 GT ISZERO PUSH2 0x5BD JUMPI POP POP PUSH1 0x0 SWAP2 ADD MSTORE JUMP JUMPDEST PUSH1 0x1 DUP2 DUP2 SHR SWAP1 DUP3 AND DUP1 PUSH2 0x2246 JUMPI PUSH1 0x7F DUP3 AND SWAP2 POP JUMPDEST PUSH1 0x20 DUP3 LT DUP2 EQ ISZERO PUSH2 0x2280 JUMPI PUSH32 0x4E487B7100000000000000000000000000000000000000000000000000000000 PUSH1 0x0 MSTORE PUSH1 0x22 PUSH1 0x4 MSTORE PUSH1 0x24 PUSH1 0x0 REVERT JUMPDEST POP SWAP2 SWAP1 POP JUMP JUMPDEST PUSH1 0x0 PUSH32 0xFFFFFFFFFFFFFFFFFFFFFFFFFFFFFFFFFFFFFFFFFFFFFFFFFFFFFFFFFFFFFFFF DUP3 EQ ISZERO PUSH2 0x22B8 JUMPI PUSH2 0x22B8 PUSH2 0x22BF JUMP JUMPDEST POP PUSH1 0x1 ADD SWAP1 JUMP JUMPDEST PUSH32 0x4E487B7100000000000000000000000000000000000000000000000000000000 PUSH1 0x0 MSTORE PUSH1 0x11 PUSH1 0x4 MSTORE PUSH1 0x24 PUSH1 0x0 REVERT JUMPDEST PUSH32 0x4E487B7100000000000000000000000000000000000000000000000000000000 PUSH1 0x0 MSTORE PUSH1 0x41 PUSH1 0x4 MSTORE PUSH1 0x24 PUSH1 0x0 REVERT JUMPDEST PUSH20 0xFFFFFFFFFFFFFFFFFFFFFFFFFFFFFFFFFFFFFFFF DUP2 AND DUP2 EQ PUSH2 0x1566 JUMPI PUSH1 0x0 DUP1 REVERT JUMPDEST DUP1 ISZERO ISZERO DUP2 EQ PUSH2 0x1566 JUMPI PUSH1 0x0 DUP1 REVERT INVALID LOG2 PUSH5 0x6970667358 0x22 SLT KECCAK256 CODECOPY SWAP2 0x21 PUSH9 0x4D3FBA7DD5604CACC8 STATICCALL 0x49 DUP8 PUSH31 0xE4550869648C0A330A5E8E9990A74564736F6C634300080400330000000000 "},"methodIdentifiers":{"PARTNER_FEE()":"c3ca7f31","PROTOCOL_FEE()":"0b4501fd","Partners(address)":"8e9b7ab8","owner()":"8da5cb5b","renounceOwnership()":"715018a6","setPartner(address,string,bool)":"feee9977","setPartnerFee(uint256)":"3741454d","setProtocolFee(uint256)":"787dce3d","swapRoutes(uint256,address,address,bytes,address)":"8ed3747c","swapStraight(uint256,address,address,address[],bytes[],uint256[])":"8743f402","transferOwnership(address)":"f2fde38b","weth()":"3fc8cef3","withdrawStuckERC20(address)":"3963510b"}},"storageLayout":{"storage":[{"astId":7,"contract":"contracts/DemoAdapter(Full).sol:DemoAdapter1","label":"_owner","offset":0,"slot":"0","type":"t_address"},{"astId":1741,"contract":"contracts/DemoAdapter(Full).sol:DemoAdapter1","label":"PARTNER_FEE","offset":0,"slot":"1","type":"t_uint256"},{"astId":1745,"contract":"contracts/DemoAdapter(Full).sol:DemoAdapter1","label":"PROTOCOL_FEE","offset":0,"slot":"2","type":"t_uint256"},{"astId":1748,"contract":"contracts/DemoAdapter(Full).sol:DemoAdapter1","label":"Percent","offset":0,"slot":"3","type":"t_uint256"},{"astId":1750,"contract":"contracts/DemoAdapter(Full).sol:DemoAdapter1","label":"weth","offset":0,"slot":"4","type":"t_address"},{"astId":1805,"contract":"contracts/DemoAdapter(Full).sol:DemoAdapter1","label":"Partners","offset":0,"slot":"5","type":"t_mapping(t_address,t_struct(Partner)1800_storage)"}],"types":{"t_address":{"encoding":"inplace","label":"address","numberOfBytes":"20"},"t_bool":{"encoding":"inplace","label":"bool","numberOfBytes":"1"},"t_mapping(t_address,t_struct(Partner)1800_storage)":{"encoding":"mapping","key":"t_address","label":"mapping(address => struct DemoAdapter1.Partner)","numberOfBytes":"32","value":"t_struct(Partner)1800_storage"},"t_string_storage":{"encoding":"bytes","label":"string","numberOfBytes":"32"},"t_struct(Partner)1800_storage":{"encoding":"inplace","label":"struct DemoAdapter1.Partner","members":[{"astId":1795,"contract":"contracts/DemoAdapter(Full).sol:DemoAdapter1","label":"isActive","offset":0,"slot":"0","type":"t_bool"},{"astId":1797,"contract":"contracts/DemoAdapter(Full).sol:DemoAdapter1","label":"name","offset":0,"slot":"1","type":"t_string_storage"},{"astId":1799,"contract":"contracts/DemoAdapter(Full).sol:DemoAdapter1","label":"registrationTime","offset":0,"slot":"2","type":"t_uint256"}],"numberOfBytes":"96"},"t_uint256":{"encoding":"inplace","label":"uint256","numberOfBytes":"32"}}}}}}