{"contracts/Uniswap/Coin98Uniswap(V2).sol":{"Coin98UniswapV2":{"abi":[{"inputs":[{"internalType":"uint256","name":"amountIn","type":"uint256"},{"internalType":"uint256","name":"amountOut","type":"uint256"},{"internalType":"bytes","name":"data","type":"bytes"}],"name":"swap","outputs":[],"stateMutability":"nonpayable","type":"function"}],"evm":{"bytecode":{"linkReferences":{},"object":"608060405234801561001057600080fd5b50610471806100206000396000f3fe608060405234801561001057600080fd5b506004361061002b5760003560e01c8063892e830414610030575b600080fd5b61004361003e366004610306565b610045565b005b60008180602001905181019061005b9190610208565b90506100708160000151858360400151610130565b80600001516001600160a01b031681604001516001600160a01b0316630dfe16816040518163ffffffff1660e01b8152600401602060405180830381600087803b1580156100bd57600080fd5b505af11580156100d1573d6000803e3d6000fd5b505050506040513d601f19601f820116820180604052508101906100f591906101e5565b6001600160a01b03161461011957610114838260400151600030610176565b61012a565b61012a838260400151600130610176565b50505050565b60405160c08101604052610149565b3d6000803e3d6000fd5b63a9059cbb60e01b81528160048201528260248201526000806044836000885af161012a5761012a61013f565b60405160c0810160405263022c0d9f60e01b8152821580156101a457856004830152600060248301526101b2565b600060048301528560248301525b50816044820152608060648201526000608482015260008060a4836000885af16101de576101de61013f565b5050505050565b6000602082840312156101f6578081fd5b815161020181610423565b9392505050565b6000602080838503121561021a578182fd5b82516001600160401b0380821115610230578384fd5b9084019060808287031215610243578384fd5b61024b61038e565b825161025681610423565b81528284015161026581610423565b81850152604083015161027781610423565b604082015260608301518281111561028d578586fd5b80840193505086601f8401126102a1578485fd5b825191506102b66102b1836103e6565b6103b6565b82815287858486010111156102c9578586fd5b855b838110156102e65784810186015182820187015285016102cb565b838111156102f657868685840101525b5060608201529695505050505050565b60008060006060848603121561031a578182fd5b833592506020840135915060408401356001600160401b0381111561033d578182fd5b8401601f8101861361034d578182fd5b803561035b6102b1826103e6565b81815287602083850101111561036f578384fd5b8160208401602083013783602083830101528093505050509250925092565b604051608081016001600160401b03811182821017156103b0576103b061040d565b60405290565b604051601f8201601f191681016001600160401b03811182821017156103de576103de61040d565b604052919050565b60006001600160401b038211156103ff576103ff61040d565b50601f01601f191660200190565b634e487b7160e01b600052604160045260246000fd5b6001600160a01b038116811461043857600080fd5b5056fea26469706673582212203bc25f5dc4cbfc7fef3a5c8677cbf6d9ec65c788f9b280d58a1b05f43af3236564736f6c63430008040033","opcodes":"PUSH1 0x80 PUSH1 0x40 MSTORE CALLVALUE DUP1 ISZERO PUSH2 0x10 JUMPI PUSH1 0x0 DUP1 REVERT JUMPDEST POP PUSH2 0x471 DUP1 PUSH2 0x20 PUSH1 0x0 CODECOPY PUSH1 0x0 RETURN INVALID PUSH1 0x80 PUSH1 0x40 MSTORE CALLVALUE DUP1 ISZERO PUSH2 0x10 JUMPI PUSH1 0x0 DUP1 REVERT JUMPDEST POP PUSH1 0x4 CALLDATASIZE LT PUSH2 0x2B JUMPI PUSH1 0x0 CALLDATALOAD PUSH1 0xE0 SHR DUP1 PUSH4 0x892E8304 EQ PUSH2 0x30 JUMPI JUMPDEST PUSH1 0x0 DUP1 REVERT JUMPDEST PUSH2 0x43 PUSH2 0x3E CALLDATASIZE PUSH1 0x4 PUSH2 0x306 JUMP JUMPDEST PUSH2 0x45 JUMP JUMPDEST STOP JUMPDEST PUSH1 0x0 DUP2 DUP1 PUSH1 0x20 ADD SWAP1 MLOAD DUP2 ADD SWAP1 PUSH2 0x5B SWAP2 SWAP1 PUSH2 0x208 JUMP JUMPDEST SWAP1 POP PUSH2 0x70 DUP2 PUSH1 0x0 ADD MLOAD DUP6 DUP4 PUSH1 0x40 ADD MLOAD PUSH2 0x130 JUMP JUMPDEST DUP1 PUSH1 0x0 ADD MLOAD PUSH1 0x1 PUSH1 0x1 PUSH1 0xA0 SHL SUB AND DUP2 PUSH1 0x40 ADD MLOAD PUSH1 0x1 PUSH1 0x1 PUSH1 0xA0 SHL SUB AND PUSH4 0xDFE1681 PUSH1 0x40 MLOAD DUP2 PUSH4 0xFFFFFFFF AND PUSH1 0xE0 SHL DUP2 MSTORE PUSH1 0x4 ADD PUSH1 0x20 PUSH1 0x40 MLOAD DUP1 DUP4 SUB DUP2 PUSH1 0x0 DUP8 DUP1 EXTCODESIZE ISZERO DUP1 ISZERO PUSH2 0xBD JUMPI PUSH1 0x0 DUP1 REVERT JUMPDEST POP GAS CALL ISZERO DUP1 ISZERO PUSH2 0xD1 JUMPI RETURNDATASIZE PUSH1 0x0 DUP1 RETURNDATACOPY RETURNDATASIZE PUSH1 0x0 REVERT JUMPDEST POP POP POP POP PUSH1 0x40 MLOAD RETURNDATASIZE PUSH1 0x1F NOT PUSH1 0x1F DUP3 ADD AND DUP3 ADD DUP1 PUSH1 0x40 MSTORE POP DUP2 ADD SWAP1 PUSH2 0xF5 SWAP2 SWAP1 PUSH2 0x1E5 JUMP JUMPDEST PUSH1 0x1 PUSH1 0x1 PUSH1 0xA0 SHL SUB AND EQ PUSH2 0x119 JUMPI PUSH2 0x114 DUP4 DUP3 PUSH1 0x40 ADD MLOAD PUSH1 0x0 ADDRESS PUSH2 0x176 JUMP JUMPDEST PUSH2 0x12A JUMP JUMPDEST PUSH2 0x12A DUP4 DUP3 PUSH1 0x40 ADD MLOAD PUSH1 0x1 ADDRESS PUSH2 0x176 JUMP JUMPDEST POP POP POP POP JUMP JUMPDEST PUSH1 0x40 MLOAD PUSH1 0xC0 DUP2 ADD PUSH1 0x40 MSTORE PUSH2 0x149 JUMP JUMPDEST RETURNDATASIZE PUSH1 0x0 DUP1 RETURNDATACOPY RETURNDATASIZE PUSH1 0x0 REVERT JUMPDEST PUSH4 0xA9059CBB PUSH1 0xE0 SHL DUP2 MSTORE DUP2 PUSH1 0x4 DUP3 ADD MSTORE DUP3 PUSH1 0x24 DUP3 ADD MSTORE PUSH1 0x0 DUP1 PUSH1 0x44 DUP4 PUSH1 0x0 DUP9 GAS CALL PUSH2 0x12A JUMPI PUSH2 0x12A PUSH2 0x13F JUMP JUMPDEST PUSH1 0x40 MLOAD PUSH1 0xC0 DUP2 ADD PUSH1 0x40 MSTORE PUSH4 0x22C0D9F PUSH1 0xE0 SHL DUP2 MSTORE DUP3 ISZERO DUP1 ISZERO PUSH2 0x1A4 JUMPI DUP6 PUSH1 0x4 DUP4 ADD MSTORE PUSH1 0x0 PUSH1 0x24 DUP4 ADD MSTORE PUSH2 0x1B2 JUMP JUMPDEST PUSH1 0x0 PUSH1 0x4 DUP4 ADD MSTORE DUP6 PUSH1 0x24 DUP4 ADD MSTORE JUMPDEST POP DUP2 PUSH1 0x44 DUP3 ADD MSTORE PUSH1 0x80 PUSH1 0x64 DUP3 ADD MSTORE PUSH1 0x0 PUSH1 0x84 DUP3 ADD MSTORE PUSH1 0x0 DUP1 PUSH1 0xA4 DUP4 PUSH1 0x0 DUP9 GAS CALL PUSH2 0x1DE JUMPI PUSH2 0x1DE PUSH2 0x13F JUMP JUMPDEST POP POP POP POP POP JUMP JUMPDEST PUSH1 0x0 PUSH1 0x20 DUP3 DUP5 SUB SLT ISZERO PUSH2 0x1F6 JUMPI DUP1 DUP2 REVERT JUMPDEST DUP2 MLOAD PUSH2 0x201 DUP2 PUSH2 0x423 JUMP JUMPDEST SWAP4 SWAP3 POP POP POP JUMP JUMPDEST PUSH1 0x0 PUSH1 0x20 DUP1 DUP4 DUP6 SUB SLT ISZERO PUSH2 0x21A JUMPI DUP2 DUP3 REVERT JUMPDEST DUP3 MLOAD PUSH1 0x1 PUSH1 0x1 PUSH1 0x40 SHL SUB DUP1 DUP3 GT ISZERO PUSH2 0x230 JUMPI DUP4 DUP5 REVERT JUMPDEST SWAP1 DUP5 ADD SWAP1 PUSH1 0x80 DUP3 DUP8 SUB SLT ISZERO PUSH2 0x243 JUMPI DUP4 DUP5 REVERT JUMPDEST PUSH2 0x24B PUSH2 0x38E JUMP JUMPDEST DUP3 MLOAD PUSH2 0x256 DUP2 PUSH2 0x423 JUMP JUMPDEST DUP2 MSTORE DUP3 DUP5 ADD MLOAD PUSH2 0x265 DUP2 PUSH2 0x423 JUMP JUMPDEST DUP2 DUP6 ADD MSTORE PUSH1 0x40 DUP4 ADD MLOAD PUSH2 0x277 DUP2 PUSH2 0x423 JUMP JUMPDEST PUSH1 0x40 DUP3 ADD MSTORE PUSH1 0x60 DUP4 ADD MLOAD DUP3 DUP2 GT ISZERO PUSH2 0x28D JUMPI DUP6 DUP7 REVERT JUMPDEST DUP1 DUP5 ADD SWAP4 POP POP DUP7 PUSH1 0x1F DUP5 ADD SLT PUSH2 0x2A1 JUMPI DUP5 DUP6 REVERT JUMPDEST DUP3 MLOAD SWAP2 POP PUSH2 0x2B6 PUSH2 0x2B1 DUP4 PUSH2 0x3E6 JUMP JUMPDEST PUSH2 0x3B6 JUMP JUMPDEST DUP3 DUP2 MSTORE DUP8 DUP6 DUP5 DUP7 ADD ADD GT ISZERO PUSH2 0x2C9 JUMPI DUP6 DUP7 REVERT JUMPDEST DUP6 JUMPDEST DUP4 DUP2 LT ISZERO PUSH2 0x2E6 JUMPI DUP5 DUP2 ADD DUP7 ADD MLOAD DUP3 DUP3 ADD DUP8 ADD MSTORE DUP6 ADD PUSH2 0x2CB JUMP JUMPDEST DUP4 DUP2 GT ISZERO PUSH2 0x2F6 JUMPI DUP7 DUP7 DUP6 DUP5 ADD ADD MSTORE JUMPDEST POP PUSH1 0x60 DUP3 ADD MSTORE SWAP7 SWAP6 POP POP POP POP POP POP JUMP JUMPDEST PUSH1 0x0 DUP1 PUSH1 0x0 PUSH1 0x60 DUP5 DUP7 SUB SLT ISZERO PUSH2 0x31A JUMPI DUP2 DUP3 REVERT JUMPDEST DUP4 CALLDATALOAD SWAP3 POP PUSH1 0x20 DUP5 ADD CALLDATALOAD SWAP2 POP PUSH1 0x40 DUP5 ADD CALLDATALOAD PUSH1 0x1 PUSH1 0x1 PUSH1 0x40 SHL SUB DUP2 GT ISZERO PUSH2 0x33D JUMPI DUP2 DUP3 REVERT JUMPDEST DUP5 ADD PUSH1 0x1F DUP2 ADD DUP7 SGT PUSH2 0x34D JUMPI DUP2 DUP3 REVERT JUMPDEST DUP1 CALLDATALOAD PUSH2 0x35B PUSH2 0x2B1 DUP3 PUSH2 0x3E6 JUMP JUMPDEST DUP2 DUP2 MSTORE DUP8 PUSH1 0x20 DUP4 DUP6 ADD ADD GT ISZERO PUSH2 0x36F JUMPI DUP4 DUP5 REVERT JUMPDEST DUP2 PUSH1 0x20 DUP5 ADD PUSH1 0x20 DUP4 ADD CALLDATACOPY DUP4 PUSH1 0x20 DUP4 DUP4 ADD ADD MSTORE DUP1 SWAP4 POP POP POP POP SWAP3 POP SWAP3 POP SWAP3 JUMP JUMPDEST PUSH1 0x40 MLOAD PUSH1 0x80 DUP2 ADD PUSH1 0x1 PUSH1 0x1 PUSH1 0x40 SHL SUB DUP2 GT DUP3 DUP3 LT OR ISZERO PUSH2 0x3B0 JUMPI PUSH2 0x3B0 PUSH2 0x40D JUMP JUMPDEST PUSH1 0x40 MSTORE SWAP1 JUMP JUMPDEST PUSH1 0x40 MLOAD PUSH1 0x1F DUP3 ADD PUSH1 0x1F NOT AND DUP2 ADD PUSH1 0x1 PUSH1 0x1 PUSH1 0x40 SHL SUB DUP2 GT DUP3 DUP3 LT OR ISZERO PUSH2 0x3DE JUMPI PUSH2 0x3DE PUSH2 0x40D JUMP JUMPDEST PUSH1 0x40 MSTORE SWAP2 SWAP1 POP JUMP JUMPDEST PUSH1 0x0 PUSH1 0x1 PUSH1 0x1 PUSH1 0x40 SHL SUB DUP3 GT ISZERO PUSH2 0x3FF JUMPI PUSH2 0x3FF PUSH2 0x40D JUMP JUMPDEST POP PUSH1 0x1F ADD PUSH1 0x1F NOT AND PUSH1 0x20 ADD SWAP1 JUMP JUMPDEST PUSH4 0x4E487B71 PUSH1 0xE0 SHL PUSH1 0x0 MSTORE PUSH1 0x41 PUSH1 0x4 MSTORE PUSH1 0x24 PUSH1 0x0 REVERT JUMPDEST PUSH1 0x1 PUSH1 0x1 PUSH1 0xA0 SHL SUB DUP2 AND DUP2 EQ PUSH2 0x438 JUMPI PUSH1 0x0 DUP1 REVERT JUMPDEST POP JUMP INVALID LOG2 PUSH5 0x6970667358 0x22 SLT KECCAK256 EXTCODESIZE 0xC2 0x5F 0x5D 0xC4 0xCB 0xFC PUSH32 0xEF3A5C8677CBF6D9EC65C788F9B280D58A1B05F43AF3236564736F6C63430008 DIV STOP CALLER "},"methodIdentifiers":{"swap(uint256,uint256,bytes)":"892e8304"}},"storageLayout":{"storage":[],"types":null}}}}