{"contracts/DemoAdapter(Full).sol":{"DemoAdapter1":{"abi":[{"inputs":[{"internalType":"address","name":"_weth","type":"address"}],"stateMutability":"nonpayable","type":"constructor"},{"anonymous":false,"inputs":[{"indexed":false,"internalType":"address","name":"partner","type":"address"},{"indexed":false,"internalType":"address","name":"tokenOut","type":"address"},{"indexed":false,"internalType":"uint256","name":"partnerFee","type":"uint256"}],"name":"ClaimPartnerFee","type":"event"},{"anonymous":false,"inputs":[{"indexed":false,"internalType":"string","name":"name","type":"string"},{"indexed":false,"internalType":"address","name":"partner","type":"address"}],"name":"DeactivePartner","type":"event"},{"anonymous":false,"inputs":[{"indexed":true,"internalType":"address","name":"previousOwner","type":"address"},{"indexed":true,"internalType":"address","name":"newOwner","type":"address"}],"name":"OwnershipTransferred","type":"event"},{"anonymous":false,"inputs":[{"indexed":false,"internalType":"string","name":"name","type":"string"},{"indexed":false,"internalType":"address","name":"partner","type":"address"}],"name":"SetPartner","type":"event"},{"anonymous":false,"inputs":[{"indexed":false,"internalType":"uint256","name":"_partnerFee","type":"uint256"}],"name":"SetPartnerFee","type":"event"},{"anonymous":false,"inputs":[{"indexed":false,"internalType":"uint256","name":"_protocolFee","type":"uint256"}],"name":"SetProtocolFee","type":"event"},{"inputs":[],"name":"PARTNER_FEE","outputs":[{"internalType":"uint256","name":"","type":"uint256"}],"stateMutability":"view","type":"function"},{"inputs":[],"name":"PROTOCOL_FEE","outputs":[{"internalType":"uint256","name":"","type":"uint256"}],"stateMutability":"view","type":"function"},{"inputs":[{"internalType":"address","name":"","type":"address"}],"name":"Partners","outputs":[{"internalType":"bool","name":"isActive","type":"bool"},{"internalType":"string","name":"name","type":"string"},{"internalType":"uint256","name":"registrationTime","type":"uint256"}],"stateMutability":"view","type":"function"},{"inputs":[],"name":"owner","outputs":[{"internalType":"address","name":"","type":"address"}],"stateMutability":"view","type":"function"},{"inputs":[],"name":"renounceOwnership","outputs":[],"stateMutability":"nonpayable","type":"function"},{"inputs":[{"internalType":"address","name":"_partner","type":"address"},{"internalType":"string","name":"_name","type":"string"},{"internalType":"bool","name":"_isActive","type":"bool"}],"name":"setPartner","outputs":[],"stateMutability":"nonpayable","type":"function"},{"inputs":[{"internalType":"uint256","name":"_partnerFee","type":"uint256"}],"name":"setPartnerFee","outputs":[],"stateMutability":"nonpayable","type":"function"},{"inputs":[{"internalType":"uint256","name":"_protocolFee","type":"uint256"}],"name":"setProtocolFee","outputs":[],"stateMutability":"nonpayable","type":"function"},{"inputs":[{"internalType":"uint256","name":"fromAmount","type":"uint256"},{"internalType":"address","name":"fromToken","type":"address"},{"internalType":"address","name":"toToken","type":"address"},{"internalType":"bytes","name":"data","type":"bytes"},{"internalType":"contract IExecutor","name":"executor","type":"address"}],"name":"swapRoutes","outputs":[],"stateMutability":"payable","type":"function"},{"inputs":[{"internalType":"uint256","name":"fromAmount","type":"uint256"},{"internalType":"address","name":"fromToken","type":"address"},{"internalType":"address","name":"toToken","type":"address"},{"internalType":"contract SwapAdapter[]","name":"routers","type":"address[]"},{"internalType":"bytes[]","name":"payloads","type":"bytes[]"},{"internalType":"uint256[]","name":"amountOut","type":"uint256[]"}],"name":"swapStraight","outputs":[],"stateMutability":"payable","type":"function"},{"inputs":[{"internalType":"address","name":"newOwner","type":"address"}],"name":"transferOwnership","outputs":[],"stateMutability":"nonpayable","type":"function"},{"inputs":[],"name":"weth","outputs":[{"internalType":"address","name":"","type":"address"}],"stateMutability":"view","type":"function"},{"inputs":[{"internalType":"address","name":"_token","type":"address"}],"name":"withdrawStuckERC20","outputs":[],"stateMutability":"payable","type":"function"},{"stateMutability":"payable","type":"receive"}],"evm":{"bytecode":{"linkReferences":{},"object":"60806040526050600255600a6003556127106004553480156200002157600080fd5b5060405162002519380380620025198339810160408190526200004491620000c9565b6200004f3362000079565b60018055600580546001600160a01b0319166001600160a01b0392909216919091179055620000f9565b600080546001600160a01b038381166001600160a01b0319831681178455604051919092169283917f8be0079c531659141344cd1fd0a4f28419497f9722a3daafe3b4186f6b6457e09190a35050565b600060208284031215620000db578081fd5b81516001600160a01b0381168114620000f2578182fd5b9392505050565b61241080620001096000396000f3fe6080604052600436106100d65760003560e01c80638743f4021161007f5780638ed3747c116100595780638ed3747c146102a1578063c3ca7f31146102b4578063f2fde38b146102ca578063feee9977146102ea57600080fd5b80638743f402146102345780638da5cb5b146102475780638e9b7ab81461027257600080fd5b80633fc8cef3116100b05780633fc8cef3146101ad578063715018a6146101ff578063787dce3d1461021457600080fd5b80630b4501fd146101515780633741454d1461017a5780633963510b1461019a57600080fd5b3661014c573332141561014a576040517f08c379a000000000000000000000000000000000000000000000000000000000815260206004820152601460248201527f455448206465706f7369742072656a656374656400000000000000000000000060448201526064015b60405180910390fd5b005b600080fd5b34801561015d57600080fd5b5061016760035481565b6040519081526020015b60405180910390f35b34801561018657600080fd5b5061014a610195366004611e6f565b61030a565b61014a6101a8366004611ce7565b6103de565b3480156101b957600080fd5b506005546101da9073ffffffffffffffffffffffffffffffffffffffff1681565b60405173ffffffffffffffffffffffffffffffffffffffff9091168152602001610171565b34801561020b57600080fd5b5061014a6105c4565b34801561022057600080fd5b5061014a61022f366004611e6f565b6105d8565b61014a610242366004611e9f565b6106a5565b34801561025357600080fd5b5060005473ffffffffffffffffffffffffffffffffffffffff166101da565b34801561027e57600080fd5b5061029261028d366004611ce7565b610fd3565b6040516101719392919061209a565b61014a6102af366004611fb5565b611082565b3480156102c057600080fd5b5061016760025481565b3480156102d657600080fd5b5061014a6102e5366004611ce7565b6114d2565b3480156102f657600080fd5b5061014a610305366004611d03565b611589565b610312611737565b600081116103a2576040517f08c379a000000000000000000000000000000000000000000000000000000000815260206004820152603e60248201527f53757065724c696e6b3a20466565206d757374206265206120706f736974697660448201527f65206e756d62657220616e642067726561746572207468616e207a65726f00006064820152608401610141565b60028190556040518181527fd8a1a03d14cf70b1537a82ecf286cf743b3d756d06d6c3279d312b9279cb36c4906020015b60405180910390a150565b6103e6611737565b6040517f70a0823100000000000000000000000000000000000000000000000000000000815230600482015260009073ffffffffffffffffffffffffffffffffffffffff8316906370a082319060240160206040518083038186803b15801561044e57600080fd5b505afa158015610462573d6000803e3d6000fd5b505050506040513d601f19601f820116820180604052508101906104869190611e87565b9050478115610571578273ffffffffffffffffffffffffffffffffffffffff1663a9059cbb6104ca60005473ffffffffffffffffffffffffffffffffffffffff1690565b6040517fffffffff0000000000000000000000000000000000000000000000000000000060e084901b16815273ffffffffffffffffffffffffffffffffffffffff909116600482015260248101859052604401602060405180830381600087803b15801561053757600080fd5b505af115801561054b573d6000803e3d6000fd5b505050506040513d601f19601f8201168201806040525081019061056f9190611d78565b505b80156105bf576000805460405173ffffffffffffffffffffffffffffffffffffffff9091169184156108fc02918591818181858888f193505050501580156105bd573d6000803e3d6000fd5b505b505050565b6105cc611737565b6105d660006117b8565b565b6105e0611737565b60008111610670576040517f08c379a000000000000000000000000000000000000000000000000000000000815260206004820152603e60248201527f53757065724c696e6b3a20466565206d757374206265206120706f736974697660448201527f65206e756d62657220616e642067726561746572207468616e207a65726f00006064820152608401610141565b60038190556040518181527fdc0410a296e1e33943a772020d333d5f99319d7fcad932a484c53889f7aaa2b1906020016103d3565b6106ad61182d565b73ffffffffffffffffffffffffffffffffffffffff85166107325785341015610732576040517f08c379a000000000000000000000000000000000000000000000000000000000815260206004820152601460248201527f4e6f7420656e6f75676820656666696369656e740000000000000000000000006044820152606401610141565b60008573ffffffffffffffffffffffffffffffffffffffff166370a082318560008151811061078a577f4e487b7100000000000000000000000000000000000000000000000000000000600052603260045260246000fd5b60200260200101516040518263ffffffff1660e01b81526004016107ca919073ffffffffffffffffffffffffffffffffffffffff91909116815260200190565b60206040518083038186803b1580156107e257600080fd5b505afa1580156107f6573d6000803e3d6000fd5b505050506040513d601f19601f8201168201806040525081019061081a9190611e87565b6040517f70a0823100000000000000000000000000000000000000000000000000000000815230600482015290915060009073ffffffffffffffffffffffffffffffffffffffff8716906370a082319060240160206040518083038186803b15801561088557600080fd5b505afa158015610899573d6000803e3d6000fd5b505050506040513d601f19601f820116820180604052508101906108bd9190611e87565b905061090b8789876000815181106108fe577f4e487b7100000000000000000000000000000000000000000000000000000000600052603260045260246000fd5b60200260200101516118a1565b845160005b81811015610e26576000868281518110610953577f4e487b7100000000000000000000000000000000000000000000000000000000600052603260045260246000fd5b602002602001015180602001905181019061096e9190611d94565b90506000816000015173ffffffffffffffffffffffffffffffffffffffff166370a082318a85815181106109cb577f4e487b7100000000000000000000000000000000000000000000000000000000600052603260045260246000fd5b60200260200101516040518263ffffffff1660e01b8152600401610a0b919073ffffffffffffffffffffffffffffffffffffffff91909116815260200190565b60206040518083038186803b158015610a2357600080fd5b505afa158015610a37573d6000803e3d6000fd5b505050506040513d601f19601f82011682018060405250810190610a5b9190611e87565b90506000610a69878361227c565b90506000610a7860018761227c565b8514610ace578a610a8a866001612264565b81518110610ac1577f4e487b7100000000000000000000000000000000000000000000000000000000600052603260045260246000fd5b6020026020010151610ad0565b305b9050610add60018761227c565b8514610bdb57602084015173ffffffffffffffffffffffffffffffffffffffff166370a082318c610b0f886001612264565b81518110610b46577f4e487b7100000000000000000000000000000000000000000000000000000000600052603260045260246000fd5b60200260200101516040518263ffffffff1660e01b8152600401610b86919073ffffffffffffffffffffffffffffffffffffffff91909116815260200190565b60206040518083038186803b158015610b9e57600080fd5b505afa158015610bb2573d6000803e3d6000fd5b505050506040513d601f19601f82011682018060405250810190610bd69190611e87565b610bde565b60005b975060008b8681518110610c1b577f4e487b7100000000000000000000000000000000000000000000000000000000600052603260045260246000fd5b602002602001015173ffffffffffffffffffffffffffffffffffffffff1663022c0d9f60e01b848c8981518110610c7b577f4e487b7100000000000000000000000000000000000000000000000000000000600052603260045260246000fd5b6020026020010151858f8b81518110610cbd577f4e487b7100000000000000000000000000000000000000000000000000000000600052603260045260246000fd5b6020026020010151604051602401610cd8949392919061213d565b604080517fffffffffffffffffffffffffffffffffffffffffffffffffffffffffffffffe08184030181529181526020820180517bffffffffffffffffffffffffffffffffffffffffffffffffffffffff167fffffffff00000000000000000000000000000000000000000000000000000000909416939093179092529051610d61919061207e565b6000604051808303816000865af19150503d8060008114610d9e576040519150601f19603f3d011682016040523d82523d6000602084013e610da3565b606091505b5050905080610e0e576040517f08c379a000000000000000000000000000000000000000000000000000000000815260206004820152600b60248201527f6661696c65642063616c6c0000000000000000000000000000000000000000006044820152606401610141565b50505050508080610e1e90612313565b915050610910565b5073ffffffffffffffffffffffffffffffffffffffff8716610f04576005546040517f70a08231000000000000000000000000000000000000000000000000000000008152306004820152600091849173ffffffffffffffffffffffffffffffffffffffff909116906370a082319060240160206040518083038186803b158015610eb057600080fd5b505afa158015610ec4573d6000803e3d6000fd5b505050506040513d601f19601f82011682018060405250810190610ee89190611e87565b610ef2919061227c565b9050610efe8133611a37565b50610fbf565b6040517f70a08231000000000000000000000000000000000000000000000000000000008152306004820152600090839073ffffffffffffffffffffffffffffffffffffffff8a16906370a082319060240160206040518083038186803b158015610f6e57600080fd5b505afa158015610f82573d6000803e3d6000fd5b505050506040513d601f19601f82011682018060405250810190610fa69190611e87565b610fb0919061227c565b9050610fbd888233611ab0565b505b505050610fcb60018055565b505050505050565b6006602052600090815260409020805460018201805460ff9092169291610ff9906122bf565b80601f0160208091040260200160405190810160405280929190818152602001828054611025906122bf565b80156110725780601f1061104757610100808354040283529160200191611072565b820191906000526020600020905b81548152906001019060200180831161105557829003601f168201915b5050505050908060020154905083565b61108a61182d565b73ffffffffffffffffffffffffffffffffffffffff841661110f578434101561110f576040517f08c379a000000000000000000000000000000000000000000000000000000000815260206004820152601460248201527f4e6f7420656e6f75676820656666696369656e740000000000000000000000006044820152606401610141565b6040517f70a0823100000000000000000000000000000000000000000000000000000000815230600482015260009073ffffffffffffffffffffffffffffffffffffffff8516906370a082319060240160206040518083038186803b15801561117757600080fd5b505afa15801561118b573d6000803e3d6000fd5b505050506040513d601f19601f820116820180604052508101906111af9190611e87565b90506111bc8587846118a1565b60008273ffffffffffffffffffffffffffffffffffffffff166379532f1460e01b8530886040516024016111f2939291906120c5565b604080517fffffffffffffffffffffffffffffffffffffffffffffffffffffffffffffffe08184030181529181526020820180517bffffffffffffffffffffffffffffffffffffffffffffffffffffffff167fffffffff0000000000000000000000000000000000000000000000000000000090941693909317909252905161127b919061207e565b6000604051808303816000865af19150503d80600081146112b8576040519150601f19603f3d011682016040523d82523d6000602084013e6112bd565b606091505b5050905080611328576040517f08c379a000000000000000000000000000000000000000000000000000000000815260206004820152600660248201527f4661696c656400000000000000000000000000000000000000000000000000006044820152606401610141565b73ffffffffffffffffffffffffffffffffffffffff8516611405576005546040517f70a08231000000000000000000000000000000000000000000000000000000008152306004820152600091849173ffffffffffffffffffffffffffffffffffffffff909116906370a082319060240160206040518083038186803b1580156113b157600080fd5b505afa1580156113c5573d6000803e3d6000fd5b505050506040513d601f19601f820116820180604052508101906113e99190611e87565b6113f3919061227c565b90506113ff8133611a37565b506114c0565b6040517f70a08231000000000000000000000000000000000000000000000000000000008152306004820152600090839073ffffffffffffffffffffffffffffffffffffffff8816906370a082319060240160206040518083038186803b15801561146f57600080fd5b505afa158015611483573d6000803e3d6000fd5b505050506040513d601f19601f820116820180604052508101906114a79190611e87565b6114b1919061227c565b90506114be868233611ab0565b505b50506114cb60018055565b5050505050565b6114da611737565b73ffffffffffffffffffffffffffffffffffffffff811661157d576040517f08c379a000000000000000000000000000000000000000000000000000000000815260206004820152602660248201527f4f776e61626c653a206e6577206f776e657220697320746865207a65726f206160448201527f64647265737300000000000000000000000000000000000000000000000000006064820152608401610141565b611586816117b8565b50565b611591611737565b73ffffffffffffffffffffffffffffffffffffffff83166000908152600660205260409020816116b157805460ff1661164c576040517f08c379a000000000000000000000000000000000000000000000000000000000815260206004820152602360248201527f53757065724c696e6b3a20506172746e657220616c726561647920646561637460448201527f69766500000000000000000000000000000000000000000000000000000000006064820152608401610141565b80547fffffffffffffffffffffffffffffffffffffffffffffffffffffffffffffff001681556040517fa21850025daabc70fe4a4d95cb5ff2b0220d335c70ec66ec912b3846f17368dd906116a49085908790612105565b60405180910390a16105bd565b80547fffffffffffffffffffffffffffffffffffffffffffffffffffffffffffffff001682151517815582516116f09060018301906020860190611b00565b504260028201556040517fef384e7f5414ffff90018f9ab6c0621f523b5b11d1d17a831cc331baf00e26f7906117299085908790612105565b60405180910390a150505050565b60005473ffffffffffffffffffffffffffffffffffffffff1633146105d6576040517f08c379a000000000000000000000000000000000000000000000000000000000815260206004820181905260248201527f4f776e61626c653a2063616c6c6572206973206e6f7420746865206f776e65726044820152606401610141565b6000805473ffffffffffffffffffffffffffffffffffffffff8381167fffffffffffffffffffffffff0000000000000000000000000000000000000000831681178455604051919092169283917f8be0079c531659141344cd1fd0a4f28419497f9722a3daafe3b4186f6b6457e09190a35050565b6002600154141561189a576040517f08c379a000000000000000000000000000000000000000000000000000000000815260206004820152601f60248201527f5265656e7472616e637947756172643a207265656e7472616e742063616c6c006044820152606401610141565b6002600155565b6118fe565b3d6000803e3d6000fd5b7f08c379a0000000000000000000000000000000000000000000000000000000006000527c200000000000000000000000000000000000000000000000000000000060205280604052816000fd5b60405160c08101604052836000811461199057341561193f5761193f60557c11696e76616c6964206d73672e76616c756500000000000000000000006118b0565b7f23b872dd0000000000000000000000000000000000000000000000000000000082523360048301528260248301528360448301526000806064846000895af161198b5761198b6118a6565b6114cb565b7fd0e30db00000000000000000000000000000000000000000000000000000000082526000806004848773ae13d989dac2f0debff460ac112a837c89baa7cd5af16119dd576119dd6118a6565b7fa9059cbb000000000000000000000000000000000000000000000000000000008252826004830152836024830152600080604484600073ae13d989dac2f0debff460ac112a837c89baa7cd5af16114cb576114cb6118a6565b60405160c081016040527f2e1a7d4d000000000000000000000000000000000000000000000000000000008152826004820152600080602483600073ae13d989dac2f0debff460ac112a837c89baa7cd5af1611a9557611a956118a6565b5060008060008085855af1611aac57611aac6118a6565b5050565b60405160c081016040527fa9059cbb0000000000000000000000000000000000000000000000000000000081528160048201528260248201526000806044836000885af16105bd576105bd6118a6565b828054611b0c906122bf565b90600052602060002090601f016020900481019282611b2e5760008555611b74565b82601f10611b4757805160ff1916838001178555611b74565b82800160010185558215611b74579182015b82811115611b74578251825591602001919060010190611b59565b50611b80929150611b84565b5090565b5b80821115611b805760008155600101611b85565b6000611bac611ba78461221e565b6121ab565b9050828152838383011115611bc057600080fd5b828260208301376000602084830101529392505050565b600082601f830112611be7578081fd5b81356020611bf7611ba7836121fa565b80838252828201915082860187848660051b8901011115611c16578586fd5b855b85811015611c5757813567ffffffffffffffff811115611c36578788fd5b611c448a87838c0101611cc1565b8552509284019290840190600101611c18565b5090979650505050505050565b600082601f830112611c74578081fd5b81356020611c84611ba7836121fa565b80838252828201915082860187848660051b8901011115611ca3578586fd5b855b85811015611c5757813584529284019290840190600101611ca5565b600082601f830112611cd1578081fd5b611ce083833560208501611b99565b9392505050565b600060208284031215611cf8578081fd5b8135611ce0816123aa565b600080600060608486031215611d17578182fd5b8335611d22816123aa565b9250602084013567ffffffffffffffff811115611d3d578283fd5b8401601f81018613611d4d578283fd5b611d5c86823560208401611b99565b9250506040840135611d6d816123cc565b809150509250925092565b600060208284031215611d89578081fd5b8151611ce0816123cc565b60006020808385031215611da6578182fd5b825167ffffffffffffffff80821115611dbd578384fd5b9084019060808287031215611dd0578384fd5b611dd8612182565b8251611de3816123aa565b815282840151611df2816123aa565b818501526040830151611e04816123aa565b6040820152606083015182811115611e1a578586fd5b80840193505086601f840112611e2e578485fd5b82519150611e3e611ba78361221e565b8281528785848601011115611e51578586fd5b611e6083868301878701612293565b60608201529695505050505050565b600060208284031215611e80578081fd5b5035919050565b600060208284031215611e98578081fd5b5051919050565b60008060008060008060c08789031215611eb7578384fd5b86359550602080880135611eca816123aa565b95506040880135611eda816123aa565b9450606088013567ffffffffffffffff80821115611ef6578485fd5b818a0191508a601f830112611f09578485fd5b8135611f17611ba7826121fa565b8082825285820191508585018e878560051b8801011115611f36578889fd5b8895505b83861015611f61578035611f4d816123aa565b835260019590950194918601918601611f3a565b509750505060808a0135925080831115611f79578485fd5b611f858b848c01611bd7565b945060a08a0135925080831115611f9a578384fd5b5050611fa889828a01611c64565b9150509295509295509295565b600080600080600060a08688031215611fcc578283fd5b853594506020860135611fde816123aa565b93506040860135611fee816123aa565b9250606086013567ffffffffffffffff811115612009578182fd5b61201588828901611cc1565b9250506080860135612026816123aa565b809150509295509295909350565b6000815180845261204c816020860160208601612293565b601f017fffffffffffffffffffffffffffffffffffffffffffffffffffffffffffffffe0169290920160200192915050565b60008251612090818460208701612293565b9190910192915050565b83151581526060602082015260006120b56060830185612034565b9050826040830152949350505050565b6060815260006120d86060830186612034565b73ffffffffffffffffffffffffffffffffffffffff94851660208401529290931660409091015292915050565b6040815260006121186040830185612034565b905073ffffffffffffffffffffffffffffffffffffffff831660208301529392505050565b84815283602082015273ffffffffffffffffffffffffffffffffffffffff831660408201526080606082015260006121786080830184612034565b9695505050505050565b6040516080810167ffffffffffffffff811182821017156121a5576121a561237b565b60405290565b604051601f82017fffffffffffffffffffffffffffffffffffffffffffffffffffffffffffffffe016810167ffffffffffffffff811182821017156121f2576121f261237b565b604052919050565b600067ffffffffffffffff8211156122145761221461237b565b5060051b60200190565b600067ffffffffffffffff8211156122385761223861237b565b50601f017fffffffffffffffffffffffffffffffffffffffffffffffffffffffffffffffe01660200190565b600082198211156122775761227761234c565b500190565b60008282101561228e5761228e61234c565b500390565b60005b838110156122ae578181015183820152602001612296565b838111156105bd5750506000910152565b600181811c908216806122d357607f821691505b6020821081141561230d577f4e487b7100000000000000000000000000000000000000000000000000000000600052602260045260246000fd5b50919050565b60007fffffffffffffffffffffffffffffffffffffffffffffffffffffffffffffffff8214156123455761234561234c565b5060010190565b7f4e487b7100000000000000000000000000000000000000000000000000000000600052601160045260246000fd5b7f4e487b7100000000000000000000000000000000000000000000000000000000600052604160045260246000fd5b73ffffffffffffffffffffffffffffffffffffffff8116811461158657600080fd5b801515811461158657600080fdfea2646970667358221220d9aaa9eb2639a52eba21e4ed7445bf01efccbbeee4a702e5a72d0decdd70b2df64736f6c63430008040033","opcodes":"PUSH1 0x80 PUSH1 0x40 MSTORE PUSH1 0x50 PUSH1 0x2 SSTORE PUSH1 0xA PUSH1 0x3 SSTORE PUSH2 0x2710 PUSH1 0x4 SSTORE CALLVALUE DUP1 ISZERO PUSH3 0x21 JUMPI PUSH1 0x0 DUP1 REVERT JUMPDEST POP PUSH1 0x40 MLOAD PUSH3 0x2519 CODESIZE SUB DUP1 PUSH3 0x2519 DUP4 CODECOPY DUP2 ADD PUSH1 0x40 DUP2 SWAP1 MSTORE PUSH3 0x44 SWAP2 PUSH3 0xC9 JUMP JUMPDEST PUSH3 0x4F CALLER PUSH3 0x79 JUMP JUMPDEST PUSH1 0x1 DUP1 SSTORE PUSH1 0x5 DUP1 SLOAD PUSH1 0x1 PUSH1 0x1 PUSH1 0xA0 SHL SUB NOT AND PUSH1 0x1 PUSH1 0x1 PUSH1 0xA0 SHL SUB SWAP3 SWAP1 SWAP3 AND SWAP2 SWAP1 SWAP2 OR SWAP1 SSTORE PUSH3 0xF9 JUMP JUMPDEST PUSH1 0x0 DUP1 SLOAD PUSH1 0x1 PUSH1 0x1 PUSH1 0xA0 SHL SUB DUP4 DUP2 AND PUSH1 0x1 PUSH1 0x1 PUSH1 0xA0 SHL SUB NOT DUP4 AND DUP2 OR DUP5 SSTORE PUSH1 0x40 MLOAD SWAP2 SWAP1 SWAP3 AND SWAP3 DUP4 SWAP2 PUSH32 0x8BE0079C531659141344CD1FD0A4F28419497F9722A3DAAFE3B4186F6B6457E0 SWAP2 SWAP1 LOG3 POP POP JUMP JUMPDEST PUSH1 0x0 PUSH1 0x20 DUP3 DUP5 SUB SLT ISZERO PUSH3 0xDB JUMPI DUP1 DUP2 REVERT JUMPDEST DUP2 MLOAD PUSH1 0x1 PUSH1 0x1 PUSH1 0xA0 SHL SUB DUP2 AND DUP2 EQ PUSH3 0xF2 JUMPI DUP2 DUP3 REVERT JUMPDEST SWAP4 SWAP3 POP POP POP JUMP JUMPDEST PUSH2 0x2410 DUP1 PUSH3 0x109 PUSH1 0x0 CODECOPY PUSH1 0x0 RETURN INVALID PUSH1 0x80 PUSH1 0x40 MSTORE PUSH1 0x4 CALLDATASIZE LT PUSH2 0xD6 JUMPI PUSH1 0x0 CALLDATALOAD PUSH1 0xE0 SHR DUP1 PUSH4 0x8743F402 GT PUSH2 0x7F JUMPI DUP1 PUSH4 0x8ED3747C GT PUSH2 0x59 JUMPI DUP1 PUSH4 0x8ED3747C EQ PUSH2 0x2A1 JUMPI DUP1 PUSH4 0xC3CA7F31 EQ PUSH2 0x2B4 JUMPI DUP1 PUSH4 0xF2FDE38B EQ PUSH2 0x2CA JUMPI DUP1 PUSH4 0xFEEE9977 EQ PUSH2 0x2EA JUMPI PUSH1 0x0 DUP1 REVERT JUMPDEST DUP1 PUSH4 0x8743F402 EQ PUSH2 0x234 JUMPI DUP1 PUSH4 0x8DA5CB5B EQ PUSH2 0x247 JUMPI DUP1 PUSH4 0x8E9B7AB8 EQ PUSH2 0x272 JUMPI PUSH1 0x0 DUP1 REVERT JUMPDEST DUP1 PUSH4 0x3FC8CEF3 GT PUSH2 0xB0 JUMPI DUP1 PUSH4 0x3FC8CEF3 EQ PUSH2 0x1AD JUMPI DUP1 PUSH4 0x715018A6 EQ PUSH2 0x1FF JUMPI DUP1 PUSH4 0x787DCE3D EQ PUSH2 0x214 JUMPI PUSH1 0x0 DUP1 REVERT JUMPDEST DUP1 PUSH4 0xB4501FD EQ PUSH2 0x151 JUMPI DUP1 PUSH4 0x3741454D EQ PUSH2 0x17A JUMPI DUP1 PUSH4 0x3963510B EQ PUSH2 0x19A JUMPI PUSH1 0x0 DUP1 REVERT JUMPDEST CALLDATASIZE PUSH2 0x14C JUMPI CALLER ORIGIN EQ ISZERO PUSH2 0x14A JUMPI PUSH1 0x40 MLOAD PUSH32 0x8C379A000000000000000000000000000000000000000000000000000000000 DUP2 MSTORE PUSH1 0x20 PUSH1 0x4 DUP3 ADD MSTORE PUSH1 0x14 PUSH1 0x24 DUP3 ADD MSTORE PUSH32 0x455448206465706F7369742072656A6563746564000000000000000000000000 PUSH1 0x44 DUP3 ADD MSTORE PUSH1 0x64 ADD JUMPDEST PUSH1 0x40 MLOAD DUP1 SWAP2 SUB SWAP1 REVERT JUMPDEST STOP JUMPDEST PUSH1 0x0 DUP1 REVERT JUMPDEST CALLVALUE DUP1 ISZERO PUSH2 0x15D JUMPI PUSH1 0x0 DUP1 REVERT JUMPDEST POP PUSH2 0x167 PUSH1 0x3 SLOAD DUP2 JUMP JUMPDEST PUSH1 0x40 MLOAD SWAP1 DUP2 MSTORE PUSH1 0x20 ADD JUMPDEST PUSH1 0x40 MLOAD DUP1 SWAP2 SUB SWAP1 RETURN JUMPDEST CALLVALUE DUP1 ISZERO PUSH2 0x186 JUMPI PUSH1 0x0 DUP1 REVERT JUMPDEST POP PUSH2 0x14A PUSH2 0x195 CALLDATASIZE PUSH1 0x4 PUSH2 0x1E6F JUMP JUMPDEST PUSH2 0x30A JUMP JUMPDEST PUSH2 0x14A PUSH2 0x1A8 CALLDATASIZE PUSH1 0x4 PUSH2 0x1CE7 JUMP JUMPDEST PUSH2 0x3DE JUMP JUMPDEST CALLVALUE DUP1 ISZERO PUSH2 0x1B9 JUMPI PUSH1 0x0 DUP1 REVERT JUMPDEST POP PUSH1 0x5 SLOAD PUSH2 0x1DA SWAP1 PUSH20 0xFFFFFFFFFFFFFFFFFFFFFFFFFFFFFFFFFFFFFFFF AND DUP2 JUMP JUMPDEST PUSH1 0x40 MLOAD PUSH20 0xFFFFFFFFFFFFFFFFFFFFFFFFFFFFFFFFFFFFFFFF SWAP1 SWAP2 AND DUP2 MSTORE PUSH1 0x20 ADD PUSH2 0x171 JUMP JUMPDEST CALLVALUE DUP1 ISZERO PUSH2 0x20B JUMPI PUSH1 0x0 DUP1 REVERT JUMPDEST POP PUSH2 0x14A PUSH2 0x5C4 JUMP JUMPDEST CALLVALUE DUP1 ISZERO PUSH2 0x220 JUMPI PUSH1 0x0 DUP1 REVERT JUMPDEST POP PUSH2 0x14A PUSH2 0x22F CALLDATASIZE PUSH1 0x4 PUSH2 0x1E6F JUMP JUMPDEST PUSH2 0x5D8 JUMP JUMPDEST PUSH2 0x14A PUSH2 0x242 CALLDATASIZE PUSH1 0x4 PUSH2 0x1E9F JUMP JUMPDEST PUSH2 0x6A5 JUMP JUMPDEST CALLVALUE DUP1 ISZERO PUSH2 0x253 JUMPI PUSH1 0x0 DUP1 REVERT JUMPDEST POP PUSH1 0x0 SLOAD PUSH20 0xFFFFFFFFFFFFFFFFFFFFFFFFFFFFFFFFFFFFFFFF AND PUSH2 0x1DA JUMP JUMPDEST CALLVALUE DUP1 ISZERO PUSH2 0x27E JUMPI PUSH1 0x0 DUP1 REVERT JUMPDEST POP PUSH2 0x292 PUSH2 0x28D CALLDATASIZE PUSH1 0x4 PUSH2 0x1CE7 JUMP JUMPDEST PUSH2 0xFD3 JUMP JUMPDEST PUSH1 0x40 MLOAD PUSH2 0x171 SWAP4 SWAP3 SWAP2 SWAP1 PUSH2 0x209A JUMP JUMPDEST PUSH2 0x14A PUSH2 0x2AF CALLDATASIZE PUSH1 0x4 PUSH2 0x1FB5 JUMP JUMPDEST PUSH2 0x1082 JUMP JUMPDEST CALLVALUE DUP1 ISZERO PUSH2 0x2C0 JUMPI PUSH1 0x0 DUP1 REVERT JUMPDEST POP PUSH2 0x167 PUSH1 0x2 SLOAD DUP2 JUMP JUMPDEST CALLVALUE DUP1 ISZERO PUSH2 0x2D6 JUMPI PUSH1 0x0 DUP1 REVERT JUMPDEST POP PUSH2 0x14A PUSH2 0x2E5 CALLDATASIZE PUSH1 0x4 PUSH2 0x1CE7 JUMP JUMPDEST PUSH2 0x14D2 JUMP JUMPDEST CALLVALUE DUP1 ISZERO PUSH2 0x2F6 JUMPI PUSH1 0x0 DUP1 REVERT JUMPDEST POP PUSH2 0x14A PUSH2 0x305 CALLDATASIZE PUSH1 0x4 PUSH2 0x1D03 JUMP JUMPDEST PUSH2 0x1589 JUMP JUMPDEST PUSH2 0x312 PUSH2 0x1737 JUMP JUMPDEST PUSH1 0x0 DUP2 GT PUSH2 0x3A2 JUMPI PUSH1 0x40 MLOAD PUSH32 0x8C379A000000000000000000000000000000000000000000000000000000000 DUP2 MSTORE PUSH1 0x20 PUSH1 0x4 DUP3 ADD MSTORE PUSH1 0x3E PUSH1 0x24 DUP3 ADD MSTORE PUSH32 0x53757065724C696E6B3A20466565206D757374206265206120706F7369746976 PUSH1 0x44 DUP3 ADD MSTORE PUSH32 0x65206E756D62657220616E642067726561746572207468616E207A65726F0000 PUSH1 0x64 DUP3 ADD MSTORE PUSH1 0x84 ADD PUSH2 0x141 JUMP JUMPDEST PUSH1 0x2 DUP2 SWAP1 SSTORE PUSH1 0x40 MLOAD DUP2 DUP2 MSTORE PUSH32 0xD8A1A03D14CF70B1537A82ECF286CF743B3D756D06D6C3279D312B9279CB36C4 SWAP1 PUSH1 0x20 ADD JUMPDEST PUSH1 0x40 MLOAD DUP1 SWAP2 SUB SWAP1 LOG1 POP JUMP JUMPDEST PUSH2 0x3E6 PUSH2 0x1737 JUMP JUMPDEST PUSH1 0x40 MLOAD PUSH32 0x70A0823100000000000000000000000000000000000000000000000000000000 DUP2 MSTORE ADDRESS PUSH1 0x4 DUP3 ADD MSTORE PUSH1 0x0 SWAP1 PUSH20 0xFFFFFFFFFFFFFFFFFFFFFFFFFFFFFFFFFFFFFFFF DUP4 AND SWAP1 PUSH4 0x70A08231 SWAP1 PUSH1 0x24 ADD PUSH1 0x20 PUSH1 0x40 MLOAD DUP1 DUP4 SUB DUP2 DUP7 DUP1 EXTCODESIZE ISZERO DUP1 ISZERO PUSH2 0x44E JUMPI PUSH1 0x0 DUP1 REVERT JUMPDEST POP GAS STATICCALL ISZERO DUP1 ISZERO PUSH2 0x462 JUMPI RETURNDATASIZE PUSH1 0x0 DUP1 RETURNDATACOPY RETURNDATASIZE PUSH1 0x0 REVERT JUMPDEST POP POP POP POP PUSH1 0x40 MLOAD RETURNDATASIZE PUSH1 0x1F NOT PUSH1 0x1F DUP3 ADD AND DUP3 ADD DUP1 PUSH1 0x40 MSTORE POP DUP2 ADD SWAP1 PUSH2 0x486 SWAP2 SWAP1 PUSH2 0x1E87 JUMP JUMPDEST SWAP1 POP SELFBALANCE DUP2 ISZERO PUSH2 0x571 JUMPI DUP3 PUSH20 0xFFFFFFFFFFFFFFFFFFFFFFFFFFFFFFFFFFFFFFFF AND PUSH4 0xA9059CBB PUSH2 0x4CA PUSH1 0x0 SLOAD PUSH20 0xFFFFFFFFFFFFFFFFFFFFFFFFFFFFFFFFFFFFFFFF AND SWAP1 JUMP JUMPDEST PUSH1 0x40 MLOAD PUSH32 0xFFFFFFFF00000000000000000000000000000000000000000000000000000000 PUSH1 0xE0 DUP5 SWAP1 SHL AND DUP2 MSTORE PUSH20 0xFFFFFFFFFFFFFFFFFFFFFFFFFFFFFFFFFFFFFFFF SWAP1 SWAP2 AND PUSH1 0x4 DUP3 ADD MSTORE PUSH1 0x24 DUP2 ADD DUP6 SWAP1 MSTORE PUSH1 0x44 ADD PUSH1 0x20 PUSH1 0x40 MLOAD DUP1 DUP4 SUB DUP2 PUSH1 0x0 DUP8 DUP1 EXTCODESIZE ISZERO DUP1 ISZERO PUSH2 0x537 JUMPI PUSH1 0x0 DUP1 REVERT JUMPDEST POP GAS CALL ISZERO DUP1 ISZERO PUSH2 0x54B JUMPI RETURNDATASIZE PUSH1 0x0 DUP1 RETURNDATACOPY RETURNDATASIZE PUSH1 0x0 REVERT JUMPDEST POP POP POP POP PUSH1 0x40 MLOAD RETURNDATASIZE PUSH1 0x1F NOT PUSH1 0x1F DUP3 ADD AND DUP3 ADD DUP1 PUSH1 0x40 MSTORE POP DUP2 ADD SWAP1 PUSH2 0x56F SWAP2 SWAP1 PUSH2 0x1D78 JUMP JUMPDEST POP JUMPDEST DUP1 ISZERO PUSH2 0x5BF JUMPI PUSH1 0x0 DUP1 SLOAD PUSH1 0x40 MLOAD PUSH20 0xFFFFFFFFFFFFFFFFFFFFFFFFFFFFFFFFFFFFFFFF SWAP1 SWAP2 AND SWAP2 DUP5 ISZERO PUSH2 0x8FC MUL SWAP2 DUP6 SWAP2 DUP2 DUP2 DUP2 DUP6 DUP9 DUP9 CALL SWAP4 POP POP POP POP ISZERO DUP1 ISZERO PUSH2 0x5BD JUMPI RETURNDATASIZE PUSH1 0x0 DUP1 RETURNDATACOPY RETURNDATASIZE PUSH1 0x0 REVERT JUMPDEST POP JUMPDEST POP POP POP JUMP JUMPDEST PUSH2 0x5CC PUSH2 0x1737 JUMP JUMPDEST PUSH2 0x5D6 PUSH1 0x0 PUSH2 0x17B8 JUMP JUMPDEST JUMP JUMPDEST PUSH2 0x5E0 PUSH2 0x1737 JUMP JUMPDEST PUSH1 0x0 DUP2 GT PUSH2 0x670 JUMPI PUSH1 0x40 MLOAD PUSH32 0x8C379A000000000000000000000000000000000000000000000000000000000 DUP2 MSTORE PUSH1 0x20 PUSH1 0x4 DUP3 ADD MSTORE PUSH1 0x3E PUSH1 0x24 DUP3 ADD MSTORE PUSH32 0x53757065724C696E6B3A20466565206D757374206265206120706F7369746976 PUSH1 0x44 DUP3 ADD MSTORE PUSH32 0x65206E756D62657220616E642067726561746572207468616E207A65726F0000 PUSH1 0x64 DUP3 ADD MSTORE PUSH1 0x84 ADD PUSH2 0x141 JUMP JUMPDEST PUSH1 0x3 DUP2 SWAP1 SSTORE PUSH1 0x40 MLOAD DUP2 DUP2 MSTORE PUSH32 0xDC0410A296E1E33943A772020D333D5F99319D7FCAD932A484C53889F7AAA2B1 SWAP1 PUSH1 0x20 ADD PUSH2 0x3D3 JUMP JUMPDEST PUSH2 0x6AD PUSH2 0x182D JUMP JUMPDEST PUSH20 0xFFFFFFFFFFFFFFFFFFFFFFFFFFFFFFFFFFFFFFFF DUP6 AND PUSH2 0x732 JUMPI DUP6 CALLVALUE LT ISZERO PUSH2 0x732 JUMPI PUSH1 0x40 MLOAD PUSH32 0x8C379A000000000000000000000000000000000000000000000000000000000 DUP2 MSTORE PUSH1 0x20 PUSH1 0x4 DUP3 ADD MSTORE PUSH1 0x14 PUSH1 0x24 DUP3 ADD MSTORE PUSH32 0x4E6F7420656E6F75676820656666696369656E74000000000000000000000000 PUSH1 0x44 DUP3 ADD MSTORE PUSH1 0x64 ADD PUSH2 0x141 JUMP JUMPDEST PUSH1 0x0 DUP6 PUSH20 0xFFFFFFFFFFFFFFFFFFFFFFFFFFFFFFFFFFFFFFFF AND PUSH4 0x70A08231 DUP6 PUSH1 0x0 DUP2 MLOAD DUP2 LT PUSH2 0x78A JUMPI PUSH32 0x4E487B7100000000000000000000000000000000000000000000000000000000 PUSH1 0x0 MSTORE PUSH1 0x32 PUSH1 0x4 MSTORE PUSH1 0x24 PUSH1 0x0 REVERT JUMPDEST PUSH1 0x20 MUL PUSH1 0x20 ADD ADD MLOAD PUSH1 0x40 MLOAD DUP3 PUSH4 0xFFFFFFFF AND PUSH1 0xE0 SHL DUP2 MSTORE PUSH1 0x4 ADD PUSH2 0x7CA SWAP2 SWAP1 PUSH20 0xFFFFFFFFFFFFFFFFFFFFFFFFFFFFFFFFFFFFFFFF SWAP2 SWAP1 SWAP2 AND DUP2 MSTORE PUSH1 0x20 ADD SWAP1 JUMP JUMPDEST PUSH1 0x20 PUSH1 0x40 MLOAD DUP1 DUP4 SUB DUP2 DUP7 DUP1 EXTCODESIZE ISZERO DUP1 ISZERO PUSH2 0x7E2 JUMPI PUSH1 0x0 DUP1 REVERT JUMPDEST POP GAS STATICCALL ISZERO DUP1 ISZERO PUSH2 0x7F6 JUMPI RETURNDATASIZE PUSH1 0x0 DUP1 RETURNDATACOPY RETURNDATASIZE PUSH1 0x0 REVERT JUMPDEST POP POP POP POP PUSH1 0x40 MLOAD RETURNDATASIZE PUSH1 0x1F NOT PUSH1 0x1F DUP3 ADD AND DUP3 ADD DUP1 PUSH1 0x40 MSTORE POP DUP2 ADD SWAP1 PUSH2 0x81A SWAP2 SWAP1 PUSH2 0x1E87 JUMP JUMPDEST PUSH1 0x40 MLOAD PUSH32 0x70A0823100000000000000000000000000000000000000000000000000000000 DUP2 MSTORE ADDRESS PUSH1 0x4 DUP3 ADD MSTORE SWAP1 SWAP2 POP PUSH1 0x0 SWAP1 PUSH20 0xFFFFFFFFFFFFFFFFFFFFFFFFFFFFFFFFFFFFFFFF DUP8 AND SWAP1 PUSH4 0x70A08231 SWAP1 PUSH1 0x24 ADD PUSH1 0x20 PUSH1 0x40 MLOAD DUP1 DUP4 SUB DUP2 DUP7 DUP1 EXTCODESIZE ISZERO DUP1 ISZERO PUSH2 0x885 JUMPI PUSH1 0x0 DUP1 REVERT JUMPDEST POP GAS STATICCALL ISZERO DUP1 ISZERO PUSH2 0x899 JUMPI RETURNDATASIZE PUSH1 0x0 DUP1 RETURNDATACOPY RETURNDATASIZE PUSH1 0x0 REVERT JUMPDEST POP POP POP POP PUSH1 0x40 MLOAD RETURNDATASIZE PUSH1 0x1F NOT PUSH1 0x1F DUP3 ADD AND DUP3 ADD DUP1 PUSH1 0x40 MSTORE POP DUP2 ADD SWAP1 PUSH2 0x8BD SWAP2 SWAP1 PUSH2 0x1E87 JUMP JUMPDEST SWAP1 POP PUSH2 0x90B DUP8 DUP10 DUP8 PUSH1 0x0 DUP2 MLOAD DUP2 LT PUSH2 0x8FE JUMPI PUSH32 0x4E487B7100000000000000000000000000000000000000000000000000000000 PUSH1 0x0 MSTORE PUSH1 0x32 PUSH1 0x4 MSTORE PUSH1 0x24 PUSH1 0x0 REVERT JUMPDEST PUSH1 0x20 MUL PUSH1 0x20 ADD ADD MLOAD PUSH2 0x18A1 JUMP JUMPDEST DUP5 MLOAD PUSH1 0x0 JUMPDEST DUP2 DUP2 LT ISZERO PUSH2 0xE26 JUMPI PUSH1 0x0 DUP7 DUP3 DUP2 MLOAD DUP2 LT PUSH2 0x953 JUMPI PUSH32 0x4E487B7100000000000000000000000000000000000000000000000000000000 PUSH1 0x0 MSTORE PUSH1 0x32 PUSH1 0x4 MSTORE PUSH1 0x24 PUSH1 0x0 REVERT JUMPDEST PUSH1 0x20 MUL PUSH1 0x20 ADD ADD MLOAD DUP1 PUSH1 0x20 ADD SWAP1 MLOAD DUP2 ADD SWAP1 PUSH2 0x96E SWAP2 SWAP1 PUSH2 0x1D94 JUMP JUMPDEST SWAP1 POP PUSH1 0x0 DUP2 PUSH1 0x0 ADD MLOAD PUSH20 0xFFFFFFFFFFFFFFFFFFFFFFFFFFFFFFFFFFFFFFFF AND PUSH4 0x70A08231 DUP11 DUP6 DUP2 MLOAD DUP2 LT PUSH2 0x9CB JUMPI PUSH32 0x4E487B7100000000000000000000000000000000000000000000000000000000 PUSH1 0x0 MSTORE PUSH1 0x32 PUSH1 0x4 MSTORE PUSH1 0x24 PUSH1 0x0 REVERT JUMPDEST PUSH1 0x20 MUL PUSH1 0x20 ADD ADD MLOAD PUSH1 0x40 MLOAD DUP3 PUSH4 0xFFFFFFFF AND PUSH1 0xE0 SHL DUP2 MSTORE PUSH1 0x4 ADD PUSH2 0xA0B SWAP2 SWAP1 PUSH20 0xFFFFFFFFFFFFFFFFFFFFFFFFFFFFFFFFFFFFFFFF SWAP2 SWAP1 SWAP2 AND DUP2 MSTORE PUSH1 0x20 ADD SWAP1 JUMP JUMPDEST PUSH1 0x20 PUSH1 0x40 MLOAD DUP1 DUP4 SUB DUP2 DUP7 DUP1 EXTCODESIZE ISZERO DUP1 ISZERO PUSH2 0xA23 JUMPI PUSH1 0x0 DUP1 REVERT JUMPDEST POP GAS STATICCALL ISZERO DUP1 ISZERO PUSH2 0xA37 JUMPI RETURNDATASIZE PUSH1 0x0 DUP1 RETURNDATACOPY RETURNDATASIZE PUSH1 0x0 REVERT JUMPDEST POP POP POP POP PUSH1 0x40 MLOAD RETURNDATASIZE PUSH1 0x1F NOT PUSH1 0x1F DUP3 ADD AND DUP3 ADD DUP1 PUSH1 0x40 MSTORE POP DUP2 ADD SWAP1 PUSH2 0xA5B SWAP2 SWAP1 PUSH2 0x1E87 JUMP JUMPDEST SWAP1 POP PUSH1 0x0 PUSH2 0xA69 DUP8 DUP4 PUSH2 0x227C JUMP JUMPDEST SWAP1 POP PUSH1 0x0 PUSH2 0xA78 PUSH1 0x1 DUP8 PUSH2 0x227C JUMP JUMPDEST DUP6 EQ PUSH2 0xACE JUMPI DUP11 PUSH2 0xA8A DUP7 PUSH1 0x1 PUSH2 0x2264 JUMP JUMPDEST DUP2 MLOAD DUP2 LT PUSH2 0xAC1 JUMPI PUSH32 0x4E487B7100000000000000000000000000000000000000000000000000000000 PUSH1 0x0 MSTORE PUSH1 0x32 PUSH1 0x4 MSTORE PUSH1 0x24 PUSH1 0x0 REVERT JUMPDEST PUSH1 0x20 MUL PUSH1 0x20 ADD ADD MLOAD PUSH2 0xAD0 JUMP JUMPDEST ADDRESS JUMPDEST SWAP1 POP PUSH2 0xADD PUSH1 0x1 DUP8 PUSH2 0x227C JUMP JUMPDEST DUP6 EQ PUSH2 0xBDB JUMPI PUSH1 0x20 DUP5 ADD MLOAD PUSH20 0xFFFFFFFFFFFFFFFFFFFFFFFFFFFFFFFFFFFFFFFF AND PUSH4 0x70A08231 DUP13 PUSH2 0xB0F DUP9 PUSH1 0x1 PUSH2 0x2264 JUMP JUMPDEST DUP2 MLOAD DUP2 LT PUSH2 0xB46 JUMPI PUSH32 0x4E487B7100000000000000000000000000000000000000000000000000000000 PUSH1 0x0 MSTORE PUSH1 0x32 PUSH1 0x4 MSTORE PUSH1 0x24 PUSH1 0x0 REVERT JUMPDEST PUSH1 0x20 MUL PUSH1 0x20 ADD ADD MLOAD PUSH1 0x40 MLOAD DUP3 PUSH4 0xFFFFFFFF AND PUSH1 0xE0 SHL DUP2 MSTORE PUSH1 0x4 ADD PUSH2 0xB86 SWAP2 SWAP1 PUSH20 0xFFFFFFFFFFFFFFFFFFFFFFFFFFFFFFFFFFFFFFFF SWAP2 SWAP1 SWAP2 AND DUP2 MSTORE PUSH1 0x20 ADD SWAP1 JUMP JUMPDEST PUSH1 0x20 PUSH1 0x40 MLOAD DUP1 DUP4 SUB DUP2 DUP7 DUP1 EXTCODESIZE ISZERO DUP1 ISZERO PUSH2 0xB9E JUMPI PUSH1 0x0 DUP1 REVERT JUMPDEST POP GAS STATICCALL ISZERO DUP1 ISZERO PUSH2 0xBB2 JUMPI RETURNDATASIZE PUSH1 0x0 DUP1 RETURNDATACOPY RETURNDATASIZE PUSH1 0x0 REVERT JUMPDEST POP POP POP POP PUSH1 0x40 MLOAD RETURNDATASIZE PUSH1 0x1F NOT PUSH1 0x1F DUP3 ADD AND DUP3 ADD DUP1 PUSH1 0x40 MSTORE POP DUP2 ADD SWAP1 PUSH2 0xBD6 SWAP2 SWAP1 PUSH2 0x1E87 JUMP JUMPDEST PUSH2 0xBDE JUMP JUMPDEST PUSH1 0x0 JUMPDEST SWAP8 POP PUSH1 0x0 DUP12 DUP7 DUP2 MLOAD DUP2 LT PUSH2 0xC1B JUMPI PUSH32 0x4E487B7100000000000000000000000000000000000000000000000000000000 PUSH1 0x0 MSTORE PUSH1 0x32 PUSH1 0x4 MSTORE PUSH1 0x24 PUSH1 0x0 REVERT JUMPDEST PUSH1 0x20 MUL PUSH1 0x20 ADD ADD MLOAD PUSH20 0xFFFFFFFFFFFFFFFFFFFFFFFFFFFFFFFFFFFFFFFF AND PUSH4 0x22C0D9F PUSH1 0xE0 SHL DUP5 DUP13 DUP10 DUP2 MLOAD DUP2 LT PUSH2 0xC7B JUMPI PUSH32 0x4E487B7100000000000000000000000000000000000000000000000000000000 PUSH1 0x0 MSTORE PUSH1 0x32 PUSH1 0x4 MSTORE PUSH1 0x24 PUSH1 0x0 REVERT JUMPDEST PUSH1 0x20 MUL PUSH1 0x20 ADD ADD MLOAD DUP6 DUP16 DUP12 DUP2 MLOAD DUP2 LT PUSH2 0xCBD JUMPI PUSH32 0x4E487B7100000000000000000000000000000000000000000000000000000000 PUSH1 0x0 MSTORE PUSH1 0x32 PUSH1 0x4 MSTORE PUSH1 0x24 PUSH1 0x0 REVERT JUMPDEST PUSH1 0x20 MUL PUSH1 0x20 ADD ADD MLOAD PUSH1 0x40 MLOAD PUSH1 0x24 ADD PUSH2 0xCD8 SWAP5 SWAP4 SWAP3 SWAP2 SWAP1 PUSH2 0x213D JUMP JUMPDEST PUSH1 0x40 DUP1 MLOAD PUSH32 0xFFFFFFFFFFFFFFFFFFFFFFFFFFFFFFFFFFFFFFFFFFFFFFFFFFFFFFFFFFFFFFE0 DUP2 DUP5 SUB ADD DUP2 MSTORE SWAP2 DUP2 MSTORE PUSH1 0x20 DUP3 ADD DUP1 MLOAD PUSH28 0xFFFFFFFFFFFFFFFFFFFFFFFFFFFFFFFFFFFFFFFFFFFFFFFFFFFFFFFF AND PUSH32 0xFFFFFFFF00000000000000000000000000000000000000000000000000000000 SWAP1 SWAP5 AND SWAP4 SWAP1 SWAP4 OR SWAP1 SWAP3 MSTORE SWAP1 MLOAD PUSH2 0xD61 SWAP2 SWAP1 PUSH2 0x207E JUMP JUMPDEST PUSH1 0x0 PUSH1 0x40 MLOAD DUP1 DUP4 SUB DUP2 PUSH1 0x0 DUP7 GAS CALL SWAP2 POP POP RETURNDATASIZE DUP1 PUSH1 0x0 DUP2 EQ PUSH2 0xD9E JUMPI PUSH1 0x40 MLOAD SWAP2 POP PUSH1 0x1F NOT PUSH1 0x3F RETURNDATASIZE ADD AND DUP3 ADD PUSH1 0x40 MSTORE RETURNDATASIZE DUP3 MSTORE RETURNDATASIZE PUSH1 0x0 PUSH1 0x20 DUP5 ADD RETURNDATACOPY PUSH2 0xDA3 JUMP JUMPDEST PUSH1 0x60 SWAP2 POP JUMPDEST POP POP SWAP1 POP DUP1 PUSH2 0xE0E JUMPI PUSH1 0x40 MLOAD PUSH32 0x8C379A000000000000000000000000000000000000000000000000000000000 DUP2 MSTORE PUSH1 0x20 PUSH1 0x4 DUP3 ADD MSTORE PUSH1 0xB PUSH1 0x24 DUP3 ADD MSTORE PUSH32 0x6661696C65642063616C6C000000000000000000000000000000000000000000 PUSH1 0x44 DUP3 ADD MSTORE PUSH1 0x64 ADD PUSH2 0x141 JUMP JUMPDEST POP POP POP POP POP DUP1 DUP1 PUSH2 0xE1E SWAP1 PUSH2 0x2313 JUMP JUMPDEST SWAP2 POP POP PUSH2 0x910 JUMP JUMPDEST POP PUSH20 0xFFFFFFFFFFFFFFFFFFFFFFFFFFFFFFFFFFFFFFFF DUP8 AND PUSH2 0xF04 JUMPI PUSH1 0x5 SLOAD PUSH1 0x40 MLOAD PUSH32 0x70A0823100000000000000000000000000000000000000000000000000000000 DUP2 MSTORE ADDRESS PUSH1 0x4 DUP3 ADD MSTORE PUSH1 0x0 SWAP2 DUP5 SWAP2 PUSH20 0xFFFFFFFFFFFFFFFFFFFFFFFFFFFFFFFFFFFFFFFF SWAP1 SWAP2 AND SWAP1 PUSH4 0x70A08231 SWAP1 PUSH1 0x24 ADD PUSH1 0x20 PUSH1 0x40 MLOAD DUP1 DUP4 SUB DUP2 DUP7 DUP1 EXTCODESIZE ISZERO DUP1 ISZERO PUSH2 0xEB0 JUMPI PUSH1 0x0 DUP1 REVERT JUMPDEST POP GAS STATICCALL ISZERO DUP1 ISZERO PUSH2 0xEC4 JUMPI RETURNDATASIZE PUSH1 0x0 DUP1 RETURNDATACOPY RETURNDATASIZE PUSH1 0x0 REVERT JUMPDEST POP POP POP POP PUSH1 0x40 MLOAD RETURNDATASIZE PUSH1 0x1F NOT PUSH1 0x1F DUP3 ADD AND DUP3 ADD DUP1 PUSH1 0x40 MSTORE POP DUP2 ADD SWAP1 PUSH2 0xEE8 SWAP2 SWAP1 PUSH2 0x1E87 JUMP JUMPDEST PUSH2 0xEF2 SWAP2 SWAP1 PUSH2 0x227C JUMP JUMPDEST SWAP1 POP PUSH2 0xEFE DUP2 CALLER PUSH2 0x1A37 JUMP JUMPDEST POP PUSH2 0xFBF JUMP JUMPDEST PUSH1 0x40 MLOAD PUSH32 0x70A0823100000000000000000000000000000000000000000000000000000000 DUP2 MSTORE ADDRESS PUSH1 0x4 DUP3 ADD MSTORE PUSH1 0x0 SWAP1 DUP4 SWAP1 PUSH20 0xFFFFFFFFFFFFFFFFFFFFFFFFFFFFFFFFFFFFFFFF DUP11 AND SWAP1 PUSH4 0x70A08231 SWAP1 PUSH1 0x24 ADD PUSH1 0x20 PUSH1 0x40 MLOAD DUP1 DUP4 SUB DUP2 DUP7 DUP1 EXTCODESIZE ISZERO DUP1 ISZERO PUSH2 0xF6E JUMPI PUSH1 0x0 DUP1 REVERT JUMPDEST POP GAS STATICCALL ISZERO DUP1 ISZERO PUSH2 0xF82 JUMPI RETURNDATASIZE PUSH1 0x0 DUP1 RETURNDATACOPY RETURNDATASIZE PUSH1 0x0 REVERT JUMPDEST POP POP POP POP PUSH1 0x40 MLOAD RETURNDATASIZE PUSH1 0x1F NOT PUSH1 0x1F DUP3 ADD AND DUP3 ADD DUP1 PUSH1 0x40 MSTORE POP DUP2 ADD SWAP1 PUSH2 0xFA6 SWAP2 SWAP1 PUSH2 0x1E87 JUMP JUMPDEST PUSH2 0xFB0 SWAP2 SWAP1 PUSH2 0x227C JUMP JUMPDEST SWAP1 POP PUSH2 0xFBD DUP9 DUP3 CALLER PUSH2 0x1AB0 JUMP JUMPDEST POP JUMPDEST POP POP POP PUSH2 0xFCB PUSH1 0x1 DUP1 SSTORE JUMP JUMPDEST POP POP POP POP POP POP JUMP JUMPDEST PUSH1 0x6 PUSH1 0x20 MSTORE PUSH1 0x0 SWAP1 DUP2 MSTORE PUSH1 0x40 SWAP1 KECCAK256 DUP1 SLOAD PUSH1 0x1 DUP3 ADD DUP1 SLOAD PUSH1 0xFF SWAP1 SWAP3 AND SWAP3 SWAP2 PUSH2 0xFF9 SWAP1 PUSH2 0x22BF JUMP JUMPDEST DUP1 PUSH1 0x1F ADD PUSH1 0x20 DUP1 SWAP2 DIV MUL PUSH1 0x20 ADD PUSH1 0x40 MLOAD SWAP1 DUP2 ADD PUSH1 0x40 MSTORE DUP1 SWAP3 SWAP2 SWAP1 DUP2 DUP2 MSTORE PUSH1 0x20 ADD DUP3 DUP1 SLOAD PUSH2 0x1025 SWAP1 PUSH2 0x22BF JUMP JUMPDEST DUP1 ISZERO PUSH2 0x1072 JUMPI DUP1 PUSH1 0x1F LT PUSH2 0x1047 JUMPI PUSH2 0x100 DUP1 DUP4 SLOAD DIV MUL DUP4 MSTORE SWAP2 PUSH1 0x20 ADD SWAP2 PUSH2 0x1072 JUMP JUMPDEST DUP3 ADD SWAP2 SWAP1 PUSH1 0x0 MSTORE PUSH1 0x20 PUSH1 0x0 KECCAK256 SWAP1 JUMPDEST DUP2 SLOAD DUP2 MSTORE SWAP1 PUSH1 0x1 ADD SWAP1 PUSH1 0x20 ADD DUP1 DUP4 GT PUSH2 0x1055 JUMPI DUP3 SWAP1 SUB PUSH1 0x1F AND DUP3 ADD SWAP2 JUMPDEST POP POP POP POP POP SWAP1 DUP1 PUSH1 0x2 ADD SLOAD SWAP1 POP DUP4 JUMP JUMPDEST PUSH2 0x108A PUSH2 0x182D JUMP JUMPDEST PUSH20 0xFFFFFFFFFFFFFFFFFFFFFFFFFFFFFFFFFFFFFFFF DUP5 AND PUSH2 0x110F JUMPI DUP5 CALLVALUE LT ISZERO PUSH2 0x110F JUMPI PUSH1 0x40 MLOAD PUSH32 0x8C379A000000000000000000000000000000000000000000000000000000000 DUP2 MSTORE PUSH1 0x20 PUSH1 0x4 DUP3 ADD MSTORE PUSH1 0x14 PUSH1 0x24 DUP3 ADD MSTORE PUSH32 0x4E6F7420656E6F75676820656666696369656E74000000000000000000000000 PUSH1 0x44 DUP3 ADD MSTORE PUSH1 0x64 ADD PUSH2 0x141 JUMP JUMPDEST PUSH1 0x40 MLOAD PUSH32 0x70A0823100000000000000000000000000000000000000000000000000000000 DUP2 MSTORE ADDRESS PUSH1 0x4 DUP3 ADD MSTORE PUSH1 0x0 SWAP1 PUSH20 0xFFFFFFFFFFFFFFFFFFFFFFFFFFFFFFFFFFFFFFFF DUP6 AND SWAP1 PUSH4 0x70A08231 SWAP1 PUSH1 0x24 ADD PUSH1 0x20 PUSH1 0x40 MLOAD DUP1 DUP4 SUB DUP2 DUP7 DUP1 EXTCODESIZE ISZERO DUP1 ISZERO PUSH2 0x1177 JUMPI PUSH1 0x0 DUP1 REVERT JUMPDEST POP GAS STATICCALL ISZERO DUP1 ISZERO PUSH2 0x118B JUMPI RETURNDATASIZE PUSH1 0x0 DUP1 RETURNDATACOPY RETURNDATASIZE PUSH1 0x0 REVERT JUMPDEST POP POP POP POP PUSH1 0x40 MLOAD RETURNDATASIZE PUSH1 0x1F NOT PUSH1 0x1F DUP3 ADD AND DUP3 ADD DUP1 PUSH1 0x40 MSTORE POP DUP2 ADD SWAP1 PUSH2 0x11AF SWAP2 SWAP1 PUSH2 0x1E87 JUMP JUMPDEST SWAP1 POP PUSH2 0x11BC DUP6 DUP8 DUP5 PUSH2 0x18A1 JUMP JUMPDEST PUSH1 0x0 DUP3 PUSH20 0xFFFFFFFFFFFFFFFFFFFFFFFFFFFFFFFFFFFFFFFF AND PUSH4 0x79532F14 PUSH1 0xE0 SHL DUP6 ADDRESS DUP9 PUSH1 0x40 MLOAD PUSH1 0x24 ADD PUSH2 0x11F2 SWAP4 SWAP3 SWAP2 SWAP1 PUSH2 0x20C5 JUMP JUMPDEST PUSH1 0x40 DUP1 MLOAD PUSH32 0xFFFFFFFFFFFFFFFFFFFFFFFFFFFFFFFFFFFFFFFFFFFFFFFFFFFFFFFFFFFFFFE0 DUP2 DUP5 SUB ADD DUP2 MSTORE SWAP2 DUP2 MSTORE PUSH1 0x20 DUP3 ADD DUP1 MLOAD PUSH28 0xFFFFFFFFFFFFFFFFFFFFFFFFFFFFFFFFFFFFFFFFFFFFFFFFFFFFFFFF AND PUSH32 0xFFFFFFFF00000000000000000000000000000000000000000000000000000000 SWAP1 SWAP5 AND SWAP4 SWAP1 SWAP4 OR SWAP1 SWAP3 MSTORE SWAP1 MLOAD PUSH2 0x127B SWAP2 SWAP1 PUSH2 0x207E JUMP JUMPDEST PUSH1 0x0 PUSH1 0x40 MLOAD DUP1 DUP4 SUB DUP2 PUSH1 0x0 DUP7 GAS CALL SWAP2 POP POP RETURNDATASIZE DUP1 PUSH1 0x0 DUP2 EQ PUSH2 0x12B8 JUMPI PUSH1 0x40 MLOAD SWAP2 POP PUSH1 0x1F NOT PUSH1 0x3F RETURNDATASIZE ADD AND DUP3 ADD PUSH1 0x40 MSTORE RETURNDATASIZE DUP3 MSTORE RETURNDATASIZE PUSH1 0x0 PUSH1 0x20 DUP5 ADD RETURNDATACOPY PUSH2 0x12BD JUMP JUMPDEST PUSH1 0x60 SWAP2 POP JUMPDEST POP POP SWAP1 POP DUP1 PUSH2 0x1328 JUMPI PUSH1 0x40 MLOAD PUSH32 0x8C379A000000000000000000000000000000000000000000000000000000000 DUP2 MSTORE PUSH1 0x20 PUSH1 0x4 DUP3 ADD MSTORE PUSH1 0x6 PUSH1 0x24 DUP3 ADD MSTORE PUSH32 0x4661696C65640000000000000000000000000000000000000000000000000000 PUSH1 0x44 DUP3 ADD MSTORE PUSH1 0x64 ADD PUSH2 0x141 JUMP JUMPDEST PUSH20 0xFFFFFFFFFFFFFFFFFFFFFFFFFFFFFFFFFFFFFFFF DUP6 AND PUSH2 0x1405 JUMPI PUSH1 0x5 SLOAD PUSH1 0x40 MLOAD PUSH32 0x70A0823100000000000000000000000000000000000000000000000000000000 DUP2 MSTORE ADDRESS PUSH1 0x4 DUP3 ADD MSTORE PUSH1 0x0 SWAP2 DUP5 SWAP2 PUSH20 0xFFFFFFFFFFFFFFFFFFFFFFFFFFFFFFFFFFFFFFFF SWAP1 SWAP2 AND SWAP1 PUSH4 0x70A08231 SWAP1 PUSH1 0x24 ADD PUSH1 0x20 PUSH1 0x40 MLOAD DUP1 DUP4 SUB DUP2 DUP7 DUP1 EXTCODESIZE ISZERO DUP1 ISZERO PUSH2 0x13B1 JUMPI PUSH1 0x0 DUP1 REVERT JUMPDEST POP GAS STATICCALL ISZERO DUP1 ISZERO PUSH2 0x13C5 JUMPI RETURNDATASIZE PUSH1 0x0 DUP1 RETURNDATACOPY RETURNDATASIZE PUSH1 0x0 REVERT JUMPDEST POP POP POP POP PUSH1 0x40 MLOAD RETURNDATASIZE PUSH1 0x1F NOT PUSH1 0x1F DUP3 ADD AND DUP3 ADD DUP1 PUSH1 0x40 MSTORE POP DUP2 ADD SWAP1 PUSH2 0x13E9 SWAP2 SWAP1 PUSH2 0x1E87 JUMP JUMPDEST PUSH2 0x13F3 SWAP2 SWAP1 PUSH2 0x227C JUMP JUMPDEST SWAP1 POP PUSH2 0x13FF DUP2 CALLER PUSH2 0x1A37 JUMP JUMPDEST POP PUSH2 0x14C0 JUMP JUMPDEST PUSH1 0x40 MLOAD PUSH32 0x70A0823100000000000000000000000000000000000000000000000000000000 DUP2 MSTORE ADDRESS PUSH1 0x4 DUP3 ADD MSTORE PUSH1 0x0 SWAP1 DUP4 SWAP1 PUSH20 0xFFFFFFFFFFFFFFFFFFFFFFFFFFFFFFFFFFFFFFFF DUP9 AND SWAP1 PUSH4 0x70A08231 SWAP1 PUSH1 0x24 ADD PUSH1 0x20 PUSH1 0x40 MLOAD DUP1 DUP4 SUB DUP2 DUP7 DUP1 EXTCODESIZE ISZERO DUP1 ISZERO PUSH2 0x146F JUMPI PUSH1 0x0 DUP1 REVERT JUMPDEST POP GAS STATICCALL ISZERO DUP1 ISZERO PUSH2 0x1483 JUMPI RETURNDATASIZE PUSH1 0x0 DUP1 RETURNDATACOPY RETURNDATASIZE PUSH1 0x0 REVERT JUMPDEST POP POP POP POP PUSH1 0x40 MLOAD RETURNDATASIZE PUSH1 0x1F NOT PUSH1 0x1F DUP3 ADD AND DUP3 ADD DUP1 PUSH1 0x40 MSTORE POP DUP2 ADD SWAP1 PUSH2 0x14A7 SWAP2 SWAP1 PUSH2 0x1E87 JUMP JUMPDEST PUSH2 0x14B1 SWAP2 SWAP1 PUSH2 0x227C JUMP JUMPDEST SWAP1 POP PUSH2 0x14BE DUP7 DUP3 CALLER PUSH2 0x1AB0 JUMP JUMPDEST POP JUMPDEST POP POP PUSH2 0x14CB PUSH1 0x1 DUP1 SSTORE JUMP JUMPDEST POP POP POP POP POP JUMP JUMPDEST PUSH2 0x14DA PUSH2 0x1737 JUMP JUMPDEST PUSH20 0xFFFFFFFFFFFFFFFFFFFFFFFFFFFFFFFFFFFFFFFF DUP2 AND PUSH2 0x157D JUMPI PUSH1 0x40 MLOAD PUSH32 0x8C379A000000000000000000000000000000000000000000000000000000000 DUP2 MSTORE PUSH1 0x20 PUSH1 0x4 DUP3 ADD MSTORE PUSH1 0x26 PUSH1 0x24 DUP3 ADD MSTORE PUSH32 0x4F776E61626C653A206E6577206F776E657220697320746865207A65726F2061 PUSH1 0x44 DUP3 ADD MSTORE PUSH32 0x6464726573730000000000000000000000000000000000000000000000000000 PUSH1 0x64 DUP3 ADD MSTORE PUSH1 0x84 ADD PUSH2 0x141 JUMP JUMPDEST PUSH2 0x1586 DUP2 PUSH2 0x17B8 JUMP JUMPDEST POP JUMP JUMPDEST PUSH2 0x1591 PUSH2 0x1737 JUMP JUMPDEST PUSH20 0xFFFFFFFFFFFFFFFFFFFFFFFFFFFFFFFFFFFFFFFF DUP4 AND PUSH1 0x0 SWAP1 DUP2 MSTORE PUSH1 0x6 PUSH1 0x20 MSTORE PUSH1 0x40 SWAP1 KECCAK256 DUP2 PUSH2 0x16B1 JUMPI DUP1 SLOAD PUSH1 0xFF AND PUSH2 0x164C JUMPI PUSH1 0x40 MLOAD PUSH32 0x8C379A000000000000000000000000000000000000000000000000000000000 DUP2 MSTORE PUSH1 0x20 PUSH1 0x4 DUP3 ADD MSTORE PUSH1 0x23 PUSH1 0x24 DUP3 ADD MSTORE PUSH32 0x53757065724C696E6B3A20506172746E657220616C7265616479206465616374 PUSH1 0x44 DUP3 ADD MSTORE PUSH32 0x6976650000000000000000000000000000000000000000000000000000000000 PUSH1 0x64 DUP3 ADD MSTORE PUSH1 0x84 ADD PUSH2 0x141 JUMP JUMPDEST DUP1 SLOAD PUSH32 0xFFFFFFFFFFFFFFFFFFFFFFFFFFFFFFFFFFFFFFFFFFFFFFFFFFFFFFFFFFFFFF00 AND DUP2 SSTORE PUSH1 0x40 MLOAD PUSH32 0xA21850025DAABC70FE4A4D95CB5FF2B0220D335C70EC66EC912B3846F17368DD SWAP1 PUSH2 0x16A4 SWAP1 DUP6 SWAP1 DUP8 SWAP1 PUSH2 0x2105 JUMP JUMPDEST PUSH1 0x40 MLOAD DUP1 SWAP2 SUB SWAP1 LOG1 PUSH2 0x5BD JUMP JUMPDEST DUP1 SLOAD PUSH32 0xFFFFFFFFFFFFFFFFFFFFFFFFFFFFFFFFFFFFFFFFFFFFFFFFFFFFFFFFFFFFFF00 AND DUP3 ISZERO ISZERO OR DUP2 SSTORE DUP3 MLOAD PUSH2 0x16F0 SWAP1 PUSH1 0x1 DUP4 ADD SWAP1 PUSH1 0x20 DUP7 ADD SWAP1 PUSH2 0x1B00 JUMP JUMPDEST POP TIMESTAMP PUSH1 0x2 DUP3 ADD SSTORE PUSH1 0x40 MLOAD PUSH32 0xEF384E7F5414FFFF90018F9AB6C0621F523B5B11D1D17A831CC331BAF00E26F7 SWAP1 PUSH2 0x1729 SWAP1 DUP6 SWAP1 DUP8 SWAP1 PUSH2 0x2105 JUMP JUMPDEST PUSH1 0x40 MLOAD DUP1 SWAP2 SUB SWAP1 LOG1 POP POP POP POP JUMP JUMPDEST PUSH1 0x0 SLOAD PUSH20 0xFFFFFFFFFFFFFFFFFFFFFFFFFFFFFFFFFFFFFFFF AND CALLER EQ PUSH2 0x5D6 JUMPI PUSH1 0x40 MLOAD PUSH32 0x8C379A000000000000000000000000000000000000000000000000000000000 DUP2 MSTORE PUSH1 0x20 PUSH1 0x4 DUP3 ADD DUP2 SWAP1 MSTORE PUSH1 0x24 DUP3 ADD MSTORE PUSH32 0x4F776E61626C653A2063616C6C6572206973206E6F7420746865206F776E6572 PUSH1 0x44 DUP3 ADD MSTORE PUSH1 0x64 ADD PUSH2 0x141 JUMP JUMPDEST PUSH1 0x0 DUP1 SLOAD PUSH20 0xFFFFFFFFFFFFFFFFFFFFFFFFFFFFFFFFFFFFFFFF DUP4 DUP2 AND PUSH32 0xFFFFFFFFFFFFFFFFFFFFFFFF0000000000000000000000000000000000000000 DUP4 AND DUP2 OR DUP5 SSTORE PUSH1 0x40 MLOAD SWAP2 SWAP1 SWAP3 AND SWAP3 DUP4 SWAP2 PUSH32 0x8BE0079C531659141344CD1FD0A4F28419497F9722A3DAAFE3B4186F6B6457E0 SWAP2 SWAP1 LOG3 POP POP JUMP JUMPDEST PUSH1 0x2 PUSH1 0x1 SLOAD EQ ISZERO PUSH2 0x189A JUMPI PUSH1 0x40 MLOAD PUSH32 0x8C379A000000000000000000000000000000000000000000000000000000000 DUP2 MSTORE PUSH1 0x20 PUSH1 0x4 DUP3 ADD MSTORE PUSH1 0x1F PUSH1 0x24 DUP3 ADD MSTORE PUSH32 0x5265656E7472616E637947756172643A207265656E7472616E742063616C6C00 PUSH1 0x44 DUP3 ADD MSTORE PUSH1 0x64 ADD PUSH2 0x141 JUMP JUMPDEST PUSH1 0x2 PUSH1 0x1 SSTORE JUMP JUMPDEST PUSH2 0x18FE JUMP JUMPDEST RETURNDATASIZE PUSH1 0x0 DUP1 RETURNDATACOPY RETURNDATASIZE PUSH1 0x0 REVERT JUMPDEST PUSH32 0x8C379A000000000000000000000000000000000000000000000000000000000 PUSH1 0x0 MSTORE PUSH29 0x2000000000000000000000000000000000000000000000000000000000 PUSH1 0x20 MSTORE DUP1 PUSH1 0x40 MSTORE DUP2 PUSH1 0x0 REVERT JUMPDEST PUSH1 0x40 MLOAD PUSH1 0xC0 DUP2 ADD PUSH1 0x40 MSTORE DUP4 PUSH1 0x0 DUP2 EQ PUSH2 0x1990 JUMPI CALLVALUE ISZERO PUSH2 0x193F JUMPI PUSH2 0x193F PUSH1 0x55 PUSH29 0x11696E76616C6964206D73672E76616C75650000000000000000000000 PUSH2 0x18B0 JUMP JUMPDEST PUSH32 0x23B872DD00000000000000000000000000000000000000000000000000000000 DUP3 MSTORE CALLER PUSH1 0x4 DUP4 ADD MSTORE DUP3 PUSH1 0x24 DUP4 ADD MSTORE DUP4 PUSH1 0x44 DUP4 ADD MSTORE PUSH1 0x0 DUP1 PUSH1 0x64 DUP5 PUSH1 0x0 DUP10 GAS CALL PUSH2 0x198B JUMPI PUSH2 0x198B PUSH2 0x18A6 JUMP JUMPDEST PUSH2 0x14CB JUMP JUMPDEST PUSH32 0xD0E30DB000000000000000000000000000000000000000000000000000000000 DUP3 MSTORE PUSH1 0x0 DUP1 PUSH1 0x4 DUP5 DUP8 PUSH20 0xAE13D989DAC2F0DEBFF460AC112A837C89BAA7CD GAS CALL PUSH2 0x19DD JUMPI PUSH2 0x19DD PUSH2 0x18A6 JUMP JUMPDEST PUSH32 0xA9059CBB00000000000000000000000000000000000000000000000000000000 DUP3 MSTORE DUP3 PUSH1 0x4 DUP4 ADD MSTORE DUP4 PUSH1 0x24 DUP4 ADD MSTORE PUSH1 0x0 DUP1 PUSH1 0x44 DUP5 PUSH1 0x0 PUSH20 0xAE13D989DAC2F0DEBFF460AC112A837C89BAA7CD GAS CALL PUSH2 0x14CB JUMPI PUSH2 0x14CB PUSH2 0x18A6 JUMP JUMPDEST PUSH1 0x40 MLOAD PUSH1 0xC0 DUP2 ADD PUSH1 0x40 MSTORE PUSH32 0x2E1A7D4D00000000000000000000000000000000000000000000000000000000 DUP2 MSTORE DUP3 PUSH1 0x4 DUP3 ADD MSTORE PUSH1 0x0 DUP1 PUSH1 0x24 DUP4 PUSH1 0x0 PUSH20 0xAE13D989DAC2F0DEBFF460AC112A837C89BAA7CD GAS CALL PUSH2 0x1A95 JUMPI PUSH2 0x1A95 PUSH2 0x18A6 JUMP JUMPDEST POP PUSH1 0x0 DUP1 PUSH1 0x0 DUP1 DUP6 DUP6 GAS CALL PUSH2 0x1AAC JUMPI PUSH2 0x1AAC PUSH2 0x18A6 JUMP JUMPDEST POP POP JUMP JUMPDEST PUSH1 0x40 MLOAD PUSH1 0xC0 DUP2 ADD PUSH1 0x40 MSTORE PUSH32 0xA9059CBB00000000000000000000000000000000000000000000000000000000 DUP2 MSTORE DUP2 PUSH1 0x4 DUP3 ADD MSTORE DUP3 PUSH1 0x24 DUP3 ADD MSTORE PUSH1 0x0 DUP1 PUSH1 0x44 DUP4 PUSH1 0x0 DUP9 GAS CALL PUSH2 0x5BD JUMPI PUSH2 0x5BD PUSH2 0x18A6 JUMP JUMPDEST DUP3 DUP1 SLOAD PUSH2 0x1B0C SWAP1 PUSH2 0x22BF JUMP JUMPDEST SWAP1 PUSH1 0x0 MSTORE PUSH1 0x20 PUSH1 0x0 KECCAK256 SWAP1 PUSH1 0x1F ADD PUSH1 0x20 SWAP1 DIV DUP2 ADD SWAP3 DUP3 PUSH2 0x1B2E JUMPI PUSH1 0x0 DUP6 SSTORE PUSH2 0x1B74 JUMP JUMPDEST DUP3 PUSH1 0x1F LT PUSH2 0x1B47 JUMPI DUP1 MLOAD PUSH1 0xFF NOT AND DUP4 DUP1 ADD OR DUP6 SSTORE PUSH2 0x1B74 JUMP JUMPDEST DUP3 DUP1 ADD PUSH1 0x1 ADD DUP6 SSTORE DUP3 ISZERO PUSH2 0x1B74 JUMPI SWAP2 DUP3 ADD JUMPDEST DUP3 DUP2 GT ISZERO PUSH2 0x1B74 JUMPI DUP3 MLOAD DUP3 SSTORE SWAP2 PUSH1 0x20 ADD SWAP2 SWAP1 PUSH1 0x1 ADD SWAP1 PUSH2 0x1B59 JUMP JUMPDEST POP PUSH2 0x1B80 SWAP3 SWAP2 POP PUSH2 0x1B84 JUMP JUMPDEST POP SWAP1 JUMP JUMPDEST JUMPDEST DUP1 DUP3 GT ISZERO PUSH2 0x1B80 JUMPI PUSH1 0x0 DUP2 SSTORE PUSH1 0x1 ADD PUSH2 0x1B85 JUMP JUMPDEST PUSH1 0x0 PUSH2 0x1BAC PUSH2 0x1BA7 DUP5 PUSH2 0x221E JUMP JUMPDEST PUSH2 0x21AB JUMP JUMPDEST SWAP1 POP DUP3 DUP2 MSTORE DUP4 DUP4 DUP4 ADD GT ISZERO PUSH2 0x1BC0 JUMPI PUSH1 0x0 DUP1 REVERT JUMPDEST DUP3 DUP3 PUSH1 0x20 DUP4 ADD CALLDATACOPY PUSH1 0x0 PUSH1 0x20 DUP5 DUP4 ADD ADD MSTORE SWAP4 SWAP3 POP POP POP JUMP JUMPDEST PUSH1 0x0 DUP3 PUSH1 0x1F DUP4 ADD SLT PUSH2 0x1BE7 JUMPI DUP1 DUP2 REVERT JUMPDEST DUP2 CALLDATALOAD PUSH1 0x20 PUSH2 0x1BF7 PUSH2 0x1BA7 DUP4 PUSH2 0x21FA JUMP JUMPDEST DUP1 DUP4 DUP3 MSTORE DUP3 DUP3 ADD SWAP2 POP DUP3 DUP7 ADD DUP8 DUP5 DUP7 PUSH1 0x5 SHL DUP10 ADD ADD GT ISZERO PUSH2 0x1C16 JUMPI DUP6 DUP7 REVERT JUMPDEST DUP6 JUMPDEST DUP6 DUP2 LT ISZERO PUSH2 0x1C57 JUMPI DUP2 CALLDATALOAD PUSH8 0xFFFFFFFFFFFFFFFF DUP2 GT ISZERO PUSH2 0x1C36 JUMPI DUP8 DUP9 REVERT JUMPDEST PUSH2 0x1C44 DUP11 DUP8 DUP4 DUP13 ADD ADD PUSH2 0x1CC1 JUMP JUMPDEST DUP6 MSTORE POP SWAP3 DUP5 ADD SWAP3 SWAP1 DUP5 ADD SWAP1 PUSH1 0x1 ADD PUSH2 0x1C18 JUMP JUMPDEST POP SWAP1 SWAP8 SWAP7 POP POP POP POP POP POP POP JUMP JUMPDEST PUSH1 0x0 DUP3 PUSH1 0x1F DUP4 ADD SLT PUSH2 0x1C74 JUMPI DUP1 DUP2 REVERT JUMPDEST DUP2 CALLDATALOAD PUSH1 0x20 PUSH2 0x1C84 PUSH2 0x1BA7 DUP4 PUSH2 0x21FA JUMP JUMPDEST DUP1 DUP4 DUP3 MSTORE DUP3 DUP3 ADD SWAP2 POP DUP3 DUP7 ADD DUP8 DUP5 DUP7 PUSH1 0x5 SHL DUP10 ADD ADD GT ISZERO PUSH2 0x1CA3 JUMPI DUP6 DUP7 REVERT JUMPDEST DUP6 JUMPDEST DUP6 DUP2 LT ISZERO PUSH2 0x1C57 JUMPI DUP2 CALLDATALOAD DUP5 MSTORE SWAP3 DUP5 ADD SWAP3 SWAP1 DUP5 ADD SWAP1 PUSH1 0x1 ADD PUSH2 0x1CA5 JUMP JUMPDEST PUSH1 0x0 DUP3 PUSH1 0x1F DUP4 ADD SLT PUSH2 0x1CD1 JUMPI DUP1 DUP2 REVERT JUMPDEST PUSH2 0x1CE0 DUP4 DUP4 CALLDATALOAD PUSH1 0x20 DUP6 ADD PUSH2 0x1B99 JUMP JUMPDEST SWAP4 SWAP3 POP POP POP JUMP JUMPDEST PUSH1 0x0 PUSH1 0x20 DUP3 DUP5 SUB SLT ISZERO PUSH2 0x1CF8 JUMPI DUP1 DUP2 REVERT JUMPDEST DUP2 CALLDATALOAD PUSH2 0x1CE0 DUP2 PUSH2 0x23AA JUMP JUMPDEST PUSH1 0x0 DUP1 PUSH1 0x0 PUSH1 0x60 DUP5 DUP7 SUB SLT ISZERO PUSH2 0x1D17 JUMPI DUP2 DUP3 REVERT JUMPDEST DUP4 CALLDATALOAD PUSH2 0x1D22 DUP2 PUSH2 0x23AA JUMP JUMPDEST SWAP3 POP PUSH1 0x20 DUP5 ADD CALLDATALOAD PUSH8 0xFFFFFFFFFFFFFFFF DUP2 GT ISZERO PUSH2 0x1D3D JUMPI DUP3 DUP4 REVERT JUMPDEST DUP5 ADD PUSH1 0x1F DUP2 ADD DUP7 SGT PUSH2 0x1D4D JUMPI DUP3 DUP4 REVERT JUMPDEST PUSH2 0x1D5C DUP7 DUP3 CALLDATALOAD PUSH1 0x20 DUP5 ADD PUSH2 0x1B99 JUMP JUMPDEST SWAP3 POP POP PUSH1 0x40 DUP5 ADD CALLDATALOAD PUSH2 0x1D6D DUP2 PUSH2 0x23CC JUMP JUMPDEST DUP1 SWAP2 POP POP SWAP3 POP SWAP3 POP SWAP3 JUMP JUMPDEST PUSH1 0x0 PUSH1 0x20 DUP3 DUP5 SUB SLT ISZERO PUSH2 0x1D89 JUMPI DUP1 DUP2 REVERT JUMPDEST DUP2 MLOAD PUSH2 0x1CE0 DUP2 PUSH2 0x23CC JUMP JUMPDEST PUSH1 0x0 PUSH1 0x20 DUP1 DUP4 DUP6 SUB SLT ISZERO PUSH2 0x1DA6 JUMPI DUP2 DUP3 REVERT JUMPDEST DUP3 MLOAD PUSH8 0xFFFFFFFFFFFFFFFF DUP1 DUP3 GT ISZERO PUSH2 0x1DBD JUMPI DUP4 DUP5 REVERT JUMPDEST SWAP1 DUP5 ADD SWAP1 PUSH1 0x80 DUP3 DUP8 SUB SLT ISZERO PUSH2 0x1DD0 JUMPI DUP4 DUP5 REVERT JUMPDEST PUSH2 0x1DD8 PUSH2 0x2182 JUMP JUMPDEST DUP3 MLOAD PUSH2 0x1DE3 DUP2 PUSH2 0x23AA JUMP JUMPDEST DUP2 MSTORE DUP3 DUP5 ADD MLOAD PUSH2 0x1DF2 DUP2 PUSH2 0x23AA JUMP JUMPDEST DUP2 DUP6 ADD MSTORE PUSH1 0x40 DUP4 ADD MLOAD PUSH2 0x1E04 DUP2 PUSH2 0x23AA JUMP JUMPDEST PUSH1 0x40 DUP3 ADD MSTORE PUSH1 0x60 DUP4 ADD MLOAD DUP3 DUP2 GT ISZERO PUSH2 0x1E1A JUMPI DUP6 DUP7 REVERT JUMPDEST DUP1 DUP5 ADD SWAP4 POP POP DUP7 PUSH1 0x1F DUP5 ADD SLT PUSH2 0x1E2E JUMPI DUP5 DUP6 REVERT JUMPDEST DUP3 MLOAD SWAP2 POP PUSH2 0x1E3E PUSH2 0x1BA7 DUP4 PUSH2 0x221E JUMP JUMPDEST DUP3 DUP2 MSTORE DUP8 DUP6 DUP5 DUP7 ADD ADD GT ISZERO PUSH2 0x1E51 JUMPI DUP6 DUP7 REVERT JUMPDEST PUSH2 0x1E60 DUP4 DUP7 DUP4 ADD DUP8 DUP8 ADD PUSH2 0x2293 JUMP JUMPDEST PUSH1 0x60 DUP3 ADD MSTORE SWAP7 SWAP6 POP POP POP POP POP POP JUMP JUMPDEST PUSH1 0x0 PUSH1 0x20 DUP3 DUP5 SUB SLT ISZERO PUSH2 0x1E80 JUMPI DUP1 DUP2 REVERT JUMPDEST POP CALLDATALOAD SWAP2 SWAP1 POP JUMP JUMPDEST PUSH1 0x0 PUSH1 0x20 DUP3 DUP5 SUB SLT ISZERO PUSH2 0x1E98 JUMPI DUP1 DUP2 REVERT JUMPDEST POP MLOAD SWAP2 SWAP1 POP JUMP JUMPDEST PUSH1 0x0 DUP1 PUSH1 0x0 DUP1 PUSH1 0x0 DUP1 PUSH1 0xC0 DUP8 DUP10 SUB SLT ISZERO PUSH2 0x1EB7 JUMPI DUP4 DUP5 REVERT JUMPDEST DUP7 CALLDATALOAD SWAP6 POP PUSH1 0x20 DUP1 DUP9 ADD CALLDATALOAD PUSH2 0x1ECA DUP2 PUSH2 0x23AA JUMP JUMPDEST SWAP6 POP PUSH1 0x40 DUP9 ADD CALLDATALOAD PUSH2 0x1EDA DUP2 PUSH2 0x23AA JUMP JUMPDEST SWAP5 POP PUSH1 0x60 DUP9 ADD CALLDATALOAD PUSH8 0xFFFFFFFFFFFFFFFF DUP1 DUP3 GT ISZERO PUSH2 0x1EF6 JUMPI DUP5 DUP6 REVERT JUMPDEST DUP2 DUP11 ADD SWAP2 POP DUP11 PUSH1 0x1F DUP4 ADD SLT PUSH2 0x1F09 JUMPI DUP5 DUP6 REVERT JUMPDEST DUP2 CALLDATALOAD PUSH2 0x1F17 PUSH2 0x1BA7 DUP3 PUSH2 0x21FA JUMP JUMPDEST DUP1 DUP3 DUP3 MSTORE DUP6 DUP3 ADD SWAP2 POP DUP6 DUP6 ADD DUP15 DUP8 DUP6 PUSH1 0x5 SHL DUP9 ADD ADD GT ISZERO PUSH2 0x1F36 JUMPI DUP9 DUP10 REVERT JUMPDEST DUP9 SWAP6 POP JUMPDEST DUP4 DUP7 LT ISZERO PUSH2 0x1F61 JUMPI DUP1 CALLDATALOAD PUSH2 0x1F4D DUP2 PUSH2 0x23AA JUMP JUMPDEST DUP4 MSTORE PUSH1 0x1 SWAP6 SWAP1 SWAP6 ADD SWAP5 SWAP2 DUP7 ADD SWAP2 DUP7 ADD PUSH2 0x1F3A JUMP JUMPDEST POP SWAP8 POP POP POP PUSH1 0x80 DUP11 ADD CALLDATALOAD SWAP3 POP DUP1 DUP4 GT ISZERO PUSH2 0x1F79 JUMPI DUP5 DUP6 REVERT JUMPDEST PUSH2 0x1F85 DUP12 DUP5 DUP13 ADD PUSH2 0x1BD7 JUMP JUMPDEST SWAP5 POP PUSH1 0xA0 DUP11 ADD CALLDATALOAD SWAP3 POP DUP1 DUP4 GT ISZERO PUSH2 0x1F9A JUMPI DUP4 DUP5 REVERT JUMPDEST POP POP PUSH2 0x1FA8 DUP10 DUP3 DUP11 ADD PUSH2 0x1C64 JUMP JUMPDEST SWAP2 POP POP SWAP3 SWAP6 POP SWAP3 SWAP6 POP SWAP3 SWAP6 JUMP JUMPDEST PUSH1 0x0 DUP1 PUSH1 0x0 DUP1 PUSH1 0x0 PUSH1 0xA0 DUP7 DUP9 SUB SLT ISZERO PUSH2 0x1FCC JUMPI DUP3 DUP4 REVERT JUMPDEST DUP6 CALLDATALOAD SWAP5 POP PUSH1 0x20 DUP7 ADD CALLDATALOAD PUSH2 0x1FDE DUP2 PUSH2 0x23AA JUMP JUMPDEST SWAP4 POP PUSH1 0x40 DUP7 ADD CALLDATALOAD PUSH2 0x1FEE DUP2 PUSH2 0x23AA JUMP JUMPDEST SWAP3 POP PUSH1 0x60 DUP7 ADD CALLDATALOAD PUSH8 0xFFFFFFFFFFFFFFFF DUP2 GT ISZERO PUSH2 0x2009 JUMPI DUP2 DUP3 REVERT JUMPDEST PUSH2 0x2015 DUP9 DUP3 DUP10 ADD PUSH2 0x1CC1 JUMP JUMPDEST SWAP3 POP POP PUSH1 0x80 DUP7 ADD CALLDATALOAD PUSH2 0x2026 DUP2 PUSH2 0x23AA JUMP JUMPDEST DUP1 SWAP2 POP POP SWAP3 SWAP6 POP SWAP3 SWAP6 SWAP1 SWAP4 POP JUMP JUMPDEST PUSH1 0x0 DUP2 MLOAD DUP1 DUP5 MSTORE PUSH2 0x204C DUP2 PUSH1 0x20 DUP7 ADD PUSH1 0x20 DUP7 ADD PUSH2 0x2293 JUMP JUMPDEST PUSH1 0x1F ADD PUSH32 0xFFFFFFFFFFFFFFFFFFFFFFFFFFFFFFFFFFFFFFFFFFFFFFFFFFFFFFFFFFFFFFE0 AND SWAP3 SWAP1 SWAP3 ADD PUSH1 0x20 ADD SWAP3 SWAP2 POP POP JUMP JUMPDEST PUSH1 0x0 DUP3 MLOAD PUSH2 0x2090 DUP2 DUP5 PUSH1 0x20 DUP8 ADD PUSH2 0x2293 JUMP JUMPDEST SWAP2 SWAP1 SWAP2 ADD SWAP3 SWAP2 POP POP JUMP JUMPDEST DUP4 ISZERO ISZERO DUP2 MSTORE PUSH1 0x60 PUSH1 0x20 DUP3 ADD MSTORE PUSH1 0x0 PUSH2 0x20B5 PUSH1 0x60 DUP4 ADD DUP6 PUSH2 0x2034 JUMP JUMPDEST SWAP1 POP DUP3 PUSH1 0x40 DUP4 ADD MSTORE SWAP5 SWAP4 POP POP POP POP JUMP JUMPDEST PUSH1 0x60 DUP2 MSTORE PUSH1 0x0 PUSH2 0x20D8 PUSH1 0x60 DUP4 ADD DUP7 PUSH2 0x2034 JUMP JUMPDEST PUSH20 0xFFFFFFFFFFFFFFFFFFFFFFFFFFFFFFFFFFFFFFFF SWAP5 DUP6 AND PUSH1 0x20 DUP5 ADD MSTORE SWAP3 SWAP1 SWAP4 AND PUSH1 0x40 SWAP1 SWAP2 ADD MSTORE SWAP3 SWAP2 POP POP JUMP JUMPDEST PUSH1 0x40 DUP2 MSTORE PUSH1 0x0 PUSH2 0x2118 PUSH1 0x40 DUP4 ADD DUP6 PUSH2 0x2034 JUMP JUMPDEST SWAP1 POP PUSH20 0xFFFFFFFFFFFFFFFFFFFFFFFFFFFFFFFFFFFFFFFF DUP4 AND PUSH1 0x20 DUP4 ADD MSTORE SWAP4 SWAP3 POP POP POP JUMP JUMPDEST DUP5 DUP2 MSTORE DUP4 PUSH1 0x20 DUP3 ADD MSTORE PUSH20 0xFFFFFFFFFFFFFFFFFFFFFFFFFFFFFFFFFFFFFFFF DUP4 AND PUSH1 0x40 DUP3 ADD MSTORE PUSH1 0x80 PUSH1 0x60 DUP3 ADD MSTORE PUSH1 0x0 PUSH2 0x2178 PUSH1 0x80 DUP4 ADD DUP5 PUSH2 0x2034 JUMP JUMPDEST SWAP7 SWAP6 POP POP POP POP POP POP JUMP JUMPDEST PUSH1 0x40 MLOAD PUSH1 0x80 DUP2 ADD PUSH8 0xFFFFFFFFFFFFFFFF DUP2 GT DUP3 DUP3 LT OR ISZERO PUSH2 0x21A5 JUMPI PUSH2 0x21A5 PUSH2 0x237B JUMP JUMPDEST PUSH1 0x40 MSTORE SWAP1 JUMP JUMPDEST PUSH1 0x40 MLOAD PUSH1 0x1F DUP3 ADD PUSH32 0xFFFFFFFFFFFFFFFFFFFFFFFFFFFFFFFFFFFFFFFFFFFFFFFFFFFFFFFFFFFFFFE0 AND DUP2 ADD PUSH8 0xFFFFFFFFFFFFFFFF DUP2 GT DUP3 DUP3 LT OR ISZERO PUSH2 0x21F2 JUMPI PUSH2 0x21F2 PUSH2 0x237B JUMP JUMPDEST PUSH1 0x40 MSTORE SWAP2 SWAP1 POP JUMP JUMPDEST PUSH1 0x0 PUSH8 0xFFFFFFFFFFFFFFFF DUP3 GT ISZERO PUSH2 0x2214 JUMPI PUSH2 0x2214 PUSH2 0x237B JUMP JUMPDEST POP PUSH1 0x5 SHL PUSH1 0x20 ADD SWAP1 JUMP JUMPDEST PUSH1 0x0 PUSH8 0xFFFFFFFFFFFFFFFF DUP3 GT ISZERO PUSH2 0x2238 JUMPI PUSH2 0x2238 PUSH2 0x237B JUMP JUMPDEST POP PUSH1 0x1F ADD PUSH32 0xFFFFFFFFFFFFFFFFFFFFFFFFFFFFFFFFFFFFFFFFFFFFFFFFFFFFFFFFFFFFFFE0 AND PUSH1 0x20 ADD SWAP1 JUMP JUMPDEST PUSH1 0x0 DUP3 NOT DUP3 GT ISZERO PUSH2 0x2277 JUMPI PUSH2 0x2277 PUSH2 0x234C JUMP JUMPDEST POP ADD SWAP1 JUMP JUMPDEST PUSH1 0x0 DUP3 DUP3 LT ISZERO PUSH2 0x228E JUMPI PUSH2 0x228E PUSH2 0x234C JUMP JUMPDEST POP SUB SWAP1 JUMP JUMPDEST PUSH1 0x0 JUMPDEST DUP4 DUP2 LT ISZERO PUSH2 0x22AE JUMPI DUP2 DUP2 ADD MLOAD DUP4 DUP3 ADD MSTORE PUSH1 0x20 ADD PUSH2 0x2296 JUMP JUMPDEST DUP4 DUP2 GT ISZERO PUSH2 0x5BD JUMPI POP POP PUSH1 0x0 SWAP2 ADD MSTORE JUMP JUMPDEST PUSH1 0x1 DUP2 DUP2 SHR SWAP1 DUP3 AND DUP1 PUSH2 0x22D3 JUMPI PUSH1 0x7F DUP3 AND SWAP2 POP JUMPDEST PUSH1 0x20 DUP3 LT DUP2 EQ ISZERO PUSH2 0x230D JUMPI PUSH32 0x4E487B7100000000000000000000000000000000000000000000000000000000 PUSH1 0x0 MSTORE PUSH1 0x22 PUSH1 0x4 MSTORE PUSH1 0x24 PUSH1 0x0 REVERT JUMPDEST POP SWAP2 SWAP1 POP JUMP JUMPDEST PUSH1 0x0 PUSH32 0xFFFFFFFFFFFFFFFFFFFFFFFFFFFFFFFFFFFFFFFFFFFFFFFFFFFFFFFFFFFFFFFF DUP3 EQ ISZERO PUSH2 0x2345 JUMPI PUSH2 0x2345 PUSH2 0x234C JUMP JUMPDEST POP PUSH1 0x1 ADD SWAP1 JUMP JUMPDEST PUSH32 0x4E487B7100000000000000000000000000000000000000000000000000000000 PUSH1 0x0 MSTORE PUSH1 0x11 PUSH1 0x4 MSTORE PUSH1 0x24 PUSH1 0x0 REVERT JUMPDEST PUSH32 0x4E487B7100000000000000000000000000000000000000000000000000000000 PUSH1 0x0 MSTORE PUSH1 0x41 PUSH1 0x4 MSTORE PUSH1 0x24 PUSH1 0x0 REVERT JUMPDEST PUSH20 0xFFFFFFFFFFFFFFFFFFFFFFFFFFFFFFFFFFFFFFFF DUP2 AND DUP2 EQ PUSH2 0x1586 JUMPI PUSH1 0x0 DUP1 REVERT JUMPDEST DUP1 ISZERO ISZERO DUP2 EQ PUSH2 0x1586 JUMPI PUSH1 0x0 DUP1 REVERT INVALID LOG2 PUSH5 0x6970667358 0x22 SLT KECCAK256 0xD9 0xAA 0xA9 0xEB 0x26 CODECOPY 0xA5 0x2E 0xBA 0x21 0xE4 0xED PUSH21 0x45BF01EFCCBBEEE4A702E5A72D0DECDD70B2DF6473 PUSH16 0x6C634300080400330000000000000000 "},"methodIdentifiers":{"PARTNER_FEE()":"c3ca7f31","PROTOCOL_FEE()":"0b4501fd","Partners(address)":"8e9b7ab8","owner()":"8da5cb5b","renounceOwnership()":"715018a6","setPartner(address,string,bool)":"feee9977","setPartnerFee(uint256)":"3741454d","setProtocolFee(uint256)":"787dce3d","swapRoutes(uint256,address,address,bytes,address)":"8ed3747c","swapStraight(uint256,address,address,address[],bytes[],uint256[])":"8743f402","transferOwnership(address)":"f2fde38b","weth()":"3fc8cef3","withdrawStuckERC20(address)":"3963510b"}},"storageLayout":{"storage":[{"astId":7,"contract":"contracts/DemoAdapter(Full).sol:DemoAdapter1","label":"_owner","offset":0,"slot":"0","type":"t_address"},{"astId":123,"contract":"contracts/DemoAdapter(Full).sol:DemoAdapter1","label":"_status","offset":0,"slot":"1","type":"t_uint256"},{"astId":1547,"contract":"contracts/DemoAdapter(Full).sol:DemoAdapter1","label":"PARTNER_FEE","offset":0,"slot":"2","type":"t_uint256"},{"astId":1551,"contract":"contracts/DemoAdapter(Full).sol:DemoAdapter1","label":"PROTOCOL_FEE","offset":0,"slot":"3","type":"t_uint256"},{"astId":1554,"contract":"contracts/DemoAdapter(Full).sol:DemoAdapter1","label":"Percent","offset":0,"slot":"4","type":"t_uint256"},{"astId":1556,"contract":"contracts/DemoAdapter(Full).sol:DemoAdapter1","label":"weth","offset":0,"slot":"5","type":"t_address"},{"astId":1611,"contract":"contracts/DemoAdapter(Full).sol:DemoAdapter1","label":"Partners","offset":0,"slot":"6","type":"t_mapping(t_address,t_struct(Partner)1606_storage)"}],"types":{"t_address":{"encoding":"inplace","label":"address","numberOfBytes":"20"},"t_bool":{"encoding":"inplace","label":"bool","numberOfBytes":"1"},"t_mapping(t_address,t_struct(Partner)1606_storage)":{"encoding":"mapping","key":"t_address","label":"mapping(address => struct DemoAdapter1.Partner)","numberOfBytes":"32","value":"t_struct(Partner)1606_storage"},"t_string_storage":{"encoding":"bytes","label":"string","numberOfBytes":"32"},"t_struct(Partner)1606_storage":{"encoding":"inplace","label":"struct DemoAdapter1.Partner","members":[{"astId":1601,"contract":"contracts/DemoAdapter(Full).sol:DemoAdapter1","label":"isActive","offset":0,"slot":"0","type":"t_bool"},{"astId":1603,"contract":"contracts/DemoAdapter(Full).sol:DemoAdapter1","label":"name","offset":0,"slot":"1","type":"t_string_storage"},{"astId":1605,"contract":"contracts/DemoAdapter(Full).sol:DemoAdapter1","label":"registrationTime","offset":0,"slot":"2","type":"t_uint256"}],"numberOfBytes":"96"},"t_uint256":{"encoding":"inplace","label":"uint256","numberOfBytes":"32"}}}}}}