{
  "_format": "hh-sol-artifact-1",
  "contractName": "Coin98UniswapV2",
  "sourceName": "contracts/Uniswap/Coin98Uniswap(V2).sol",
  "abi": [
    {
      "inputs": [
        {
          "internalType": "uint256",
          "name": "amount0Out",
          "type": "uint256"
        },
        {
          "internalType": "uint256",
          "name": "amount1Out",
          "type": "uint256"
        },
        {
          "internalType": "bytes",
          "name": "data",
          "type": "bytes"
        }
      ],
      "name": "swap",
      "outputs": [],
      "stateMutability": "nonpayable",
      "type": "function"
    }
  ],
  "bytecode": "0x608060405234801561001057600080fd5b50610471806100206000396000f3fe608060405234801561001057600080fd5b506004361061002b5760003560e01c8063892e830414610030575b600080fd5b61004361003e366004610306565b610045565b005b60008180602001905181019061005b9190610208565b90506100708160000151858360400151610130565b80600001516001600160a01b031681604001516001600160a01b0316630dfe16816040518163ffffffff1660e01b8152600401602060405180830381600087803b1580156100bd57600080fd5b505af11580156100d1573d6000803e3d6000fd5b505050506040513d601f19601f820116820180604052508101906100f591906101e5565b6001600160a01b03161461011957610114838260400151600030610176565b61012a565b61012a838260400151600130610176565b50505050565b60405160c08101604052610149565b3d6000803e3d6000fd5b63a9059cbb60e01b81528160048201528260248201526000806044836000885af161012a5761012a61013f565b60405160c0810160405263022c0d9f60e01b8152821580156101a457856004830152600060248301526101b2565b600060048301528560248301525b50816044820152608060648201526000608482015260008060a4836000885af16101de576101de61013f565b5050505050565b6000602082840312156101f6578081fd5b815161020181610423565b9392505050565b6000602080838503121561021a578182fd5b82516001600160401b0380821115610230578384fd5b9084019060808287031215610243578384fd5b61024b61038e565b825161025681610423565b81528284015161026581610423565b81850152604083015161027781610423565b604082015260608301518281111561028d578586fd5b80840193505086601f8401126102a1578485fd5b825191506102b66102b1836103e6565b6103b6565b82815287858486010111156102c9578586fd5b855b838110156102e65784810186015182820187015285016102cb565b838111156102f657868685840101525b5060608201529695505050505050565b60008060006060848603121561031a578182fd5b833592506020840135915060408401356001600160401b0381111561033d578182fd5b8401601f8101861361034d578182fd5b803561035b6102b1826103e6565b81815287602083850101111561036f578384fd5b8160208401602083013783602083830101528093505050509250925092565b604051608081016001600160401b03811182821017156103b0576103b061040d565b60405290565b604051601f8201601f191681016001600160401b03811182821017156103de576103de61040d565b604052919050565b60006001600160401b038211156103ff576103ff61040d565b50601f01601f191660200190565b634e487b7160e01b600052604160045260246000fd5b6001600160a01b038116811461043857600080fd5b5056fea26469706673582212203389a3e7986eb5191606da34dc4e2531ee93cbbeab1e1ac50ffd703cdc84cc9064736f6c63430008040033",
  "linkReferences": {},
  "deployedLinkReferences": {}
}