{
  "_format": "hh-sol-artifact-1",
  "contractName": "Coin98UniswapV2",
  "sourceName": "contracts/Uniswap/Coin98Uniswap(V2).sol",
  "abi": [
    {
      "inputs": [
        {
          "internalType": "uint256",
          "name": "amount0Out",
          "type": "uint256"
        },
        {
          "internalType": "uint256",
          "name": "amount1Out",
          "type": "uint256"
        },
        {
          "internalType": "address",
          "name": "to",
          "type": "address"
        },
        {
          "internalType": "bytes",
          "name": "data",
          "type": "bytes"
        }
      ],
      "name": "swap",
      "outputs": [],
      "stateMutability": "nonpayable",
      "type": "function"
    },
    {
      "inputs": [],
      "name": "token0",
      "outputs": [
        {
          "internalType": "address",
          "name": "",
          "type": "address"
        }
      ],
      "stateMutability": "view",
      "type": "function"
    },
    {
      "inputs": [],
      "name": "token1",
      "outputs": [
        {
          "internalType": "address",
          "name": "",
          "type": "address"
        }
      ],
      "stateMutability": "view",
      "type": "function"
    }
  ],
  "bytecode": "0x608060405234801561001057600080fd5b506105c0806100206000396000f3fe608060405234801561001057600080fd5b50600436106100415760003560e01c8063022c0d9f146100465780630dfe16811461005b578063d21220a7146100a4575b600080fd5b6100596100543660046103df565b6100c4565b005b60005461007b9073ffffffffffffffffffffffffffffffffffffffff1681565b60405173ffffffffffffffffffffffffffffffffffffffff909116815260200160405180910390f35b60015461007b9073ffffffffffffffffffffffffffffffffffffffff1681565b6000818060200190518101906100da91906102e0565b90506100ef81600001518683604001516101d7565b806000015173ffffffffffffffffffffffffffffffffffffffff16816040015173ffffffffffffffffffffffffffffffffffffffff16630dfe16816040518163ffffffff1660e01b8152600401602060405180830381600087803b15801561015657600080fd5b505af115801561016a573d6000803e3d6000fd5b505050506040513d601f19601f8201168201806040525081019061018e91906102bd565b73ffffffffffffffffffffffffffffffffffffffff16146101bf576101ba84826040015160008661023c565b6101d0565b6101d084826040015160018661023c565b5050505050565b60405160c081016040526101f0565b3d6000803e3d6000fd5b7fa9059cbb0000000000000000000000000000000000000000000000000000000081528160048201528260248201526000806044836000885af1610236576102366101e6565b50505050565b60405160c081016040527f022c0d9f000000000000000000000000000000000000000000000000000000008152821580156102835785600483015260006024830152610291565b600060048301528560248301525b50816044820152608060648201526000608482015260008060a4836000885af16101d0576101d06101e6565b6000602082840312156102ce578081fd5b81516102d981610565565b9392505050565b600060208083850312156102f2578182fd5b825167ffffffffffffffff80821115610309578384fd5b908401906080828703121561031c578384fd5b610324610478565b825161032f81610565565b81528284015161033e81610565565b81850152604083015161035081610565565b6040820152606083015182811115610366578586fd5b80840193505086601f84011261037a578485fd5b8251915061038f61038a836104f0565b6104a1565b82815287858486010111156103a2578586fd5b855b838110156103bf5784810186015182820187015285016103a4565b838111156103cf57868685840101525b5060608201529695505050505050565b600080600080608085870312156103f4578283fd5b8435935060208501359250604085013561040d81610565565b9150606085013567ffffffffffffffff811115610428578182fd5b8501601f81018713610438578182fd5b803561044661038a826104f0565b81815288602083850101111561045a578384fd5b81602084016020830137908101602001929092525092959194509250565b6040516080810167ffffffffffffffff8111828210171561049b5761049b610536565b60405290565b604051601f82017fffffffffffffffffffffffffffffffffffffffffffffffffffffffffffffffe016810167ffffffffffffffff811182821017156104e8576104e8610536565b604052919050565b600067ffffffffffffffff82111561050a5761050a610536565b50601f017fffffffffffffffffffffffffffffffffffffffffffffffffffffffffffffffe01660200190565b7f4e487b7100000000000000000000000000000000000000000000000000000000600052604160045260246000fd5b73ffffffffffffffffffffffffffffffffffffffff8116811461058757600080fd5b5056fea26469706673582212208650b2293b784fa04231887d320f3105bcf2f0856543bb062d4b6b4992361ac064736f6c63430008040033",
  "linkReferences": {},
  "deployedLinkReferences": {}
}