{
  "_format": "hh-sol-artifact-1",
  "contractName": "Coin98UniswapV2",
  "sourceName": "contracts/Uniswap/Coin98Uniswap(V2).sol",
  "abi": [
    {
      "anonymous": false,
      "inputs": [
        {
          "indexed": true,
          "internalType": "address",
          "name": "previousOwner",
          "type": "address"
        },
        {
          "indexed": true,
          "internalType": "address",
          "name": "newOwner",
          "type": "address"
        }
      ],
      "name": "OwnershipTransferred",
      "type": "event"
    },
    {
      "inputs": [],
      "name": "owner",
      "outputs": [
        {
          "internalType": "address",
          "name": "",
          "type": "address"
        }
      ],
      "stateMutability": "view",
      "type": "function"
    },
    {
      "inputs": [],
      "name": "renounceOwnership",
      "outputs": [],
      "stateMutability": "nonpayable",
      "type": "function"
    },
    {
      "inputs": [
        {
          "internalType": "uint256",
          "name": "amount0Out",
          "type": "uint256"
        },
        {
          "internalType": "uint256",
          "name": "amount1Out",
          "type": "uint256"
        },
        {
          "internalType": "address",
          "name": "to",
          "type": "address"
        },
        {
          "internalType": "bytes",
          "name": "data",
          "type": "bytes"
        }
      ],
      "name": "swap",
      "outputs": [],
      "stateMutability": "nonpayable",
      "type": "function"
    },
    {
      "inputs": [],
      "name": "token0",
      "outputs": [
        {
          "internalType": "address",
          "name": "",
          "type": "address"
        }
      ],
      "stateMutability": "view",
      "type": "function"
    },
    {
      "inputs": [],
      "name": "token1",
      "outputs": [
        {
          "internalType": "address",
          "name": "",
          "type": "address"
        }
      ],
      "stateMutability": "view",
      "type": "function"
    },
    {
      "inputs": [
        {
          "internalType": "address",
          "name": "newOwner",
          "type": "address"
        }
      ],
      "name": "transferOwnership",
      "outputs": [],
      "stateMutability": "nonpayable",
      "type": "function"
    },
    {
      "inputs": [
        {
          "internalType": "address",
          "name": "_token",
          "type": "address"
        }
      ],
      "name": "withdrawStuckERC20",
      "outputs": [],
      "stateMutability": "payable",
      "type": "function"
    }
  ],
  "bytecode": "0x608060405234801561001057600080fd5b5061001a33610023565b60018055610073565b600080546001600160a01b038381166001600160a01b0319831681178455604051919092169283917f8be0079c531659141344cd1fd0a4f28419497f9722a3daafe3b4186f6b6457e09190a35050565b610b0a806100826000396000f3fe6080604052600436106100705760003560e01c8063715018a61161004e578063715018a6146101005780638da5cb5b14610115578063d21220a714610140578063f2fde38b1461016d57600080fd5b8063022c0d9f146100755780630dfe1681146100975780633963510b146100ed575b600080fd5b34801561008157600080fd5b5061009561009036600461092c565b61018d565b005b3480156100a357600080fd5b506002546100c49073ffffffffffffffffffffffffffffffffffffffff1681565b60405173ffffffffffffffffffffffffffffffffffffffff909116815260200160405180910390f35b6100956100fb3660046107b6565b6102b1565b34801561010c57600080fd5b50610095610495565b34801561012157600080fd5b5060005473ffffffffffffffffffffffffffffffffffffffff166100c4565b34801561014c57600080fd5b506003546100c49073ffffffffffffffffffffffffffffffffffffffff1681565b34801561017957600080fd5b506100956101883660046107b6565b6104a9565b610195610565565b6000818060200190518101906101ab9190610815565b90506101c081600001518683604001516105d9565b806000015173ffffffffffffffffffffffffffffffffffffffff16816040015173ffffffffffffffffffffffffffffffffffffffff16630dfe16816040518163ffffffff1660e01b8152600401602060405180830381600087803b15801561022757600080fd5b505af115801561023b573d6000803e3d6000fd5b505050506040513d601f19601f8201168201806040525081019061025f91906107d9565b73ffffffffffffffffffffffffffffffffffffffff16146102905761028b848260400151600086610638565b6102a1565b6102a1848260400151600186610638565b506102ab60018055565b50505050565b6102b96106c0565b6040517f70a0823100000000000000000000000000000000000000000000000000000000815230600482015260009073ffffffffffffffffffffffffffffffffffffffff8316906370a082319060240160206040518083038186803b15801561032157600080fd5b505afa158015610335573d6000803e3d6000fd5b505050506040513d601f19601f820116820180604052508101906103599190610914565b9050478115610444578273ffffffffffffffffffffffffffffffffffffffff1663a9059cbb61039d60005473ffffffffffffffffffffffffffffffffffffffff1690565b6040517fffffffff0000000000000000000000000000000000000000000000000000000060e084901b16815273ffffffffffffffffffffffffffffffffffffffff909116600482015260248101859052604401602060405180830381600087803b15801561040a57600080fd5b505af115801561041e573d6000803e3d6000fd5b505050506040513d601f19601f8201168201806040525081019061044291906107f5565b505b8015610490576000805460405173ffffffffffffffffffffffffffffffffffffffff9091169184156108fc02918591818181858888f193505050501580156102ab573d6000803e3d6000fd5b505050565b61049d6106c0565b6104a76000610741565b565b6104b16106c0565b73ffffffffffffffffffffffffffffffffffffffff8116610559576040517f08c379a000000000000000000000000000000000000000000000000000000000815260206004820152602660248201527f4f776e61626c653a206e6577206f776e657220697320746865207a65726f206160448201527f646472657373000000000000000000000000000000000000000000000000000060648201526084015b60405180910390fd5b61056281610741565b50565b600260015414156105d2576040517f08c379a000000000000000000000000000000000000000000000000000000000815260206004820152601f60248201527f5265656e7472616e637947756172643a207265656e7472616e742063616c6c006044820152606401610550565b6002600155565b60405160c081016040526105f2565b3d6000803e3d6000fd5b7fa9059cbb0000000000000000000000000000000000000000000000000000000081528160048201528260248201526000806044836000885af16102ab576102ab6105e8565b60405160c081016040527f022c0d9f0000000000000000000000000000000000000000000000000000000081528215801561067f578560048301526000602483015261068d565b600060048301528560248301525b50816044820152608060648201526000608482015260008060a4836000885af16106b9576106b96105e8565b5050505050565b60005473ffffffffffffffffffffffffffffffffffffffff1633146104a7576040517f08c379a000000000000000000000000000000000000000000000000000000000815260206004820181905260248201527f4f776e61626c653a2063616c6c6572206973206e6f7420746865206f776e65726044820152606401610550565b6000805473ffffffffffffffffffffffffffffffffffffffff8381167fffffffffffffffffffffffff0000000000000000000000000000000000000000831681178455604051919092169283917f8be0079c531659141344cd1fd0a4f28419497f9722a3daafe3b4186f6b6457e09190a35050565b6000602082840312156107c7578081fd5b81356107d281610ab2565b9392505050565b6000602082840312156107ea578081fd5b81516107d281610ab2565b600060208284031215610806578081fd5b815180151581146107d2578182fd5b60006020808385031215610827578182fd5b825167ffffffffffffffff8082111561083e578384fd5b9084019060808287031215610851578384fd5b6108596109c5565b825161086481610ab2565b81528284015161087381610ab2565b81850152604083015161088581610ab2565b604082015260608301518281111561089b578586fd5b80840193505086601f8401126108af578485fd5b825191506108c46108bf83610a3d565b6109ee565b82815287858486010111156108d7578586fd5b855b838110156108f45784810186015182820187015285016108d9565b8381111561090457868685840101525b5060608201529695505050505050565b600060208284031215610925578081fd5b5051919050565b60008060008060808587031215610941578283fd5b8435935060208501359250604085013561095a81610ab2565b9150606085013567ffffffffffffffff811115610975578182fd5b8501601f81018713610985578182fd5b80356109936108bf82610a3d565b8181528860208385010111156109a7578384fd5b81602084016020830137908101602001929092525092959194509250565b6040516080810167ffffffffffffffff811182821017156109e8576109e8610a83565b60405290565b604051601f82017fffffffffffffffffffffffffffffffffffffffffffffffffffffffffffffffe016810167ffffffffffffffff81118282101715610a3557610a35610a83565b604052919050565b600067ffffffffffffffff821115610a5757610a57610a83565b50601f017fffffffffffffffffffffffffffffffffffffffffffffffffffffffffffffffe01660200190565b7f4e487b7100000000000000000000000000000000000000000000000000000000600052604160045260246000fd5b73ffffffffffffffffffffffffffffffffffffffff8116811461056257600080fdfea264697066735822122007d2b9968affa37ec03f73e64efea75764214afe69bbd2af3e6d6a3bb7be868164736f6c63430008040033",
  "linkReferences": {},
  "deployedLinkReferences": {}
}