{
  "_format": "hh-sol-artifact-1",
  "contractName": "TokenA",
  "sourceName": "contracts/TokenA/TokenA.sol",
  "abi": [
    {
      "inputs": [],
      "stateMutability": "nonpayable",
      "type": "constructor"
    },
    {
      "anonymous": false,
      "inputs": [
        {
          "indexed": true,
          "internalType": "address",
          "name": "owner",
          "type": "address"
        },
        {
          "indexed": true,
          "internalType": "address",
          "name": "spender",
          "type": "address"
        },
        {
          "indexed": false,
          "internalType": "uint256",
          "name": "value",
          "type": "uint256"
        }
      ],
      "name": "Approval",
      "type": "event"
    },
    {
      "anonymous": false,
      "inputs": [
        {
          "indexed": true,
          "internalType": "address",
          "name": "from",
          "type": "address"
        },
        {
          "indexed": true,
          "internalType": "address",
          "name": "to",
          "type": "address"
        },
        {
          "indexed": false,
          "internalType": "uint256",
          "name": "value",
          "type": "uint256"
        }
      ],
      "name": "Transfer",
      "type": "event"
    },
    {
      "inputs": [
        {
          "internalType": "address",
          "name": "owner",
          "type": "address"
        },
        {
          "internalType": "address",
          "name": "spender",
          "type": "address"
        }
      ],
      "name": "allowance",
      "outputs": [
        {
          "internalType": "uint256",
          "name": "",
          "type": "uint256"
        }
      ],
      "stateMutability": "view",
      "type": "function"
    },
    {
      "inputs": [
        {
          "internalType": "address",
          "name": "spender",
          "type": "address"
        },
        {
          "internalType": "uint256",
          "name": "amount",
          "type": "uint256"
        }
      ],
      "name": "approve",
      "outputs": [
        {
          "internalType": "bool",
          "name": "",
          "type": "bool"
        }
      ],
      "stateMutability": "nonpayable",
      "type": "function"
    },
    {
      "inputs": [
        {
          "internalType": "address",
          "name": "account",
          "type": "address"
        }
      ],
      "name": "balanceOf",
      "outputs": [
        {
          "internalType": "uint256",
          "name": "",
          "type": "uint256"
        }
      ],
      "stateMutability": "view",
      "type": "function"
    },
    {
      "inputs": [],
      "name": "decimals",
      "outputs": [
        {
          "internalType": "uint8",
          "name": "",
          "type": "uint8"
        }
      ],
      "stateMutability": "view",
      "type": "function"
    },
    {
      "inputs": [
        {
          "internalType": "address",
          "name": "spender",
          "type": "address"
        },
        {
          "internalType": "uint256",
          "name": "subtractedValue",
          "type": "uint256"
        }
      ],
      "name": "decreaseAllowance",
      "outputs": [
        {
          "internalType": "bool",
          "name": "",
          "type": "bool"
        }
      ],
      "stateMutability": "nonpayable",
      "type": "function"
    },
    {
      "inputs": [
        {
          "internalType": "address",
          "name": "spender",
          "type": "address"
        },
        {
          "internalType": "uint256",
          "name": "addedValue",
          "type": "uint256"
        }
      ],
      "name": "increaseAllowance",
      "outputs": [
        {
          "internalType": "bool",
          "name": "",
          "type": "bool"
        }
      ],
      "stateMutability": "nonpayable",
      "type": "function"
    },
    {
      "inputs": [
        {
          "internalType": "uint256",
          "name": "_amount",
          "type": "uint256"
        }
      ],
      "name": "mintToken",
      "outputs": [],
      "stateMutability": "nonpayable",
      "type": "function"
    },
    {
      "inputs": [],
      "name": "name",
      "outputs": [
        {
          "internalType": "string",
          "name": "",
          "type": "string"
        }
      ],
      "stateMutability": "view",
      "type": "function"
    },
    {
      "inputs": [],
      "name": "symbol",
      "outputs": [
        {
          "internalType": "string",
          "name": "",
          "type": "string"
        }
      ],
      "stateMutability": "view",
      "type": "function"
    },
    {
      "inputs": [],
      "name": "totalSupply",
      "outputs": [
        {
          "internalType": "uint256",
          "name": "",
          "type": "uint256"
        }
      ],
      "stateMutability": "view",
      "type": "function"
    },
    {
      "inputs": [
        {
          "internalType": "address",
          "name": "to",
          "type": "address"
        },
        {
          "internalType": "uint256",
          "name": "amount",
          "type": "uint256"
        }
      ],
      "name": "transfer",
      "outputs": [
        {
          "internalType": "bool",
          "name": "",
          "type": "bool"
        }
      ],
      "stateMutability": "nonpayable",
      "type": "function"
    },
    {
      "inputs": [
        {
          "internalType": "address",
          "name": "from",
          "type": "address"
        },
        {
          "internalType": "address",
          "name": "to",
          "type": "address"
        },
        {
          "internalType": "uint256",
          "name": "amount",
          "type": "uint256"
        }
      ],
      "name": "transferFrom",
      "outputs": [
        {
          "internalType": "bool",
          "name": "",
          "type": "bool"
        }
      ],
      "stateMutability": "nonpayable",
      "type": "function"
    }
  ],
  "bytecode": "0x608060405234801561001057600080fd5b506040805180820182526006815265746f6b656e4160d01b6020808301918252835180850190945260018452604160f81b9084015281519192916100569160039161014f565b50805161006a90600490602084019061014f565b5050506100873369d3c21bcecceda100000061008c60201b60201c565b610247565b6001600160a01b0382166100e65760405162461bcd60e51b815260206004820152601f60248201527f45524332303a206d696e7420746f20746865207a65726f206164647265737300604482015260640160405180910390fd5b80600260008282546100f891906101e8565b90915550506001600160a01b038216600081815260208181526040808320805486019055518481527fddf252ad1be2c89b69c2b068fc378daa952ba7f163c4a11628f55a4df523b3ef910160405180910390a35050565b82805461015b9061020c565b90600052602060002090601f01602090048101928261017d57600085556101c3565b82601f1061019657805160ff19168380011785556101c3565b828001600101855582156101c3579182015b828111156101c35782518255916020019190600101906101a8565b506101cf9291506101d3565b5090565b5b808211156101cf57600081556001016101d4565b6000821982111561020757634e487b7160e01b81526011600452602481fd5b500190565b600181811c9082168061022057607f821691505b6020821081141561024157634e487b7160e01b600052602260045260246000fd5b50919050565b61094580620002576000396000f3fe608060405234801561001057600080fd5b50600436106100a45760003560e01c806306fdde03146100a9578063095ea7b3146100c757806318160ddd146100ea57806323b872dd146100fc578063313ce5671461010f578063395093511461011e57806370a082311461013157806395d89b411461015a578063a457c2d714610162578063a9059cbb14610175578063c634d03214610188578063dd62ed3e1461019d575b600080fd5b6100b16101b0565b6040516100be919061083d565b60405180910390f35b6100da6100d53660046107fc565b610242565b60405190151581526020016100be565b6002545b6040519081526020016100be565b6100da61010a3660046107c1565b61025a565b604051601281526020016100be565b6100da61012c3660046107fc565b61027e565b6100ee61013f36600461076e565b6001600160a01b031660009081526020819052604090205490565b6100b16102a0565b6100da6101703660046107fc565b6102af565b6100da6101833660046107fc565b61032f565b61019b610196366004610825565b61033d565b005b6100ee6101ab36600461078f565b61034a565b6060600380546101bf906108b4565b80601f01602080910402602001604051908101604052809291908181526020018280546101eb906108b4565b80156102385780601f1061020d57610100808354040283529160200191610238565b820191906000526020600020905b81548152906001019060200180831161021b57829003601f168201915b5050505050905090565b600033610250818585610375565b5060019392505050565b600033610268858285610499565b610273858585610513565b506001949350505050565b600033610250818585610291838361034a565b61029b9190610890565b610375565b6060600480546101bf906108b4565b600033816102bd828661034a565b9050838110156103225760405162461bcd60e51b815260206004820152602560248201527f45524332303a2064656372656173656420616c6c6f77616e63652062656c6f77604482015264207a65726f60d81b60648201526084015b60405180910390fd5b6102738286868403610375565b600033610250818585610513565b61034733826106a5565b50565b6001600160a01b03918216600090815260016020908152604080832093909416825291909152205490565b6001600160a01b0383166103d75760405162461bcd60e51b8152602060048201526024808201527f45524332303a20617070726f76652066726f6d20746865207a65726f206164646044820152637265737360e01b6064820152608401610319565b6001600160a01b0382166104385760405162461bcd60e51b815260206004820152602260248201527f45524332303a20617070726f766520746f20746865207a65726f206164647265604482015261737360f01b6064820152608401610319565b6001600160a01b0383811660008181526001602090815260408083209487168084529482529182902085905590518481527f8c5be1e5ebec7d5bd14f71427d1e84f3dd0314c0f7b2291e5b200ac8c7c3b925910160405180910390a3505050565b60006104a5848461034a565b9050600019811461050d57818110156105005760405162461bcd60e51b815260206004820152601d60248201527f45524332303a20696e73756666696369656e7420616c6c6f77616e63650000006044820152606401610319565b61050d8484848403610375565b50505050565b6001600160a01b0383166105775760405162461bcd60e51b815260206004820152602560248201527f45524332303a207472616e736665722066726f6d20746865207a65726f206164604482015264647265737360d81b6064820152608401610319565b6001600160a01b0382166105d95760405162461bcd60e51b815260206004820152602360248201527f45524332303a207472616e7366657220746f20746865207a65726f206164647260448201526265737360e81b6064820152608401610319565b6001600160a01b038316600090815260208190526040902054818110156106515760405162461bcd60e51b815260206004820152602660248201527f45524332303a207472616e7366657220616d6f756e7420657863656564732062604482015265616c616e636560d01b6064820152608401610319565b6001600160a01b03848116600081815260208181526040808320878703905593871680835291849020805487019055925185815290926000805160206108f0833981519152910160405180910390a361050d565b6001600160a01b0382166106fb5760405162461bcd60e51b815260206004820152601f60248201527f45524332303a206d696e7420746f20746865207a65726f2061646472657373006044820152606401610319565b806002600082825461070d9190610890565b90915550506001600160a01b038216600081815260208181526040808320805486019055518481526000805160206108f0833981519152910160405180910390a35050565b80356001600160a01b038116811461076957600080fd5b919050565b60006020828403121561077f578081fd5b61078882610752565b9392505050565b600080604083850312156107a1578081fd5b6107aa83610752565b91506107b860208401610752565b90509250929050565b6000806000606084860312156107d5578081fd5b6107de84610752565b92506107ec60208501610752565b9150604084013590509250925092565b6000806040838503121561080e578182fd5b61081783610752565b946020939093013593505050565b600060208284031215610836578081fd5b5035919050565b6000602080835283518082850152825b818110156108695785810183015185820160400152820161084d565b8181111561087a5783604083870101525b50601f01601f1916929092016040019392505050565b600082198211156108af57634e487b7160e01b81526011600452602481fd5b500190565b600181811c908216806108c857607f821691505b602082108114156108e957634e487b7160e01b600052602260045260246000fd5b5091905056feddf252ad1be2c89b69c2b068fc378daa952ba7f163c4a11628f55a4df523b3efa26469706673582212200ab8a9f37fd9a0fa7da678b1484fd56bc8764bb8f96f51bc85e073e231d5c54e64736f6c63430008040033",
  "linkReferences": {},
  "deployedLinkReferences": {}
}