{
  "_format": "hh-sol-artifact-1",
  "contractName": "Coin98DoDoV2",
  "sourceName": "contracts/DoDoV2/Coin98DoDoV2.sol",
  "abi": [
    {
      "inputs": [
        {
          "internalType": "uint256",
          "name": "amountIn",
          "type": "uint256"
        },
        {
          "internalType": "uint256",
          "name": "amountOut",
          "type": "uint256"
        },
        {
          "internalType": "bytes",
          "name": "data",
          "type": "bytes"
        }
      ],
      "name": "swap",
      "outputs": [],
      "stateMutability": "payable",
      "type": "function"
    }
  ],
  "bytecode": "0x608060405234801561001057600080fd5b50610b7d806100206000396000f3fe60806040526004361061001e5760003560e01c8063892e830414610023575b600080fd5b6100366100313660046108b5565b610038565b005b60008180602001905181019061004e91906107be565b905061006d816000015182602001518684604001518560600151610073565b50505050565b60008180602001905181019061008991906106bc565b905061009a81604001518786610148565b826001600160a01b031663f87dc1b787878760018660000151876020015160008960600151426100ca9190610ac9565b6040518963ffffffff1660e01b81526004016100ed989796959493929190610973565b602060405180830381600087803b15801561010757600080fd5b505af115801561011b573d6000803e3d6000fd5b505050506040513d601f19601f8201168201806040525081019061013f919061089d565b50505050505050565b6001600160a01b03821673eeeeeeeeeeeeeeeeeeeeeeeeeeeeeeeeeeeeeeee1461022757604051636eb1769f60e11b815282906000906001600160a01b0383169063dd62ed3e9061019f9030908990600401610959565b60206040518083038186803b1580156101b757600080fd5b505afa1580156101cb573d6000803e3d6000fd5b505050506040513d601f19601f820116820180604052508101906101ef919061089d565b9050828110156102245761020e6001600160a01b03831686600061022c565b6102246001600160a01b0383168660001961037a565b50505b505050565b8015806102b45750604051636eb1769f60e11b81526001600160a01b0384169063dd62ed3e906102629030908690600401610959565b60206040518083038186803b15801561027a57600080fd5b505afa15801561028e573d6000803e3d6000fd5b505050506040513d601f19601f820116820180604052508101906102b2919061089d565b155b6103245760405162461bcd60e51b815260206004820152603660248201527f5361666545524332303a20617070726f76652066726f6d206e6f6e2d7a65726f60448201527520746f206e6f6e2d7a65726f20616c6c6f77616e636560501b60648201526084015b60405180910390fd5b6102278363095ea7b360e01b84846040516024016103439291906109fe565b60408051601f198184030181529190526020810180516001600160e01b03166001600160e01b031990931692909217909152610426565b600081846001600160a01b031663dd62ed3e30866040518363ffffffff1660e01b81526004016103ab929190610959565b60206040518083038186803b1580156103c357600080fd5b505afa1580156103d7573d6000803e3d6000fd5b505050506040513d601f19601f820116820180604052508101906103fb919061089d565b6104059190610ac9565b905061006d8463095ea7b360e01b85846040516024016103439291906109fe565b600061047b826040518060400160405280602081526020017f5361666545524332303a206c6f772d6c6576656c2063616c6c206661696c6564815250856001600160a01b03166104f89092919063ffffffff16565b80519091501561022757808060200190518101906104999190610695565b6102275760405162461bcd60e51b815260206004820152602a60248201527f5361666545524332303a204552433230206f7065726174696f6e20646964206e6044820152691bdd081cdd58d8d9595960b21b606482015260840161031b565b6060610507848460008561050f565b949350505050565b6060824710156105705760405162461bcd60e51b815260206004820152602660248201527f416464726573733a20696e73756666696369656e742062616c616e636520666f6044820152651c8818d85b1b60d21b606482015260840161031b565b600080866001600160a01b0316858760405161058c919061093d565b60006040518083038185875af1925050503d80600081146105c9576040519150601f19603f3d011682016040523d82523d6000602084013e6105ce565b606091505b50915091506105df878383876105ea565b979650505050505050565b6060831561065657825161064f576001600160a01b0385163b61064f5760405162461bcd60e51b815260206004820152601d60248201527f416464726573733a2063616c6c20746f206e6f6e2d636f6e7472616374000000604482015260640161031b565b5081610507565b610507838381511561066b5781518083602001fd5b8060405162461bcd60e51b815260040161031b9190610a17565b805161069081610b2f565b919050565b6000602082840312156106a6578081fd5b815180151581146106b5578182fd5b9392505050565b600060208083850312156106ce578182fd5b82516001600160401b03808211156106e4578384fd5b90840190608082870312156106f7578384fd5b6106ff610a4a565b82518281111561070d578586fd5b8301601f8101881361071d578586fd5b80518381111561072f5761072f610b19565b8060051b9350610740868501610a72565b8181528681019083880186850189018c101561075a57898afd5b8996505b83871015610788578051945061077385610b2f565b8483526001969096019591880191880161075e565b50845250505082840151848201526107a260408401610685565b6040820152606083015160608201528094505050505092915050565b600060208083850312156107d0578182fd5b82516001600160401b03808211156107e6578384fd5b90840190608082870312156107f9578384fd5b610801610a4a565b825161080c81610b2f565b81528284015161081b81610b2f565b81850152604083015161082d81610b2f565b6040820152606083015182811115610843578586fd5b80840193505086601f840112610857578485fd5b8251915061086c61086783610aa2565b610a72565b828152878584860101111561087f578586fd5b61088e83868301878701610aed565b60608201529695505050505050565b6000602082840312156108ae578081fd5b5051919050565b6000806000606084860312156108c9578182fd5b833592506020840135915060408401356001600160401b038111156108ec578182fd5b8401601f810186136108fc578182fd5b803561090a61086782610aa2565b81815287602083850101111561091e578384fd5b8160208401602083013783602083830101528093505050509250925092565b6000825161094f818460208701610aed565b9190910192915050565b6001600160a01b0392831681529116602082015260400190565b6001600160a01b038981168252888116602080840191909152604083018990526060830188905261010060808401819052875190840181905260009261012085019289810192855b818110156109d95784518416865294820194938201936001016109bb565b505050505060a08301959095525091151560c083015260e09091015295945050505050565b6001600160a01b03929092168252602082015260400190565b6020815260008251806020840152610a36816040850160208701610aed565b601f01601f19169190910160400192915050565b604051608081016001600160401b0381118282101715610a6c57610a6c610b19565b60405290565b604051601f8201601f191681016001600160401b0381118282101715610a9a57610a9a610b19565b604052919050565b60006001600160401b03821115610abb57610abb610b19565b50601f01601f191660200190565b60008219821115610ae857634e487b7160e01b81526011600452602481fd5b500190565b60005b83811015610b08578181015183820152602001610af0565b8381111561006d5750506000910152565b634e487b7160e01b600052604160045260246000fd5b6001600160a01b0381168114610b4457600080fd5b5056fea2646970667358221220ebc45208b6b744fe6a8b342daf745d665348c581fe8d3c90ef5f0e4d5305629164736f6c63430008040033",
  "linkReferences": {},
  "deployedLinkReferences": {}
}