{
  "_format": "hh-sol-artifact-1",
  "contractName": "Aavee2",
  "sourceName": "contracts/AaveeV2/AaveeV2.sol",
  "abi": [
    {
      "inputs": [
        {
          "internalType": "uint16",
          "name": "_refCode",
          "type": "uint16"
        },
        {
          "internalType": "address",
          "name": "_lendingPool",
          "type": "address"
        },
        {
          "internalType": "address",
          "name": "_wethGateway",
          "type": "address"
        }
      ],
      "stateMutability": "nonpayable",
      "type": "constructor"
    },
    {
      "inputs": [],
      "name": "lendingPool",
      "outputs": [
        {
          "internalType": "address",
          "name": "",
          "type": "address"
        }
      ],
      "stateMutability": "view",
      "type": "function"
    },
    {
      "inputs": [],
      "name": "refCode",
      "outputs": [
        {
          "internalType": "uint16",
          "name": "",
          "type": "uint16"
        }
      ],
      "stateMutability": "view",
      "type": "function"
    },
    {
      "inputs": [],
      "name": "wethGateway",
      "outputs": [
        {
          "internalType": "address",
          "name": "",
          "type": "address"
        }
      ],
      "stateMutability": "view",
      "type": "function"
    }
  ],
  "bytecode": "0x60e060405234801561001057600080fd5b5060405161022238038061022283398101604081905261002f9161007e565b60f09290921b6001600160f01b031916608052606090811b6001600160601b031990811660a05291901b1660c0526100c8565b80516001600160a01b038116811461007957600080fd5b919050565b600080600060608486031215610092578283fd5b835161ffff811681146100a3578384fd5b92506100b160208501610062565b91506100bf60408501610062565b90509250925092565b60805160f01c60a05160601c60c05160601c6101256100fd600039600060cd01526000608301526000604501526101256000f3fe6080604052348015600f57600080fd5b5060043610603c5760003560e01c8063635677f2146041578063a59a997314607f578063c5e10eef1460c9575b600080fd5b60677f000000000000000000000000000000000000000000000000000000000000000081565b60405161ffff90911681526020015b60405180910390f35b60a57f000000000000000000000000000000000000000000000000000000000000000081565b60405173ffffffffffffffffffffffffffffffffffffffff90911681526020016076565b60a57f00000000000000000000000000000000000000000000000000000000000000008156fea26469706673582212205eedabd89372d843b47ead972e504178af77f1bcc506b10365b09fced17a56c164736f6c63430008040033",
  "linkReferences": {},
  "deployedLinkReferences": {}
}