{
  "_format": "hh-sol-artifact-1",
  "contractName": "Coin98ZeroxV2",
  "sourceName": "contracts/0xV2/Coin98ZeroxV2.sol",
  "abi": [
    {
      "inputs": [
        {
          "internalType": "address",
          "name": "_weth",
          "type": "address"
        },
        {
          "internalType": "address",
          "name": "_erc20Proxy",
          "type": "address"
        }
      ],
      "stateMutability": "nonpayable",
      "type": "constructor"
    },
    {
      "inputs": [],
      "name": "WETH",
      "outputs": [
        {
          "internalType": "address",
          "name": "",
          "type": "address"
        }
      ],
      "stateMutability": "view",
      "type": "function"
    },
    {
      "inputs": [],
      "name": "erc20Proxy",
      "outputs": [
        {
          "internalType": "address",
          "name": "",
          "type": "address"
        }
      ],
      "stateMutability": "view",
      "type": "function"
    },
    {
      "inputs": [
        {
          "internalType": "uint256",
          "name": "amount0Out",
          "type": "uint256"
        },
        {
          "internalType": "uint256",
          "name": "amount1Out",
          "type": "uint256"
        },
        {
          "internalType": "address payable",
          "name": "to",
          "type": "address"
        },
        {
          "internalType": "bytes",
          "name": "data",
          "type": "bytes"
        }
      ],
      "name": "swap",
      "outputs": [],
      "stateMutability": "payable",
      "type": "function"
    }
  ],
  "bytecode": "0x60c060405234801561001057600080fd5b5060405161157938038061157983398101604081905261002f91610069565b6001600160601b0319606092831b8116608052911b1660a05261009b565b80516001600160a01b038116811461006457600080fd5b919050565b6000806040838503121561007b578182fd5b6100848361004d565b91506100926020840161004d565b90509250929050565b60805160601c60a05160601c6114ae6100cb60003960008181606001526104cf0152600060aa01526114ae6000f3fe6080604052600436106100345760003560e01c8063022c0d9f146100395780637f555b031461004e578063ad5c464814610098575b600080fd5b61004c610047366004610fef565b6100cc565b005b34801561005a57600080fd5b506100827f000000000000000000000000000000000000000000000000000000000000000081565b60405161008f9190611130565b60405180910390f35b3480156100a457600080fd5b506100827f000000000000000000000000000000000000000000000000000000000000000081565b6000818060200190518101906100e29190610d33565b9050806000015160ff166002146101305760405162461bcd60e51b815260206004820152600d60248201526c496e76616c696420526f75746560981b60448201526064015b60405180910390fd5b61014d816020015182604001518784606001518560a001516101e8565b600081604001516001600160a01b03166370a08231306040518263ffffffff1660e01b815260040161017f9190611130565b60206040518083038186803b15801561019757600080fd5b505afa1580156101ab573d6000803e3d6000fd5b505050506040513d601f19601f820116820180604052508101906101cf9190610fd7565b90506101e0826040015185836101fc565b505050505050565b6101f585858585856102e0565b5050505050565b80156102db576001600160a01b03831673eeeeeeeeeeeeeeeeeeeeeeeeeeeeeeeeeeeeeeee14156102d0576000826001600160a01b03168261271090604051600060405180830381858888f193505050503d8060008114610279576040519150601f19603f3d011682016040523d82523d6000602084013e61027e565b606091505b50509050806102ca5760405162461bcd60e51b81526020600482015260186024820152772330b4b632b2103a37903a3930b739b332b91022ba3432b960411b6044820152606401610127565b50505050565b6102db838284610586565b505050565b84846001600160a01b0380831690821614156103515760405162461bcd60e51b815260206004820152602a60248201527f66726f6d546f6b656e2073686f756c6420626520646966666572656e7420667260448201526937b6903a37aa37b5b2b760b11b6064820152608401610127565b6000838060200190518101906103679190610df6565b905060005b8151518110156104c95760006103bc6010846000015184815181106103a157634e487b7160e01b600052603260045260246000fd5b602002602001015161016001516105cc90919063ffffffff16565b9050846001600160a01b0316816001600160a01b0316146104165760405162461bcd60e51b8152602060048201526014602482015273496e76616c69642066726f6d20746f6b656e212160601b6044820152606401610127565b600061045c60108560000151858151811061044157634e487b7160e01b600052603260045260246000fd5b602002602001015161014001516105cc90919063ffffffff16565b9050846001600160a01b0316816001600160a01b0316146104b45760405162461bcd60e51b8152602060048201526012602482015271496e76616c696420746f20746f6b656e212160701b6044820152606401610127565b505080806104c190611419565b91505061036c565b506104f57f00000000000000000000000000000000000000000000000000000000000000008488610621565b80516020820151604051631ba38fa360e31b81526001600160a01b0388169263dd1c7d1892610529928b9190600401611177565b608060405180830381600087803b15801561054357600080fd5b505af1158015610557573d6000803e3d6000fd5b505050506040513d601f19601f8201168201806040525081019061057b9190610ccf565b505050505050505050565b60405160c0810160405261059f565b3d6000803e3d6000fd5b63a9059cbb60e01b81528160048201528260248201526000806044836000885af16102ca576102ca610595565b60006105d98260146113d5565b83511015610602576106026105fd600485518560146105f891906113d5565b6106fd565b610757565b61060d6014836113d5565b92909201516001600160a01b031692915050565b6001600160a01b03821673eeeeeeeeeeeeeeeeeeeeeeeeeeeeeeeeeeeeeeee146102db57604051636eb1769f60e11b815282906000906001600160a01b0383169063dd62ed3e906106789030908990600401611144565b60206040518083038186803b15801561069057600080fd5b505afa1580156106a4573d6000803e3d6000fd5b505050506040513d601f19601f820116820180604052508101906106c89190610fd7565b9050828110156101f5576106e76001600160a01b03831686600061075f565b6101f56001600160a01b038316866000196108a8565b6060632800659560e01b84848460405160240161071c939291906112a5565b60408051601f198184030181529190526020810180516001600160e01b03166001600160e01b03199093169290921790915290509392505050565b805160208201fd5b8015806107e75750604051636eb1769f60e11b81526001600160a01b0384169063dd62ed3e906107959030908690600401611144565b60206040518083038186803b1580156107ad57600080fd5b505afa1580156107c1573d6000803e3d6000fd5b505050506040513d601f19601f820116820180604052508101906107e59190610fd7565b155b6108525760405162461bcd60e51b815260206004820152603660248201527f5361666545524332303a20617070726f76652066726f6d206e6f6e2d7a65726f60448201527520746f206e6f6e2d7a65726f20616c6c6f77616e636560501b6064820152608401610127565b6102db8363095ea7b360e01b848460405160240161087192919061115e565b60408051601f198184030181529190526020810180516001600160e01b03166001600160e01b031990931692909217909152610954565b600081846001600160a01b031663dd62ed3e30866040518363ffffffff1660e01b81526004016108d9929190611144565b60206040518083038186803b1580156108f157600080fd5b505afa158015610905573d6000803e3d6000fd5b505050506040513d601f19601f820116820180604052508101906109299190610fd7565b61093391906113d5565b90506102ca8463095ea7b360e01b858460405160240161087192919061115e565b60006109a9826040518060400160405280602081526020017f5361666545524332303a206c6f772d6c6576656c2063616c6c206661696c6564815250856001600160a01b0316610a269092919063ffffffff16565b8051909150156102db57808060200190518101906109c79190610ca8565b6102db5760405162461bcd60e51b815260206004820152602a60248201527f5361666545524332303a204552433230206f7065726174696f6e20646964206e6044820152691bdd081cdd58d8d9595960b21b6064820152608401610127565b6060610a358484600085610a3d565b949350505050565b606082471015610a9e5760405162461bcd60e51b815260206004820152602660248201527f416464726573733a20696e73756666696369656e742062616c616e636520666f6044820152651c8818d85b1b60d21b6064820152608401610127565b600080866001600160a01b03168587604051610aba9190611114565b60006040518083038185875af1925050503d8060008114610af7576040519150601f19603f3d011682016040523d82523d6000602084013e610afc565b606091505b5091509150610b0d87838387610b18565b979650505050505050565b60608315610b84578251610b7d576001600160a01b0385163b610b7d5760405162461bcd60e51b815260206004820152601d60248201527f416464726573733a2063616c6c20746f206e6f6e2d636f6e74726163740000006044820152606401610127565b5081610a35565b610a358383815115610b995781518083602001fd5b8060405162461bcd60e51b815260040161012791906112db565b8051610bbe81611460565b919050565b600082601f830112610bd3578081fd5b81516020610be8610be38361138b565b61135b565b80838252828201915082860187848660051b8901011115610c07578586fd5b855b85811015610c475781516001600160401b03811115610c26578788fd5b610c348a87838c0101610c54565b8552509284019290840190600101610c09565b5090979650505050505050565b600082601f830112610c64578081fd5b8151610c72610be3826113ae565b818152846020838601011115610c86578283fd5b610a358260208301602087016113ed565b805160ff81168114610bbe57600080fd5b600060208284031215610cb9578081fd5b81518015158114610cc8578182fd5b9392505050565b600060808284031215610ce0578081fd5b604051608081016001600160401b0381118282101715610d0257610d0261144a565b8060405250825181526020830151602082015260408301516040820152606083015160608201528091505092915050565b600060208284031215610d44578081fd5b81516001600160401b0380821115610d5a578283fd5b9083019060e08286031215610d6d578283fd5b610d756112ee565b610d7e83610c97565b8152610d8c60208401610bb3565b6020820152610d9d60408401610bb3565b6040820152610dae60608401610bb3565b60608201526080830151608082015260a083015182811115610dce578485fd5b610dda87828601610c54565b60a08301525060c083015160c082015280935050505092915050565b600060208284031215610e07578081fd5b81516001600160401b0380821115610e1d578283fd5b9083019060408286031215610e30578283fd5b610e38611316565b825182811115610e46578485fd5b8301601f81018713610e56578485fd5b8051610e64610be38261138b565b80828252602082019150602084018a60208560051b8701011115610e86578889fd5b885b84811015610fa457815188811115610e9e578a8bfd5b8601610180818e03601f19011215610eb4578a8bfd5b610ebc611338565b610ec860208301610bb3565b8152610ed660408301610bb3565b6020820152610ee760608301610bb3565b6040820152610ef860808301610bb3565b606082015260a0820151608082015260c082015160a082015260e082015160c082015261010082015160e08201526101208201516101008201526101408201516101208201526101608201518a811115610f50578c8dfd5b610f5f8f602083860101610c54565b610140830152506101808201518a811115610f78578c8dfd5b610f878f602083860101610c54565b610160830152508552506020938401939190910190600101610e88565b50508452505050602083015182811115610fbc578485fd5b610fc887828601610bc3565b60208301525095945050505050565b600060208284031215610fe8578081fd5b5051919050565b60008060008060808587031215611004578283fd5b8435935060208501359250604085013561101d81611460565b915060608501356001600160401b03811115611037578182fd5b8501601f81018713611047578182fd5b8035611055610be3826113ae565b818152886020838501011115611069578384fd5b81602084016020830137908101602001929092525092959194509250565b6001600160a01b03169052565b600081518084526020808501808196508360051b81019150828601855b858110156110db5782840389526110c98483516110e8565b988501989350908401906001016110b1565b5091979650505050505050565b600081518084526111008160208601602086016113ed565b601f01601f19169290920160200192915050565b600082516111268184602087016113ed565b9190910192915050565b6001600160a01b0391909116815260200190565b6001600160a01b0392831681529116602082015260400190565b6001600160a01b03929092168252602082015260400190565b60006060808301818452808751808352608092508286019150828160051b8701016020808b01875b8481101561127e57607f198a850301865281516101806111c0868351611087565b848201516111d086880182611087565b506040808301516111e382890182611087565b5050898201516111f58b880182611087565b5081890151868a015260a0808301519087015260c0808301519087015260e08083015190870152610100808301519087015261012080830151908701526101408083015181880183905261124b838901826110e8565b92505050610160808301519250868203818801525061126a81836110e8565b97850197955050509082019060010161119f565b5050870189905286810360408801526112978189611094565b9a9950505050505050505050565b60608101600885106112c757634e487b7160e01b600052602160045260246000fd5b938152602081019290925260409091015290565b602081526000610cc860208301846110e8565b60405160e081016001600160401b03811182821017156113105761131061144a565b60405290565b604080519081016001600160401b03811182821017156113105761131061144a565b60405161018081016001600160401b03811182821017156113105761131061144a565b604051601f8201601f191681016001600160401b03811182821017156113835761138361144a565b604052919050565b60006001600160401b038211156113a4576113a461144a565b5060051b60200190565b60006001600160401b038211156113c7576113c761144a565b50601f01601f191660200190565b600082198211156113e8576113e8611434565b500190565b60005b838110156114085781810151838201526020016113f0565b838111156102ca5750506000910152565b600060001982141561142d5761142d611434565b5060010190565b634e487b7160e01b600052601160045260246000fd5b634e487b7160e01b600052604160045260246000fd5b6001600160a01b038116811461147557600080fd5b5056fea2646970667358221220006b570edcd8b21cf4cdc7bfc48c62ea3b952c3acb7b98c0926b76215ad3df6464736f6c63430008040033",
  "linkReferences": {},
  "deployedLinkReferences": {}
}