{
  "_format": "hh-sol-artifact-1",
  "contractName": "Coin98ZeroxV2",
  "sourceName": "contracts/0xV2/Coin98ZeroxV2.sol",
  "abi": [
    {
      "inputs": [
        {
          "internalType": "address",
          "name": "_weth",
          "type": "address"
        },
        {
          "internalType": "address",
          "name": "_erc20Proxy",
          "type": "address"
        }
      ],
      "stateMutability": "nonpayable",
      "type": "constructor"
    },
    {
      "inputs": [],
      "name": "WETH",
      "outputs": [
        {
          "internalType": "address",
          "name": "",
          "type": "address"
        }
      ],
      "stateMutability": "view",
      "type": "function"
    },
    {
      "inputs": [],
      "name": "erc20Proxy",
      "outputs": [
        {
          "internalType": "address",
          "name": "",
          "type": "address"
        }
      ],
      "stateMutability": "view",
      "type": "function"
    },
    {
      "inputs": [
        {
          "internalType": "uint256",
          "name": "amount0Out",
          "type": "uint256"
        },
        {
          "internalType": "address",
          "name": "to",
          "type": "address"
        },
        {
          "internalType": "bytes",
          "name": "data",
          "type": "bytes"
        }
      ],
      "name": "swap",
      "outputs": [],
      "stateMutability": "payable",
      "type": "function"
    }
  ],
  "bytecode": "0x60c06040523480156200001157600080fd5b5060405162001a8438038062001a84833981016040819052620000349162000070565b6001600160601b0319606092831b8116608052911b1660a052620000a7565b80516001600160a01b03811681146200006b57600080fd5b919050565b6000806040838503121562000083578182fd5b6200008e8362000053565b91506200009e6020840162000053565b90509250929050565b60805160601c60a05160601c61199e620000e6600039600081816060015261067501526000818160bd015281816103ce0152610429015261199e6000f3fe6080604052600436106100345760003560e01c80631c6da724146100395780637f555b031461004e578063ad5c4648146100ab575b600080fd5b61004c610047366004611449565b6100df565b005b34801561005a57600080fd5b506100827f000000000000000000000000000000000000000000000000000000000000000081565b60405173ffffffffffffffffffffffffffffffffffffffff909116815260200160405180910390f35b3480156100b757600080fd5b506100827f000000000000000000000000000000000000000000000000000000000000000081565b6000818060200190518101906100f5919061116d565b9050806000015160ff1660021461016d576040517f08c379a000000000000000000000000000000000000000000000000000000000815260206004820152600d60248201527f496e76616c696420526f7574650000000000000000000000000000000000000060448201526064015b60405180910390fd5b61018a816020015182604001518684606001518560a001516102e6565b60408082015190517f70a0823100000000000000000000000000000000000000000000000000000000815230600482015260009173ffffffffffffffffffffffffffffffffffffffff16906370a082319060240160206040518083038186803b1580156101f657600080fd5b505afa15801561020a573d6000803e3d6000fd5b505050506040513d601f19601f8201168201806040525081019061022e9190611431565b60408084015190517fa9059cbb00000000000000000000000000000000000000000000000000000000815273ffffffffffffffffffffffffffffffffffffffff87811660048301526024820184905292935091169063a9059cbb90604401602060405180830381600087803b1580156102a657600080fd5b505af11580156102ba573d6000803e3d6000fd5b505050506040513d601f19601f820116820180604052508101906102de91906110e1565b505050505050565b846102de8186868686848473ffffffffffffffffffffffffffffffffffffffff808316908216141561039a576040517f08c379a000000000000000000000000000000000000000000000000000000000815260206004820152602a60248201527f66726f6d546f6b656e2073686f756c6420626520646966666572656e7420667260448201527f6f6d20746f546f6b656e000000000000000000000000000000000000000000006064820152608401610164565b73ffffffffffffffffffffffffffffffffffffffff821673eeeeeeeeeeeeeeeeeeeeeeeeeeeeeeeeeeeeeeee14156103f4577f00000000000000000000000000000000000000000000000000000000000000009150610449565b73ffffffffffffffffffffffffffffffffffffffff811673eeeeeeeeeeeeeeeeeeeeeeeeeeeeeeeeeeeeeeee141561044957507f00000000000000000000000000000000000000000000000000000000000000005b60008380602001905181019061045f9190611231565b905060005b81515181101561066f5760006104cd6010846000015184815181106104b2577f4e487b7100000000000000000000000000000000000000000000000000000000600052603260045260246000fd5b6020026020010151610160015161075290919063ffffffff16565b90508473ffffffffffffffffffffffffffffffffffffffff168173ffffffffffffffffffffffffffffffffffffffff1614610564576040517f08c379a000000000000000000000000000000000000000000000000000000000815260206004820152601460248201527f496e76616c69642066726f6d20746f6b656e21210000000000000000000000006044820152606401610164565b60006105c36010856000015185815181106105a8577f4e487b7100000000000000000000000000000000000000000000000000000000600052603260045260246000fd5b6020026020010151610140015161075290919063ffffffff16565b90508473ffffffffffffffffffffffffffffffffffffffff168173ffffffffffffffffffffffffffffffffffffffff161461065a576040517f08c379a000000000000000000000000000000000000000000000000000000000815260206004820152601260248201527f496e76616c696420746f20746f6b656e212100000000000000000000000000006044820152606401610164565b50508080610667906118ac565b915050610464565b5061069b7f000000000000000000000000000000000000000000000000000000000000000084886107b4565b805160208201516040517fdd1c7d1800000000000000000000000000000000000000000000000000000000815273ffffffffffffffffffffffffffffffffffffffff88169263dd1c7d18926106f5928b9190600401611595565b608060405180830381600087803b15801561070f57600080fd5b505af1158015610723573d6000803e3d6000fd5b505050506040513d601f19601f820116820180604052508101906107479190611108565b505050505050505050565b600061075f826014611868565b83511015610788576107886107836004855185601461077e9190611868565b610904565b6109a9565b610793601483611868565b929092015173ffffffffffffffffffffffffffffffffffffffff1692915050565b73ffffffffffffffffffffffffffffffffffffffff821673eeeeeeeeeeeeeeeeeeeeeeeeeeeeeeeeeeeeeeee146108ff576040517fdd62ed3e00000000000000000000000000000000000000000000000000000000815230600482015273ffffffffffffffffffffffffffffffffffffffff8481166024830152839160009183169063dd62ed3e9060440160206040518083038186803b15801561085757600080fd5b505afa15801561086b573d6000803e3d6000fd5b505050506040513d601f19601f8201168201806040525081019061088f9190611431565b9050828110156108fc576108bb73ffffffffffffffffffffffffffffffffffffffff83168660006109b1565b6108fc73ffffffffffffffffffffffffffffffffffffffff8316867fffffffffffffffffffffffffffffffffffffffffffffffffffffffffffffffff610bc0565b50505b505050565b6060632800659560e01b848484604051602401610923939291906116dd565b604080517fffffffffffffffffffffffffffffffffffffffffffffffffffffffffffffffe08184030181529190526020810180517bffffffffffffffffffffffffffffffffffffffffffffffffffffffff167fffffffff000000000000000000000000000000000000000000000000000000009093169290921790915290509392505050565b805160208201fd5b801580610a6057506040517fdd62ed3e00000000000000000000000000000000000000000000000000000000815230600482015273ffffffffffffffffffffffffffffffffffffffff838116602483015284169063dd62ed3e9060440160206040518083038186803b158015610a2657600080fd5b505afa158015610a3a573d6000803e3d6000fd5b505050506040513d601f19601f82011682018060405250810190610a5e9190611431565b155b610aec576040517f08c379a000000000000000000000000000000000000000000000000000000000815260206004820152603660248201527f5361666545524332303a20617070726f76652066726f6d206e6f6e2d7a65726f60448201527f20746f206e6f6e2d7a65726f20616c6c6f77616e6365000000000000000000006064820152608401610164565b60405173ffffffffffffffffffffffffffffffffffffffff83166024820152604481018290526108ff9084907f095ea7b300000000000000000000000000000000000000000000000000000000906064015b604080517fffffffffffffffffffffffffffffffffffffffffffffffffffffffffffffffe08184030181529190526020810180517bffffffffffffffffffffffffffffffffffffffffffffffffffffffff167fffffffff0000000000000000000000000000000000000000000000000000000090931692909217909152610cd3565b6040517fdd62ed3e00000000000000000000000000000000000000000000000000000000815230600482015273ffffffffffffffffffffffffffffffffffffffff8381166024830152600091839186169063dd62ed3e9060440160206040518083038186803b158015610c3257600080fd5b505afa158015610c46573d6000803e3d6000fd5b505050506040513d601f19601f82011682018060405250810190610c6a9190611431565b610c749190611868565b60405173ffffffffffffffffffffffffffffffffffffffff8516602482015260448101829052909150610ccd9085907f095ea7b30000000000000000000000000000000000000000000000000000000090606401610b3e565b50505050565b6000610d35826040518060400160405280602081526020017f5361666545524332303a206c6f772d6c6576656c2063616c6c206661696c65648152508573ffffffffffffffffffffffffffffffffffffffff16610ddf9092919063ffffffff16565b8051909150156108ff5780806020019051810190610d5391906110e1565b6108ff576040517f08c379a000000000000000000000000000000000000000000000000000000000815260206004820152602a60248201527f5361666545524332303a204552433230206f7065726174696f6e20646964206e60448201527f6f742073756363656564000000000000000000000000000000000000000000006064820152608401610164565b6060610dee8484600085610df6565b949350505050565b606082471015610e88576040517f08c379a000000000000000000000000000000000000000000000000000000000815260206004820152602660248201527f416464726573733a20696e73756666696369656e742062616c616e636520666f60448201527f722063616c6c00000000000000000000000000000000000000000000000000006064820152608401610164565b6000808673ffffffffffffffffffffffffffffffffffffffff168587604051610eb19190611579565b60006040518083038185875af1925050503d8060008114610eee576040519150601f19603f3d011682016040523d82523d6000602084013e610ef3565b606091505b5091509150610f0487838387610f0f565b979650505050505050565b60608315610fa2578251610f9b5773ffffffffffffffffffffffffffffffffffffffff85163b610f9b576040517f08c379a000000000000000000000000000000000000000000000000000000000815260206004820152601d60248201527f416464726573733a2063616c6c20746f206e6f6e2d636f6e74726163740000006044820152606401610164565b5081610dee565b610dee8383815115610fb75781518083602001fd5b806040517f08c379a0000000000000000000000000000000000000000000000000000000008152600401610164919061172c565b8051610ff681611943565b919050565b600082601f83011261100b578081fd5b8151602061102061101b836117fe565b6117af565b80838252828201915082860187848660051b890101111561103f578586fd5b855b8581101561108057815167ffffffffffffffff81111561105f578788fd5b61106d8a87838c010161108d565b8552509284019290840190600101611041565b5090979650505050505050565b600082601f83011261109d578081fd5b81516110ab61101b82611822565b8181528460208386010111156110bf578283fd5b610dee826020830160208701611880565b805160ff81168114610ff657600080fd5b6000602082840312156110f2578081fd5b81518015158114611101578182fd5b9392505050565b600060808284031215611119578081fd5b6040516080810181811067ffffffffffffffff8211171561113c5761113c611914565b8060405250825181526020830151602082015260408301516040820152606083015160608201528091505092915050565b60006020828403121561117e578081fd5b815167ffffffffffffffff80821115611195578283fd5b9083019060e082860312156111a8578283fd5b6111b061173f565b6111b9836110d0565b81526111c760208401610feb565b60208201526111d860408401610feb565b60408201526111e960608401610feb565b60608201526080830151608082015260a083015182811115611209578485fd5b6112158782860161108d565b60a08301525060c083015160c082015280935050505092915050565b600060208284031215611242578081fd5b815167ffffffffffffffff80821115611259578283fd5b908301906040828603121561126c578283fd5b611274611768565b825182811115611282578485fd5b8301601f81018713611292578485fd5b80516112a061101b826117fe565b80828252602082019150602084018a60208560051b87010111156112c2578889fd5b885b848110156113fe578151888111156112da578a8bfd5b8601610180818e037fffffffffffffffffffffffffffffffffffffffffffffffffffffffffffffffe001121561130e578a8bfd5b61131661178b565b61132260208301610feb565b815261133060408301610feb565b602082015261134160608301610feb565b604082015261135260808301610feb565b606082015260a0820151608082015260c082015160a082015260e082015160c082015261010082015160e08201526101208201516101008201526101408201516101208201526101608201518a8111156113aa578c8dfd5b6113b98f60208386010161108d565b610140830152506101808201518a8111156113d2578c8dfd5b6113e18f60208386010161108d565b6101608301525085525060209384019391909101906001016112c4565b50508452505050602083015182811115611416578485fd5b61142287828601610ffb565b60208301525095945050505050565b600060208284031215611442578081fd5b5051919050565b60008060006060848603121561145d578182fd5b83359250602084013561146f81611943565b9150604084013567ffffffffffffffff81111561148a578182fd5b8401601f8101861361149a578182fd5b80356114a861101b82611822565b8181528760208385010111156114bc578384fd5b8160208401602083013783602083830101528093505050509250925092565b600081518084526020808501808196508360051b81019150828601855b8581101561152257828403895261151084835161152f565b988501989350908401906001016114f8565b5091979650505050505050565b60008151808452611547816020860160208601611880565b601f017fffffffffffffffffffffffffffffffffffffffffffffffffffffffffffffffe0169290920160200192915050565b6000825161158b818460208701611880565b9190910192915050565b60006060808301818452808751808352608092508286019150828160051b8701016020808b01875b848110156116b6577fffffffffffffffffffffffffffffffffffffffffffffffffffffffffffffff808a85030186528151805173ffffffffffffffffffffffffffffffffffffffff908116865284820151811685870152604080830151821690870152898201511689860152878101518886015260a0808201519086015260c0808201519086015260e08082015190860152610100808201519086015261012080820151908601526101408082015161018082880181905291906116838389018261152f565b9250505061016080830151925086820381880152506116a2818361152f565b9785019795505050908201906001016115bd565b5050870189905286810360408801526116cf81896114db565b9a9950505050505050505050565b6060810160088510611718577f4e487b7100000000000000000000000000000000000000000000000000000000600052602160045260246000fd5b938152602081019290925260409091015290565b602081526000611101602083018461152f565b60405160e0810167ffffffffffffffff8111828210171561176257611762611914565b60405290565b6040805190810167ffffffffffffffff8111828210171561176257611762611914565b604051610180810167ffffffffffffffff8111828210171561176257611762611914565b604051601f82017fffffffffffffffffffffffffffffffffffffffffffffffffffffffffffffffe016810167ffffffffffffffff811182821017156117f6576117f6611914565b604052919050565b600067ffffffffffffffff82111561181857611818611914565b5060051b60200190565b600067ffffffffffffffff82111561183c5761183c611914565b50601f017fffffffffffffffffffffffffffffffffffffffffffffffffffffffffffffffe01660200190565b6000821982111561187b5761187b6118e5565b500190565b60005b8381101561189b578181015183820152602001611883565b83811115610ccd5750506000910152565b60007fffffffffffffffffffffffffffffffffffffffffffffffffffffffffffffffff8214156118de576118de6118e5565b5060010190565b7f4e487b7100000000000000000000000000000000000000000000000000000000600052601160045260246000fd5b7f4e487b7100000000000000000000000000000000000000000000000000000000600052604160045260246000fd5b73ffffffffffffffffffffffffffffffffffffffff8116811461196557600080fd5b5056fea26469706673582212205283a4ebcdab368bc5e424a36f2316f5486b5601008b746833606900be00f14e64736f6c63430008040033",
  "linkReferences": {},
  "deployedLinkReferences": {}
}