{
  "_format": "hh-sol-artifact-1",
  "contractName": "Coin98ZeroxV2",
  "sourceName": "contracts/0xV2/Coin98ZeroxV2.sol",
  "abi": [
    {
      "inputs": [
        {
          "internalType": "address",
          "name": "_weth",
          "type": "address"
        },
        {
          "internalType": "address",
          "name": "_erc20Proxy",
          "type": "address"
        }
      ],
      "stateMutability": "nonpayable",
      "type": "constructor"
    },
    {
      "inputs": [],
      "name": "WETH",
      "outputs": [
        {
          "internalType": "address",
          "name": "",
          "type": "address"
        }
      ],
      "stateMutability": "view",
      "type": "function"
    },
    {
      "inputs": [],
      "name": "erc20Proxy",
      "outputs": [
        {
          "internalType": "address",
          "name": "",
          "type": "address"
        }
      ],
      "stateMutability": "view",
      "type": "function"
    },
    {
      "inputs": [
        {
          "internalType": "uint256",
          "name": "amount0Out",
          "type": "uint256"
        },
        {
          "internalType": "uint256",
          "name": "amount1Out",
          "type": "uint256"
        },
        {
          "internalType": "address payable",
          "name": "to",
          "type": "address"
        },
        {
          "internalType": "bytes",
          "name": "data",
          "type": "bytes"
        }
      ],
      "name": "swap",
      "outputs": [],
      "stateMutability": "payable",
      "type": "function"
    }
  ],
  "bytecode": "0x60c06040523480156200001157600080fd5b5060405162001aa838038062001aa8833981016040819052620000349162000070565b6001600160601b0319606092831b8116608052911b1660a052620000a7565b80516001600160a01b03811681146200006b57600080fd5b919050565b6000806040838503121562000083578182fd5b6200008e8362000053565b91506200009e6020840162000053565b90509250929050565b60805160601c60a05160601c6119d0620000d8600039600081816060015261064f0152600060bd01526119d06000f3fe6080604052600436106100345760003560e01c8063022c0d9f146100395780637f555b031461004e578063ad5c4648146100ab575b600080fd5b61004c610047366004611474565b6100df565b005b34801561005a57600080fd5b506100827f000000000000000000000000000000000000000000000000000000000000000081565b60405173ffffffffffffffffffffffffffffffffffffffff909116815260200160405180910390f35b3480156100b757600080fd5b506100827f000000000000000000000000000000000000000000000000000000000000000081565b6000818060200190518101906100f59190611198565b9050806000015160ff1660021461016d576040517f08c379a000000000000000000000000000000000000000000000000000000000815260206004820152600d60248201527f496e76616c696420526f7574650000000000000000000000000000000000000060448201526064015b60405180910390fd5b61018a816020015182604001518784606001518560a00151610247565b60408082015190517f70a0823100000000000000000000000000000000000000000000000000000000815230600482015260009173ffffffffffffffffffffffffffffffffffffffff16906370a082319060240160206040518083038186803b1580156101f657600080fd5b505afa15801561020a573d6000803e3d6000fd5b505050506040513d601f19601f8201168201806040525081019061022e919061145c565b905061023f8260400151858361025b565b505050505050565b6102548585858585610378565b5050505050565b80156103735773ffffffffffffffffffffffffffffffffffffffff831673eeeeeeeeeeeeeeeeeeeeeeeeeeeeeeeeeeeeeeee14156103685760008273ffffffffffffffffffffffffffffffffffffffff168261271090604051600060405180830381858888f193505050503d80600081146102f2576040519150601f19603f3d011682016040523d82523d6000602084013e6102f7565b606091505b5050905080610362576040517f08c379a000000000000000000000000000000000000000000000000000000000815260206004820152601860248201527f4661696c656420746f207472616e7366657220457468657200000000000000006044820152606401610164565b50505050565b61037383828461072c565b505050565b848473ffffffffffffffffffffffffffffffffffffffff8083169082161415610423576040517f08c379a000000000000000000000000000000000000000000000000000000000815260206004820152602a60248201527f66726f6d546f6b656e2073686f756c6420626520646966666572656e7420667260448201527f6f6d20746f546f6b656e000000000000000000000000000000000000000000006064820152608401610164565b600083806020019051810190610439919061125c565b905060005b8151518110156106495760006104a760108460000151848151811061048c577f4e487b7100000000000000000000000000000000000000000000000000000000600052603260045260246000fd5b6020026020010151610160015161078b90919063ffffffff16565b90508473ffffffffffffffffffffffffffffffffffffffff168173ffffffffffffffffffffffffffffffffffffffff161461053e576040517f08c379a000000000000000000000000000000000000000000000000000000000815260206004820152601460248201527f496e76616c69642066726f6d20746f6b656e21210000000000000000000000006044820152606401610164565b600061059d601085600001518581518110610582577f4e487b7100000000000000000000000000000000000000000000000000000000600052603260045260246000fd5b6020026020010151610140015161078b90919063ffffffff16565b90508473ffffffffffffffffffffffffffffffffffffffff168173ffffffffffffffffffffffffffffffffffffffff1614610634576040517f08c379a000000000000000000000000000000000000000000000000000000000815260206004820152601260248201527f496e76616c696420746f20746f6b656e212100000000000000000000000000006044820152606401610164565b50508080610641906118de565b91505061043e565b506106757f000000000000000000000000000000000000000000000000000000000000000084886107ed565b805160208201516040517fdd1c7d1800000000000000000000000000000000000000000000000000000000815273ffffffffffffffffffffffffffffffffffffffff88169263dd1c7d18926106cf928b91906004016115c7565b608060405180830381600087803b1580156106e957600080fd5b505af11580156106fd573d6000803e3d6000fd5b505050506040513d601f19601f820116820180604052508101906107219190611133565b505050505050505050565b60405160c08101604052610745565b3d6000803e3d6000fd5b7fa9059cbb0000000000000000000000000000000000000000000000000000000081528160048201528260248201526000806044836000885af16103625761036261073b565b600061079882601461189a565b835110156107c1576107c16107bc600485518560146107b7919061189a565b610935565b6109da565b6107cc60148361189a565b929092015173ffffffffffffffffffffffffffffffffffffffff1692915050565b73ffffffffffffffffffffffffffffffffffffffff821673eeeeeeeeeeeeeeeeeeeeeeeeeeeeeeeeeeeeeeee14610373576040517fdd62ed3e00000000000000000000000000000000000000000000000000000000815230600482015273ffffffffffffffffffffffffffffffffffffffff8481166024830152839160009183169063dd62ed3e9060440160206040518083038186803b15801561089057600080fd5b505afa1580156108a4573d6000803e3d6000fd5b505050506040513d601f19601f820116820180604052508101906108c8919061145c565b905082811015610254576108f473ffffffffffffffffffffffffffffffffffffffff83168660006109e2565b61025473ffffffffffffffffffffffffffffffffffffffff8316867fffffffffffffffffffffffffffffffffffffffffffffffffffffffffffffffff610bf1565b6060632800659560e01b8484846040516024016109549392919061170f565b604080517fffffffffffffffffffffffffffffffffffffffffffffffffffffffffffffffe08184030181529190526020810180517bffffffffffffffffffffffffffffffffffffffffffffffffffffffff167fffffffff000000000000000000000000000000000000000000000000000000009093169290921790915290509392505050565b805160208201fd5b801580610a9157506040517fdd62ed3e00000000000000000000000000000000000000000000000000000000815230600482015273ffffffffffffffffffffffffffffffffffffffff838116602483015284169063dd62ed3e9060440160206040518083038186803b158015610a5757600080fd5b505afa158015610a6b573d6000803e3d6000fd5b505050506040513d601f19601f82011682018060405250810190610a8f919061145c565b155b610b1d576040517f08c379a000000000000000000000000000000000000000000000000000000000815260206004820152603660248201527f5361666545524332303a20617070726f76652066726f6d206e6f6e2d7a65726f60448201527f20746f206e6f6e2d7a65726f20616c6c6f77616e6365000000000000000000006064820152608401610164565b60405173ffffffffffffffffffffffffffffffffffffffff83166024820152604481018290526103739084907f095ea7b300000000000000000000000000000000000000000000000000000000906064015b604080517fffffffffffffffffffffffffffffffffffffffffffffffffffffffffffffffe08184030181529190526020810180517bffffffffffffffffffffffffffffffffffffffffffffffffffffffff167fffffffff0000000000000000000000000000000000000000000000000000000090931692909217909152610cfe565b6040517fdd62ed3e00000000000000000000000000000000000000000000000000000000815230600482015273ffffffffffffffffffffffffffffffffffffffff8381166024830152600091839186169063dd62ed3e9060440160206040518083038186803b158015610c6357600080fd5b505afa158015610c77573d6000803e3d6000fd5b505050506040513d601f19601f82011682018060405250810190610c9b919061145c565b610ca5919061189a565b60405173ffffffffffffffffffffffffffffffffffffffff85166024820152604481018290529091506103629085907f095ea7b30000000000000000000000000000000000000000000000000000000090606401610b6f565b6000610d60826040518060400160405280602081526020017f5361666545524332303a206c6f772d6c6576656c2063616c6c206661696c65648152508573ffffffffffffffffffffffffffffffffffffffff16610e0a9092919063ffffffff16565b8051909150156103735780806020019051810190610d7e919061110c565b610373576040517f08c379a000000000000000000000000000000000000000000000000000000000815260206004820152602a60248201527f5361666545524332303a204552433230206f7065726174696f6e20646964206e60448201527f6f742073756363656564000000000000000000000000000000000000000000006064820152608401610164565b6060610e198484600085610e21565b949350505050565b606082471015610eb3576040517f08c379a000000000000000000000000000000000000000000000000000000000815260206004820152602660248201527f416464726573733a20696e73756666696369656e742062616c616e636520666f60448201527f722063616c6c00000000000000000000000000000000000000000000000000006064820152608401610164565b6000808673ffffffffffffffffffffffffffffffffffffffff168587604051610edc91906115ab565b60006040518083038185875af1925050503d8060008114610f19576040519150601f19603f3d011682016040523d82523d6000602084013e610f1e565b606091505b5091509150610f2f87838387610f3a565b979650505050505050565b60608315610fcd578251610fc65773ffffffffffffffffffffffffffffffffffffffff85163b610fc6576040517f08c379a000000000000000000000000000000000000000000000000000000000815260206004820152601d60248201527f416464726573733a2063616c6c20746f206e6f6e2d636f6e74726163740000006044820152606401610164565b5081610e19565b610e198383815115610fe25781518083602001fd5b806040517f08c379a0000000000000000000000000000000000000000000000000000000008152600401610164919061175e565b805161102181611975565b919050565b600082601f830112611036578081fd5b8151602061104b61104683611830565b6117e1565b80838252828201915082860187848660051b890101111561106a578586fd5b855b858110156110ab57815167ffffffffffffffff81111561108a578788fd5b6110988a87838c01016110b8565b855250928401929084019060010161106c565b5090979650505050505050565b600082601f8301126110c8578081fd5b81516110d661104682611854565b8181528460208386010111156110ea578283fd5b610e198260208301602087016118b2565b805160ff8116811461102157600080fd5b60006020828403121561111d578081fd5b8151801515811461112c578182fd5b9392505050565b600060808284031215611144578081fd5b6040516080810181811067ffffffffffffffff8211171561116757611167611946565b8060405250825181526020830151602082015260408301516040820152606083015160608201528091505092915050565b6000602082840312156111a9578081fd5b815167ffffffffffffffff808211156111c0578283fd5b9083019060e082860312156111d3578283fd5b6111db611771565b6111e4836110fb565b81526111f260208401611016565b602082015261120360408401611016565b604082015261121460608401611016565b60608201526080830151608082015260a083015182811115611234578485fd5b611240878286016110b8565b60a08301525060c083015160c082015280935050505092915050565b60006020828403121561126d578081fd5b815167ffffffffffffffff80821115611284578283fd5b9083019060408286031215611297578283fd5b61129f61179a565b8251828111156112ad578485fd5b8301601f810187136112bd578485fd5b80516112cb61104682611830565b80828252602082019150602084018a60208560051b87010111156112ed578889fd5b885b8481101561142957815188811115611305578a8bfd5b8601610180818e037fffffffffffffffffffffffffffffffffffffffffffffffffffffffffffffffe0011215611339578a8bfd5b6113416117bd565b61134d60208301611016565b815261135b60408301611016565b602082015261136c60608301611016565b604082015261137d60808301611016565b606082015260a0820151608082015260c082015160a082015260e082015160c082015261010082015160e08201526101208201516101008201526101408201516101208201526101608201518a8111156113d5578c8dfd5b6113e48f6020838601016110b8565b610140830152506101808201518a8111156113fd578c8dfd5b61140c8f6020838601016110b8565b6101608301525085525060209384019391909101906001016112ef565b50508452505050602083015182811115611441578485fd5b61144d87828601611026565b60208301525095945050505050565b60006020828403121561146d578081fd5b5051919050565b60008060008060808587031215611489578283fd5b843593506020850135925060408501356114a281611975565b9150606085013567ffffffffffffffff8111156114bd578182fd5b8501601f810187136114cd578182fd5b80356114db61104682611854565b8181528860208385010111156114ef578384fd5b81602084016020830137908101602001929092525092959194509250565b600081518084526020808501808196508360051b81019150828601855b85811015611554578284038952611542848351611561565b9885019893509084019060010161152a565b5091979650505050505050565b600081518084526115798160208601602086016118b2565b601f017fffffffffffffffffffffffffffffffffffffffffffffffffffffffffffffffe0169290920160200192915050565b600082516115bd8184602087016118b2565b9190910192915050565b60006060808301818452808751808352608092508286019150828160051b8701016020808b01875b848110156116e8577fffffffffffffffffffffffffffffffffffffffffffffffffffffffffffffff808a85030186528151805173ffffffffffffffffffffffffffffffffffffffff908116865284820151811685870152604080830151821690870152898201511689860152878101518886015260a0808201519086015260c0808201519086015260e08082015190860152610100808201519086015261012080820151908601526101408082015161018082880181905291906116b583890182611561565b9250505061016080830151925086820381880152506116d48183611561565b9785019795505050908201906001016115ef565b505087018990528681036040880152611701818961150d565b9a9950505050505050505050565b606081016008851061174a577f4e487b7100000000000000000000000000000000000000000000000000000000600052602160045260246000fd5b938152602081019290925260409091015290565b60208152600061112c6020830184611561565b60405160e0810167ffffffffffffffff8111828210171561179457611794611946565b60405290565b6040805190810167ffffffffffffffff8111828210171561179457611794611946565b604051610180810167ffffffffffffffff8111828210171561179457611794611946565b604051601f82017fffffffffffffffffffffffffffffffffffffffffffffffffffffffffffffffe016810167ffffffffffffffff8111828210171561182857611828611946565b604052919050565b600067ffffffffffffffff82111561184a5761184a611946565b5060051b60200190565b600067ffffffffffffffff82111561186e5761186e611946565b50601f017fffffffffffffffffffffffffffffffffffffffffffffffffffffffffffffffe01660200190565b600082198211156118ad576118ad611917565b500190565b60005b838110156118cd5781810151838201526020016118b5565b838111156103625750506000910152565b60007fffffffffffffffffffffffffffffffffffffffffffffffffffffffffffffffff82141561191057611910611917565b5060010190565b7f4e487b7100000000000000000000000000000000000000000000000000000000600052601160045260246000fd5b7f4e487b7100000000000000000000000000000000000000000000000000000000600052604160045260246000fd5b73ffffffffffffffffffffffffffffffffffffffff8116811461199757600080fd5b5056fea264697066735822122072a82a74e2740fb4e4f7514582bc9ed35b4adeae41f6e9767ff22bacc71f8fe264736f6c63430008040033",
  "linkReferences": {},
  "deployedLinkReferences": {}
}