{
  "_format": "hh-sol-artifact-1",
  "contractName": "DemoAdapter",
  "sourceName": "contracts/DemoAdapter.sol",
  "abi": [
    {
      "inputs": [
        {
          "internalType": "address",
          "name": "_weth",
          "type": "address"
        }
      ],
      "stateMutability": "nonpayable",
      "type": "constructor"
    },
    {
      "anonymous": false,
      "inputs": [
        {
          "indexed": false,
          "internalType": "address",
          "name": "partner",
          "type": "address"
        },
        {
          "indexed": false,
          "internalType": "address",
          "name": "tokenOut",
          "type": "address"
        },
        {
          "indexed": false,
          "internalType": "uint256",
          "name": "partnerFee",
          "type": "uint256"
        }
      ],
      "name": "ClaimPartnerFee",
      "type": "event"
    },
    {
      "anonymous": false,
      "inputs": [
        {
          "indexed": false,
          "internalType": "string",
          "name": "name",
          "type": "string"
        },
        {
          "indexed": false,
          "internalType": "address",
          "name": "partner",
          "type": "address"
        }
      ],
      "name": "DeactivePartner",
      "type": "event"
    },
    {
      "anonymous": false,
      "inputs": [
        {
          "indexed": true,
          "internalType": "address",
          "name": "previousOwner",
          "type": "address"
        },
        {
          "indexed": true,
          "internalType": "address",
          "name": "newOwner",
          "type": "address"
        }
      ],
      "name": "OwnershipTransferred",
      "type": "event"
    },
    {
      "anonymous": false,
      "inputs": [
        {
          "indexed": false,
          "internalType": "string",
          "name": "name",
          "type": "string"
        },
        {
          "indexed": false,
          "internalType": "address",
          "name": "partner",
          "type": "address"
        }
      ],
      "name": "SetPartner",
      "type": "event"
    },
    {
      "anonymous": false,
      "inputs": [
        {
          "indexed": false,
          "internalType": "uint256",
          "name": "_partnerFee",
          "type": "uint256"
        }
      ],
      "name": "SetPartnerFee",
      "type": "event"
    },
    {
      "anonymous": false,
      "inputs": [
        {
          "indexed": false,
          "internalType": "uint256",
          "name": "_protocolFee",
          "type": "uint256"
        }
      ],
      "name": "SetProtocolFee",
      "type": "event"
    },
    {
      "inputs": [],
      "name": "PARTNER_FEE",
      "outputs": [
        {
          "internalType": "uint256",
          "name": "",
          "type": "uint256"
        }
      ],
      "stateMutability": "view",
      "type": "function"
    },
    {
      "inputs": [],
      "name": "PROTOCOL_FEE",
      "outputs": [
        {
          "internalType": "uint256",
          "name": "",
          "type": "uint256"
        }
      ],
      "stateMutability": "view",
      "type": "function"
    },
    {
      "inputs": [
        {
          "internalType": "address",
          "name": "",
          "type": "address"
        }
      ],
      "name": "Partners",
      "outputs": [
        {
          "internalType": "bool",
          "name": "isActive",
          "type": "bool"
        },
        {
          "internalType": "string",
          "name": "name",
          "type": "string"
        },
        {
          "internalType": "uint256",
          "name": "registrationTime",
          "type": "uint256"
        }
      ],
      "stateMutability": "view",
      "type": "function"
    },
    {
      "inputs": [],
      "name": "owner",
      "outputs": [
        {
          "internalType": "address",
          "name": "",
          "type": "address"
        }
      ],
      "stateMutability": "view",
      "type": "function"
    },
    {
      "inputs": [],
      "name": "renounceOwnership",
      "outputs": [],
      "stateMutability": "nonpayable",
      "type": "function"
    },
    {
      "inputs": [
        {
          "internalType": "address",
          "name": "_partner",
          "type": "address"
        },
        {
          "internalType": "string",
          "name": "_name",
          "type": "string"
        },
        {
          "internalType": "bool",
          "name": "_isActive",
          "type": "bool"
        }
      ],
      "name": "setPartner",
      "outputs": [],
      "stateMutability": "nonpayable",
      "type": "function"
    },
    {
      "inputs": [
        {
          "internalType": "uint256",
          "name": "_partnerFee",
          "type": "uint256"
        }
      ],
      "name": "setPartnerFee",
      "outputs": [],
      "stateMutability": "nonpayable",
      "type": "function"
    },
    {
      "inputs": [
        {
          "internalType": "uint256",
          "name": "_protocolFee",
          "type": "uint256"
        }
      ],
      "name": "setProtocolFee",
      "outputs": [],
      "stateMutability": "nonpayable",
      "type": "function"
    },
    {
      "inputs": [
        {
          "internalType": "uint256",
          "name": "fromAmount",
          "type": "uint256"
        },
        {
          "internalType": "address",
          "name": "fromToken",
          "type": "address"
        },
        {
          "internalType": "address",
          "name": "toToken",
          "type": "address"
        },
        {
          "components": [
            {
              "internalType": "address[]",
              "name": "routes",
              "type": "address[]"
            },
            {
              "internalType": "uint256[]",
              "name": "amount0Out",
              "type": "uint256[]"
            },
            {
              "internalType": "uint256[]",
              "name": "amount1Out",
              "type": "uint256[]"
            },
            {
              "internalType": "uint256[]",
              "name": "indexes",
              "type": "uint256[]"
            },
            {
              "internalType": "bytes[]",
              "name": "data",
              "type": "bytes[]"
            }
          ],
          "internalType": "struct DemoAdapter.SwapChain",
          "name": "swapChain",
          "type": "tuple"
        }
      ],
      "name": "swapRoutes",
      "outputs": [],
      "stateMutability": "payable",
      "type": "function"
    },
    {
      "inputs": [
        {
          "internalType": "address",
          "name": "newOwner",
          "type": "address"
        }
      ],
      "name": "transferOwnership",
      "outputs": [],
      "stateMutability": "nonpayable",
      "type": "function"
    },
    {
      "inputs": [],
      "name": "weth",
      "outputs": [
        {
          "internalType": "address",
          "name": "",
          "type": "address"
        }
      ],
      "stateMutability": "view",
      "type": "function"
    },
    {
      "stateMutability": "payable",
      "type": "receive"
    }
  ],
  "bytecode": "0x60806040526050600155600a60025561271060035534801561002057600080fd5b506040516118f73803806118f783398101604081905261003f916100bd565b6100483361006d565b600480546001600160a01b0319166001600160a01b03929092169190911790556100eb565b600080546001600160a01b038381166001600160a01b0319831681178455604051919092169283917f8be0079c531659141344cd1fd0a4f28419497f9722a3daafe3b4186f6b6457e09190a35050565b6000602082840312156100ce578081fd5b81516001600160a01b03811681146100e4578182fd5b9392505050565b6117fd806100fa6000396000f3fe6080604052600436106100c05760003560e01c80638da5cb5b11610074578063c3ca7f311161004e578063c3ca7f3114610278578063f2fde38b1461028e578063feee9977146102ae57600080fd5b80638da5cb5b1461020b5780638e9b7ab814610236578063a43a48951461026557600080fd5b80633fc8cef3116100a55780633fc8cef314610184578063715018a6146101d6578063787dce3d146101eb57600080fd5b80630b4501fd1461013b5780633741454d1461016457600080fd5b366101365733321415610134576040517f08c379a000000000000000000000000000000000000000000000000000000000815260206004820152601460248201527f455448206465706f7369742072656a656374656400000000000000000000000060448201526064015b60405180910390fd5b005b600080fd5b34801561014757600080fd5b5061015160025481565b6040519081526020015b60405180910390f35b34801561017057600080fd5b5061013461017f3660046113b0565b6102ce565b34801561019057600080fd5b506004546101b19073ffffffffffffffffffffffffffffffffffffffff1681565b60405173ffffffffffffffffffffffffffffffffffffffff909116815260200161015b565b3480156101e257600080fd5b506101346103a2565b3480156101f757600080fd5b506101346102063660046113b0565b6103b6565b34801561021757600080fd5b5060005473ffffffffffffffffffffffffffffffffffffffff166101b1565b34801561024257600080fd5b50610256610251366004611318565b610483565b60405161015b93929190611569565b6101346102733660046113e0565b610532565b34801561028457600080fd5b5061015160015481565b34801561029a57600080fd5b506101346102a9366004611318565b610abf565b3480156102ba57600080fd5b506101346102c9366004611339565b610b76565b6102d6610d25565b60008111610366576040517f08c379a000000000000000000000000000000000000000000000000000000000815260206004820152603e60248201527f53757065724c696e6b3a20466565206d757374206265206120706f736974697660448201527f65206e756d62657220616e642067726561746572207468616e207a65726f0000606482015260840161012b565b60018190556040518181527fd8a1a03d14cf70b1537a82ecf286cf743b3d756d06d6c3279d312b9279cb36c4906020015b60405180910390a150565b6103aa610d25565b6103b46000610da6565b565b6103be610d25565b6000811161044e576040517f08c379a000000000000000000000000000000000000000000000000000000000815260206004820152603e60248201527f53757065724c696e6b3a20466565206d757374206265206120706f736974697660448201527f65206e756d62657220616e642067726561746572207468616e207a65726f0000606482015260840161012b565b60028190556040518181527fdc0410a296e1e33943a772020d333d5f99319d7fcad932a484c53889f7aaa2b190602001610397565b6005602052600090815260409020805460018201805460ff90921692916104a9906116dc565b80601f01602080910402602001604051908101604052809291908181526020018280546104d5906116dc565b80156105225780601f106104f757610100808354040283529160200191610522565b820191906000526020600020905b81548152906001019060200180831161050557829003601f168201915b5050505050908060020154905083565b73ffffffffffffffffffffffffffffffffffffffff83166105b757833410156105b7576040517f08c379a000000000000000000000000000000000000000000000000000000000815260206004820152601460248201527f4e6f7420656e6f75676820656666696369656e74000000000000000000000000604482015260640161012b565b80515160005b8181101561093457600083602001518281518110610604577f4e487b7100000000000000000000000000000000000000000000000000000000600052603260045260246000fd5b6020026020010151905060008460400151838151811061064d577f4e487b7100000000000000000000000000000000000000000000000000000000600052603260045260246000fd5b60200260200101519050600085608001518481518110610696577f4e487b7100000000000000000000000000000000000000000000000000000000600052603260045260246000fd5b6020026020010151905060006001866106af91906116c5565b85146107065786516106c28660016116ad565b815181106106f9577f4e487b7100000000000000000000000000000000000000000000000000000000600052603260045260246000fd5b6020026020010151610708565b305b90508461075e5761075e898b89600001518881518110610751577f4e487b7100000000000000000000000000000000000000000000000000000000600052603260045260246000fd5b6020026020010151610e1b565b841561091d57866060015185815181106107a1577f4e487b7100000000000000000000000000000000000000000000000000000000600052603260045260246000fd5b6020026020010151600a14156108695786518051869081106107ec577f4e487b7100000000000000000000000000000000000000000000000000000000600052603260045260246000fd5b602002602001015173ffffffffffffffffffffffffffffffffffffffff166302aabb5e858584866040518563ffffffff1660e01b815260040161083294939291906115cc565b600060405180830381600087803b15801561084c57600080fd5b505af1158015610860573d6000803e3d6000fd5b5050505061091d565b86518051869081106108a4577f4e487b7100000000000000000000000000000000000000000000000000000000600052603260045260246000fd5b602002602001015173ffffffffffffffffffffffffffffffffffffffff1663022c0d9f858584866040518563ffffffff1660e01b81526004016108ea94939291906115cc565b600060405180830381600087803b15801561090457600080fd5b505af1158015610918573d6000803e3d6000fd5b505050505b50505050808061092c90611730565b9150506105bd565b5073ffffffffffffffffffffffffffffffffffffffff8316610a0957600480546040517f70a08231000000000000000000000000000000000000000000000000000000008152309281019290925260009173ffffffffffffffffffffffffffffffffffffffff909116906370a082319060240160206040518083038186803b1580156109bf57600080fd5b505afa1580156109d3573d6000803e3d6000fd5b505050506040513d601f19601f820116820180604052508101906109f791906113c8565b9050610a038133610fb1565b50610ab8565b6040517f70a0823100000000000000000000000000000000000000000000000000000000815230600482015260009073ffffffffffffffffffffffffffffffffffffffff8516906370a082319060240160206040518083038186803b158015610a7157600080fd5b505afa158015610a85573d6000803e3d6000fd5b505050506040513d601f19601f82011682018060405250810190610aa991906113c8565b9050610ab684823361102a565b505b5050505050565b610ac7610d25565b73ffffffffffffffffffffffffffffffffffffffff8116610b6a576040517f08c379a000000000000000000000000000000000000000000000000000000000815260206004820152602660248201527f4f776e61626c653a206e6577206f776e657220697320746865207a65726f206160448201527f6464726573730000000000000000000000000000000000000000000000000000606482015260840161012b565b610b7381610da6565b50565b610b7e610d25565b73ffffffffffffffffffffffffffffffffffffffff8316600090815260056020526040902081610c9e57805460ff16610c39576040517f08c379a000000000000000000000000000000000000000000000000000000000815260206004820152602360248201527f53757065724c696e6b3a20506172746e657220616c726561647920646561637460448201527f6976650000000000000000000000000000000000000000000000000000000000606482015260840161012b565b80547fffffffffffffffffffffffffffffffffffffffffffffffffffffffffffffff001681556040517fa21850025daabc70fe4a4d95cb5ff2b0220d335c70ec66ec912b3846f17368dd90610c919085908790611594565b60405180910390a1610d1f565b80547fffffffffffffffffffffffffffffffffffffffffffffffffffffffffffffff00168215151781558251610cdd906001830190602086019061107a565b504260028201556040517fef384e7f5414ffff90018f9ab6c0621f523b5b11d1d17a831cc331baf00e26f790610d169085908790611594565b60405180910390a15b50505050565b60005473ffffffffffffffffffffffffffffffffffffffff1633146103b4576040517f08c379a000000000000000000000000000000000000000000000000000000000815260206004820181905260248201527f4f776e61626c653a2063616c6c6572206973206e6f7420746865206f776e6572604482015260640161012b565b6000805473ffffffffffffffffffffffffffffffffffffffff8381167fffffffffffffffffffffffff0000000000000000000000000000000000000000831681178455604051919092169283917f8be0079c531659141344cd1fd0a4f28419497f9722a3daafe3b4186f6b6457e09190a35050565b610e78565b3d6000803e3d6000fd5b7f08c379a0000000000000000000000000000000000000000000000000000000006000527c200000000000000000000000000000000000000000000000000000000060205280604052816000fd5b60405160c081016040528360008114610f0a573415610eb957610eb960557c11696e76616c6964206d73672e76616c75650000000000000000000000610e2a565b7f23b872dd0000000000000000000000000000000000000000000000000000000082523360048301528260248301528360448301526000806064846000895af1610f0557610f05610e20565b610ab8565b7fd0e30db00000000000000000000000000000000000000000000000000000000082526000806004848773b4fbf271143f4fbf7b91a5ded31805e42b2208d65af1610f5757610f57610e20565b7fa9059cbb000000000000000000000000000000000000000000000000000000008252826004830152836024830152600080604484600073b4fbf271143f4fbf7b91a5ded31805e42b2208d65af1610ab857610ab8610e20565b60405160c081016040527f2e1a7d4d000000000000000000000000000000000000000000000000000000008152826004820152600080602483600073b4fbf271143f4fbf7b91a5ded31805e42b2208d65af161100f5761100f610e20565b5060008060008085855af161102657611026610e20565b5050565b60405160c081016040527fa9059cbb0000000000000000000000000000000000000000000000000000000081528160048201528260248201526000806044836000885af1610d1f57610d1f610e20565b828054611086906116dc565b90600052602060002090601f0160209004810192826110a857600085556110ee565b82601f106110c157805160ff19168380011785556110ee565b828001600101855582156110ee579182015b828111156110ee5782518255916020019190600101906110d3565b506110fa9291506110fe565b5090565b5b808211156110fa57600081556001016110ff565b600067ffffffffffffffff83111561112d5761112d611798565b61115e60207fffffffffffffffffffffffffffffffffffffffffffffffffffffffffffffffe0601f8601160161163a565b905082815283838301111561117257600080fd5b828260208301376000602084830101529392505050565b803573ffffffffffffffffffffffffffffffffffffffff811681146111ad57600080fd5b919050565b600082601f8301126111c2578081fd5b813560206111d76111d283611689565b61163a565b80838252828201915082860187848660051b89010111156111f6578586fd5b855b8581101561121b5761120982611189565b845292840192908401906001016111f8565b5090979650505050505050565b600082601f830112611238578081fd5b813560206112486111d283611689565b80838252828201915082860187848660051b8901011115611267578586fd5b855b8581101561121b57813567ffffffffffffffff811115611287578788fd5b8801603f81018a13611297578788fd5b6112a88a8783013560408401611113565b8552509284019290840190600101611269565b600082601f8301126112cb578081fd5b813560206112db6111d283611689565b80838252828201915082860187848660051b89010111156112fa578586fd5b855b8581101561121b578135845292840192908401906001016112fc565b600060208284031215611329578081fd5b61133282611189565b9392505050565b60008060006060848603121561134d578182fd5b61135684611189565b9250602084013567ffffffffffffffff811115611371578283fd5b8401601f81018613611381578283fd5b61139086823560208401611113565b925050604084013580151581146113a5578182fd5b809150509250925092565b6000602082840312156113c1578081fd5b5035919050565b6000602082840312156113d9578081fd5b5051919050565b600080600080608085870312156113f5578081fd5b8435935061140560208601611189565b925061141360408601611189565b9150606085013567ffffffffffffffff8082111561142f578283fd5b9086019060a08289031215611442578283fd5b61144a611611565b823582811115611458578485fd5b6114648a8286016111b2565b825250602083013582811115611478578485fd5b6114848a8286016112bb565b60208301525060408301358281111561149b578485fd5b6114a78a8286016112bb565b6040830152506060830135828111156114be578485fd5b6114ca8a8286016112bb565b6060830152506080830135828111156114e1578485fd5b6114ed8a828601611228565b6080830152509598949750929550505050565b60008151808452815b8181101561152557602081850181015186830182015201611509565b818111156115365782602083870101525b50601f017fffffffffffffffffffffffffffffffffffffffffffffffffffffffffffffffe0169290920160200192915050565b83151581526060602082015260006115846060830185611500565b9050826040830152949350505050565b6040815260006115a76040830185611500565b905073ffffffffffffffffffffffffffffffffffffffff831660208301529392505050565b84815283602082015273ffffffffffffffffffffffffffffffffffffffff831660408201526080606082015260006116076080830184611500565b9695505050505050565b60405160a0810167ffffffffffffffff8111828210171561163457611634611798565b60405290565b604051601f82017fffffffffffffffffffffffffffffffffffffffffffffffffffffffffffffffe016810167ffffffffffffffff8111828210171561168157611681611798565b604052919050565b600067ffffffffffffffff8211156116a3576116a3611798565b5060051b60200190565b600082198211156116c0576116c0611769565b500190565b6000828210156116d7576116d7611769565b500390565b600181811c908216806116f057607f821691505b6020821081141561172a577f4e487b7100000000000000000000000000000000000000000000000000000000600052602260045260246000fd5b50919050565b60007fffffffffffffffffffffffffffffffffffffffffffffffffffffffffffffffff82141561176257611762611769565b5060010190565b7f4e487b7100000000000000000000000000000000000000000000000000000000600052601160045260246000fd5b7f4e487b7100000000000000000000000000000000000000000000000000000000600052604160045260246000fdfea264697066735822122009e2e87d72717e957b11ce377cc8f0bbc42ae0fb971b75da1d32849504df0e0264736f6c63430008040033",
  "linkReferences": {},
  "deployedLinkReferences": {}
}