{
  "_format": "hh-sol-artifact-1",
  "contractName": "DemoAdapter",
  "sourceName": "contracts/DemoAdapter.sol",
  "abi": [
    {
      "inputs": [
        {
          "internalType": "address",
          "name": "_weth",
          "type": "address"
        }
      ],
      "stateMutability": "nonpayable",
      "type": "constructor"
    },
    {
      "anonymous": false,
      "inputs": [
        {
          "indexed": false,
          "internalType": "address",
          "name": "partner",
          "type": "address"
        },
        {
          "indexed": false,
          "internalType": "address",
          "name": "tokenOut",
          "type": "address"
        },
        {
          "indexed": false,
          "internalType": "uint256",
          "name": "partnerFee",
          "type": "uint256"
        }
      ],
      "name": "ClaimPartnerFee",
      "type": "event"
    },
    {
      "anonymous": false,
      "inputs": [
        {
          "indexed": false,
          "internalType": "string",
          "name": "name",
          "type": "string"
        },
        {
          "indexed": false,
          "internalType": "address",
          "name": "partner",
          "type": "address"
        }
      ],
      "name": "DeactivePartner",
      "type": "event"
    },
    {
      "anonymous": false,
      "inputs": [
        {
          "indexed": true,
          "internalType": "address",
          "name": "previousOwner",
          "type": "address"
        },
        {
          "indexed": true,
          "internalType": "address",
          "name": "newOwner",
          "type": "address"
        }
      ],
      "name": "OwnershipTransferred",
      "type": "event"
    },
    {
      "anonymous": false,
      "inputs": [
        {
          "indexed": false,
          "internalType": "string",
          "name": "name",
          "type": "string"
        },
        {
          "indexed": false,
          "internalType": "address",
          "name": "partner",
          "type": "address"
        }
      ],
      "name": "SetPartner",
      "type": "event"
    },
    {
      "anonymous": false,
      "inputs": [
        {
          "indexed": false,
          "internalType": "uint256",
          "name": "_partnerFee",
          "type": "uint256"
        }
      ],
      "name": "SetPartnerFee",
      "type": "event"
    },
    {
      "anonymous": false,
      "inputs": [
        {
          "indexed": false,
          "internalType": "uint256",
          "name": "_protocolFee",
          "type": "uint256"
        }
      ],
      "name": "SetProtocolFee",
      "type": "event"
    },
    {
      "inputs": [],
      "name": "PARTNER_FEE",
      "outputs": [
        {
          "internalType": "uint256",
          "name": "",
          "type": "uint256"
        }
      ],
      "stateMutability": "view",
      "type": "function"
    },
    {
      "inputs": [],
      "name": "PROTOCOL_FEE",
      "outputs": [
        {
          "internalType": "uint256",
          "name": "",
          "type": "uint256"
        }
      ],
      "stateMutability": "view",
      "type": "function"
    },
    {
      "inputs": [
        {
          "internalType": "address",
          "name": "",
          "type": "address"
        }
      ],
      "name": "Partners",
      "outputs": [
        {
          "internalType": "bool",
          "name": "isActive",
          "type": "bool"
        },
        {
          "internalType": "string",
          "name": "name",
          "type": "string"
        },
        {
          "internalType": "uint256",
          "name": "registrationTime",
          "type": "uint256"
        }
      ],
      "stateMutability": "view",
      "type": "function"
    },
    {
      "inputs": [],
      "name": "owner",
      "outputs": [
        {
          "internalType": "address",
          "name": "",
          "type": "address"
        }
      ],
      "stateMutability": "view",
      "type": "function"
    },
    {
      "inputs": [],
      "name": "renounceOwnership",
      "outputs": [],
      "stateMutability": "nonpayable",
      "type": "function"
    },
    {
      "inputs": [
        {
          "internalType": "address",
          "name": "_partner",
          "type": "address"
        },
        {
          "internalType": "string",
          "name": "_name",
          "type": "string"
        },
        {
          "internalType": "bool",
          "name": "_isActive",
          "type": "bool"
        }
      ],
      "name": "setPartner",
      "outputs": [],
      "stateMutability": "nonpayable",
      "type": "function"
    },
    {
      "inputs": [
        {
          "internalType": "uint256",
          "name": "_partnerFee",
          "type": "uint256"
        }
      ],
      "name": "setPartnerFee",
      "outputs": [],
      "stateMutability": "nonpayable",
      "type": "function"
    },
    {
      "inputs": [
        {
          "internalType": "uint256",
          "name": "_protocolFee",
          "type": "uint256"
        }
      ],
      "name": "setProtocolFee",
      "outputs": [],
      "stateMutability": "nonpayable",
      "type": "function"
    },
    {
      "inputs": [
        {
          "internalType": "uint256",
          "name": "fromAmount",
          "type": "uint256"
        },
        {
          "internalType": "address",
          "name": "fromToken",
          "type": "address"
        },
        {
          "internalType": "address",
          "name": "toToken",
          "type": "address"
        },
        {
          "components": [
            {
              "internalType": "address[]",
              "name": "routes",
              "type": "address[]"
            },
            {
              "internalType": "uint256[]",
              "name": "amount0Out",
              "type": "uint256[]"
            },
            {
              "internalType": "uint256[]",
              "name": "amount1Out",
              "type": "uint256[]"
            },
            {
              "internalType": "uint256[]",
              "name": "indexes",
              "type": "uint256[]"
            },
            {
              "internalType": "bytes[]",
              "name": "data",
              "type": "bytes[]"
            }
          ],
          "internalType": "struct DemoAdapter.SwapChain",
          "name": "swapChain",
          "type": "tuple"
        }
      ],
      "name": "swapRoutes",
      "outputs": [],
      "stateMutability": "payable",
      "type": "function"
    },
    {
      "inputs": [
        {
          "internalType": "address",
          "name": "newOwner",
          "type": "address"
        }
      ],
      "name": "transferOwnership",
      "outputs": [],
      "stateMutability": "nonpayable",
      "type": "function"
    },
    {
      "inputs": [],
      "name": "weth",
      "outputs": [
        {
          "internalType": "address",
          "name": "",
          "type": "address"
        }
      ],
      "stateMutability": "view",
      "type": "function"
    },
    {
      "stateMutability": "payable",
      "type": "receive"
    }
  ],
  "bytecode": "0x60806040526050600155600a60025561271060035534801561002057600080fd5b506040516117eb3803806117eb83398101604081905261003f916100bd565b6100483361006d565b600480546001600160a01b0319166001600160a01b03929092169190911790556100eb565b600080546001600160a01b038381166001600160a01b0319831681178455604051919092169283917f8be0079c531659141344cd1fd0a4f28419497f9722a3daafe3b4186f6b6457e09190a35050565b6000602082840312156100ce578081fd5b81516001600160a01b03811681146100e4578182fd5b9392505050565b6116f1806100fa6000396000f3fe6080604052600436106100c05760003560e01c80638da5cb5b11610074578063c3ca7f311161004e578063c3ca7f3114610278578063f2fde38b1461028e578063feee9977146102ae57600080fd5b80638da5cb5b1461020b5780638e9b7ab814610236578063a43a48951461026557600080fd5b80633fc8cef3116100a55780633fc8cef314610184578063715018a6146101d6578063787dce3d146101eb57600080fd5b80630b4501fd1461013b5780633741454d1461016457600080fd5b366101365733321415610134576040517f08c379a000000000000000000000000000000000000000000000000000000000815260206004820152601460248201527f455448206465706f7369742072656a656374656400000000000000000000000060448201526064015b60405180910390fd5b005b600080fd5b34801561014757600080fd5b5061015160025481565b6040519081526020015b60405180910390f35b34801561017057600080fd5b5061013461017f3660046112a4565b6102ce565b34801561019057600080fd5b506004546101b19073ffffffffffffffffffffffffffffffffffffffff1681565b60405173ffffffffffffffffffffffffffffffffffffffff909116815260200161015b565b3480156101e257600080fd5b506101346103a2565b3480156101f757600080fd5b506101346102063660046112a4565b6103b6565b34801561021757600080fd5b5060005473ffffffffffffffffffffffffffffffffffffffff166101b1565b34801561024257600080fd5b5061025661025136600461120c565b610483565b60405161015b9392919061145d565b6101346102733660046112d4565b610532565b34801561028457600080fd5b5061015160015481565b34801561029a57600080fd5b506101346102a936600461120c565b6109b3565b3480156102ba57600080fd5b506101346102c936600461122d565b610a6a565b6102d6610c19565b60008111610366576040517f08c379a000000000000000000000000000000000000000000000000000000000815260206004820152603e60248201527f53757065724c696e6b3a20466565206d757374206265206120706f736974697660448201527f65206e756d62657220616e642067726561746572207468616e207a65726f0000606482015260840161012b565b60018190556040518181527fd8a1a03d14cf70b1537a82ecf286cf743b3d756d06d6c3279d312b9279cb36c4906020015b60405180910390a150565b6103aa610c19565b6103b46000610c9a565b565b6103be610c19565b6000811161044e576040517f08c379a000000000000000000000000000000000000000000000000000000000815260206004820152603e60248201527f53757065724c696e6b3a20466565206d757374206265206120706f736974697660448201527f65206e756d62657220616e642067726561746572207468616e207a65726f0000606482015260840161012b565b60028190556040518181527fdc0410a296e1e33943a772020d333d5f99319d7fcad932a484c53889f7aaa2b190602001610397565b6005602052600090815260409020805460018201805460ff90921692916104a9906115d0565b80601f01602080910402602001604051908101604052809291908181526020018280546104d5906115d0565b80156105225780601f106104f757610100808354040283529160200191610522565b820191906000526020600020905b81548152906001019060200180831161050557829003601f168201915b5050505050908060020154905083565b73ffffffffffffffffffffffffffffffffffffffff83166105b757833410156105b7576040517f08c379a000000000000000000000000000000000000000000000000000000000815260206004820152601460248201527f4e6f7420656e6f75676820656666696369656e74000000000000000000000000604482015260640161012b565b80515160005b8181101561082857600083602001518281518110610604577f4e487b7100000000000000000000000000000000000000000000000000000000600052603260045260246000fd5b6020026020010151905060008460400151838151811061064d577f4e487b7100000000000000000000000000000000000000000000000000000000600052603260045260246000fd5b60200260200101519050600085608001518481518110610696577f4e487b7100000000000000000000000000000000000000000000000000000000600052603260045260246000fd5b6020026020010151905060006001866106af91906115b9565b85146107065786516106c28660016115a1565b815181106106f9577f4e487b7100000000000000000000000000000000000000000000000000000000600052603260045260246000fd5b6020026020010151610708565b305b90508461075e5761075e898b89600001518881518110610751577f4e487b7100000000000000000000000000000000000000000000000000000000600052603260045260246000fd5b6020026020010151610d0f565b8651805186908110610799577f4e487b7100000000000000000000000000000000000000000000000000000000600052603260045260246000fd5b602002602001015173ffffffffffffffffffffffffffffffffffffffff1663022c0d9f858584866040518563ffffffff1660e01b81526004016107df94939291906114c0565b600060405180830381600087803b1580156107f957600080fd5b505af115801561080d573d6000803e3d6000fd5b5050505050505050808061082090611624565b9150506105bd565b5073ffffffffffffffffffffffffffffffffffffffff83166108fd57600480546040517f70a08231000000000000000000000000000000000000000000000000000000008152309281019290925260009173ffffffffffffffffffffffffffffffffffffffff909116906370a082319060240160206040518083038186803b1580156108b357600080fd5b505afa1580156108c7573d6000803e3d6000fd5b505050506040513d601f19601f820116820180604052508101906108eb91906112bc565b90506108f78133610ea5565b506109ac565b6040517f70a0823100000000000000000000000000000000000000000000000000000000815230600482015260009073ffffffffffffffffffffffffffffffffffffffff8516906370a082319060240160206040518083038186803b15801561096557600080fd5b505afa158015610979573d6000803e3d6000fd5b505050506040513d601f19601f8201168201806040525081019061099d91906112bc565b90506109aa848233610f1e565b505b5050505050565b6109bb610c19565b73ffffffffffffffffffffffffffffffffffffffff8116610a5e576040517f08c379a000000000000000000000000000000000000000000000000000000000815260206004820152602660248201527f4f776e61626c653a206e6577206f776e657220697320746865207a65726f206160448201527f6464726573730000000000000000000000000000000000000000000000000000606482015260840161012b565b610a6781610c9a565b50565b610a72610c19565b73ffffffffffffffffffffffffffffffffffffffff8316600090815260056020526040902081610b9257805460ff16610b2d576040517f08c379a000000000000000000000000000000000000000000000000000000000815260206004820152602360248201527f53757065724c696e6b3a20506172746e657220616c726561647920646561637460448201527f6976650000000000000000000000000000000000000000000000000000000000606482015260840161012b565b80547fffffffffffffffffffffffffffffffffffffffffffffffffffffffffffffff001681556040517fa21850025daabc70fe4a4d95cb5ff2b0220d335c70ec66ec912b3846f17368dd90610b859085908790611488565b60405180910390a1610c13565b80547fffffffffffffffffffffffffffffffffffffffffffffffffffffffffffffff00168215151781558251610bd19060018301906020860190610f6e565b504260028201556040517fef384e7f5414ffff90018f9ab6c0621f523b5b11d1d17a831cc331baf00e26f790610c0a9085908790611488565b60405180910390a15b50505050565b60005473ffffffffffffffffffffffffffffffffffffffff1633146103b4576040517f08c379a000000000000000000000000000000000000000000000000000000000815260206004820181905260248201527f4f776e61626c653a2063616c6c6572206973206e6f7420746865206f776e6572604482015260640161012b565b6000805473ffffffffffffffffffffffffffffffffffffffff8381167fffffffffffffffffffffffff0000000000000000000000000000000000000000831681178455604051919092169283917f8be0079c531659141344cd1fd0a4f28419497f9722a3daafe3b4186f6b6457e09190a35050565b610d6c565b3d6000803e3d6000fd5b7f08c379a0000000000000000000000000000000000000000000000000000000006000527c200000000000000000000000000000000000000000000000000000000060205280604052816000fd5b60405160c081016040528360008114610dfe573415610dad57610dad60557c11696e76616c6964206d73672e76616c75650000000000000000000000610d1e565b7f23b872dd0000000000000000000000000000000000000000000000000000000082523360048301528260248301528360448301526000806064846000895af1610df957610df9610d14565b6109ac565b7fd0e30db00000000000000000000000000000000000000000000000000000000082526000806004848773ae13d989dac2f0debff460ac112a837c89baa7cd5af1610e4b57610e4b610d14565b7fa9059cbb000000000000000000000000000000000000000000000000000000008252826004830152836024830152600080604484600073ae13d989dac2f0debff460ac112a837c89baa7cd5af16109ac576109ac610d14565b60405160c081016040527f2e1a7d4d000000000000000000000000000000000000000000000000000000008152826004820152600080602483600073ae13d989dac2f0debff460ac112a837c89baa7cd5af1610f0357610f03610d14565b5060008060008085855af1610f1a57610f1a610d14565b5050565b60405160c081016040527fa9059cbb0000000000000000000000000000000000000000000000000000000081528160048201528260248201526000806044836000885af1610c1357610c13610d14565b828054610f7a906115d0565b90600052602060002090601f016020900481019282610f9c5760008555610fe2565b82601f10610fb557805160ff1916838001178555610fe2565b82800160010185558215610fe2579182015b82811115610fe2578251825591602001919060010190610fc7565b50610fee929150610ff2565b5090565b5b80821115610fee5760008155600101610ff3565b600067ffffffffffffffff8311156110215761102161168c565b61105260207fffffffffffffffffffffffffffffffffffffffffffffffffffffffffffffffe0601f8601160161152e565b905082815283838301111561106657600080fd5b828260208301376000602084830101529392505050565b803573ffffffffffffffffffffffffffffffffffffffff811681146110a157600080fd5b919050565b600082601f8301126110b6578081fd5b813560206110cb6110c68361157d565b61152e565b80838252828201915082860187848660051b89010111156110ea578586fd5b855b8581101561110f576110fd8261107d565b845292840192908401906001016110ec565b5090979650505050505050565b600082601f83011261112c578081fd5b8135602061113c6110c68361157d565b80838252828201915082860187848660051b890101111561115b578586fd5b855b8581101561110f57813567ffffffffffffffff81111561117b578788fd5b8801603f81018a1361118b578788fd5b61119c8a8783013560408401611007565b855250928401929084019060010161115d565b600082601f8301126111bf578081fd5b813560206111cf6110c68361157d565b80838252828201915082860187848660051b89010111156111ee578586fd5b855b8581101561110f578135845292840192908401906001016111f0565b60006020828403121561121d578081fd5b6112268261107d565b9392505050565b600080600060608486031215611241578182fd5b61124a8461107d565b9250602084013567ffffffffffffffff811115611265578283fd5b8401601f81018613611275578283fd5b61128486823560208401611007565b92505060408401358015158114611299578182fd5b809150509250925092565b6000602082840312156112b5578081fd5b5035919050565b6000602082840312156112cd578081fd5b5051919050565b600080600080608085870312156112e9578081fd5b843593506112f96020860161107d565b92506113076040860161107d565b9150606085013567ffffffffffffffff80821115611323578283fd5b9086019060a08289031215611336578283fd5b61133e611505565b82358281111561134c578485fd5b6113588a8286016110a6565b82525060208301358281111561136c578485fd5b6113788a8286016111af565b60208301525060408301358281111561138f578485fd5b61139b8a8286016111af565b6040830152506060830135828111156113b2578485fd5b6113be8a8286016111af565b6060830152506080830135828111156113d5578485fd5b6113e18a82860161111c565b6080830152509598949750929550505050565b60008151808452815b81811015611419576020818501810151868301820152016113fd565b8181111561142a5782602083870101525b50601f017fffffffffffffffffffffffffffffffffffffffffffffffffffffffffffffffe0169290920160200192915050565b831515815260606020820152600061147860608301856113f4565b9050826040830152949350505050565b60408152600061149b60408301856113f4565b905073ffffffffffffffffffffffffffffffffffffffff831660208301529392505050565b84815283602082015273ffffffffffffffffffffffffffffffffffffffff831660408201526080606082015260006114fb60808301846113f4565b9695505050505050565b60405160a0810167ffffffffffffffff811182821017156115285761152861168c565b60405290565b604051601f82017fffffffffffffffffffffffffffffffffffffffffffffffffffffffffffffffe016810167ffffffffffffffff811182821017156115755761157561168c565b604052919050565b600067ffffffffffffffff8211156115975761159761168c565b5060051b60200190565b600082198211156115b4576115b461165d565b500190565b6000828210156115cb576115cb61165d565b500390565b600181811c908216806115e457607f821691505b6020821081141561161e577f4e487b7100000000000000000000000000000000000000000000000000000000600052602260045260246000fd5b50919050565b60007fffffffffffffffffffffffffffffffffffffffffffffffffffffffffffffffff8214156116565761165661165d565b5060010190565b7f4e487b7100000000000000000000000000000000000000000000000000000000600052601160045260246000fd5b7f4e487b7100000000000000000000000000000000000000000000000000000000600052604160045260246000fdfea2646970667358221220cc29a8e2d0ab7c52416a121757da2a93d6ff3dac6b2de4f00796befecc57b1c364736f6c63430008040033",
  "linkReferences": {},
  "deployedLinkReferences": {}
}