{
  "_format": "hh-sol-artifact-1",
  "contractName": "Executor",
  "sourceName": "contracts/Executor.sol",
  "abi": [
    {
      "inputs": [],
      "stateMutability": "nonpayable",
      "type": "constructor"
    },
    {
      "anonymous": false,
      "inputs": [
        {
          "indexed": true,
          "internalType": "address",
          "name": "previousOwner",
          "type": "address"
        },
        {
          "indexed": true,
          "internalType": "address",
          "name": "newOwner",
          "type": "address"
        }
      ],
      "name": "OwnershipTransferred",
      "type": "event"
    },
    {
      "inputs": [
        {
          "internalType": "bytes",
          "name": "data",
          "type": "bytes"
        },
        {
          "internalType": "address",
          "name": "from",
          "type": "address"
        },
        {
          "internalType": "address",
          "name": "toToken",
          "type": "address"
        }
      ],
      "name": "execution",
      "outputs": [],
      "stateMutability": "nonpayable",
      "type": "function"
    },
    {
      "inputs": [],
      "name": "owner",
      "outputs": [
        {
          "internalType": "address",
          "name": "",
          "type": "address"
        }
      ],
      "stateMutability": "view",
      "type": "function"
    },
    {
      "inputs": [],
      "name": "renounceOwnership",
      "outputs": [],
      "stateMutability": "nonpayable",
      "type": "function"
    },
    {
      "inputs": [
        {
          "internalType": "uint256",
          "name": "amount0Out",
          "type": "uint256"
        },
        {
          "internalType": "uint256",
          "name": "amount1Out",
          "type": "uint256"
        },
        {
          "internalType": "bytes",
          "name": "data",
          "type": "bytes"
        }
      ],
      "name": "swapCurveV2",
      "outputs": [],
      "stateMutability": "nonpayable",
      "type": "function"
    },
    {
      "inputs": [
        {
          "internalType": "uint256",
          "name": "amount0Out",
          "type": "uint256"
        },
        {
          "internalType": "uint256",
          "name": "amount1Out",
          "type": "uint256"
        },
        {
          "internalType": "bytes",
          "name": "data",
          "type": "bytes"
        }
      ],
      "name": "swapUniV2",
      "outputs": [],
      "stateMutability": "nonpayable",
      "type": "function"
    },
    {
      "inputs": [],
      "name": "token0",
      "outputs": [
        {
          "internalType": "address",
          "name": "",
          "type": "address"
        }
      ],
      "stateMutability": "view",
      "type": "function"
    },
    {
      "inputs": [],
      "name": "token1",
      "outputs": [
        {
          "internalType": "address",
          "name": "",
          "type": "address"
        }
      ],
      "stateMutability": "view",
      "type": "function"
    },
    {
      "inputs": [
        {
          "internalType": "address",
          "name": "newOwner",
          "type": "address"
        }
      ],
      "name": "transferOwnership",
      "outputs": [],
      "stateMutability": "nonpayable",
      "type": "function"
    },
    {
      "inputs": [
        {
          "internalType": "address",
          "name": "_token",
          "type": "address"
        }
      ],
      "name": "withdrawStuckERC20",
      "outputs": [],
      "stateMutability": "payable",
      "type": "function"
    }
  ],
  "bytecode": "0x608060405234801561001057600080fd5b5061001a33610092565b600180805560046020527f17ef568e3e12ab5b9c7254a8d58478811de00f9e6eb34345acd53bf8fd09d3ec805463ffffffff199081166348d7b2f8179091556000919091527fabd6e7cb50984ff9c2f3e18a2660c3353dadf4e3291deeb275dae2cd1e44fe05805490911663a2d690661790556100e2565b600080546001600160a01b038381166001600160a01b0319831681178455604051919092169283917f8be0079c531659141344cd1fd0a4f28419497f9722a3daafe3b4186f6b6457e09190a35050565b611e09806100f16000396000f3fe6080604052600436106100965760003560e01c806379532f1411610069578063a2d690661161004e578063a2d6906614610186578063d21220a7146101a6578063f2fde38b146101d357600080fd5b806379532f141461013b5780638da5cb5b1461015b57600080fd5b80630dfe16811461009b5780633963510b146100f157806348d7b2f814610106578063715018a614610126575b600080fd5b3480156100a757600080fd5b506002546100c89073ffffffffffffffffffffffffffffffffffffffff1681565b60405173ffffffffffffffffffffffffffffffffffffffff909116815260200160405180910390f35b6101046100ff366004611773565b6101f3565b005b34801561011257600080fd5b50610104610121366004611aee565b6103d9565b34801561013257600080fd5b5061010461040e565b34801561014757600080fd5b50610104610156366004611910565b610422565b34801561016757600080fd5b5060005473ffffffffffffffffffffffffffffffffffffffff166100c8565b34801561019257600080fd5b506101046101a1366004611aee565b6105ae565b3480156101b257600080fd5b506003546100c89073ffffffffffffffffffffffffffffffffffffffff1681565b3480156101df57600080fd5b506101046101ee366004611773565b6106ba565b6101fb610776565b6040517f70a0823100000000000000000000000000000000000000000000000000000000815230600482015260009073ffffffffffffffffffffffffffffffffffffffff8316906370a082319060240160206040518083038186803b15801561026357600080fd5b505afa158015610277573d6000803e3d6000fd5b505050506040513d601f19601f8201168201806040525081019061029b9190611ad6565b9050478115610386578273ffffffffffffffffffffffffffffffffffffffff1663a9059cbb6102df60005473ffffffffffffffffffffffffffffffffffffffff1690565b6040517fffffffff0000000000000000000000000000000000000000000000000000000060e084901b16815273ffffffffffffffffffffffffffffffffffffffff909116600482015260248101859052604401602060405180830381600087803b15801561034c57600080fd5b505af1158015610360573d6000803e3d6000fd5b505050506040513d601f19601f8201168201806040525081019061038491906118f6565b505b80156103d4576000805460405173ffffffffffffffffffffffffffffffffffffffff9091169184156108fc02918591818181858888f193505050501580156103d2573d6000803e3d6000fd5b505b505050565b6000818060200190518101906103ef9190611aa3565b90506103d28160000151826020015186846040015185606001516107f7565b610416610776565b610420600061096a565b565b61042a6109df565b60008380602001905181019061044091906117b2565b6040517f70a0823100000000000000000000000000000000000000000000000000000000815230600482015290915060009073ffffffffffffffffffffffffffffffffffffffff8416906370a082319060240160206040518083038186803b1580156104ab57600080fd5b505afa1580156104bf573d6000803e3d6000fd5b505050506040513d601f19601f820116820180604052508101906104e39190611ad6565b90506104ee82610a53565b6040517f70a082310000000000000000000000000000000000000000000000000000000081523060048201526105a3908490839073ffffffffffffffffffffffffffffffffffffffff8316906370a082319060240160206040518083038186803b15801561055b57600080fd5b505afa15801561056f573d6000803e3d6000fd5b505050506040513d601f19601f820116820180604052508101906105939190611ad6565b61059d9190611cd7565b86610de5565b50506103d460018055565b6000818060200190518101906105c49190611aa3565b90506105d98160000151858360400151610de5565b806000015173ffffffffffffffffffffffffffffffffffffffff16816040015173ffffffffffffffffffffffffffffffffffffffff16630dfe16816040518163ffffffff1660e01b8152600401602060405180830381600087803b15801561064057600080fd5b505af1158015610654573d6000803e3d6000fd5b505050506040513d601f19601f820116820180604052508101906106789190611796565b73ffffffffffffffffffffffffffffffffffffffff16146106a9576106a4838260400151600030610e44565b6103d2565b6103d2838260400151600130610e44565b6106c2610776565b73ffffffffffffffffffffffffffffffffffffffff811661076a576040517f08c379a000000000000000000000000000000000000000000000000000000000815260206004820152602660248201527f4f776e61626c653a206e6577206f776e657220697320746865207a65726f206160448201527f646472657373000000000000000000000000000000000000000000000000000060648201526084015b60405180910390fd5b6107738161096a565b50565b60005473ffffffffffffffffffffffffffffffffffffffff163314610420576040517f08c379a000000000000000000000000000000000000000000000000000000000815260206004820181905260248201527f4f776e61626c653a2063616c6c6572206973206e6f7420746865206f776e65726044820152606401610761565b60008180602001905181019061080d9190611972565b90508561081b848287610ecc565b8160400151156108c557815160208301516040517f65b2489b00000000000000000000000000000000000000000000000000000000815260048101929092526024820152604481018690526001606482015273ffffffffffffffffffffffffffffffffffffffff8516906365b2489b90608401600060405180830381600087803b1580156108a857600080fd5b505af11580156108bc573d6000803e3d6000fd5b50505050610961565b815160208301516040517f5b41b90800000000000000000000000000000000000000000000000000000000815260048101929092526024820152604481018690526001606482015273ffffffffffffffffffffffffffffffffffffffff851690635b41b90890608401600060405180830381600087803b15801561094857600080fd5b505af115801561095c573d6000803e3d6000fd5b505050505b50505050505050565b6000805473ffffffffffffffffffffffffffffffffffffffff8381167fffffffffffffffffffffffff0000000000000000000000000000000000000000831681178455604051919092169283917f8be0079c531659141344cd1fd0a4f28419497f9722a3daafe3b4186f6b6457e09190a35050565b60026001541415610a4c576040517f08c379a000000000000000000000000000000000000000000000000000000000815260206004820152601f60248201527f5265656e7472616e637947756172643a207265656e7472616e742063616c6c006044820152606401610761565b6002600155565b805160005b818110156103d4576000838281518110610a9b577f4e487b7100000000000000000000000000000000000000000000000000000000600052603260045260246000fd5b6020026020010151806020019051810190610ab691906117b2565b805190915060005b81811015610dcf576000838281518110610b01577f4e487b7100000000000000000000000000000000000000000000000000000000600052603260045260246000fd5b6020026020010151806020019051810190610b1c91906119d1565b905060008160200151806020019051810190610b389190611863565b905060008260400151806020019051810190610b549190611863565b905060008360000151806020019051810190610b709190611863565b905060008460600151806020019051810190610b8c91906117b2565b845190915060005b81811015610db5576000610cca60046000878581518110610bde577f4e487b7100000000000000000000000000000000000000000000000000000000600052603260045260246000fd5b6020026020010151815260200190815260200160002060009054906101000a900460e01b888481518110610c3b577f4e487b7100000000000000000000000000000000000000000000000000000000600052603260045260246000fd5b6020026020010151888581518110610c7c577f4e487b7100000000000000000000000000000000000000000000000000000000600052603260045260246000fd5b6020026020010151878681518110610cbd577f4e487b7100000000000000000000000000000000000000000000000000000000600052603260045260246000fd5b6020026020010151611014565b905060003073ffffffffffffffffffffffffffffffffffffffff1682604051610cf39190611b86565b6000604051808303816000865af19150503d8060008114610d30576040519150601f19603f3d011682016040523d82523d6000602084013e610d35565b606091505b5050905080610da0576040517f08c379a000000000000000000000000000000000000000000000000000000000815260206004820152600b60248201527f4661696c65642043616c6c0000000000000000000000000000000000000000006044820152606401610761565b50508080610dad90611d1a565b915050610b94565b505050505050508080610dc790611d1a565b915050610abe565b5050508080610ddd90611d1a565b915050610a58565b60405160c08101604052610dfe565b3d6000803e3d6000fd5b7fa9059cbb0000000000000000000000000000000000000000000000000000000081528160048201528260248201526000806044836000885af16103d2576103d2610df4565b60405160c081016040527f022c0d9f00000000000000000000000000000000000000000000000000000000815282158015610e8b5785600483015260006024830152610e99565b600060048301528560248301525b50816044820152608060648201526000608482015260008060a4836000885af1610ec557610ec5610df4565b5050505050565b73ffffffffffffffffffffffffffffffffffffffff821673eeeeeeeeeeeeeeeeeeeeeeeeeeeeeeeeeeeeeeee146103d4576040517fdd62ed3e00000000000000000000000000000000000000000000000000000000815230600482015273ffffffffffffffffffffffffffffffffffffffff8481166024830152839160009183169063dd62ed3e9060440160206040518083038186803b158015610f6f57600080fd5b505afa158015610f83573d6000803e3d6000fd5b505050506040513d601f19601f82011682018060405250810190610fa79190611ad6565b905082811015610ec557610fd373ffffffffffffffffffffffffffffffffffffffff83168660006110b4565b610ec573ffffffffffffffffffffffffffffffffffffffff8316867fffffffffffffffffffffffffffffffffffffffffffffffffffffffffffffffff6112c3565b60608484848460405160240161102c93929190611bb5565b604080517fffffffffffffffffffffffffffffffffffffffffffffffffffffffffffffffe08184030181529190526020810180517bffffffffffffffffffffffffffffffffffffffffffffffffffffffff167fffffffff000000000000000000000000000000000000000000000000000000009093169290921790915290505b949350505050565b80158061116357506040517fdd62ed3e00000000000000000000000000000000000000000000000000000000815230600482015273ffffffffffffffffffffffffffffffffffffffff838116602483015284169063dd62ed3e9060440160206040518083038186803b15801561112957600080fd5b505afa15801561113d573d6000803e3d6000fd5b505050506040513d601f19601f820116820180604052508101906111619190611ad6565b155b6111ef576040517f08c379a000000000000000000000000000000000000000000000000000000000815260206004820152603660248201527f5361666545524332303a20617070726f76652066726f6d206e6f6e2d7a65726f60448201527f20746f206e6f6e2d7a65726f20616c6c6f77616e6365000000000000000000006064820152608401610761565b60405173ffffffffffffffffffffffffffffffffffffffff83166024820152604481018290526103d49084907f095ea7b300000000000000000000000000000000000000000000000000000000906064015b604080517fffffffffffffffffffffffffffffffffffffffffffffffffffffffffffffffe08184030181529190526020810180517bffffffffffffffffffffffffffffffffffffffffffffffffffffffff167fffffffff00000000000000000000000000000000000000000000000000000000909316929092179091526113d0565b6040517fdd62ed3e00000000000000000000000000000000000000000000000000000000815230600482015273ffffffffffffffffffffffffffffffffffffffff8381166024830152600091839186169063dd62ed3e9060440160206040518083038186803b15801561133557600080fd5b505afa158015611349573d6000803e3d6000fd5b505050506040513d601f19601f8201168201806040525081019061136d9190611ad6565b6113779190611cbf565b60405173ffffffffffffffffffffffffffffffffffffffff85166024820152604481018290529091506103d29085907f095ea7b30000000000000000000000000000000000000000000000000000000090606401611241565b6000611432826040518060400160405280602081526020017f5361666545524332303a206c6f772d6c6576656c2063616c6c206661696c65648152508573ffffffffffffffffffffffffffffffffffffffff166114dc9092919063ffffffff16565b8051909150156103d4578080602001905181019061145091906118f6565b6103d4576040517f08c379a000000000000000000000000000000000000000000000000000000000815260206004820152602a60248201527f5361666545524332303a204552433230206f7065726174696f6e20646964206e60448201527f6f742073756363656564000000000000000000000000000000000000000000006064820152608401610761565b60606110ac8484600085856000808673ffffffffffffffffffffffffffffffffffffffff1685876040516115109190611b86565b60006040518083038185875af1925050503d806000811461154d576040519150601f19603f3d011682016040523d82523d6000602084013e611552565b606091505b50915091506115638783838761156e565b979650505050505050565b606083156116015782516115fa5773ffffffffffffffffffffffffffffffffffffffff85163b6115fa576040517f08c379a000000000000000000000000000000000000000000000000000000000815260206004820152601d60248201527f416464726573733a2063616c6c20746f206e6f6e2d636f6e74726163740000006044820152606401610761565b50816110ac565b6110ac83838151156116165781518083602001fd5b806040517f08c379a00000000000000000000000000000000000000000000000000000000081526004016107619190611ba2565b8051801515811461165a57600080fd5b919050565b600082601f83011261166f578081fd5b813561168261167d82611c79565b611c06565b818152846020838601011115611696578283fd5b816020850160208301379081016020019190915292915050565b600082601f8301126116c0578081fd5b81516116ce61167d82611c79565b8181528460208386010111156116e2578283fd5b6110ac826020830160208701611cee565b600060808284031215611704578081fd5b61170c611bdd565b9050815161171981611db1565b8152602082015161172981611db1565b6020820152604082015161173c81611db1565b6040820152606082015167ffffffffffffffff81111561175b57600080fd5b611767848285016116b0565b60608301525092915050565b600060208284031215611784578081fd5b813561178f81611db1565b9392505050565b6000602082840312156117a7578081fd5b815161178f81611db1565b600060208083850312156117c4578182fd5b825167ffffffffffffffff808211156117db578384fd5b818501915085601f8301126117ee578384fd5b81516117fc61167d82611c55565b80828252858201915085850189878560051b880101111561181b578788fd5b875b848110156118545781518681111561183357898afd5b6118418c8a838b01016116b0565b855250928701929087019060010161181d565b50909998505050505050505050565b60006020808385031215611875578182fd5b825167ffffffffffffffff81111561188b578283fd5b8301601f8101851361189b578283fd5b80516118a961167d82611c55565b80828252848201915084840188868560051b87010111156118c8578687fd5b8694505b838510156118ea5780518352600194909401939185019185016118cc565b50979650505050505050565b600060208284031215611907578081fd5b61178f8261164a565b600080600060608486031215611924578182fd5b833567ffffffffffffffff81111561193a578283fd5b6119468682870161165f565b935050602084013561195781611db1565b9150604084013561196781611db1565b809150509250925092565b600060608284031215611983578081fd5b6040516060810181811067ffffffffffffffff821117156119a6576119a6611d82565b806040525082518152602083015160208201526119c56040840161164a565b60408201529392505050565b6000602082840312156119e2578081fd5b815167ffffffffffffffff808211156119f9578283fd5b9083019060808286031215611a0c578283fd5b611a14611bdd565b825182811115611a22578485fd5b611a2e878286016116b0565b825250602083015182811115611a42578485fd5b611a4e878286016116b0565b602083015250604083015182811115611a65578485fd5b611a71878286016116b0565b604083015250606083015182811115611a88578485fd5b611a94878286016116b0565b60608301525095945050505050565b600060208284031215611ab4578081fd5b815167ffffffffffffffff811115611aca578182fd5b6110ac848285016116f3565b600060208284031215611ae7578081fd5b5051919050565b600080600060608486031215611b02578081fd5b8335925060208401359150604084013567ffffffffffffffff811115611b26578182fd5b611b328682870161165f565b9150509250925092565b60008151808452611b54816020860160208601611cee565b601f017fffffffffffffffffffffffffffffffffffffffffffffffffffffffffffffffe0169290920160200192915050565b60008251611b98818460208701611cee565b9190910192915050565b60208152600061178f6020830184611b3c565b838152826020820152606060408201526000611bd46060830184611b3c565b95945050505050565b6040516080810167ffffffffffffffff81118282101715611c0057611c00611d82565b60405290565b604051601f82017fffffffffffffffffffffffffffffffffffffffffffffffffffffffffffffffe016810167ffffffffffffffff81118282101715611c4d57611c4d611d82565b604052919050565b600067ffffffffffffffff821115611c6f57611c6f611d82565b5060051b60200190565b600067ffffffffffffffff821115611c9357611c93611d82565b50601f017fffffffffffffffffffffffffffffffffffffffffffffffffffffffffffffffe01660200190565b60008219821115611cd257611cd2611d53565b500190565b600082821015611ce957611ce9611d53565b500390565b60005b83811015611d09578181015183820152602001611cf1565b838111156103d25750506000910152565b60007fffffffffffffffffffffffffffffffffffffffffffffffffffffffffffffffff821415611d4c57611d4c611d53565b5060010190565b7f4e487b7100000000000000000000000000000000000000000000000000000000600052601160045260246000fd5b7f4e487b7100000000000000000000000000000000000000000000000000000000600052604160045260246000fd5b73ffffffffffffffffffffffffffffffffffffffff8116811461077357600080fdfea264697066735822122031b4c3302f503fed6c4befcffd2d3314b5645192ff150d198a93462278d8159264736f6c63430008040033",
  "linkReferences": {},
  "deployedLinkReferences": {}
}