{
  "_format": "hh-sol-artifact-1",
  "contractName": "Executor",
  "sourceName": "contracts/Executor.sol",
  "abi": [
    {
      "anonymous": false,
      "inputs": [
        {
          "indexed": true,
          "internalType": "address",
          "name": "previousOwner",
          "type": "address"
        },
        {
          "indexed": true,
          "internalType": "address",
          "name": "newOwner",
          "type": "address"
        }
      ],
      "name": "OwnershipTransferred",
      "type": "event"
    },
    {
      "inputs": [
        {
          "internalType": "bytes",
          "name": "data",
          "type": "bytes"
        },
        {
          "internalType": "address",
          "name": "from",
          "type": "address"
        },
        {
          "internalType": "address",
          "name": "toToken",
          "type": "address"
        }
      ],
      "name": "execution",
      "outputs": [],
      "stateMutability": "nonpayable",
      "type": "function"
    },
    {
      "inputs": [],
      "name": "owner",
      "outputs": [
        {
          "internalType": "address",
          "name": "",
          "type": "address"
        }
      ],
      "stateMutability": "view",
      "type": "function"
    },
    {
      "inputs": [],
      "name": "renounceOwnership",
      "outputs": [],
      "stateMutability": "nonpayable",
      "type": "function"
    },
    {
      "inputs": [
        {
          "internalType": "address",
          "name": "newOwner",
          "type": "address"
        }
      ],
      "name": "transferOwnership",
      "outputs": [],
      "stateMutability": "nonpayable",
      "type": "function"
    },
    {
      "inputs": [
        {
          "internalType": "address",
          "name": "_token",
          "type": "address"
        }
      ],
      "name": "withdrawStuckERC20",
      "outputs": [],
      "stateMutability": "payable",
      "type": "function"
    }
  ],
  "bytecode": "0x608060405234801561001057600080fd5b5061001a33610023565b60018055610073565b600080546001600160a01b038381166001600160a01b0319831681178455604051919092169283917f8be0079c531659141344cd1fd0a4f28419497f9722a3daafe3b4186f6b6457e09190a35050565b611274806100826000396000f3fe60806040526004361061005a5760003560e01c806379532f141161004357806379532f14146100895780638da5cb5b146100a9578063f2fde38b146100e257600080fd5b80633963510b1461005f578063715018a614610074575b600080fd5b61007261006d366004610c19565b610102565b005b34801561008057600080fd5b506100726102e8565b34801561009557600080fd5b506100726100a4366004610e30565b6102fc565b3480156100b557600080fd5b506000546040805173ffffffffffffffffffffffffffffffffffffffff9092168252519081900360200190f35b3480156100ee57600080fd5b506100726100fd366004610c19565b610488565b61010a610544565b6040517f70a0823100000000000000000000000000000000000000000000000000000000815230600482015260009073ffffffffffffffffffffffffffffffffffffffff8316906370a082319060240160206040518083038186803b15801561017257600080fd5b505afa158015610186573d6000803e3d6000fd5b505050506040513d601f19601f820116820180604052508101906101aa9190610fb0565b9050478115610295578273ffffffffffffffffffffffffffffffffffffffff1663a9059cbb6101ee60005473ffffffffffffffffffffffffffffffffffffffff1690565b6040517fffffffff0000000000000000000000000000000000000000000000000000000060e084901b16815273ffffffffffffffffffffffffffffffffffffffff909116600482015260248101859052604401602060405180830381600087803b15801561025b57600080fd5b505af115801561026f573d6000803e3d6000fd5b505050506040513d601f19601f820116820180604052508101906102939190610e10565b505b80156102e3576000805460405173ffffffffffffffffffffffffffffffffffffffff9091169184156108fc02918591818181858888f193505050501580156102e1573d6000803e3d6000fd5b505b505050565b6102f0610544565b6102fa60006105c5565b565b61030461063a565b60008380602001905181019061031a9190610cd8565b6040517f70a0823100000000000000000000000000000000000000000000000000000000815230600482015290915060009073ffffffffffffffffffffffffffffffffffffffff8416906370a082319060240160206040518083038186803b15801561038557600080fd5b505afa158015610399573d6000803e3d6000fd5b505050506040513d601f19601f820116820180604052508101906103bd9190610fb0565b90506103c8826106ae565b6040517f70a0823100000000000000000000000000000000000000000000000000000000815230600482015261047d908490839073ffffffffffffffffffffffffffffffffffffffff8316906370a082319060240160206040518083038186803b15801561043557600080fd5b505afa158015610449573d6000803e3d6000fd5b505050506040513d601f19601f8201168201806040525081019061046d9190610fb0565b6104779190611142565b86610ab2565b50506102e360018055565b610490610544565b73ffffffffffffffffffffffffffffffffffffffff8116610538576040517f08c379a000000000000000000000000000000000000000000000000000000000815260206004820152602660248201527f4f776e61626c653a206e6577206f776e657220697320746865207a65726f206160448201527f646472657373000000000000000000000000000000000000000000000000000060648201526084015b60405180910390fd5b610541816105c5565b50565b60005473ffffffffffffffffffffffffffffffffffffffff1633146102fa576040517f08c379a000000000000000000000000000000000000000000000000000000000815260206004820181905260248201527f4f776e61626c653a2063616c6c6572206973206e6f7420746865206f776e6572604482015260640161052f565b6000805473ffffffffffffffffffffffffffffffffffffffff8381167fffffffffffffffffffffffff0000000000000000000000000000000000000000831681178455604051919092169283917f8be0079c531659141344cd1fd0a4f28419497f9722a3daafe3b4186f6b6457e09190a35050565b600260015414156106a7576040517f08c379a000000000000000000000000000000000000000000000000000000000815260206004820152601f60248201527f5265656e7472616e637947756172643a207265656e7472616e742063616c6c00604482015260640161052f565b6002600155565b805160005b818110156102e35760008382815181106106f6577f4e487b7100000000000000000000000000000000000000000000000000000000600052603260045260246000fd5b60200260200101518060200190518101906107119190610cd8565b805190915060005b81811015610a9c57600083828151811061075c577f4e487b7100000000000000000000000000000000000000000000000000000000600052603260045260246000fd5b60200260200101518060200190518101906107779190610ecd565b9050600081602001518060200190518101906107939190610d89565b9050600082604001518060200190518101906107af9190610d89565b9050600083600001518060200190518101906107cb9190610c3c565b9050600084608001518060200190518101906107e79190610cd8565b606086015185519192509060005b81811015610a81576108888388838151811061083a577f4e487b7100000000000000000000000000000000000000000000000000000000600052603260045260246000fd5b602002602001015187848151811061087b577f4e487b7100000000000000000000000000000000000000000000000000000000600052603260045260246000fd5b6020026020010151610ab2565b60006109568883815181106108c6577f4e487b7100000000000000000000000000000000000000000000000000000000600052603260045260246000fd5b6020026020010151888481518110610907577f4e487b7100000000000000000000000000000000000000000000000000000000600052603260045260246000fd5b602002602001015130888681518110610949577f4e487b7100000000000000000000000000000000000000000000000000000000600052603260045260246000fd5b6020026020010151610b11565b90506000868381518110610993577f4e487b7100000000000000000000000000000000000000000000000000000000600052603260045260246000fd5b602002602001015173ffffffffffffffffffffffffffffffffffffffff16826040516109bf9190610fc8565b6000604051808303816000865af19150503d80600081146109fc576040519150601f19603f3d011682016040523d82523d6000602084013e610a01565b606091505b5050905080610a6c576040517f08c379a000000000000000000000000000000000000000000000000000000000815260206004820152600b60248201527f4661696c65642043616c6c000000000000000000000000000000000000000000604482015260640161052f565b50508080610a7990611185565b9150506107f5565b50505050505050508080610a9490611185565b915050610719565b5050508080610aaa90611185565b9150506106b3565b60405160c08101604052610acb565b3d6000803e3d6000fd5b7fa9059cbb0000000000000000000000000000000000000000000000000000000081528160048201528260248201526000806044836000885af16102e1576102e1610ac1565b606063022c0d9f60e01b85858585604051602401610b329493929190610fe4565b604080517fffffffffffffffffffffffffffffffffffffffffffffffffffffffffffffffe08184030181529190526020810180517bffffffffffffffffffffffffffffffffffffffffffffffffffffffff167fffffffff00000000000000000000000000000000000000000000000000000000909316929092179091529050949350505050565b8051610bc48161121c565b919050565b600082601f830112610bd9578081fd5b8151610bec610be7826110fc565b611089565b818152846020838601011115610c00578283fd5b610c11826020830160208701611159565b949350505050565b600060208284031215610c2a578081fd5b8135610c358161121c565b9392505050565b60006020808385031215610c4e578182fd5b825167ffffffffffffffff811115610c64578283fd5b8301601f81018513610c74578283fd5b8051610c82610be7826110d8565b80828252848201915084840188868560051b8701011115610ca1578687fd5b8694505b83851015610ccc578051610cb88161121c565b835260019490940193918501918501610ca5565b50979650505050505050565b60006020808385031215610cea578182fd5b825167ffffffffffffffff80821115610d01578384fd5b818501915085601f830112610d14578384fd5b8151610d22610be7826110d8565b80828252858201915085850189878560051b8801011115610d41578788fd5b875b84811015610d7a57815186811115610d5957898afd5b610d678c8a838b0101610bc9565b8552509287019290870190600101610d43565b50909998505050505050505050565b60006020808385031215610d9b578182fd5b825167ffffffffffffffff811115610db1578283fd5b8301601f81018513610dc1578283fd5b8051610dcf610be7826110d8565b80828252848201915084840188868560051b8701011115610dee578687fd5b8694505b83851015610ccc578051835260019490940193918501918501610df2565b600060208284031215610e21578081fd5b81518015158114610c35578182fd5b600080600060608486031215610e44578182fd5b833567ffffffffffffffff811115610e5a578283fd5b8401601f81018613610e6a578283fd5b8035610e78610be7826110fc565b818152876020838501011115610e8c578485fd5b8160208401602083013784602083830101528095505050506020840135610eb28161121c565b91506040840135610ec28161121c565b809150509250925092565b600060208284031215610ede578081fd5b815167ffffffffffffffff80821115610ef5578283fd5b9083019060a08286031215610f08578283fd5b610f10611060565b825182811115610f1e578485fd5b610f2a87828601610bc9565b825250602083015182811115610f3e578485fd5b610f4a87828601610bc9565b602083015250604083015182811115610f61578485fd5b610f6d87828601610bc9565b604083015250610f7f60608401610bb9565b6060820152608083015182811115610f95578485fd5b610fa187828601610bc9565b60808301525095945050505050565b600060208284031215610fc1578081fd5b5051919050565b60008251610fda818460208701611159565b9190910192915050565b84815283602082015273ffffffffffffffffffffffffffffffffffffffff83166040820152608060608201526000825180608084015261102b8160a0850160208701611159565b601f017fffffffffffffffffffffffffffffffffffffffffffffffffffffffffffffffe0169190910160a00195945050505050565b60405160a0810167ffffffffffffffff81118282101715611083576110836111ed565b60405290565b604051601f82017fffffffffffffffffffffffffffffffffffffffffffffffffffffffffffffffe016810167ffffffffffffffff811182821017156110d0576110d06111ed565b604052919050565b600067ffffffffffffffff8211156110f2576110f26111ed565b5060051b60200190565b600067ffffffffffffffff821115611116576111166111ed565b50601f017fffffffffffffffffffffffffffffffffffffffffffffffffffffffffffffffe01660200190565b600082821015611154576111546111be565b500390565b60005b8381101561117457818101518382015260200161115c565b838111156102e15750506000910152565b60007fffffffffffffffffffffffffffffffffffffffffffffffffffffffffffffffff8214156111b7576111b76111be565b5060010190565b7f4e487b7100000000000000000000000000000000000000000000000000000000600052601160045260246000fd5b7f4e487b7100000000000000000000000000000000000000000000000000000000600052604160045260246000fd5b73ffffffffffffffffffffffffffffffffffffffff8116811461054157600080fdfea26469706673582212200cf9aed9a59086636eb3815ee2796d35998bd8c691ef89ab7d1710401891ae9f64736f6c63430008040033",
  "linkReferences": {},
  "deployedLinkReferences": {}
}