{
  "_format": "hh-sol-artifact-1",
  "contractName": "Executor",
  "sourceName": "contracts/Executor.sol",
  "abi": [
    {
      "inputs": [
        {
          "internalType": "bytes[]",
          "name": "data",
          "type": "bytes[]"
        }
      ],
      "name": "chainRouter",
      "outputs": [],
      "stateMutability": "nonpayable",
      "type": "function"
    },
    {
      "inputs": [
        {
          "internalType": "bytes",
          "name": "data",
          "type": "bytes"
        },
        {
          "internalType": "address",
          "name": "from",
          "type": "address"
        },
        {
          "internalType": "address",
          "name": "toToken",
          "type": "address"
        }
      ],
      "name": "execution",
      "outputs": [],
      "stateMutability": "nonpayable",
      "type": "function"
    }
  ],
  "bytecode": "0x608060405234801561001057600080fd5b50610d54806100206000396000f3fe608060405234801561001057600080fd5b50600436106100365760003560e01c806350e4d1c01461003b57806379532f1414610050575b600080fd5b61004e61004936600461078f565b610063565b005b61004e61005e366004610969565b610470565b805160005b8181101561046b5760008382815181106100ab577f4e487b7100000000000000000000000000000000000000000000000000000000600052603260045260246000fd5b60200260200101518060200190518101906100c69190610840565b805190915060005b81811015610455576000838281518110610111577f4e487b7100000000000000000000000000000000000000000000000000000000600052603260045260246000fd5b602002602001015180602001905181019061012c91906109cb565b90506000816020015180602001905181019061014891906108e2565b90506000826040015180602001905181019061016491906108e2565b90506000836000015180602001905181019061018091906106f3565b90506000846080015180602001905181019061019c9190610840565b606086015185519192509060005b8181101561043a5761023d838883815181106101ef577f4e487b7100000000000000000000000000000000000000000000000000000000600052603260045260246000fd5b6020026020010151878481518110610230577f4e487b7100000000000000000000000000000000000000000000000000000000600052603260045260246000fd5b6020026020010151610540565b600061030b88838151811061027b577f4e487b7100000000000000000000000000000000000000000000000000000000600052603260045260246000fd5b60200260200101518884815181106102bc577f4e487b7100000000000000000000000000000000000000000000000000000000600052603260045260246000fd5b6020026020010151308886815181106102fe577f4e487b7100000000000000000000000000000000000000000000000000000000600052603260045260246000fd5b602002602001015161059f565b90506000868381518110610348577f4e487b7100000000000000000000000000000000000000000000000000000000600052603260045260246000fd5b602002602001015173ffffffffffffffffffffffffffffffffffffffff16826040516103749190610ac6565b6000604051808303816000865af19150503d80600081146103b1576040519150601f19603f3d011682016040523d82523d6000602084013e6103b6565b606091505b5050905080610425576040517f08c379a000000000000000000000000000000000000000000000000000000000815260206004820152600b60248201527f4661696c65642043616c6c000000000000000000000000000000000000000000604482015260640160405180910390fd5b5050808061043290610c6c565b9150506101aa565b5050505050505050808061044d90610c6c565b9150506100ce565b505050808061046390610c6c565b915050610068565b505050565b6000838060200190518101906104869190610840565b905061049181610063565b6040517f70a0823100000000000000000000000000000000000000000000000000000000815230600482015261053a90839073ffffffffffffffffffffffffffffffffffffffff8216906370a082319060240160206040518083038186803b1580156104fc57600080fd5b505afa158015610510573d6000803e3d6000fd5b505050506040513d601f19601f820116820180604052508101906105349190610aae565b85610540565b50505050565b60405160c08101604052610559565b3d6000803e3d6000fd5b7fa9059cbb0000000000000000000000000000000000000000000000000000000081528160048201528260248201526000806044836000885af161053a5761053a61054f565b606063022c0d9f60e01b858585856040516024016105c09493929190610ae2565b604080517fffffffffffffffffffffffffffffffffffffffffffffffffffffffffffffffe08184030181529190526020810180517bffffffffffffffffffffffffffffffffffffffffffffffffffffffff167fffffffff00000000000000000000000000000000000000000000000000000000909316929092179091529050949350505050565b805161065281610cf9565b919050565b600082601f830112610667578081fd5b813561067a61067582610bfa565b610b87565b81815284602083860101111561068e578283fd5b816020850160208301379081016020019190915292915050565b600082601f8301126106b8578081fd5b81516106c661067582610bfa565b8181528460208386010111156106da578283fd5b6106eb826020830160208701610c40565b949350505050565b60006020808385031215610705578182fd5b825167ffffffffffffffff81111561071b578283fd5b8301601f8101851361072b578283fd5b805161073961067582610bd6565b80828252848201915084840188868560051b8701011115610758578687fd5b8694505b8385101561078357805161076f81610cf9565b83526001949094019391850191850161075c565b50979650505050505050565b600060208083850312156107a1578182fd5b823567ffffffffffffffff808211156107b8578384fd5b818501915085601f8301126107cb578384fd5b81356107d961067582610bd6565b80828252858201915085850189878560051b88010111156107f8578788fd5b875b848110156108315781358681111561081057898afd5b61081e8c8a838b0101610657565b85525092870192908701906001016107fa565b50909998505050505050505050565b60006020808385031215610852578182fd5b825167ffffffffffffffff80821115610869578384fd5b818501915085601f83011261087c578384fd5b815161088a61067582610bd6565b80828252858201915085850189878560051b88010111156108a9578788fd5b875b84811015610831578151868111156108c157898afd5b6108cf8c8a838b01016106a8565b85525092870192908701906001016108ab565b600060208083850312156108f4578182fd5b825167ffffffffffffffff81111561090a578283fd5b8301601f8101851361091a578283fd5b805161092861067582610bd6565b80828252848201915084840188868560051b8701011115610947578687fd5b8694505b8385101561078357805183526001949094019391850191850161094b565b60008060006060848603121561097d578182fd5b833567ffffffffffffffff811115610993578283fd5b61099f86828701610657565b93505060208401356109b081610cf9565b915060408401356109c081610cf9565b809150509250925092565b6000602082840312156109dc578081fd5b815167ffffffffffffffff808211156109f3578283fd5b9083019060a08286031215610a06578283fd5b610a0e610b5e565b825182811115610a1c578485fd5b610a28878286016106a8565b825250602083015182811115610a3c578485fd5b610a48878286016106a8565b602083015250604083015182811115610a5f578485fd5b610a6b878286016106a8565b604083015250610a7d60608401610647565b6060820152608083015182811115610a93578485fd5b610a9f878286016106a8565b60808301525095945050505050565b600060208284031215610abf578081fd5b5051919050565b60008251610ad8818460208701610c40565b9190910192915050565b84815283602082015273ffffffffffffffffffffffffffffffffffffffff831660408201526080606082015260008251806080840152610b298160a0850160208701610c40565b601f017fffffffffffffffffffffffffffffffffffffffffffffffffffffffffffffffe0169190910160a00195945050505050565b60405160a0810167ffffffffffffffff81118282101715610b8157610b81610cca565b60405290565b604051601f82017fffffffffffffffffffffffffffffffffffffffffffffffffffffffffffffffe016810167ffffffffffffffff81118282101715610bce57610bce610cca565b604052919050565b600067ffffffffffffffff821115610bf057610bf0610cca565b5060051b60200190565b600067ffffffffffffffff821115610c1457610c14610cca565b50601f017fffffffffffffffffffffffffffffffffffffffffffffffffffffffffffffffe01660200190565b60005b83811015610c5b578181015183820152602001610c43565b8381111561053a5750506000910152565b60007fffffffffffffffffffffffffffffffffffffffffffffffffffffffffffffffff821415610cc3577f4e487b710000000000000000000000000000000000000000000000000000000081526011600452602481fd5b5060010190565b7f4e487b7100000000000000000000000000000000000000000000000000000000600052604160045260246000fd5b73ffffffffffffffffffffffffffffffffffffffff81168114610d1b57600080fd5b5056fea2646970667358221220caf615dbfebb48b3e8dcb872daa3362e73d7be3055845b4acd3c47f2224052f964736f6c63430008040033",
  "linkReferences": {},
  "deployedLinkReferences": {}
}