{
  "_format": "hh-sol-artifact-1",
  "contractName": "Executor",
  "sourceName": "contracts/Executor.sol",
  "abi": [
    {
      "anonymous": false,
      "inputs": [
        {
          "indexed": true,
          "internalType": "address",
          "name": "previousOwner",
          "type": "address"
        },
        {
          "indexed": true,
          "internalType": "address",
          "name": "newOwner",
          "type": "address"
        }
      ],
      "name": "OwnershipTransferred",
      "type": "event"
    },
    {
      "inputs": [
        {
          "internalType": "bytes",
          "name": "data",
          "type": "bytes"
        },
        {
          "internalType": "address",
          "name": "from",
          "type": "address"
        },
        {
          "internalType": "address",
          "name": "toToken",
          "type": "address"
        }
      ],
      "name": "execution",
      "outputs": [],
      "stateMutability": "nonpayable",
      "type": "function"
    },
    {
      "inputs": [],
      "name": "owner",
      "outputs": [
        {
          "internalType": "address",
          "name": "",
          "type": "address"
        }
      ],
      "stateMutability": "view",
      "type": "function"
    },
    {
      "inputs": [],
      "name": "renounceOwnership",
      "outputs": [],
      "stateMutability": "nonpayable",
      "type": "function"
    },
    {
      "inputs": [
        {
          "internalType": "address",
          "name": "newOwner",
          "type": "address"
        }
      ],
      "name": "transferOwnership",
      "outputs": [],
      "stateMutability": "nonpayable",
      "type": "function"
    },
    {
      "inputs": [
        {
          "internalType": "address",
          "name": "_token",
          "type": "address"
        }
      ],
      "name": "withdrawStuckERC20",
      "outputs": [],
      "stateMutability": "payable",
      "type": "function"
    }
  ],
  "bytecode": "0x608060405234801561001057600080fd5b5061001a33610023565b60018055610073565b600080546001600160a01b038381166001600160a01b0319831681178455604051919092169283917f8be0079c531659141344cd1fd0a4f28419497f9722a3daafe3b4186f6b6457e09190a35050565b610da6806100826000396000f3fe60806040526004361061004a5760003560e01c80633963510b1461004f578063715018a61461006457806379532f14146100795780638da5cb5b14610099578063f2fde38b146100c4575b600080fd5b61006261005d3660046109bc565b6100e4565b005b34801561007057600080fd5b5061006261025a565b34801561008557600080fd5b50610062610094366004610a39565b61026e565b3480156100a557600080fd5b506100ae6103b3565b6040516100bb9190610bda565b60405180910390f35b3480156100d057600080fd5b506100626100df3660046109bc565b6103c2565b6100ec610440565b6040516370a0823160e01b81526000906001600160a01b038316906370a082319061011b903090600401610bda565b60206040518083038186803b15801561013357600080fd5b505afa158015610147573d6000803e3d6000fd5b505050506040513d601f19601f8201168201806040525081019061016b9190610ba6565b905047811561020d57826001600160a01b031663a9059cbb61018b6103b3565b6040516001600160e01b031960e084901b1681526001600160a01b03909116600482015260248101859052604401602060405180830381600087803b1580156101d357600080fd5b505af11580156101e7573d6000803e3d6000fd5b505050506040513d601f19601f8201168201806040525081019061020b9190610a19565b505b80156102555761021b6103b3565b6001600160a01b03166108fc839081150290604051600060405180830381858888f19350505050158015610253573d6000803e3d6000fd5b505b505050565b610262610440565b61026c600061049f565b565b6102766104ef565b60008380602001905181019061028c91906109df565b90506000826001600160a01b03166370a08231306040518263ffffffff1660e01b81526004016102bc9190610bda565b60206040518083038186803b1580156102d457600080fd5b505afa1580156102e8573d6000803e3d6000fd5b505050506040513d601f19601f8201168201806040525081019061030c9190610ba6565b905061031782610549565b6103a88382856001600160a01b03166370a08231306040518263ffffffff1660e01b81526004016103489190610bda565b60206040518083038186803b15801561036057600080fd5b505afa158015610374573d6000803e3d6000fd5b505050506040513d601f19601f820116820180604052508101906103989190610ba6565b6103a29190610cd1565b86610790565b505061025560018055565b6000546001600160a01b031690565b6103ca610440565b6001600160a01b0381166104345760405162461bcd60e51b815260206004820152602660248201527f4f776e61626c653a206e6577206f776e657220697320746865207a65726f206160448201526564647265737360d01b60648201526084015b60405180910390fd5b61043d8161049f565b50565b336104496103b3565b6001600160a01b03161461026c5760405162461bcd60e51b815260206004820181905260248201527f4f776e61626c653a2063616c6c6572206973206e6f7420746865206f776e6572604482015260640161042b565b600080546001600160a01b038381166001600160a01b0319831681178455604051919092169283917f8be0079c531659141344cd1fd0a4f28419497f9722a3daafe3b4186f6b6457e09190a35050565b600260015414156105425760405162461bcd60e51b815260206004820152601f60248201527f5265656e7472616e637947756172643a207265656e7472616e742063616c6c00604482015260640161042b565b6002600155565b805160005b8181101561025557600083828151811061057857634e487b7160e01b600052603260045260246000fd5b602002602001015180602001905181019061059391906109df565b805190915060005b8181101561077a5760008382815181106105c557634e487b7160e01b600052603260045260246000fd5b60200260200101518060200190518101906105e09190610ad5565b6020810151604082015182516060840151835194955092939192909160005b8181101561076057600061068987838151811061062c57634e487b7160e01b600052603260045260246000fd5b602002602001015187848151811061065457634e487b7160e01b600052603260045260246000fd5b602002602001015186858151811061067c57634e487b7160e01b600052603260045260246000fd5b60200260200101516107d6565b905060008583815181106106ad57634e487b7160e01b600052603260045260246000fd5b60200260200101516001600160a01b0316826040516106cc9190610bbe565b600060405180830381855af49150503d8060008114610707576040519150601f19603f3d011682016040523d82523d6000602084013e61070c565b606091505b505090508061074b5760405162461bcd60e51b815260206004820152600b60248201526a11985a5b19590810d85b1b60aa1b604482015260640161042b565b5050808061075890610d14565b9150506105ff565b50505050505050808061077290610d14565b91505061059b565b505050808061078890610d14565b91505061054e565b60405160c081016040526107a9565b3d6000803e3d6000fd5b63a9059cbb60e01b81528160048201528260248201526000806044836000885af16102535761025361079f565b606063892e830460e01b8484846040516024016107f593929190610bee565b60408051601f198184030181529190526020810180516001600160e01b03166001600160e01b03199093169290921790915290509392505050565b600082601f830112610840578081fd5b8151602061085561085083610c87565b610c57565b80838252828201915082860187848660051b8901011115610874578586fd5b855b8581101561089b57815161088981610d5b565b84529284019290840190600101610876565b5090979650505050505050565b600082601f8301126108b8578081fd5b815160206108c861085083610c87565b80838252828201915082860187848660051b89010111156108e7578586fd5b855b8581101561089b5781516001600160401b03811115610906578788fd5b8801603f81018a13610916578788fd5b85810151604061092861085083610caa565b8281528c8284860101111561093b578a8bfd5b61094a838a8301848701610ce8565b875250505092840192908401906001016108e9565b600082601f83011261096f578081fd5b8151602061097f61085083610c87565b80838252828201915082860187848660051b890101111561099e578586fd5b855b8581101561089b578151845292840192908401906001016109a0565b6000602082840312156109cd578081fd5b81356109d881610d5b565b9392505050565b6000602082840312156109f0578081fd5b81516001600160401b03811115610a05578182fd5b610a11848285016108a8565b949350505050565b600060208284031215610a2a578081fd5b815180151581146109d8578182fd5b600080600060608486031215610a4d578182fd5b83356001600160401b03811115610a62578283fd5b8401601f81018613610a72578283fd5b8035610a8061085082610caa565b818152876020838501011115610a94578485fd5b8160208401602083013784602083830101528095505050506020840135610aba81610d5b565b91506040840135610aca81610d5b565b809150509250925092565b600060208284031215610ae6578081fd5b81516001600160401b0380821115610afc578283fd5b9083019060808286031215610b0f578283fd5b610b17610c2f565b825182811115610b25578485fd5b610b3187828601610830565b825250602083015182811115610b45578485fd5b610b518782860161095f565b602083015250604083015182811115610b68578485fd5b610b748782860161095f565b604083015250606083015182811115610b8b578485fd5b610b97878286016108a8565b60608301525095945050505050565b600060208284031215610bb7578081fd5b5051919050565b60008251610bd0818460208701610ce8565b9190910192915050565b6001600160a01b0391909116815260200190565b8381528260208201526060604082015260008251806060840152610c19816080850160208701610ce8565b601f01601f191691909101608001949350505050565b604051608081016001600160401b0381118282101715610c5157610c51610d45565b60405290565b604051601f8201601f191681016001600160401b0381118282101715610c7f57610c7f610d45565b604052919050565b60006001600160401b03821115610ca057610ca0610d45565b5060051b60200190565b60006001600160401b03821115610cc357610cc3610d45565b50601f01601f191660200190565b600082821015610ce357610ce3610d2f565b500390565b60005b83811015610d03578181015183820152602001610ceb565b838111156102535750506000910152565b6000600019821415610d2857610d28610d2f565b5060010190565b634e487b7160e01b600052601160045260246000fd5b634e487b7160e01b600052604160045260246000fd5b6001600160a01b038116811461043d57600080fdfea264697066735822122052c54ae6899d54d4ffd37e82cd34be80064e8ea8d0dc4ded1eca449cb3662a6664736f6c63430008040033",
  "linkReferences": {},
  "deployedLinkReferences": {}
}