{
  "_format": "hh-sol-artifact-1",
  "contractName": "Executor",
  "sourceName": "contracts/Executor.sol",
  "abi": [
    {
      "anonymous": false,
      "inputs": [
        {
          "indexed": true,
          "internalType": "address",
          "name": "previousOwner",
          "type": "address"
        },
        {
          "indexed": true,
          "internalType": "address",
          "name": "newOwner",
          "type": "address"
        }
      ],
      "name": "OwnershipTransferred",
      "type": "event"
    },
    {
      "inputs": [
        {
          "internalType": "address",
          "name": "_contract",
          "type": "address"
        }
      ],
      "name": "addAdapters",
      "outputs": [],
      "stateMutability": "nonpayable",
      "type": "function"
    },
    {
      "inputs": [
        {
          "internalType": "bytes",
          "name": "data",
          "type": "bytes"
        },
        {
          "internalType": "address",
          "name": "from",
          "type": "address"
        },
        {
          "internalType": "address",
          "name": "toToken",
          "type": "address"
        }
      ],
      "name": "execution",
      "outputs": [],
      "stateMutability": "nonpayable",
      "type": "function"
    },
    {
      "inputs": [],
      "name": "owner",
      "outputs": [
        {
          "internalType": "address",
          "name": "",
          "type": "address"
        }
      ],
      "stateMutability": "view",
      "type": "function"
    },
    {
      "inputs": [],
      "name": "renounceOwnership",
      "outputs": [],
      "stateMutability": "nonpayable",
      "type": "function"
    },
    {
      "inputs": [
        {
          "internalType": "address",
          "name": "newOwner",
          "type": "address"
        }
      ],
      "name": "transferOwnership",
      "outputs": [],
      "stateMutability": "nonpayable",
      "type": "function"
    },
    {
      "inputs": [
        {
          "internalType": "address",
          "name": "_token",
          "type": "address"
        }
      ],
      "name": "withdrawStuckERC20",
      "outputs": [],
      "stateMutability": "payable",
      "type": "function"
    }
  ],
  "bytecode": "0x608060405234801561001057600080fd5b5061001a33610023565b60018055610073565b600080546001600160a01b038381166001600160a01b0319831681178455604051919092169283917f8be0079c531659141344cd1fd0a4f28419497f9722a3daafe3b4186f6b6457e09190a35050565b61122f806100826000396000f3fe6080604052600436106100655760003560e01c80638da5cb5b116100435780638da5cb5b146100b4578063f2fde38b146100ed578063f805cc391461010d57600080fd5b80633963510b1461006a578063715018a61461007f57806379532f1414610094575b600080fd5b61007d610078366004610dc5565b61012d565b005b34801561008b57600080fd5b5061007d610313565b3480156100a057600080fd5b5061007d6100af366004610e41565b610327565b3480156100c057600080fd5b506000546040805173ffffffffffffffffffffffffffffffffffffffff9092168252519081900360200190f35b3480156100f957600080fd5b5061007d610108366004610dc5565b6104b3565b34801561011957600080fd5b5061007d610128366004610dc5565b61056f565b6101356106cf565b6040517f70a0823100000000000000000000000000000000000000000000000000000000815230600482015260009073ffffffffffffffffffffffffffffffffffffffff8316906370a082319060240160206040518083038186803b15801561019d57600080fd5b505afa1580156101b1573d6000803e3d6000fd5b505050506040513d601f19601f820116820180604052508101906101d59190610faa565b90504781156102c0578273ffffffffffffffffffffffffffffffffffffffff1663a9059cbb61021960005473ffffffffffffffffffffffffffffffffffffffff1690565b6040517fffffffff0000000000000000000000000000000000000000000000000000000060e084901b16815273ffffffffffffffffffffffffffffffffffffffff909116600482015260248101859052604401602060405180830381600087803b15801561028657600080fd5b505af115801561029a573d6000803e3d6000fd5b505050506040513d601f19601f820116820180604052508101906102be9190610e21565b505b801561030e576000805460405173ffffffffffffffffffffffffffffffffffffffff9091169184156108fc02918591818181858888f1935050505015801561030c573d6000803e3d6000fd5b505b505050565b61031b6106cf565b6103256000610750565b565b61032f6107c5565b6000838060200190518101906103459190610de6565b6040517f70a0823100000000000000000000000000000000000000000000000000000000815230600482015290915060009073ffffffffffffffffffffffffffffffffffffffff8416906370a082319060240160206040518083038186803b1580156103b057600080fd5b505afa1580156103c4573d6000803e3d6000fd5b505050506040513d601f19601f820116820180604052508101906103e89190610faa565b90506103f382610839565b6040517f70a082310000000000000000000000000000000000000000000000000000000081523060048201526104a8908490839073ffffffffffffffffffffffffffffffffffffffff8316906370a082319060240160206040518083038186803b15801561046057600080fd5b505afa158015610474573d6000803e3d6000fd5b505050506040513d601f19601f820116820180604052508101906104989190610faa565b6104a2919061111f565b86610b77565b505061030e60018055565b6104bb6106cf565b73ffffffffffffffffffffffffffffffffffffffff8116610563576040517f08c379a000000000000000000000000000000000000000000000000000000000815260206004820152602660248201527f4f776e61626c653a206e6577206f776e657220697320746865207a65726f206160448201527f646472657373000000000000000000000000000000000000000000000000000060648201526084015b60405180910390fd5b61056c81610750565b50565b6105776106cf565b6003805473ffffffffffffffffffffffffffffffffffffffff83167fffffffffffffffffffffffff0000000000000000000000000000000000000000909116811790915560408051600481526024810182526020810180517bffffffffffffffffffffffffffffffffffffffffffffffffffffffff167fde01a85b0000000000000000000000000000000000000000000000000000000017905290516000929161062091610fc2565b600060405180830381855af49150503d806000811461065b576040519150601f19603f3d011682016040523d82523d6000602084013e610660565b606091505b50509050806106cb576040517f08c379a000000000000000000000000000000000000000000000000000000000815260206004820152600660248201527f4661696c65640000000000000000000000000000000000000000000000000000604482015260640161055a565b5050565b60005473ffffffffffffffffffffffffffffffffffffffff163314610325576040517f08c379a000000000000000000000000000000000000000000000000000000000815260206004820181905260248201527f4f776e61626c653a2063616c6c6572206973206e6f7420746865206f776e6572604482015260640161055a565b6000805473ffffffffffffffffffffffffffffffffffffffff8381167fffffffffffffffffffffffff0000000000000000000000000000000000000000831681178455604051919092169283917f8be0079c531659141344cd1fd0a4f28419497f9722a3daafe3b4186f6b6457e09190a35050565b60026001541415610832576040517f08c379a000000000000000000000000000000000000000000000000000000000815260206004820152601f60248201527f5265656e7472616e637947756172643a207265656e7472616e742063616c6c00604482015260640161055a565b6002600155565b805160005b8181101561030e576000838281518110610881577f4e487b7100000000000000000000000000000000000000000000000000000000600052603260045260246000fd5b602002602001015180602001905181019061089c9190610de6565b805190915060005b81811015610b615760008382815181106108e7577f4e487b7100000000000000000000000000000000000000000000000000000000600052603260045260246000fd5b60200260200101518060200190518101906109029190610ed8565b6020810151604082015182516060840151835194955092939192909160005b81811015610b47576000610a576002600087858151811061096b577f4e487b7100000000000000000000000000000000000000000000000000000000600052603260045260246000fd5b6020026020010151815260200190815260200160002060009054906101000a900460e01b8884815181106109c8577f4e487b7100000000000000000000000000000000000000000000000000000000600052603260045260246000fd5b6020026020010151888581518110610a09577f4e487b7100000000000000000000000000000000000000000000000000000000600052603260045260246000fd5b6020026020010151878681518110610a4a577f4e487b7100000000000000000000000000000000000000000000000000000000600052603260045260246000fd5b6020026020010151610bd6565b60035460405191925060009173ffffffffffffffffffffffffffffffffffffffff90911690610a87908490610fc2565b600060405180830381855af49150503d8060008114610ac2576040519150601f19603f3d011682016040523d82523d6000602084013e610ac7565b606091505b5050905080610b32576040517f08c379a000000000000000000000000000000000000000000000000000000000815260206004820152600b60248201527f4661696c65642043616c6c000000000000000000000000000000000000000000604482015260640161055a565b50508080610b3f90611162565b915050610921565b505050505050508080610b5990611162565b9150506108a4565b5050508080610b6f90611162565b91505061083e565b60405160c08101604052610b90565b3d6000803e3d6000fd5b7fa9059cbb0000000000000000000000000000000000000000000000000000000081528160048201528260248201526000806044836000885af161030c5761030c610b86565b606084848484604051602401610bee93929190610fde565b604080517fffffffffffffffffffffffffffffffffffffffffffffffffffffffffffffffe08184030181529190526020810180517bffffffffffffffffffffffffffffffffffffffffffffffffffffffff167fffffffff00000000000000000000000000000000000000000000000000000000909316929092179091529050949350505050565b803573ffffffffffffffffffffffffffffffffffffffff81168114610c9957600080fd5b919050565b600082601f830112610cae578081fd5b81516020610cc3610cbe836110b5565b611066565b80838252828201915082860187848660051b8901011115610ce2578586fd5b855b85811015610d5b57815167ffffffffffffffff811115610d02578788fd5b8801603f81018a13610d12578788fd5b858101516040610d24610cbe836110d9565b8281528c82848601011115610d37578a8bfd5b610d46838a8301848701611136565b87525050509284019290840190600101610ce4565b5090979650505050505050565b600082601f830112610d78578081fd5b81516020610d88610cbe836110b5565b80838252828201915082860187848660051b8901011115610da7578586fd5b855b85811015610d5b57815184529284019290840190600101610da9565b600060208284031215610dd6578081fd5b610ddf82610c75565b9392505050565b600060208284031215610df7578081fd5b815167ffffffffffffffff811115610e0d578182fd5b610e1984828501610c9e565b949350505050565b600060208284031215610e32578081fd5b81518015158114610ddf578182fd5b600080600060608486031215610e55578182fd5b833567ffffffffffffffff811115610e6b578283fd5b8401601f81018613610e7b578283fd5b8035610e89610cbe826110d9565b818152876020838501011115610e9d578485fd5b816020840160208301378460208383010152809550505050610ec160208501610c75565b9150610ecf60408501610c75565b90509250925092565b600060208284031215610ee9578081fd5b815167ffffffffffffffff80821115610f00578283fd5b9083019060808286031215610f13578283fd5b610f1b61103d565b825182811115610f29578485fd5b610f3587828601610d68565b825250602083015182811115610f49578485fd5b610f5587828601610d68565b602083015250604083015182811115610f6c578485fd5b610f7887828601610d68565b604083015250606083015182811115610f8f578485fd5b610f9b87828601610c9e565b60608301525095945050505050565b600060208284031215610fbb578081fd5b5051919050565b60008251610fd4818460208701611136565b9190910192915050565b8381528260208201526060604082015260008251806060840152611009816080850160208701611136565b601f017fffffffffffffffffffffffffffffffffffffffffffffffffffffffffffffffe01691909101608001949350505050565b6040516080810167ffffffffffffffff81118282101715611060576110606111ca565b60405290565b604051601f82017fffffffffffffffffffffffffffffffffffffffffffffffffffffffffffffffe016810167ffffffffffffffff811182821017156110ad576110ad6111ca565b604052919050565b600067ffffffffffffffff8211156110cf576110cf6111ca565b5060051b60200190565b600067ffffffffffffffff8211156110f3576110f36111ca565b50601f017fffffffffffffffffffffffffffffffffffffffffffffffffffffffffffffffe01660200190565b6000828210156111315761113161119b565b500390565b60005b83811015611151578181015183820152602001611139565b8381111561030c5750506000910152565b60007fffffffffffffffffffffffffffffffffffffffffffffffffffffffffffffffff8214156111945761119461119b565b5060010190565b7f4e487b7100000000000000000000000000000000000000000000000000000000600052601160045260246000fd5b7f4e487b7100000000000000000000000000000000000000000000000000000000600052604160045260246000fdfea26469706673582212207e5cba5608db92a03061432698e0a8629d70caba28c8d0330f78ab5bf18fc65f64736f6c63430008040033",
  "linkReferences": {},
  "deployedLinkReferences": {}
}