{
  "_format": "hh-sol-artifact-1",
  "contractName": "Coin98UniswapV3",
  "sourceName": "contracts/UniswapV3/Coin98UniswapV3.sol",
  "abi": [
    {
      "inputs": [
        {
          "internalType": "address",
          "name": "_weth",
          "type": "address"
        }
      ],
      "stateMutability": "nonpayable",
      "type": "constructor"
    },
    {
      "inputs": [],
      "name": "WETH",
      "outputs": [
        {
          "internalType": "address",
          "name": "",
          "type": "address"
        }
      ],
      "stateMutability": "view",
      "type": "function"
    },
    {
      "inputs": [
        {
          "internalType": "uint256",
          "name": "amount0Out",
          "type": "uint256"
        },
        {
          "internalType": "uint256",
          "name": "amount1Out",
          "type": "uint256"
        },
        {
          "internalType": "address payable",
          "name": "to",
          "type": "address"
        },
        {
          "internalType": "bytes",
          "name": "data",
          "type": "bytes"
        }
      ],
      "name": "swap",
      "outputs": [],
      "stateMutability": "payable",
      "type": "function"
    }
  ],
  "bytecode": "0x60a060405234801561001057600080fd5b5060405161118a38038061118a83398101604081905261002f91610044565b60601b6001600160601b031916608052610072565b600060208284031215610055578081fd5b81516001600160a01b038116811461006b578182fd5b9392505050565b60805160601c6110fb61008f6000396000605501526110fb6000f3fe6080604052600436106100295760003560e01c8063022c0d9f1461002e578063ad5c464814610043575b600080fd5b61004161003c366004610e44565b6100a0565b005b34801561004f57600080fd5b506100777f000000000000000000000000000000000000000000000000000000000000000081565b60405173ffffffffffffffffffffffffffffffffffffffff909116815260200160405180910390f35b6000818060200190518101906100b69190610cf9565b9050806000015160ff1660051461012e576040517f08c379a000000000000000000000000000000000000000000000000000000000815260206004820152600d60248201527f496e76616c696420526f7574650000000000000000000000000000000000000060448201526064015b60405180910390fd5b61014b816020015182604001518784606001518560a00151610208565b60408082015190517f70a0823100000000000000000000000000000000000000000000000000000000815230600482015260009173ffffffffffffffffffffffffffffffffffffffff16906370a082319060240160206040518083038186803b1580156101b757600080fd5b505afa1580156101cb573d6000803e3d6000fd5b505050506040513d601f19601f820116820180604052508101906101ef9190610e2c565b905061020082604001518583610368565b505050505050565b60008180602001905181019061021e9190610dbd565b905061022b838786610481565b604080516101008101825273ffffffffffffffffffffffffffffffffffffffff88811682528781166020808401918252855162ffffff9081168587019081523060608701908152928801516080870190815260a087018c8152600160c089019081528a8a0151881660e08a0190815299517f414bf3890000000000000000000000000000000000000000000000000000000081529851881660048a0152955187166024890152915190921660448701529151841660648601525160848501525160a48401525160c48301529151821660e48201529084169063414bf3899061010401602060405180830381600087803b15801561032757600080fd5b505af115801561033b573d6000803e3d6000fd5b505050506040513d601f19601f8201168201806040525081019061035f9190610e2c565b50505050505050565b801561047c5773ffffffffffffffffffffffffffffffffffffffff831673eeeeeeeeeeeeeeeeeeeeeeeeeeeeeeeeeeeeeeee14156104715760008273ffffffffffffffffffffffffffffffffffffffff168261271090604051600060405180830381858888f193505050503d80600081146103ff576040519150601f19603f3d011682016040523d82523d6000602084013e610404565b606091505b505090508061046f576040517f08c379a000000000000000000000000000000000000000000000000000000000815260206004820152601860248201527f4661696c656420746f207472616e7366657220457468657200000000000000006044820152606401610125565b505b61047c8382846105d0565b505050565b73ffffffffffffffffffffffffffffffffffffffff821673eeeeeeeeeeeeeeeeeeeeeeeeeeeeeeeeeeeeeeee1461047c576040517fdd62ed3e00000000000000000000000000000000000000000000000000000000815230600482015273ffffffffffffffffffffffffffffffffffffffff8481166024830152839160009183169063dd62ed3e9060440160206040518083038186803b15801561052457600080fd5b505afa158015610538573d6000803e3d6000fd5b505050506040513d601f19601f8201168201806040525081019061055c9190610e2c565b9050828110156105c95761058873ffffffffffffffffffffffffffffffffffffffff8316866000610635565b6105c973ffffffffffffffffffffffffffffffffffffffff8316867fffffffffffffffffffffffffffffffffffffffffffffffffffffffffffffffff610844565b5050505050565b60405160c081016040526105e9565b3d6000803e3d6000fd5b7fa9059cbb0000000000000000000000000000000000000000000000000000000081528160048201528260248201526000806044836000885af161062f5761062f6105df565b50505050565b8015806106e457506040517fdd62ed3e00000000000000000000000000000000000000000000000000000000815230600482015273ffffffffffffffffffffffffffffffffffffffff838116602483015284169063dd62ed3e9060440160206040518083038186803b1580156106aa57600080fd5b505afa1580156106be573d6000803e3d6000fd5b505050506040513d601f19601f820116820180604052508101906106e29190610e2c565b155b610770576040517f08c379a000000000000000000000000000000000000000000000000000000000815260206004820152603660248201527f5361666545524332303a20617070726f76652066726f6d206e6f6e2d7a65726f60448201527f20746f206e6f6e2d7a65726f20616c6c6f77616e6365000000000000000000006064820152608401610125565b60405173ffffffffffffffffffffffffffffffffffffffff831660248201526044810182905261047c9084907f095ea7b300000000000000000000000000000000000000000000000000000000906064015b604080517fffffffffffffffffffffffffffffffffffffffffffffffffffffffffffffffe08184030181529190526020810180517bffffffffffffffffffffffffffffffffffffffffffffffffffffffff167fffffffff0000000000000000000000000000000000000000000000000000000090931692909217909152610951565b6040517fdd62ed3e00000000000000000000000000000000000000000000000000000000815230600482015273ffffffffffffffffffffffffffffffffffffffff8381166024830152600091839186169063dd62ed3e9060440160206040518083038186803b1580156108b657600080fd5b505afa1580156108ca573d6000803e3d6000fd5b505050506040513d601f19601f820116820180604052508101906108ee9190610e2c565b6108f89190611008565b60405173ffffffffffffffffffffffffffffffffffffffff851660248201526044810182905290915061062f9085907f095ea7b300000000000000000000000000000000000000000000000000000000906064016107c2565b60006109b3826040518060400160405280602081526020017f5361666545524332303a206c6f772d6c6576656c2063616c6c206661696c65648152508573ffffffffffffffffffffffffffffffffffffffff16610a5d9092919063ffffffff16565b80519091501561047c57808060200190518101906109d19190610cd2565b61047c576040517f08c379a000000000000000000000000000000000000000000000000000000000815260206004820152602a60248201527f5361666545524332303a204552433230206f7065726174696f6e20646964206e60448201527f6f742073756363656564000000000000000000000000000000000000000000006064820152608401610125565b6060610a6c8484600085610a74565b949350505050565b606082471015610b06576040517f08c379a000000000000000000000000000000000000000000000000000000000815260206004820152602660248201527f416464726573733a20696e73756666696369656e742062616c616e636520666f60448201527f722063616c6c00000000000000000000000000000000000000000000000000006064820152608401610125565b6000808673ffffffffffffffffffffffffffffffffffffffff168587604051610b2f9190610edd565b60006040518083038185875af1925050503d8060008114610b6c576040519150601f19603f3d011682016040523d82523d6000602084013e610b71565b606091505b5091509150610b8287838387610b8d565b979650505050505050565b60608315610c20578251610c195773ffffffffffffffffffffffffffffffffffffffff85163b610c19576040517f08c379a000000000000000000000000000000000000000000000000000000000815260206004820152601d60248201527f416464726573733a2063616c6c20746f206e6f6e2d636f6e74726163740000006044820152606401610125565b5081610a6c565b610a6c8383815115610c355781518083602001fd5b806040517f08c379a00000000000000000000000000000000000000000000000000000000081526004016101259190610ef9565b8051610c74816110a0565b919050565b600082601f830112610c89578081fd5b8151610c9c610c9782610fc2565b610f73565b818152846020838601011115610cb0578283fd5b610a6c826020830160208701611045565b805160ff81168114610c7457600080fd5b600060208284031215610ce3578081fd5b81518015158114610cf2578182fd5b9392505050565b600060208284031215610d0a578081fd5b815167ffffffffffffffff80821115610d21578283fd5b9083019060e08286031215610d34578283fd5b610d3c610f4a565b610d4583610cc1565b8152610d5360208401610c69565b6020820152610d6460408401610c69565b6040820152610d7560608401610c69565b60608201526080830151608082015260a083015182811115610d95578485fd5b610da187828601610c79565b60a08301525060c083015160c082015280935050505092915050565b600060608284031215610dce578081fd5b6040516060810181811067ffffffffffffffff82111715610df157610df1611071565b604052825162ffffff81168114610e06578283fd5b8152602083810151908201526040830151610e20816110a0565b60408201529392505050565b600060208284031215610e3d578081fd5b5051919050565b60008060008060808587031215610e59578283fd5b84359350602085013592506040850135610e72816110a0565b9150606085013567ffffffffffffffff811115610e8d578182fd5b8501601f81018713610e9d578182fd5b8035610eab610c9782610fc2565b818152886020838501011115610ebf578384fd5b81602084016020830137908101602001929092525092959194509250565b60008251610eef818460208701611045565b9190910192915050565b6020815260008251806020840152610f18816040850160208701611045565b601f017fffffffffffffffffffffffffffffffffffffffffffffffffffffffffffffffe0169190910160400192915050565b60405160e0810167ffffffffffffffff81118282101715610f6d57610f6d611071565b60405290565b604051601f82017fffffffffffffffffffffffffffffffffffffffffffffffffffffffffffffffe016810167ffffffffffffffff81118282101715610fba57610fba611071565b604052919050565b600067ffffffffffffffff821115610fdc57610fdc611071565b50601f017fffffffffffffffffffffffffffffffffffffffffffffffffffffffffffffffe01660200190565b60008219821115611040577f4e487b710000000000000000000000000000000000000000000000000000000081526011600452602481fd5b500190565b60005b83811015611060578181015183820152602001611048565b8381111561062f5750506000910152565b7f4e487b7100000000000000000000000000000000000000000000000000000000600052604160045260246000fd5b73ffffffffffffffffffffffffffffffffffffffff811681146110c257600080fd5b5056fea264697066735822122082039ac3f9cfa5324946fedf33b36dc7f7c3831e5fd6b5b9414270cc4b78c1c264736f6c63430008040033",
  "linkReferences": {},
  "deployedLinkReferences": {}
}