{
  "_format": "hh-sol-artifact-1",
  "contractName": "DemoAdapter1",
  "sourceName": "contracts/DemoAdapter(Full).sol",
  "abi": [
    {
      "inputs": [
        {
          "internalType": "address",
          "name": "_weth",
          "type": "address"
        }
      ],
      "stateMutability": "nonpayable",
      "type": "constructor"
    },
    {
      "anonymous": false,
      "inputs": [
        {
          "indexed": false,
          "internalType": "address",
          "name": "partner",
          "type": "address"
        },
        {
          "indexed": false,
          "internalType": "address",
          "name": "tokenOut",
          "type": "address"
        },
        {
          "indexed": false,
          "internalType": "uint256",
          "name": "partnerFee",
          "type": "uint256"
        }
      ],
      "name": "ClaimPartnerFee",
      "type": "event"
    },
    {
      "anonymous": false,
      "inputs": [
        {
          "indexed": false,
          "internalType": "string",
          "name": "name",
          "type": "string"
        },
        {
          "indexed": false,
          "internalType": "address",
          "name": "partner",
          "type": "address"
        }
      ],
      "name": "DeactivePartner",
      "type": "event"
    },
    {
      "anonymous": false,
      "inputs": [
        {
          "indexed": true,
          "internalType": "address",
          "name": "previousOwner",
          "type": "address"
        },
        {
          "indexed": true,
          "internalType": "address",
          "name": "newOwner",
          "type": "address"
        }
      ],
      "name": "OwnershipTransferred",
      "type": "event"
    },
    {
      "anonymous": false,
      "inputs": [
        {
          "indexed": false,
          "internalType": "string",
          "name": "name",
          "type": "string"
        },
        {
          "indexed": false,
          "internalType": "address",
          "name": "partner",
          "type": "address"
        }
      ],
      "name": "SetPartner",
      "type": "event"
    },
    {
      "anonymous": false,
      "inputs": [
        {
          "indexed": false,
          "internalType": "uint256",
          "name": "_partnerFee",
          "type": "uint256"
        }
      ],
      "name": "SetPartnerFee",
      "type": "event"
    },
    {
      "anonymous": false,
      "inputs": [
        {
          "indexed": false,
          "internalType": "uint256",
          "name": "_protocolFee",
          "type": "uint256"
        }
      ],
      "name": "SetProtocolFee",
      "type": "event"
    },
    {
      "inputs": [],
      "name": "PARTNER_FEE",
      "outputs": [
        {
          "internalType": "uint256",
          "name": "",
          "type": "uint256"
        }
      ],
      "stateMutability": "view",
      "type": "function"
    },
    {
      "inputs": [],
      "name": "PROTOCOL_FEE",
      "outputs": [
        {
          "internalType": "uint256",
          "name": "",
          "type": "uint256"
        }
      ],
      "stateMutability": "view",
      "type": "function"
    },
    {
      "inputs": [
        {
          "internalType": "address",
          "name": "",
          "type": "address"
        }
      ],
      "name": "Partners",
      "outputs": [
        {
          "internalType": "bool",
          "name": "isActive",
          "type": "bool"
        },
        {
          "internalType": "string",
          "name": "name",
          "type": "string"
        },
        {
          "internalType": "uint256",
          "name": "registrationTime",
          "type": "uint256"
        }
      ],
      "stateMutability": "view",
      "type": "function"
    },
    {
      "inputs": [],
      "name": "owner",
      "outputs": [
        {
          "internalType": "address",
          "name": "",
          "type": "address"
        }
      ],
      "stateMutability": "view",
      "type": "function"
    },
    {
      "inputs": [],
      "name": "renounceOwnership",
      "outputs": [],
      "stateMutability": "nonpayable",
      "type": "function"
    },
    {
      "inputs": [
        {
          "internalType": "address",
          "name": "_partner",
          "type": "address"
        },
        {
          "internalType": "string",
          "name": "_name",
          "type": "string"
        },
        {
          "internalType": "bool",
          "name": "_isActive",
          "type": "bool"
        }
      ],
      "name": "setPartner",
      "outputs": [],
      "stateMutability": "nonpayable",
      "type": "function"
    },
    {
      "inputs": [
        {
          "internalType": "uint256",
          "name": "_partnerFee",
          "type": "uint256"
        }
      ],
      "name": "setPartnerFee",
      "outputs": [],
      "stateMutability": "nonpayable",
      "type": "function"
    },
    {
      "inputs": [
        {
          "internalType": "uint256",
          "name": "_protocolFee",
          "type": "uint256"
        }
      ],
      "name": "setProtocolFee",
      "outputs": [],
      "stateMutability": "nonpayable",
      "type": "function"
    },
    {
      "inputs": [
        {
          "internalType": "uint256[]",
          "name": "fromToAmount",
          "type": "uint256[]"
        },
        {
          "internalType": "address",
          "name": "fromToken",
          "type": "address"
        },
        {
          "internalType": "address",
          "name": "toToken",
          "type": "address"
        },
        {
          "internalType": "bytes",
          "name": "data",
          "type": "bytes"
        },
        {
          "internalType": "contract IExecutor",
          "name": "executor",
          "type": "address"
        }
      ],
      "name": "swapRoutes",
      "outputs": [],
      "stateMutability": "payable",
      "type": "function"
    },
    {
      "inputs": [
        {
          "internalType": "uint256[]",
          "name": "fromToAmount",
          "type": "uint256[]"
        },
        {
          "internalType": "address",
          "name": "fromToken",
          "type": "address"
        },
        {
          "internalType": "address",
          "name": "toToken",
          "type": "address"
        },
        {
          "internalType": "contract SwapAdapter[]",
          "name": "routers",
          "type": "address[]"
        },
        {
          "internalType": "bytes[]",
          "name": "payloads",
          "type": "bytes[]"
        },
        {
          "internalType": "uint256[]",
          "name": "amountOut",
          "type": "uint256[]"
        }
      ],
      "name": "swapStraight",
      "outputs": [],
      "stateMutability": "payable",
      "type": "function"
    },
    {
      "inputs": [
        {
          "internalType": "address",
          "name": "newOwner",
          "type": "address"
        }
      ],
      "name": "transferOwnership",
      "outputs": [],
      "stateMutability": "nonpayable",
      "type": "function"
    },
    {
      "inputs": [],
      "name": "weth",
      "outputs": [
        {
          "internalType": "address",
          "name": "",
          "type": "address"
        }
      ],
      "stateMutability": "view",
      "type": "function"
    },
    {
      "inputs": [
        {
          "internalType": "address",
          "name": "_token",
          "type": "address"
        }
      ],
      "name": "withdrawStuckERC20",
      "outputs": [],
      "stateMutability": "payable",
      "type": "function"
    },
    {
      "stateMutability": "payable",
      "type": "receive"
    }
  ],
  "bytecode": "0x60806040526050600255600a6003556127106004553480156200002157600080fd5b506040516200296a3803806200296a8339810160408190526200004491620000c9565b6200004f3362000079565b60018055600580546001600160a01b0319166001600160a01b0392909216919091179055620000f9565b600080546001600160a01b038381166001600160a01b0319831681178455604051919092169283917f8be0079c531659141344cd1fd0a4f28419497f9722a3daafe3b4186f6b6457e09190a35050565b600060208284031215620000db578081fd5b81516001600160a01b0381168114620000f2578182fd5b9392505050565b61286180620001096000396000f3fe6080604052600436106100d65760003560e01c8063715018a61161007f5780638e9b7ab8116100595780638e9b7ab814610285578063c3ca7f31146102b4578063f2fde38b146102ca578063feee9977146102ea57600080fd5b8063715018a614610225578063787dce3d1461023a5780638da5cb5b1461025a57600080fd5b80633963510b116100b05780633963510b146101ad5780633fc8cef3146101c057806345f3d78a1461021257600080fd5b80630b4501fd14610151578063200f91751461017a5780633741454d1461018d57600080fd5b3661014c573332141561014a576040517f08c379a000000000000000000000000000000000000000000000000000000000815260206004820152601460248201527f455448206465706f7369742072656a656374656400000000000000000000000060448201526064015b60405180910390fd5b005b600080fd5b34801561015d57600080fd5b5061016760035481565b6040519081526020015b60405180910390f35b61014a6101883660046121f7565b61030a565b34801561019957600080fd5b5061014a6101a8366004612455565b610e3c565b61014a6101bb366004612166565b610f10565b3480156101cc57600080fd5b506005546101ed9073ffffffffffffffffffffffffffffffffffffffff1681565b60405173ffffffffffffffffffffffffffffffffffffffff9091168152602001610171565b61014a6102203660046122bf565b6110f6565b34801561023157600080fd5b5061014a61174b565b34801561024657600080fd5b5061014a610255366004612455565b61175f565b34801561026657600080fd5b5060005473ffffffffffffffffffffffffffffffffffffffff166101ed565b34801561029157600080fd5b506102a56102a0366004612166565b61182c565b604051610171939291906124eb565b3480156102c057600080fd5b5061016760025481565b3480156102d657600080fd5b5061014a6102e5366004612166565b6118db565b3480156102f657600080fd5b5061014a610305366004612182565b611992565b610312611b40565b73ffffffffffffffffffffffffffffffffffffffff85166103d85785600081518110610367577f4e487b7100000000000000000000000000000000000000000000000000000000600052603260045260246000fd5b60200260200101513410156103d8576040517f08c379a000000000000000000000000000000000000000000000000000000000815260206004820152601460248201527f4e6f7420656e6f75676820656666696369656e740000000000000000000000006044820152606401610141565b60008573ffffffffffffffffffffffffffffffffffffffff166370a0823185600081518110610430577f4e487b7100000000000000000000000000000000000000000000000000000000600052603260045260246000fd5b60200260200101516040518263ffffffff1660e01b8152600401610470919073ffffffffffffffffffffffffffffffffffffffff91909116815260200190565b60206040518083038186803b15801561048857600080fd5b505afa15801561049c573d6000803e3d6000fd5b505050506040513d601f19601f820116820180604052508101906104c0919061246d565b9050600073ffffffffffffffffffffffffffffffffffffffff861615610582576040517f70a0823100000000000000000000000000000000000000000000000000000000815230600482015273ffffffffffffffffffffffffffffffffffffffff8716906370a082319060240160206040518083038186803b15801561054557600080fd5b505afa158015610559573d6000803e3d6000fd5b505050506040513d601f19601f8201168201806040525081019061057d919061246d565b610623565b6005546040517f70a0823100000000000000000000000000000000000000000000000000000000815230600482015273ffffffffffffffffffffffffffffffffffffffff909116906370a082319060240160206040518083038186803b1580156105eb57600080fd5b505afa1580156105ff573d6000803e3d6000fd5b505050506040513d601f19601f82011682018060405250810190610623919061246d565b90506106b28789600081518110610663577f4e487b7100000000000000000000000000000000000000000000000000000000600052603260045260246000fd5b6020026020010151876000815181106106a5577f4e487b7100000000000000000000000000000000000000000000000000000000600052603260045260246000fd5b6020026020010151611bb4565b845160005b81811015610bcd5760008682815181106106fa577f4e487b7100000000000000000000000000000000000000000000000000000000600052603260045260246000fd5b6020026020010151806020019051810190610715919061237a565b90506000816000015173ffffffffffffffffffffffffffffffffffffffff166370a082318a8581518110610772577f4e487b7100000000000000000000000000000000000000000000000000000000600052603260045260246000fd5b60200260200101516040518263ffffffff1660e01b81526004016107b2919073ffffffffffffffffffffffffffffffffffffffff91909116815260200190565b60206040518083038186803b1580156107ca57600080fd5b505afa1580156107de573d6000803e3d6000fd5b505050506040513d601f19601f82011682018060405250810190610802919061246d565b9050600061081087836126cd565b9050600061081f6001876126cd565b8514610875578a6108318660016126b5565b81518110610868577f4e487b7100000000000000000000000000000000000000000000000000000000600052603260045260246000fd5b6020026020010151610877565b305b90506108846001876126cd565b851461098257602084015173ffffffffffffffffffffffffffffffffffffffff166370a082318c6108b68860016126b5565b815181106108ed577f4e487b7100000000000000000000000000000000000000000000000000000000600052603260045260246000fd5b60200260200101516040518263ffffffff1660e01b815260040161092d919073ffffffffffffffffffffffffffffffffffffffff91909116815260200190565b60206040518083038186803b15801561094557600080fd5b505afa158015610959573d6000803e3d6000fd5b505050506040513d601f19601f8201168201806040525081019061097d919061246d565b610985565b60005b975060008b86815181106109c2577f4e487b7100000000000000000000000000000000000000000000000000000000600052603260045260246000fd5b602002602001015173ffffffffffffffffffffffffffffffffffffffff1663022c0d9f60e01b848c8981518110610a22577f4e487b7100000000000000000000000000000000000000000000000000000000600052603260045260246000fd5b6020026020010151858f8b81518110610a64577f4e487b7100000000000000000000000000000000000000000000000000000000600052603260045260246000fd5b6020026020010151604051602401610a7f949392919061258e565b604080517fffffffffffffffffffffffffffffffffffffffffffffffffffffffffffffffe08184030181529181526020820180517bffffffffffffffffffffffffffffffffffffffffffffffffffffffff167fffffffff00000000000000000000000000000000000000000000000000000000909416939093179092529051610b0891906124cf565b6000604051808303816000865af19150503d8060008114610b45576040519150601f19603f3d011682016040523d82523d6000602084013e610b4a565b606091505b5050905080610bb5576040517f08c379a000000000000000000000000000000000000000000000000000000000815260206004820152600b60248201527f6661696c65642063616c6c0000000000000000000000000000000000000000006044820152606401610141565b50505050508080610bc590612764565b9150506106b7565b50600073ffffffffffffffffffffffffffffffffffffffff881615610c9a576040517f70a08231000000000000000000000000000000000000000000000000000000008152306004820152839073ffffffffffffffffffffffffffffffffffffffff8a16906370a082319060240160206040518083038186803b158015610c5357600080fd5b505afa158015610c67573d6000803e3d6000fd5b505050506040513d601f19601f82011682018060405250810190610c8b919061246d565b610c9591906126cd565b610d45565b6005546040517f70a08231000000000000000000000000000000000000000000000000000000008152306004820152849173ffffffffffffffffffffffffffffffffffffffff16906370a082319060240160206040518083038186803b158015610d0357600080fd5b505afa158015610d17573d6000803e3d6000fd5b505050506040513d601f19601f82011682018060405250810190610d3b919061246d565b610d4591906126cd565b905089600181518110610d81577f4e487b7100000000000000000000000000000000000000000000000000000000600052603260045260246000fd5b6020026020010151811015610df2576040517f08c379a000000000000000000000000000000000000000000000000000000000815260206004820152601160248201527f616d6f756e744f757420696e76616c69640000000000000000000000000000006044820152606401610141565b73ffffffffffffffffffffffffffffffffffffffff8816610e1c57610e178133611d4a565b610e27565b610e27888233611dc3565b50505050610e3460018055565b505050505050565b610e44611e13565b60008111610ed4576040517f08c379a000000000000000000000000000000000000000000000000000000000815260206004820152603e60248201527f53757065724c696e6b3a20466565206d757374206265206120706f736974697660448201527f65206e756d62657220616e642067726561746572207468616e207a65726f00006064820152608401610141565b60028190556040518181527fd8a1a03d14cf70b1537a82ecf286cf743b3d756d06d6c3279d312b9279cb36c4906020015b60405180910390a150565b610f18611e13565b6040517f70a0823100000000000000000000000000000000000000000000000000000000815230600482015260009073ffffffffffffffffffffffffffffffffffffffff8316906370a082319060240160206040518083038186803b158015610f8057600080fd5b505afa158015610f94573d6000803e3d6000fd5b505050506040513d601f19601f82011682018060405250810190610fb8919061246d565b90504781156110a3578273ffffffffffffffffffffffffffffffffffffffff1663a9059cbb610ffc60005473ffffffffffffffffffffffffffffffffffffffff1690565b6040517fffffffff0000000000000000000000000000000000000000000000000000000060e084901b16815273ffffffffffffffffffffffffffffffffffffffff909116600482015260248101859052604401602060405180830381600087803b15801561106957600080fd5b505af115801561107d573d6000803e3d6000fd5b505050506040513d601f19601f820116820180604052508101906110a1919061235e565b505b80156110f1576000805460405173ffffffffffffffffffffffffffffffffffffffff9091169184156108fc02918591818181858888f193505050501580156110ef573d6000803e3d6000fd5b505b505050565b6110fe611b40565b73ffffffffffffffffffffffffffffffffffffffff84166111c45784600081518110611153577f4e487b7100000000000000000000000000000000000000000000000000000000600052603260045260246000fd5b60200260200101513410156111c4576040517f08c379a000000000000000000000000000000000000000000000000000000000815260206004820152601460248201527f4e6f7420656e6f75676820656666696369656e740000000000000000000000006044820152606401610141565b600073ffffffffffffffffffffffffffffffffffffffff841615611284576040517f70a0823100000000000000000000000000000000000000000000000000000000815230600482015273ffffffffffffffffffffffffffffffffffffffff8516906370a082319060240160206040518083038186803b15801561124757600080fd5b505afa15801561125b573d6000803e3d6000fd5b505050506040513d601f19601f8201168201806040525081019061127f919061246d565b611325565b6005546040517f70a0823100000000000000000000000000000000000000000000000000000000815230600482015273ffffffffffffffffffffffffffffffffffffffff909116906370a082319060240160206040518083038186803b1580156112ed57600080fd5b505afa158015611301573d6000803e3d6000fd5b505050506040513d601f19601f82011682018060405250810190611325919061246d565b90506113738587600081518110611365577f4e487b7100000000000000000000000000000000000000000000000000000000600052603260045260246000fd5b602002602001015184611bb4565b60008273ffffffffffffffffffffffffffffffffffffffff166379532f1460e01b8530886040516024016113a993929190612516565b604080517fffffffffffffffffffffffffffffffffffffffffffffffffffffffffffffffe08184030181529181526020820180517bffffffffffffffffffffffffffffffffffffffffffffffffffffffff167fffffffff0000000000000000000000000000000000000000000000000000000090941693909317909252905161143291906124cf565b6000604051808303816000865af19150503d806000811461146f576040519150601f19603f3d011682016040523d82523d6000602084013e611474565b606091505b50509050806114df576040517f08c379a000000000000000000000000000000000000000000000000000000000815260206004820152600660248201527f4661696c656400000000000000000000000000000000000000000000000000006044820152606401610141565b600073ffffffffffffffffffffffffffffffffffffffff8616156115ab576040517f70a08231000000000000000000000000000000000000000000000000000000008152306004820152839073ffffffffffffffffffffffffffffffffffffffff8816906370a082319060240160206040518083038186803b15801561156457600080fd5b505afa158015611578573d6000803e3d6000fd5b505050506040513d601f19601f8201168201806040525081019061159c919061246d565b6115a691906126cd565b611656565b6005546040517f70a08231000000000000000000000000000000000000000000000000000000008152306004820152849173ffffffffffffffffffffffffffffffffffffffff16906370a082319060240160206040518083038186803b15801561161457600080fd5b505afa158015611628573d6000803e3d6000fd5b505050506040513d601f19601f8201168201806040525081019061164c919061246d565b61165691906126cd565b905087600181518110611692577f4e487b7100000000000000000000000000000000000000000000000000000000600052603260045260246000fd5b6020026020010151811015611703576040517f08c379a000000000000000000000000000000000000000000000000000000000815260206004820152601160248201527f616d6f756e744f757420696e76616c69640000000000000000000000000000006044820152606401610141565b73ffffffffffffffffffffffffffffffffffffffff861661172d576117288133611d4a565b611738565b611738868233611dc3565b50505061174460018055565b5050505050565b611753611e13565b61175d6000611e94565b565b611767611e13565b600081116117f7576040517f08c379a000000000000000000000000000000000000000000000000000000000815260206004820152603e60248201527f53757065724c696e6b3a20466565206d757374206265206120706f736974697660448201527f65206e756d62657220616e642067726561746572207468616e207a65726f00006064820152608401610141565b60038190556040518181527fdc0410a296e1e33943a772020d333d5f99319d7fcad932a484c53889f7aaa2b190602001610f05565b6006602052600090815260409020805460018201805460ff909216929161185290612710565b80601f016020809104026020016040519081016040528092919081815260200182805461187e90612710565b80156118cb5780601f106118a0576101008083540402835291602001916118cb565b820191906000526020600020905b8154815290600101906020018083116118ae57829003601f168201915b5050505050908060020154905083565b6118e3611e13565b73ffffffffffffffffffffffffffffffffffffffff8116611986576040517f08c379a000000000000000000000000000000000000000000000000000000000815260206004820152602660248201527f4f776e61626c653a206e6577206f776e657220697320746865207a65726f206160448201527f64647265737300000000000000000000000000000000000000000000000000006064820152608401610141565b61198f81611e94565b50565b61199a611e13565b73ffffffffffffffffffffffffffffffffffffffff8316600090815260066020526040902081611aba57805460ff16611a55576040517f08c379a000000000000000000000000000000000000000000000000000000000815260206004820152602360248201527f53757065724c696e6b3a20506172746e657220616c726561647920646561637460448201527f69766500000000000000000000000000000000000000000000000000000000006064820152608401610141565b80547fffffffffffffffffffffffffffffffffffffffffffffffffffffffffffffff001681556040517fa21850025daabc70fe4a4d95cb5ff2b0220d335c70ec66ec912b3846f17368dd90611aad9085908790612556565b60405180910390a16110ef565b80547fffffffffffffffffffffffffffffffffffffffffffffffffffffffffffffff00168215151781558251611af99060018301906020860190611f09565b504260028201556040517fef384e7f5414ffff90018f9ab6c0621f523b5b11d1d17a831cc331baf00e26f790611b329085908790612556565b60405180910390a150505050565b60026001541415611bad576040517f08c379a000000000000000000000000000000000000000000000000000000000815260206004820152601f60248201527f5265656e7472616e637947756172643a207265656e7472616e742063616c6c006044820152606401610141565b6002600155565b611c11565b3d6000803e3d6000fd5b7f08c379a0000000000000000000000000000000000000000000000000000000006000527c200000000000000000000000000000000000000000000000000000000060205280604052816000fd5b60405160c081016040528360008114611ca3573415611c5257611c5260557c11696e76616c6964206d73672e76616c75650000000000000000000000611bc3565b7f23b872dd0000000000000000000000000000000000000000000000000000000082523360048301528260248301528360448301526000806064846000895af1611c9e57611c9e611bb9565b611744565b7fd0e30db00000000000000000000000000000000000000000000000000000000082526000806004848773ae13d989dac2f0debff460ac112a837c89baa7cd5af1611cf057611cf0611bb9565b7fa9059cbb000000000000000000000000000000000000000000000000000000008252826004830152836024830152600080604484600073ae13d989dac2f0debff460ac112a837c89baa7cd5af161174457611744611bb9565b60405160c081016040527f2e1a7d4d000000000000000000000000000000000000000000000000000000008152826004820152600080602483600073ae13d989dac2f0debff460ac112a837c89baa7cd5af1611da857611da8611bb9565b5060008060008085855af1611dbf57611dbf611bb9565b5050565b60405160c081016040527fa9059cbb0000000000000000000000000000000000000000000000000000000081528160048201528260248201526000806044836000885af16110ef576110ef611bb9565b60005473ffffffffffffffffffffffffffffffffffffffff16331461175d576040517f08c379a000000000000000000000000000000000000000000000000000000000815260206004820181905260248201527f4f776e61626c653a2063616c6c6572206973206e6f7420746865206f776e65726044820152606401610141565b6000805473ffffffffffffffffffffffffffffffffffffffff8381167fffffffffffffffffffffffff0000000000000000000000000000000000000000831681178455604051919092169283917f8be0079c531659141344cd1fd0a4f28419497f9722a3daafe3b4186f6b6457e09190a35050565b828054611f1590612710565b90600052602060002090601f016020900481019282611f375760008555611f7d565b82601f10611f5057805160ff1916838001178555611f7d565b82800160010185558215611f7d579182015b82811115611f7d578251825591602001919060010190611f62565b50611f89929150611f8d565b5090565b5b80821115611f895760008155600101611f8e565b6000611fb5611fb08461266f565b6125fc565b9050828152838383011115611fc957600080fd5b828260208301376000602084830101529392505050565b8035611feb816127fb565b919050565b600082601f830112612000578081fd5b81356020612010611fb08361264b565b80838252828201915082860187848660051b890101111561202f578586fd5b855b8581101561207057813567ffffffffffffffff81111561204f578788fd5b61205d8a87838c0101612140565b8552509284019290840190600101612031565b5090979650505050505050565b600082601f83011261208d578081fd5b8135602061209d611fb08361264b565b80838252828201915082860187848660051b89010111156120bc578586fd5b855b858110156120705781356120d1816127fb565b845292840192908401906001016120be565b600082601f8301126120f3578081fd5b81356020612103611fb08361264b565b80838252828201915082860187848660051b8901011115612122578586fd5b855b8581101561207057813584529284019290840190600101612124565b600082601f830112612150578081fd5b61215f83833560208501611fa2565b9392505050565b600060208284031215612177578081fd5b813561215f816127fb565b600080600060608486031215612196578182fd5b83356121a1816127fb565b9250602084013567ffffffffffffffff8111156121bc578283fd5b8401601f810186136121cc578283fd5b6121db86823560208401611fa2565b92505060408401356121ec8161281d565b809150509250925092565b60008060008060008060c0878903121561220f578384fd5b863567ffffffffffffffff80821115612226578586fd5b6122328a838b016120e3565b975061224060208a01611fe0565b965061224e60408a01611fe0565b95506060890135915080821115612263578384fd5b61226f8a838b0161207d565b94506080890135915080821115612284578384fd5b6122908a838b01611ff0565b935060a08901359150808211156122a5578283fd5b506122b289828a016120e3565b9150509295509295509295565b600080600080600060a086880312156122d6578283fd5b853567ffffffffffffffff808211156122ed578485fd5b6122f989838a016120e3565b96506020880135915061230b826127fb565b90945060408701359061231d826127fb565b90935060608701359080821115612332578283fd5b5061233f88828901612140565b9250506080860135612350816127fb565b809150509295509295909350565b60006020828403121561236f578081fd5b815161215f8161281d565b6000602080838503121561238c578182fd5b825167ffffffffffffffff808211156123a3578384fd5b90840190608082870312156123b6578384fd5b6123be6125d3565b82516123c9816127fb565b8152828401516123d8816127fb565b8185015260408301516123ea816127fb565b6040820152606083015182811115612400578586fd5b80840193505086601f840112612414578485fd5b82519150612424611fb08361266f565b8281528785848601011115612437578586fd5b612446838683018787016126e4565b60608201529695505050505050565b600060208284031215612466578081fd5b5035919050565b60006020828403121561247e578081fd5b5051919050565b6000815180845261249d8160208601602086016126e4565b601f017fffffffffffffffffffffffffffffffffffffffffffffffffffffffffffffffe0169290920160200192915050565b600082516124e18184602087016126e4565b9190910192915050565b83151581526060602082015260006125066060830185612485565b9050826040830152949350505050565b6060815260006125296060830186612485565b73ffffffffffffffffffffffffffffffffffffffff94851660208401529290931660409091015292915050565b6040815260006125696040830185612485565b905073ffffffffffffffffffffffffffffffffffffffff831660208301529392505050565b84815283602082015273ffffffffffffffffffffffffffffffffffffffff831660408201526080606082015260006125c96080830184612485565b9695505050505050565b6040516080810167ffffffffffffffff811182821017156125f6576125f66127cc565b60405290565b604051601f82017fffffffffffffffffffffffffffffffffffffffffffffffffffffffffffffffe016810167ffffffffffffffff81118282101715612643576126436127cc565b604052919050565b600067ffffffffffffffff821115612665576126656127cc565b5060051b60200190565b600067ffffffffffffffff821115612689576126896127cc565b50601f017fffffffffffffffffffffffffffffffffffffffffffffffffffffffffffffffe01660200190565b600082198211156126c8576126c861279d565b500190565b6000828210156126df576126df61279d565b500390565b60005b838110156126ff5781810151838201526020016126e7565b838111156110ef5750506000910152565b600181811c9082168061272457607f821691505b6020821081141561275e577f4e487b7100000000000000000000000000000000000000000000000000000000600052602260045260246000fd5b50919050565b60007fffffffffffffffffffffffffffffffffffffffffffffffffffffffffffffffff8214156127965761279661279d565b5060010190565b7f4e487b7100000000000000000000000000000000000000000000000000000000600052601160045260246000fd5b7f4e487b7100000000000000000000000000000000000000000000000000000000600052604160045260246000fd5b73ffffffffffffffffffffffffffffffffffffffff8116811461198f57600080fd5b801515811461198f57600080fdfea2646970667358221220a1e181ac93e367ea802672007adf4f2b5ce692a96b10f23218516c0c1b1b5a3f64736f6c63430008040033",
  "linkReferences": {},
  "deployedLinkReferences": {}
}