{
  "_format": "hh-sol-artifact-1",
  "contractName": "DemoAdapter1",
  "sourceName": "contracts/DemoAdapter(Full).sol",
  "abi": [
    {
      "inputs": [
        {
          "internalType": "address",
          "name": "_weth",
          "type": "address"
        }
      ],
      "stateMutability": "nonpayable",
      "type": "constructor"
    },
    {
      "anonymous": false,
      "inputs": [
        {
          "indexed": false,
          "internalType": "address",
          "name": "partner",
          "type": "address"
        },
        {
          "indexed": false,
          "internalType": "address",
          "name": "tokenOut",
          "type": "address"
        },
        {
          "indexed": false,
          "internalType": "uint256",
          "name": "partnerFee",
          "type": "uint256"
        }
      ],
      "name": "ClaimPartnerFee",
      "type": "event"
    },
    {
      "anonymous": false,
      "inputs": [
        {
          "indexed": false,
          "internalType": "string",
          "name": "name",
          "type": "string"
        },
        {
          "indexed": false,
          "internalType": "address",
          "name": "partner",
          "type": "address"
        }
      ],
      "name": "DeactivePartner",
      "type": "event"
    },
    {
      "anonymous": false,
      "inputs": [
        {
          "indexed": true,
          "internalType": "address",
          "name": "previousOwner",
          "type": "address"
        },
        {
          "indexed": true,
          "internalType": "address",
          "name": "newOwner",
          "type": "address"
        }
      ],
      "name": "OwnershipTransferred",
      "type": "event"
    },
    {
      "anonymous": false,
      "inputs": [
        {
          "indexed": false,
          "internalType": "string",
          "name": "name",
          "type": "string"
        },
        {
          "indexed": false,
          "internalType": "address",
          "name": "partner",
          "type": "address"
        }
      ],
      "name": "SetPartner",
      "type": "event"
    },
    {
      "anonymous": false,
      "inputs": [
        {
          "indexed": false,
          "internalType": "uint256",
          "name": "_partnerFee",
          "type": "uint256"
        }
      ],
      "name": "SetPartnerFee",
      "type": "event"
    },
    {
      "anonymous": false,
      "inputs": [
        {
          "indexed": false,
          "internalType": "uint256",
          "name": "_protocolFee",
          "type": "uint256"
        }
      ],
      "name": "SetProtocolFee",
      "type": "event"
    },
    {
      "inputs": [],
      "name": "PARTNER_FEE",
      "outputs": [
        {
          "internalType": "uint256",
          "name": "",
          "type": "uint256"
        }
      ],
      "stateMutability": "view",
      "type": "function"
    },
    {
      "inputs": [],
      "name": "PROTOCOL_FEE",
      "outputs": [
        {
          "internalType": "uint256",
          "name": "",
          "type": "uint256"
        }
      ],
      "stateMutability": "view",
      "type": "function"
    },
    {
      "inputs": [
        {
          "internalType": "address",
          "name": "",
          "type": "address"
        }
      ],
      "name": "Partners",
      "outputs": [
        {
          "internalType": "bool",
          "name": "isActive",
          "type": "bool"
        },
        {
          "internalType": "string",
          "name": "name",
          "type": "string"
        },
        {
          "internalType": "uint256",
          "name": "registrationTime",
          "type": "uint256"
        }
      ],
      "stateMutability": "view",
      "type": "function"
    },
    {
      "inputs": [],
      "name": "owner",
      "outputs": [
        {
          "internalType": "address",
          "name": "",
          "type": "address"
        }
      ],
      "stateMutability": "view",
      "type": "function"
    },
    {
      "inputs": [],
      "name": "renounceOwnership",
      "outputs": [],
      "stateMutability": "nonpayable",
      "type": "function"
    },
    {
      "inputs": [
        {
          "internalType": "address",
          "name": "_partner",
          "type": "address"
        },
        {
          "internalType": "string",
          "name": "_name",
          "type": "string"
        },
        {
          "internalType": "bool",
          "name": "_isActive",
          "type": "bool"
        }
      ],
      "name": "setPartner",
      "outputs": [],
      "stateMutability": "nonpayable",
      "type": "function"
    },
    {
      "inputs": [
        {
          "internalType": "uint256",
          "name": "_partnerFee",
          "type": "uint256"
        }
      ],
      "name": "setPartnerFee",
      "outputs": [],
      "stateMutability": "nonpayable",
      "type": "function"
    },
    {
      "inputs": [
        {
          "internalType": "uint256",
          "name": "_protocolFee",
          "type": "uint256"
        }
      ],
      "name": "setProtocolFee",
      "outputs": [],
      "stateMutability": "nonpayable",
      "type": "function"
    },
    {
      "inputs": [
        {
          "internalType": "uint256[]",
          "name": "fromToAmount",
          "type": "uint256[]"
        },
        {
          "internalType": "address",
          "name": "fromToken",
          "type": "address"
        },
        {
          "internalType": "address",
          "name": "toToken",
          "type": "address"
        },
        {
          "internalType": "bytes",
          "name": "data",
          "type": "bytes"
        },
        {
          "internalType": "contract IExecutor",
          "name": "executor",
          "type": "address"
        }
      ],
      "name": "swapRoutes",
      "outputs": [],
      "stateMutability": "payable",
      "type": "function"
    },
    {
      "inputs": [
        {
          "internalType": "address",
          "name": "newOwner",
          "type": "address"
        }
      ],
      "name": "transferOwnership",
      "outputs": [],
      "stateMutability": "nonpayable",
      "type": "function"
    },
    {
      "inputs": [],
      "name": "weth",
      "outputs": [
        {
          "internalType": "address",
          "name": "",
          "type": "address"
        }
      ],
      "stateMutability": "view",
      "type": "function"
    },
    {
      "inputs": [
        {
          "internalType": "address",
          "name": "_token",
          "type": "address"
        }
      ],
      "name": "withdrawStuckERC20",
      "outputs": [],
      "stateMutability": "payable",
      "type": "function"
    },
    {
      "stateMutability": "payable",
      "type": "receive"
    }
  ],
  "bytecode": "0x60806040526050600255600a60035561271060045534801561002057600080fd5b50604051611a80380380611a8083398101604081905261003f916100c1565b61004833610071565b60018055600580546001600160a01b0319166001600160a01b03929092169190911790556100ef565b600080546001600160a01b038381166001600160a01b0319831681178455604051919092169283917f8be0079c531659141344cd1fd0a4f28419497f9722a3daafe3b4186f6b6457e09190a35050565b6000602082840312156100d2578081fd5b81516001600160a01b03811681146100e8578182fd5b9392505050565b611982806100fe6000396000f3fe6080604052600436106100cb5760003560e01c8063787dce3d11610074578063c3ca7f311161004e578063c3ca7f3114610296578063f2fde38b146102ac578063feee9977146102cc57600080fd5b8063787dce3d1461021c5780638da5cb5b1461023c5780638e9b7ab81461026757600080fd5b80633fc8cef3116100a55780633fc8cef3146101a257806345f3d78a146101f4578063715018a61461020757600080fd5b80630b4501fd146101465780633741454d1461016f5780633963510b1461018f57600080fd5b36610141573332141561013f576040517f08c379a000000000000000000000000000000000000000000000000000000000815260206004820152601460248201527f455448206465706f7369742072656a656374656400000000000000000000000060448201526064015b60405180910390fd5b005b600080fd5b34801561015257600080fd5b5061015c60035481565b6040519081526020015b60405180910390f35b34801561017b57600080fd5b5061013f61018a3660046116a9565b6102ec565b61013f61019d3660046114fe565b6103c0565b3480156101ae57600080fd5b506005546101cf9073ffffffffffffffffffffffffffffffffffffffff1681565b60405173ffffffffffffffffffffffffffffffffffffffff9091168152602001610166565b61013f61020236600461158f565b6105a6565b34801561021357600080fd5b5061013f610bfb565b34801561022857600080fd5b5061013f6102373660046116a9565b610c0f565b34801561024857600080fd5b5060005473ffffffffffffffffffffffffffffffffffffffff166101cf565b34801561027357600080fd5b506102876102823660046114fe565b610cdc565b6040516101669392919061173f565b3480156102a257600080fd5b5061015c60025481565b3480156102b857600080fd5b5061013f6102c73660046114fe565b610d8b565b3480156102d857600080fd5b5061013f6102e736600461151a565b610e42565b6102f4610ff0565b60008111610384576040517f08c379a000000000000000000000000000000000000000000000000000000000815260206004820152603e60248201527f53757065724c696e6b3a20466565206d757374206265206120706f736974697660448201527f65206e756d62657220616e642067726561746572207468616e207a65726f00006064820152608401610136565b60028190556040518181527fd8a1a03d14cf70b1537a82ecf286cf743b3d756d06d6c3279d312b9279cb36c4906020015b60405180910390a150565b6103c8610ff0565b6040517f70a0823100000000000000000000000000000000000000000000000000000000815230600482015260009073ffffffffffffffffffffffffffffffffffffffff8316906370a082319060240160206040518083038186803b15801561043057600080fd5b505afa158015610444573d6000803e3d6000fd5b505050506040513d601f19601f8201168201806040525081019061046891906116c1565b9050478115610553578273ffffffffffffffffffffffffffffffffffffffff1663a9059cbb6104ac60005473ffffffffffffffffffffffffffffffffffffffff1690565b6040517fffffffff0000000000000000000000000000000000000000000000000000000060e084901b16815273ffffffffffffffffffffffffffffffffffffffff909116600482015260248101859052604401602060405180830381600087803b15801561051957600080fd5b505af115801561052d573d6000803e3d6000fd5b505050506040513d601f19601f82011682018060405250810190610551919061168d565b505b80156105a1576000805460405173ffffffffffffffffffffffffffffffffffffffff9091169184156108fc02918591818181858888f1935050505015801561059f573d6000803e3d6000fd5b505b505050565b6105ae611071565b73ffffffffffffffffffffffffffffffffffffffff84166106745784600081518110610603577f4e487b7100000000000000000000000000000000000000000000000000000000600052603260045260246000fd5b6020026020010151341015610674576040517f08c379a000000000000000000000000000000000000000000000000000000000815260206004820152601260248201527f4e6f7420656e6f7567682062616c616e636500000000000000000000000000006044820152606401610136565b600073ffffffffffffffffffffffffffffffffffffffff841615610734576040517f70a0823100000000000000000000000000000000000000000000000000000000815230600482015273ffffffffffffffffffffffffffffffffffffffff8516906370a082319060240160206040518083038186803b1580156106f757600080fd5b505afa15801561070b573d6000803e3d6000fd5b505050506040513d601f19601f8201168201806040525081019061072f91906116c1565b6107d5565b6005546040517f70a0823100000000000000000000000000000000000000000000000000000000815230600482015273ffffffffffffffffffffffffffffffffffffffff909116906370a082319060240160206040518083038186803b15801561079d57600080fd5b505afa1580156107b1573d6000803e3d6000fd5b505050506040513d601f19601f820116820180604052508101906107d591906116c1565b90506108238587600081518110610815577f4e487b7100000000000000000000000000000000000000000000000000000000600052603260045260246000fd5b6020026020010151846110e5565b60008273ffffffffffffffffffffffffffffffffffffffff166379532f1460e01b8530886040516024016108599392919061176a565b604080517fffffffffffffffffffffffffffffffffffffffffffffffffffffffffffffffe08184030181529181526020820180517bffffffffffffffffffffffffffffffffffffffffffffffffffffffff167fffffffff000000000000000000000000000000000000000000000000000000009094169390931790925290516108e29190611723565b6000604051808303816000865af19150503d806000811461091f576040519150601f19603f3d011682016040523d82523d6000602084013e610924565b606091505b505090508061098f576040517f08c379a000000000000000000000000000000000000000000000000000000000815260206004820152600660248201527f4661696c656400000000000000000000000000000000000000000000000000006044820152606401610136565b600073ffffffffffffffffffffffffffffffffffffffff861615610a5b576040517f70a08231000000000000000000000000000000000000000000000000000000008152306004820152839073ffffffffffffffffffffffffffffffffffffffff8816906370a082319060240160206040518083038186803b158015610a1457600080fd5b505afa158015610a28573d6000803e3d6000fd5b505050506040513d601f19601f82011682018060405250810190610a4c91906116c1565b610a569190611831565b610b06565b6005546040517f70a08231000000000000000000000000000000000000000000000000000000008152306004820152849173ffffffffffffffffffffffffffffffffffffffff16906370a082319060240160206040518083038186803b158015610ac457600080fd5b505afa158015610ad8573d6000803e3d6000fd5b505050506040513d601f19601f82011682018060405250810190610afc91906116c1565b610b069190611831565b905087600181518110610b42577f4e487b7100000000000000000000000000000000000000000000000000000000600052603260045260246000fd5b6020026020010151811015610bb3576040517f08c379a000000000000000000000000000000000000000000000000000000000815260206004820152601160248201527f616d6f756e744f757420696e76616c69640000000000000000000000000000006044820152606401610136565b73ffffffffffffffffffffffffffffffffffffffff8616610bdd57610bd8813361127b565b610be8565b610be88682336112f4565b505050610bf460018055565b5050505050565b610c03610ff0565b610c0d6000611344565b565b610c17610ff0565b60008111610ca7576040517f08c379a000000000000000000000000000000000000000000000000000000000815260206004820152603e60248201527f53757065724c696e6b3a20466565206d757374206265206120706f736974697660448201527f65206e756d62657220616e642067726561746572207468616e207a65726f00006064820152608401610136565b60038190556040518181527fdc0410a296e1e33943a772020d333d5f99319d7fcad932a484c53889f7aaa2b1906020016103b5565b6006602052600090815260409020805460018201805460ff9092169291610d0290611899565b80601f0160208091040260200160405190810160405280929190818152602001828054610d2e90611899565b8015610d7b5780601f10610d5057610100808354040283529160200191610d7b565b820191906000526020600020905b815481529060010190602001808311610d5e57829003601f168201915b5050505050908060020154905083565b610d93610ff0565b73ffffffffffffffffffffffffffffffffffffffff8116610e36576040517f08c379a000000000000000000000000000000000000000000000000000000000815260206004820152602660248201527f4f776e61626c653a206e6577206f776e657220697320746865207a65726f206160448201527f64647265737300000000000000000000000000000000000000000000000000006064820152608401610136565b610e3f81611344565b50565b610e4a610ff0565b73ffffffffffffffffffffffffffffffffffffffff8316600090815260066020526040902081610f6a57805460ff16610f05576040517f08c379a000000000000000000000000000000000000000000000000000000000815260206004820152602360248201527f53757065724c696e6b3a20506172746e657220616c726561647920646561637460448201527f69766500000000000000000000000000000000000000000000000000000000006064820152608401610136565b80547fffffffffffffffffffffffffffffffffffffffffffffffffffffffffffffff001681556040517fa21850025daabc70fe4a4d95cb5ff2b0220d335c70ec66ec912b3846f17368dd90610f5d90859087906117aa565b60405180910390a161059f565b80547fffffffffffffffffffffffffffffffffffffffffffffffffffffffffffffff00168215151781558251610fa990600183019060208601906113b9565b504260028201556040517fef384e7f5414ffff90018f9ab6c0621f523b5b11d1d17a831cc331baf00e26f790610fe290859087906117aa565b60405180910390a150505050565b60005473ffffffffffffffffffffffffffffffffffffffff163314610c0d576040517f08c379a000000000000000000000000000000000000000000000000000000000815260206004820181905260248201527f4f776e61626c653a2063616c6c6572206973206e6f7420746865206f776e65726044820152606401610136565b600260015414156110de576040517f08c379a000000000000000000000000000000000000000000000000000000000815260206004820152601f60248201527f5265656e7472616e637947756172643a207265656e7472616e742063616c6c006044820152606401610136565b6002600155565b611142565b3d6000803e3d6000fd5b7f08c379a0000000000000000000000000000000000000000000000000000000006000527c200000000000000000000000000000000000000000000000000000000060205280604052816000fd5b60405160c0810160405283600081146111d45734156111835761118360557c11696e76616c6964206d73672e76616c756500000000000000000000006110f4565b7f23b872dd0000000000000000000000000000000000000000000000000000000082523360048301528260248301528360448301526000806064846000895af16111cf576111cf6110ea565b610bf4565b7fd0e30db00000000000000000000000000000000000000000000000000000000082526000806004848773ae13d989dac2f0debff460ac112a837c89baa7cd5af1611221576112216110ea565b7fa9059cbb000000000000000000000000000000000000000000000000000000008252826004830152836024830152600080604484600073ae13d989dac2f0debff460ac112a837c89baa7cd5af1610bf457610bf46110ea565b60405160c081016040527f2e1a7d4d000000000000000000000000000000000000000000000000000000008152826004820152600080602483600073ae13d989dac2f0debff460ac112a837c89baa7cd5af16112d9576112d96110ea565b5060008060008085855af16112f0576112f06110ea565b5050565b60405160c081016040527fa9059cbb0000000000000000000000000000000000000000000000000000000081528160048201528260248201526000806044836000885af161059f5761059f6110ea565b6000805473ffffffffffffffffffffffffffffffffffffffff8381167fffffffffffffffffffffffff0000000000000000000000000000000000000000831681178455604051919092169283917f8be0079c531659141344cd1fd0a4f28419497f9722a3daafe3b4186f6b6457e09190a35050565b8280546113c590611899565b90600052602060002090601f0160209004810192826113e7576000855561142d565b82601f1061140057805160ff191683800117855561142d565b8280016001018555821561142d579182015b8281111561142d578251825591602001919060010190611412565b5061143992915061143d565b5090565b5b80821115611439576000815560010161143e565b600067ffffffffffffffff83111561146c5761146c6118ed565b61149d60207fffffffffffffffffffffffffffffffffffffffffffffffffffffffffffffffe0601f860116016117e2565b90508281528383830111156114b157600080fd5b828260208301376000602084830101529392505050565b80356114d38161191c565b919050565b600082601f8301126114e8578081fd5b6114f783833560208501611452565b9392505050565b60006020828403121561150f578081fd5b81356114f78161191c565b60008060006060848603121561152e578182fd5b83356115398161191c565b9250602084013567ffffffffffffffff811115611554578283fd5b8401601f81018613611564578283fd5b61157386823560208401611452565b92505060408401356115848161193e565b809150509250925092565b600080600080600060a086880312156115a6578081fd5b853567ffffffffffffffff808211156115bd578283fd5b818801915088601f8301126115d0578283fd5b81356020828211156115e4576115e46118ed565b8160051b6115f38282016117e2565b8381528281019086840183880185018f101561160d578889fd5b8897505b8588101561162f578035835260019790970196918401918401611611565b509a506116409150508a82016114c8565b97505050611650604089016114c8565b94506060880135915080821115611665578283fd5b50611672888289016114d8565b925050611681608087016114c8565b90509295509295909350565b60006020828403121561169e578081fd5b81516114f78161193e565b6000602082840312156116ba578081fd5b5035919050565b6000602082840312156116d2578081fd5b5051919050565b600081518084526116f181602086016020860161186d565b601f017fffffffffffffffffffffffffffffffffffffffffffffffffffffffffffffffe0169290920160200192915050565b6000825161173581846020870161186d565b9190910192915050565b831515815260606020820152600061175a60608301856116d9565b9050826040830152949350505050565b60608152600061177d60608301866116d9565b73ffffffffffffffffffffffffffffffffffffffff94851660208401529290931660409091015292915050565b6040815260006117bd60408301856116d9565b905073ffffffffffffffffffffffffffffffffffffffff831660208301529392505050565b604051601f82017fffffffffffffffffffffffffffffffffffffffffffffffffffffffffffffffe016810167ffffffffffffffff81118282101715611829576118296118ed565b604052919050565b600082821015611868577f4e487b710000000000000000000000000000000000000000000000000000000081526011600452602481fd5b500390565b60005b83811015611888578181015183820152602001611870565b8381111561059f5750506000910152565b600181811c908216806118ad57607f821691505b602082108114156118e7577f4e487b7100000000000000000000000000000000000000000000000000000000600052602260045260246000fd5b50919050565b7f4e487b7100000000000000000000000000000000000000000000000000000000600052604160045260246000fd5b73ffffffffffffffffffffffffffffffffffffffff81168114610e3f57600080fd5b8015158114610e3f57600080fdfea26469706673582212206b93c6f0c7c7ab70ea9d6874739e219f658787050d51c80013d00e580875d8c164736f6c63430008040033",
  "linkReferences": {},
  "deployedLinkReferences": {}
}