{
  "_format": "hh-sol-artifact-1",
  "contractName": "DemoAdapter1",
  "sourceName": "contracts/DemoAdapter(Full).sol",
  "abi": [
    {
      "inputs": [
        {
          "internalType": "address",
          "name": "_weth",
          "type": "address"
        }
      ],
      "stateMutability": "nonpayable",
      "type": "constructor"
    },
    {
      "anonymous": false,
      "inputs": [
        {
          "indexed": false,
          "internalType": "address",
          "name": "partner",
          "type": "address"
        },
        {
          "indexed": false,
          "internalType": "address",
          "name": "tokenOut",
          "type": "address"
        },
        {
          "indexed": false,
          "internalType": "uint256",
          "name": "partnerFee",
          "type": "uint256"
        }
      ],
      "name": "ClaimPartnerFee",
      "type": "event"
    },
    {
      "anonymous": false,
      "inputs": [
        {
          "indexed": false,
          "internalType": "string",
          "name": "name",
          "type": "string"
        },
        {
          "indexed": false,
          "internalType": "address",
          "name": "partner",
          "type": "address"
        }
      ],
      "name": "DeactivePartner",
      "type": "event"
    },
    {
      "anonymous": false,
      "inputs": [
        {
          "indexed": true,
          "internalType": "address",
          "name": "previousOwner",
          "type": "address"
        },
        {
          "indexed": true,
          "internalType": "address",
          "name": "newOwner",
          "type": "address"
        }
      ],
      "name": "OwnershipTransferred",
      "type": "event"
    },
    {
      "anonymous": false,
      "inputs": [
        {
          "indexed": false,
          "internalType": "string",
          "name": "name",
          "type": "string"
        },
        {
          "indexed": false,
          "internalType": "address",
          "name": "partner",
          "type": "address"
        }
      ],
      "name": "SetPartner",
      "type": "event"
    },
    {
      "anonymous": false,
      "inputs": [
        {
          "indexed": false,
          "internalType": "uint256",
          "name": "_partnerFee",
          "type": "uint256"
        }
      ],
      "name": "SetPartnerFee",
      "type": "event"
    },
    {
      "anonymous": false,
      "inputs": [
        {
          "indexed": false,
          "internalType": "uint256",
          "name": "_protocolFee",
          "type": "uint256"
        }
      ],
      "name": "SetProtocolFee",
      "type": "event"
    },
    {
      "inputs": [],
      "name": "PARTNER_FEE",
      "outputs": [
        {
          "internalType": "uint256",
          "name": "",
          "type": "uint256"
        }
      ],
      "stateMutability": "view",
      "type": "function"
    },
    {
      "inputs": [],
      "name": "PROTOCOL_FEE",
      "outputs": [
        {
          "internalType": "uint256",
          "name": "",
          "type": "uint256"
        }
      ],
      "stateMutability": "view",
      "type": "function"
    },
    {
      "inputs": [
        {
          "internalType": "address",
          "name": "",
          "type": "address"
        }
      ],
      "name": "Partners",
      "outputs": [
        {
          "internalType": "bool",
          "name": "isActive",
          "type": "bool"
        },
        {
          "internalType": "string",
          "name": "name",
          "type": "string"
        },
        {
          "internalType": "uint256",
          "name": "registrationTime",
          "type": "uint256"
        }
      ],
      "stateMutability": "view",
      "type": "function"
    },
    {
      "inputs": [],
      "name": "owner",
      "outputs": [
        {
          "internalType": "address",
          "name": "",
          "type": "address"
        }
      ],
      "stateMutability": "view",
      "type": "function"
    },
    {
      "inputs": [],
      "name": "renounceOwnership",
      "outputs": [],
      "stateMutability": "nonpayable",
      "type": "function"
    },
    {
      "inputs": [
        {
          "internalType": "address",
          "name": "_partner",
          "type": "address"
        },
        {
          "internalType": "string",
          "name": "_name",
          "type": "string"
        },
        {
          "internalType": "bool",
          "name": "_isActive",
          "type": "bool"
        }
      ],
      "name": "setPartner",
      "outputs": [],
      "stateMutability": "nonpayable",
      "type": "function"
    },
    {
      "inputs": [
        {
          "internalType": "uint256",
          "name": "_partnerFee",
          "type": "uint256"
        }
      ],
      "name": "setPartnerFee",
      "outputs": [],
      "stateMutability": "nonpayable",
      "type": "function"
    },
    {
      "inputs": [
        {
          "internalType": "uint256",
          "name": "_protocolFee",
          "type": "uint256"
        }
      ],
      "name": "setProtocolFee",
      "outputs": [],
      "stateMutability": "nonpayable",
      "type": "function"
    },
    {
      "inputs": [
        {
          "internalType": "uint256[]",
          "name": "fromToAmount",
          "type": "uint256[]"
        },
        {
          "internalType": "address",
          "name": "fromToken",
          "type": "address"
        },
        {
          "internalType": "address",
          "name": "toToken",
          "type": "address"
        },
        {
          "internalType": "bytes",
          "name": "data",
          "type": "bytes"
        },
        {
          "internalType": "contract IExecutor",
          "name": "executor",
          "type": "address"
        }
      ],
      "name": "swapRoutes",
      "outputs": [],
      "stateMutability": "payable",
      "type": "function"
    },
    {
      "inputs": [
        {
          "internalType": "address",
          "name": "newOwner",
          "type": "address"
        }
      ],
      "name": "transferOwnership",
      "outputs": [],
      "stateMutability": "nonpayable",
      "type": "function"
    },
    {
      "inputs": [],
      "name": "weth",
      "outputs": [
        {
          "internalType": "address",
          "name": "",
          "type": "address"
        }
      ],
      "stateMutability": "view",
      "type": "function"
    },
    {
      "inputs": [
        {
          "internalType": "address",
          "name": "_token",
          "type": "address"
        }
      ],
      "name": "withdrawStuckERC20",
      "outputs": [],
      "stateMutability": "payable",
      "type": "function"
    },
    {
      "stateMutability": "payable",
      "type": "receive"
    }
  ],
  "bytecode": "0x60806040526050600255600a60035561271060045534801561002057600080fd5b506040516114a63803806114a683398101604081905261003f916100c1565b61004833610071565b60018055600580546001600160a01b0319166001600160a01b03929092169190911790556100ef565b600080546001600160a01b038381166001600160a01b0319831681178455604051919092169283917f8be0079c531659141344cd1fd0a4f28419497f9722a3daafe3b4186f6b6457e09190a35050565b6000602082840312156100d2578081fd5b81516001600160a01b03811681146100e8578182fd5b9392505050565b6113a8806100fe6000396000f3fe60806040526004361061009b5760003560e01c80630b4501fd146100f35780633741454d1461011c5780633963510b1461013c5780633fc8cef31461014f57806345f3d78a1461017c578063715018a61461018f578063787dce3d146101a45780638da5cb5b146101c45780638e9b7ab8146101d9578063c3ca7f3114610208578063f2fde38b1461021e578063feee99771461023e57600080fd5b366100ee57333214156100ec5760405162461bcd60e51b81526020600482015260146024820152731155120819195c1bdcda5d081c995a9958dd195960621b60448201526064015b60405180910390fd5b005b600080fd5b3480156100ff57600080fd5b5061010960035481565b6040519081526020015b60405180910390f35b34801561012857600080fd5b506100ec61013736600461110e565b61025e565b6100ec61014a366004610f65565b6102c2565b34801561015b57600080fd5b5060055461016f906001600160a01b031681565b6040516101139190611186565b6100ec61018a366004610ff5565b610438565b34801561019b57600080fd5b506100ec6108b6565b3480156101b057600080fd5b506100ec6101bf36600461110e565b6108ca565b3480156101d057600080fd5b5061016f610927565b3480156101e557600080fd5b506101f96101f4366004610f65565b610936565b6040516101139392919061119a565b34801561021457600080fd5b5061010960025481565b34801561022a57600080fd5b506100ec610239366004610f65565b6109e5565b34801561024a57600080fd5b506100ec610259366004610f81565b610a5e565b610266610b8f565b600081116102865760405162461bcd60e51b81526004016100e390611222565b60028190556040518181527fd8a1a03d14cf70b1537a82ecf286cf743b3d756d06d6c3279d312b9279cb36c4906020015b60405180910390a150565b6102ca610b8f565b6040516370a0823160e01b81526000906001600160a01b038316906370a08231906102f9903090600401611186565b60206040518083038186803b15801561031157600080fd5b505afa158015610325573d6000803e3d6000fd5b505050506040513d601f19601f820116820180604052508101906103499190611126565b90504781156103eb57826001600160a01b031663a9059cbb610369610927565b6040516001600160e01b031960e084901b1681526001600160a01b03909116600482015260248101859052604401602060405180830381600087803b1580156103b157600080fd5b505af11580156103c5573d6000803e3d6000fd5b505050506040513d601f19601f820116820180604052508101906103e991906110f2565b505b8015610433576103f9610927565b6001600160a01b03166108fc839081150290604051600060405180830381858888f19350505050158015610431573d6000803e3d6000fd5b505b505050565b610440610bee565b6001600160a01b0384166104bb578460008151811061046f57634e487b7160e01b600052603260045260246000fd5b60200260200101513410156104bb5760405162461bcd60e51b81526020600482015260126024820152714e6f7420656e6f7567682062616c616e636560701b60448201526064016100e3565b60006001600160a01b0384161561054d576040516370a0823160e01b81526001600160a01b038516906370a08231906104f8903090600401611186565b60206040518083038186803b15801561051057600080fd5b505afa158015610524573d6000803e3d6000fd5b505050506040513d601f19601f820116820180604052508101906105489190611126565b6105cd565b6005546040516370a0823160e01b81526001600160a01b03909116906370a082319061057d903090600401611186565b60206040518083038186803b15801561059557600080fd5b505afa1580156105a9573d6000803e3d6000fd5b505050506040513d601f19601f820116820180604052508101906105cd9190611126565b905061060285876000815181106105f457634e487b7160e01b600052603260045260246000fd5b602002602001015184610c48565b6000826001600160a01b03166379532f1460e01b85308860405160240161062b939291906111c5565b60408051601f198184030181529181526020820180516001600160e01b03166001600160e01b0319909416939093179092529051610669919061116a565b6000604051808303816000865af19150503d80600081146106a6576040519150601f19603f3d011682016040523d82523d6000602084013e6106ab565b606091505b50509050806106e55760405162461bcd60e51b815260206004820152600660248201526511985a5b195960d21b60448201526064016100e3565b60006001600160a01b03861615610783576040516370a0823160e01b815283906001600160a01b038816906370a0823190610724903090600401611186565b60206040518083038186803b15801561073c57600080fd5b505afa158015610750573d6000803e3d6000fd5b505050506040513d601f19601f820116820180604052508101906107749190611126565b61077e91906112af565b61080d565b6005546040516370a0823160e01b815284916001600160a01b0316906370a08231906107b3903090600401611186565b60206040518083038186803b1580156107cb57600080fd5b505afa1580156107df573d6000803e3d6000fd5b505050506040513d601f19601f820116820180604052508101906108039190611126565b61080d91906112af565b90508760018151811061083057634e487b7160e01b600052603260045260246000fd5b602002602001015181101561087b5760405162461bcd60e51b8152602060048201526011602482015270185b5bdd5b9d13dd5d081a5b9d985b1a59607a1b60448201526064016100e3565b6001600160a01b038616610898576108938133610d58565b6108a3565b6108a3868233610db8565b5050506108af60018055565b5050505050565b6108be610b8f565b6108c86000610def565b565b6108d2610b8f565b600081116108f25760405162461bcd60e51b81526004016100e390611222565b60038190556040518181527fdc0410a296e1e33943a772020d333d5f99319d7fcad932a484c53889f7aaa2b1906020016102b7565b6000546001600160a01b031690565b6006602052600090815260409020805460018201805460ff909216929161095c906112fe565b80601f0160208091040260200160405190810160405280929190818152602001828054610988906112fe565b80156109d55780601f106109aa576101008083540402835291602001916109d5565b820191906000526020600020905b8154815290600101906020018083116109b857829003601f168201915b5050505050908060020154905083565b6109ed610b8f565b6001600160a01b038116610a525760405162461bcd60e51b815260206004820152602660248201527f4f776e61626c653a206e6577206f776e657220697320746865207a65726f206160448201526564647265737360d01b60648201526084016100e3565b610a5b81610def565b50565b610a66610b8f565b6001600160a01b038316600090815260066020526040902081610b2757805460ff16610ae05760405162461bcd60e51b815260206004820152602360248201527f53757065724c696e6b3a20506172746e657220616c726561647920646561637460448201526269766560e81b60648201526084016100e3565b805460ff191681556040517fa21850025daabc70fe4a4d95cb5ff2b0220d335c70ec66ec912b3846f17368dd90610b1a90859087906111f8565b60405180910390a1610431565b805460ff19168215151781558251610b489060018301906020860190610e3f565b504260028201556040517fef384e7f5414ffff90018f9ab6c0621f523b5b11d1d17a831cc331baf00e26f790610b8190859087906111f8565b60405180910390a150505050565b33610b98610927565b6001600160a01b0316146108c85760405162461bcd60e51b815260206004820181905260248201527f4f776e61626c653a2063616c6c6572206973206e6f7420746865206f776e657260448201526064016100e3565b60026001541415610c415760405162461bcd60e51b815260206004820152601f60248201527f5265656e7472616e637947756172643a207265656e7472616e742063616c6c0060448201526064016100e3565b6002600155565b610c72565b3d6000803e3d6000fd5b62461bcd60e51b600052600160e51b60205280604052816000fd5b60405160c081016040528360008114610ce3573415610cab57610cab60557111696e76616c6964206d73672e76616c756560581b610c57565b6323b872dd60e01b82523360048301528260248301528360448301526000806064846000895af1610cde57610cde610c4d565b6108af565b630d0e30db60e41b82526000806004848773b4fbf271143f4fbf7b91a5ded31805e42b2208d65af1610d1757610d17610c4d565b63a9059cbb60e01b8252826004830152836024830152600080604484600073b4fbf271143f4fbf7b91a5ded31805e42b2208d65af16108af576108af610c4d565b60405160c08101604052632e1a7d4d60e01b8152826004820152600080602483600073b4fbf271143f4fbf7b91a5ded31805e42b2208d65af1610d9d57610d9d610c4d565b5060008060008085855af1610db457610db4610c4d565b5050565b60405160c0810160405263a9059cbb60e01b81528160048201528260248201526000806044836000885af161043157610431610c4d565b600080546001600160a01b038381166001600160a01b0319831681178455604051919092169283917f8be0079c531659141344cd1fd0a4f28419497f9722a3daafe3b4186f6b6457e09190a35050565b828054610e4b906112fe565b90600052602060002090601f016020900481019282610e6d5760008555610eb3565b82601f10610e8657805160ff1916838001178555610eb3565b82800160010185558215610eb3579182015b82811115610eb3578251825591602001919060010190610e98565b50610ebf929150610ec3565b5090565b5b80821115610ebf5760008155600101610ec4565b60006001600160401b03831115610ef157610ef1611339565b610f04601f8401601f191660200161127f565b9050828152838383011115610f1857600080fd5b828260208301376000602084830101529392505050565b8035610f3a8161134f565b919050565b600082601f830112610f4f578081fd5b610f5e83833560208501610ed8565b9392505050565b600060208284031215610f76578081fd5b8135610f5e8161134f565b600080600060608486031215610f95578182fd5b8335610fa08161134f565b925060208401356001600160401b03811115610fba578283fd5b8401601f81018613610fca578283fd5b610fd986823560208401610ed8565b9250506040840135610fea81611364565b809150509250925092565b600080600080600060a0868803121561100c578081fd5b85356001600160401b0380821115611022578283fd5b818801915088601f830112611035578283fd5b813560208282111561104957611049611339565b8160051b61105882820161127f565b8381528281019086840183880185018f1015611072578889fd5b8897505b85881015611094578035835260019790970196918401918401611076565b509a506110a59150508a8201610f2f565b975050506110b560408901610f2f565b945060608801359150808211156110ca578283fd5b506110d788828901610f3f565b9250506110e660808701610f2f565b90509295509295909350565b600060208284031215611103578081fd5b8151610f5e81611364565b60006020828403121561111f578081fd5b5035919050565b600060208284031215611137578081fd5b5051919050565b600081518084526111568160208601602086016112d2565b601f01601f19169290920160200192915050565b6000825161117c8184602087016112d2565b9190910192915050565b6001600160a01b0391909116815260200190565b83151581526060602082015260006111b5606083018561113e565b9050826040830152949350505050565b6060815260006111d8606083018661113e565b6001600160a01b0394851660208401529290931660409091015292915050565b60408152600061120b604083018561113e565b905060018060a01b03831660208301529392505050565b6020808252603e908201527f53757065724c696e6b3a20466565206d757374206265206120706f736974697660408201527f65206e756d62657220616e642067726561746572207468616e207a65726f0000606082015260800190565b604051601f8201601f191681016001600160401b03811182821017156112a7576112a7611339565b604052919050565b6000828210156112cd57634e487b7160e01b81526011600452602481fd5b500390565b60005b838110156112ed5781810151838201526020016112d5565b838111156104315750506000910152565b600181811c9082168061131257607f821691505b6020821081141561133357634e487b7160e01b600052602260045260246000fd5b50919050565b634e487b7160e01b600052604160045260246000fd5b6001600160a01b0381168114610a5b57600080fd5b8015158114610a5b57600080fdfea2646970667358221220cf26fc674d9f316485342583ad277b14e747a93e68eaac4125f31d7977a20eb164736f6c63430008040033",
  "linkReferences": {},
  "deployedLinkReferences": {}
}