{
  "_format": "hh-sol-artifact-1",
  "contractName": "DemoAdapter1",
  "sourceName": "contracts/DemoAdapter(Full).sol",
  "abi": [
    {
      "inputs": [
        {
          "internalType": "address",
          "name": "_weth",
          "type": "address"
        }
      ],
      "stateMutability": "nonpayable",
      "type": "constructor"
    },
    {
      "anonymous": false,
      "inputs": [
        {
          "indexed": false,
          "internalType": "address",
          "name": "partner",
          "type": "address"
        },
        {
          "indexed": false,
          "internalType": "address",
          "name": "tokenOut",
          "type": "address"
        },
        {
          "indexed": false,
          "internalType": "uint256",
          "name": "partnerFee",
          "type": "uint256"
        }
      ],
      "name": "ClaimPartnerFee",
      "type": "event"
    },
    {
      "anonymous": false,
      "inputs": [
        {
          "indexed": false,
          "internalType": "string",
          "name": "name",
          "type": "string"
        },
        {
          "indexed": false,
          "internalType": "address",
          "name": "partner",
          "type": "address"
        }
      ],
      "name": "DeactivePartner",
      "type": "event"
    },
    {
      "anonymous": false,
      "inputs": [
        {
          "indexed": true,
          "internalType": "address",
          "name": "previousOwner",
          "type": "address"
        },
        {
          "indexed": true,
          "internalType": "address",
          "name": "newOwner",
          "type": "address"
        }
      ],
      "name": "OwnershipTransferred",
      "type": "event"
    },
    {
      "anonymous": false,
      "inputs": [
        {
          "indexed": false,
          "internalType": "string",
          "name": "name",
          "type": "string"
        },
        {
          "indexed": false,
          "internalType": "address",
          "name": "partner",
          "type": "address"
        }
      ],
      "name": "SetPartner",
      "type": "event"
    },
    {
      "anonymous": false,
      "inputs": [
        {
          "indexed": false,
          "internalType": "uint256",
          "name": "_partnerFee",
          "type": "uint256"
        }
      ],
      "name": "SetPartnerFee",
      "type": "event"
    },
    {
      "anonymous": false,
      "inputs": [
        {
          "indexed": false,
          "internalType": "uint256",
          "name": "_protocolFee",
          "type": "uint256"
        }
      ],
      "name": "SetProtocolFee",
      "type": "event"
    },
    {
      "inputs": [],
      "name": "PARTNER_FEE",
      "outputs": [
        {
          "internalType": "uint256",
          "name": "",
          "type": "uint256"
        }
      ],
      "stateMutability": "view",
      "type": "function"
    },
    {
      "inputs": [],
      "name": "PROTOCOL_FEE",
      "outputs": [
        {
          "internalType": "uint256",
          "name": "",
          "type": "uint256"
        }
      ],
      "stateMutability": "view",
      "type": "function"
    },
    {
      "inputs": [
        {
          "internalType": "address",
          "name": "",
          "type": "address"
        }
      ],
      "name": "Partners",
      "outputs": [
        {
          "internalType": "bool",
          "name": "isActive",
          "type": "bool"
        },
        {
          "internalType": "string",
          "name": "name",
          "type": "string"
        },
        {
          "internalType": "uint256",
          "name": "registrationTime",
          "type": "uint256"
        }
      ],
      "stateMutability": "view",
      "type": "function"
    },
    {
      "inputs": [],
      "name": "owner",
      "outputs": [
        {
          "internalType": "address",
          "name": "",
          "type": "address"
        }
      ],
      "stateMutability": "view",
      "type": "function"
    },
    {
      "inputs": [],
      "name": "renounceOwnership",
      "outputs": [],
      "stateMutability": "nonpayable",
      "type": "function"
    },
    {
      "inputs": [
        {
          "internalType": "address",
          "name": "_partner",
          "type": "address"
        },
        {
          "internalType": "string",
          "name": "_name",
          "type": "string"
        },
        {
          "internalType": "bool",
          "name": "_isActive",
          "type": "bool"
        }
      ],
      "name": "setPartner",
      "outputs": [],
      "stateMutability": "nonpayable",
      "type": "function"
    },
    {
      "inputs": [
        {
          "internalType": "uint256",
          "name": "_partnerFee",
          "type": "uint256"
        }
      ],
      "name": "setPartnerFee",
      "outputs": [],
      "stateMutability": "nonpayable",
      "type": "function"
    },
    {
      "inputs": [
        {
          "internalType": "uint256",
          "name": "_protocolFee",
          "type": "uint256"
        }
      ],
      "name": "setProtocolFee",
      "outputs": [],
      "stateMutability": "nonpayable",
      "type": "function"
    },
    {
      "inputs": [
        {
          "internalType": "uint256",
          "name": "fromAmount",
          "type": "uint256"
        },
        {
          "internalType": "address",
          "name": "fromToken",
          "type": "address"
        },
        {
          "internalType": "address",
          "name": "toToken",
          "type": "address"
        },
        {
          "internalType": "bytes",
          "name": "data",
          "type": "bytes"
        },
        {
          "internalType": "contract IExecutor",
          "name": "executor",
          "type": "address"
        }
      ],
      "name": "swapRoutes",
      "outputs": [],
      "stateMutability": "payable",
      "type": "function"
    },
    {
      "inputs": [
        {
          "internalType": "uint256",
          "name": "fromAmount",
          "type": "uint256"
        },
        {
          "internalType": "address",
          "name": "fromToken",
          "type": "address"
        },
        {
          "internalType": "address",
          "name": "toToken",
          "type": "address"
        },
        {
          "internalType": "contract SwapAdapter[]",
          "name": "routers",
          "type": "address[]"
        },
        {
          "internalType": "bytes[]",
          "name": "payloads",
          "type": "bytes[]"
        },
        {
          "internalType": "uint256[]",
          "name": "amountOut",
          "type": "uint256[]"
        }
      ],
      "name": "swapStraight",
      "outputs": [],
      "stateMutability": "payable",
      "type": "function"
    },
    {
      "inputs": [
        {
          "internalType": "address",
          "name": "newOwner",
          "type": "address"
        }
      ],
      "name": "transferOwnership",
      "outputs": [],
      "stateMutability": "nonpayable",
      "type": "function"
    },
    {
      "inputs": [],
      "name": "weth",
      "outputs": [
        {
          "internalType": "address",
          "name": "",
          "type": "address"
        }
      ],
      "stateMutability": "view",
      "type": "function"
    },
    {
      "inputs": [
        {
          "internalType": "address",
          "name": "_token",
          "type": "address"
        }
      ],
      "name": "withdrawStuckERC20",
      "outputs": [],
      "stateMutability": "payable",
      "type": "function"
    },
    {
      "stateMutability": "payable",
      "type": "receive"
    }
  ],
  "bytecode": "0x60806040526050600255600a6003556127106004553480156200002157600080fd5b5060405162002519380380620025198339810160408190526200004491620000c9565b6200004f3362000079565b60018055600580546001600160a01b0319166001600160a01b0392909216919091179055620000f9565b600080546001600160a01b038381166001600160a01b0319831681178455604051919092169283917f8be0079c531659141344cd1fd0a4f28419497f9722a3daafe3b4186f6b6457e09190a35050565b600060208284031215620000db578081fd5b81516001600160a01b0381168114620000f2578182fd5b9392505050565b61241080620001096000396000f3fe6080604052600436106100d65760003560e01c80638743f4021161007f5780638ed3747c116100595780638ed3747c146102a1578063c3ca7f31146102b4578063f2fde38b146102ca578063feee9977146102ea57600080fd5b80638743f402146102345780638da5cb5b146102475780638e9b7ab81461027257600080fd5b80633fc8cef3116100b05780633fc8cef3146101ad578063715018a6146101ff578063787dce3d1461021457600080fd5b80630b4501fd146101515780633741454d1461017a5780633963510b1461019a57600080fd5b3661014c573332141561014a576040517f08c379a000000000000000000000000000000000000000000000000000000000815260206004820152601460248201527f455448206465706f7369742072656a656374656400000000000000000000000060448201526064015b60405180910390fd5b005b600080fd5b34801561015d57600080fd5b5061016760035481565b6040519081526020015b60405180910390f35b34801561018657600080fd5b5061014a610195366004611e6f565b61030a565b61014a6101a8366004611ce7565b6103de565b3480156101b957600080fd5b506005546101da9073ffffffffffffffffffffffffffffffffffffffff1681565b60405173ffffffffffffffffffffffffffffffffffffffff9091168152602001610171565b34801561020b57600080fd5b5061014a6105c4565b34801561022057600080fd5b5061014a61022f366004611e6f565b6105d8565b61014a610242366004611e9f565b6106a5565b34801561025357600080fd5b5060005473ffffffffffffffffffffffffffffffffffffffff166101da565b34801561027e57600080fd5b5061029261028d366004611ce7565b610fd3565b6040516101719392919061209a565b61014a6102af366004611fb5565b611082565b3480156102c057600080fd5b5061016760025481565b3480156102d657600080fd5b5061014a6102e5366004611ce7565b6114d2565b3480156102f657600080fd5b5061014a610305366004611d03565b611589565b610312611737565b600081116103a2576040517f08c379a000000000000000000000000000000000000000000000000000000000815260206004820152603e60248201527f53757065724c696e6b3a20466565206d757374206265206120706f736974697660448201527f65206e756d62657220616e642067726561746572207468616e207a65726f00006064820152608401610141565b60028190556040518181527fd8a1a03d14cf70b1537a82ecf286cf743b3d756d06d6c3279d312b9279cb36c4906020015b60405180910390a150565b6103e6611737565b6040517f70a0823100000000000000000000000000000000000000000000000000000000815230600482015260009073ffffffffffffffffffffffffffffffffffffffff8316906370a082319060240160206040518083038186803b15801561044e57600080fd5b505afa158015610462573d6000803e3d6000fd5b505050506040513d601f19601f820116820180604052508101906104869190611e87565b9050478115610571578273ffffffffffffffffffffffffffffffffffffffff1663a9059cbb6104ca60005473ffffffffffffffffffffffffffffffffffffffff1690565b6040517fffffffff0000000000000000000000000000000000000000000000000000000060e084901b16815273ffffffffffffffffffffffffffffffffffffffff909116600482015260248101859052604401602060405180830381600087803b15801561053757600080fd5b505af115801561054b573d6000803e3d6000fd5b505050506040513d601f19601f8201168201806040525081019061056f9190611d78565b505b80156105bf576000805460405173ffffffffffffffffffffffffffffffffffffffff9091169184156108fc02918591818181858888f193505050501580156105bd573d6000803e3d6000fd5b505b505050565b6105cc611737565b6105d660006117b8565b565b6105e0611737565b60008111610670576040517f08c379a000000000000000000000000000000000000000000000000000000000815260206004820152603e60248201527f53757065724c696e6b3a20466565206d757374206265206120706f736974697660448201527f65206e756d62657220616e642067726561746572207468616e207a65726f00006064820152608401610141565b60038190556040518181527fdc0410a296e1e33943a772020d333d5f99319d7fcad932a484c53889f7aaa2b1906020016103d3565b6106ad61182d565b73ffffffffffffffffffffffffffffffffffffffff85166107325785341015610732576040517f08c379a000000000000000000000000000000000000000000000000000000000815260206004820152601460248201527f4e6f7420656e6f75676820656666696369656e740000000000000000000000006044820152606401610141565b60008573ffffffffffffffffffffffffffffffffffffffff166370a082318560008151811061078a577f4e487b7100000000000000000000000000000000000000000000000000000000600052603260045260246000fd5b60200260200101516040518263ffffffff1660e01b81526004016107ca919073ffffffffffffffffffffffffffffffffffffffff91909116815260200190565b60206040518083038186803b1580156107e257600080fd5b505afa1580156107f6573d6000803e3d6000fd5b505050506040513d601f19601f8201168201806040525081019061081a9190611e87565b6040517f70a0823100000000000000000000000000000000000000000000000000000000815230600482015290915060009073ffffffffffffffffffffffffffffffffffffffff8716906370a082319060240160206040518083038186803b15801561088557600080fd5b505afa158015610899573d6000803e3d6000fd5b505050506040513d601f19601f820116820180604052508101906108bd9190611e87565b905061090b8789876000815181106108fe577f4e487b7100000000000000000000000000000000000000000000000000000000600052603260045260246000fd5b60200260200101516118a1565b845160005b81811015610e26576000868281518110610953577f4e487b7100000000000000000000000000000000000000000000000000000000600052603260045260246000fd5b602002602001015180602001905181019061096e9190611d94565b90506000816000015173ffffffffffffffffffffffffffffffffffffffff166370a082318a85815181106109cb577f4e487b7100000000000000000000000000000000000000000000000000000000600052603260045260246000fd5b60200260200101516040518263ffffffff1660e01b8152600401610a0b919073ffffffffffffffffffffffffffffffffffffffff91909116815260200190565b60206040518083038186803b158015610a2357600080fd5b505afa158015610a37573d6000803e3d6000fd5b505050506040513d601f19601f82011682018060405250810190610a5b9190611e87565b90506000610a69878361227c565b90506000610a7860018761227c565b8514610ace578a610a8a866001612264565b81518110610ac1577f4e487b7100000000000000000000000000000000000000000000000000000000600052603260045260246000fd5b6020026020010151610ad0565b305b9050610add60018761227c565b8514610bdb57602084015173ffffffffffffffffffffffffffffffffffffffff166370a082318c610b0f886001612264565b81518110610b46577f4e487b7100000000000000000000000000000000000000000000000000000000600052603260045260246000fd5b60200260200101516040518263ffffffff1660e01b8152600401610b86919073ffffffffffffffffffffffffffffffffffffffff91909116815260200190565b60206040518083038186803b158015610b9e57600080fd5b505afa158015610bb2573d6000803e3d6000fd5b505050506040513d601f19601f82011682018060405250810190610bd69190611e87565b610bde565b60005b975060008b8681518110610c1b577f4e487b7100000000000000000000000000000000000000000000000000000000600052603260045260246000fd5b602002602001015173ffffffffffffffffffffffffffffffffffffffff1663022c0d9f60e01b848c8981518110610c7b577f4e487b7100000000000000000000000000000000000000000000000000000000600052603260045260246000fd5b6020026020010151858f8b81518110610cbd577f4e487b7100000000000000000000000000000000000000000000000000000000600052603260045260246000fd5b6020026020010151604051602401610cd8949392919061213d565b604080517fffffffffffffffffffffffffffffffffffffffffffffffffffffffffffffffe08184030181529181526020820180517bffffffffffffffffffffffffffffffffffffffffffffffffffffffff167fffffffff00000000000000000000000000000000000000000000000000000000909416939093179092529051610d61919061207e565b6000604051808303816000865af19150503d8060008114610d9e576040519150601f19603f3d011682016040523d82523d6000602084013e610da3565b606091505b5050905080610e0e576040517f08c379a000000000000000000000000000000000000000000000000000000000815260206004820152600b60248201527f6661696c65642063616c6c0000000000000000000000000000000000000000006044820152606401610141565b50505050508080610e1e90612313565b915050610910565b5073ffffffffffffffffffffffffffffffffffffffff8716610f04576005546040517f70a08231000000000000000000000000000000000000000000000000000000008152306004820152600091849173ffffffffffffffffffffffffffffffffffffffff909116906370a082319060240160206040518083038186803b158015610eb057600080fd5b505afa158015610ec4573d6000803e3d6000fd5b505050506040513d601f19601f82011682018060405250810190610ee89190611e87565b610ef2919061227c565b9050610efe8133611a37565b50610fbf565b6040517f70a08231000000000000000000000000000000000000000000000000000000008152306004820152600090839073ffffffffffffffffffffffffffffffffffffffff8a16906370a082319060240160206040518083038186803b158015610f6e57600080fd5b505afa158015610f82573d6000803e3d6000fd5b505050506040513d601f19601f82011682018060405250810190610fa69190611e87565b610fb0919061227c565b9050610fbd888233611ab0565b505b505050610fcb60018055565b505050505050565b6006602052600090815260409020805460018201805460ff9092169291610ff9906122bf565b80601f0160208091040260200160405190810160405280929190818152602001828054611025906122bf565b80156110725780601f1061104757610100808354040283529160200191611072565b820191906000526020600020905b81548152906001019060200180831161105557829003601f168201915b5050505050908060020154905083565b61108a61182d565b73ffffffffffffffffffffffffffffffffffffffff841661110f578434101561110f576040517f08c379a000000000000000000000000000000000000000000000000000000000815260206004820152601460248201527f4e6f7420656e6f75676820656666696369656e740000000000000000000000006044820152606401610141565b6040517f70a0823100000000000000000000000000000000000000000000000000000000815230600482015260009073ffffffffffffffffffffffffffffffffffffffff8516906370a082319060240160206040518083038186803b15801561117757600080fd5b505afa15801561118b573d6000803e3d6000fd5b505050506040513d601f19601f820116820180604052508101906111af9190611e87565b90506111bc8587846118a1565b60008273ffffffffffffffffffffffffffffffffffffffff166379532f1460e01b8530886040516024016111f2939291906120c5565b604080517fffffffffffffffffffffffffffffffffffffffffffffffffffffffffffffffe08184030181529181526020820180517bffffffffffffffffffffffffffffffffffffffffffffffffffffffff167fffffffff0000000000000000000000000000000000000000000000000000000090941693909317909252905161127b919061207e565b6000604051808303816000865af19150503d80600081146112b8576040519150601f19603f3d011682016040523d82523d6000602084013e6112bd565b606091505b5050905080611328576040517f08c379a000000000000000000000000000000000000000000000000000000000815260206004820152600660248201527f4661696c656400000000000000000000000000000000000000000000000000006044820152606401610141565b73ffffffffffffffffffffffffffffffffffffffff8516611405576005546040517f70a08231000000000000000000000000000000000000000000000000000000008152306004820152600091849173ffffffffffffffffffffffffffffffffffffffff909116906370a082319060240160206040518083038186803b1580156113b157600080fd5b505afa1580156113c5573d6000803e3d6000fd5b505050506040513d601f19601f820116820180604052508101906113e99190611e87565b6113f3919061227c565b90506113ff8133611a37565b506114c0565b6040517f70a08231000000000000000000000000000000000000000000000000000000008152306004820152600090839073ffffffffffffffffffffffffffffffffffffffff8816906370a082319060240160206040518083038186803b15801561146f57600080fd5b505afa158015611483573d6000803e3d6000fd5b505050506040513d601f19601f820116820180604052508101906114a79190611e87565b6114b1919061227c565b90506114be868233611ab0565b505b50506114cb60018055565b5050505050565b6114da611737565b73ffffffffffffffffffffffffffffffffffffffff811661157d576040517f08c379a000000000000000000000000000000000000000000000000000000000815260206004820152602660248201527f4f776e61626c653a206e6577206f776e657220697320746865207a65726f206160448201527f64647265737300000000000000000000000000000000000000000000000000006064820152608401610141565b611586816117b8565b50565b611591611737565b73ffffffffffffffffffffffffffffffffffffffff83166000908152600660205260409020816116b157805460ff1661164c576040517f08c379a000000000000000000000000000000000000000000000000000000000815260206004820152602360248201527f53757065724c696e6b3a20506172746e657220616c726561647920646561637460448201527f69766500000000000000000000000000000000000000000000000000000000006064820152608401610141565b80547fffffffffffffffffffffffffffffffffffffffffffffffffffffffffffffff001681556040517fa21850025daabc70fe4a4d95cb5ff2b0220d335c70ec66ec912b3846f17368dd906116a49085908790612105565b60405180910390a16105bd565b80547fffffffffffffffffffffffffffffffffffffffffffffffffffffffffffffff001682151517815582516116f09060018301906020860190611b00565b504260028201556040517fef384e7f5414ffff90018f9ab6c0621f523b5b11d1d17a831cc331baf00e26f7906117299085908790612105565b60405180910390a150505050565b60005473ffffffffffffffffffffffffffffffffffffffff1633146105d6576040517f08c379a000000000000000000000000000000000000000000000000000000000815260206004820181905260248201527f4f776e61626c653a2063616c6c6572206973206e6f7420746865206f776e65726044820152606401610141565b6000805473ffffffffffffffffffffffffffffffffffffffff8381167fffffffffffffffffffffffff0000000000000000000000000000000000000000831681178455604051919092169283917f8be0079c531659141344cd1fd0a4f28419497f9722a3daafe3b4186f6b6457e09190a35050565b6002600154141561189a576040517f08c379a000000000000000000000000000000000000000000000000000000000815260206004820152601f60248201527f5265656e7472616e637947756172643a207265656e7472616e742063616c6c006044820152606401610141565b6002600155565b6118fe565b3d6000803e3d6000fd5b7f08c379a0000000000000000000000000000000000000000000000000000000006000527c200000000000000000000000000000000000000000000000000000000060205280604052816000fd5b60405160c08101604052836000811461199057341561193f5761193f60557c11696e76616c6964206d73672e76616c756500000000000000000000006118b0565b7f23b872dd0000000000000000000000000000000000000000000000000000000082523360048301528260248301528360448301526000806064846000895af161198b5761198b6118a6565b6114cb565b7fd0e30db00000000000000000000000000000000000000000000000000000000082526000806004848773ae13d989dac2f0debff460ac112a837c89baa7cd5af16119dd576119dd6118a6565b7fa9059cbb000000000000000000000000000000000000000000000000000000008252826004830152836024830152600080604484600073ae13d989dac2f0debff460ac112a837c89baa7cd5af16114cb576114cb6118a6565b60405160c081016040527f2e1a7d4d000000000000000000000000000000000000000000000000000000008152826004820152600080602483600073ae13d989dac2f0debff460ac112a837c89baa7cd5af1611a9557611a956118a6565b5060008060008085855af1611aac57611aac6118a6565b5050565b60405160c081016040527fa9059cbb0000000000000000000000000000000000000000000000000000000081528160048201528260248201526000806044836000885af16105bd576105bd6118a6565b828054611b0c906122bf565b90600052602060002090601f016020900481019282611b2e5760008555611b74565b82601f10611b4757805160ff1916838001178555611b74565b82800160010185558215611b74579182015b82811115611b74578251825591602001919060010190611b59565b50611b80929150611b84565b5090565b5b80821115611b805760008155600101611b85565b6000611bac611ba78461221e565b6121ab565b9050828152838383011115611bc057600080fd5b828260208301376000602084830101529392505050565b600082601f830112611be7578081fd5b81356020611bf7611ba7836121fa565b80838252828201915082860187848660051b8901011115611c16578586fd5b855b85811015611c5757813567ffffffffffffffff811115611c36578788fd5b611c448a87838c0101611cc1565b8552509284019290840190600101611c18565b5090979650505050505050565b600082601f830112611c74578081fd5b81356020611c84611ba7836121fa565b80838252828201915082860187848660051b8901011115611ca3578586fd5b855b85811015611c5757813584529284019290840190600101611ca5565b600082601f830112611cd1578081fd5b611ce083833560208501611b99565b9392505050565b600060208284031215611cf8578081fd5b8135611ce0816123aa565b600080600060608486031215611d17578182fd5b8335611d22816123aa565b9250602084013567ffffffffffffffff811115611d3d578283fd5b8401601f81018613611d4d578283fd5b611d5c86823560208401611b99565b9250506040840135611d6d816123cc565b809150509250925092565b600060208284031215611d89578081fd5b8151611ce0816123cc565b60006020808385031215611da6578182fd5b825167ffffffffffffffff80821115611dbd578384fd5b9084019060808287031215611dd0578384fd5b611dd8612182565b8251611de3816123aa565b815282840151611df2816123aa565b818501526040830151611e04816123aa565b6040820152606083015182811115611e1a578586fd5b80840193505086601f840112611e2e578485fd5b82519150611e3e611ba78361221e565b8281528785848601011115611e51578586fd5b611e6083868301878701612293565b60608201529695505050505050565b600060208284031215611e80578081fd5b5035919050565b600060208284031215611e98578081fd5b5051919050565b60008060008060008060c08789031215611eb7578384fd5b86359550602080880135611eca816123aa565b95506040880135611eda816123aa565b9450606088013567ffffffffffffffff80821115611ef6578485fd5b818a0191508a601f830112611f09578485fd5b8135611f17611ba7826121fa565b8082825285820191508585018e878560051b8801011115611f36578889fd5b8895505b83861015611f61578035611f4d816123aa565b835260019590950194918601918601611f3a565b509750505060808a0135925080831115611f79578485fd5b611f858b848c01611bd7565b945060a08a0135925080831115611f9a578384fd5b5050611fa889828a01611c64565b9150509295509295509295565b600080600080600060a08688031215611fcc578283fd5b853594506020860135611fde816123aa565b93506040860135611fee816123aa565b9250606086013567ffffffffffffffff811115612009578182fd5b61201588828901611cc1565b9250506080860135612026816123aa565b809150509295509295909350565b6000815180845261204c816020860160208601612293565b601f017fffffffffffffffffffffffffffffffffffffffffffffffffffffffffffffffe0169290920160200192915050565b60008251612090818460208701612293565b9190910192915050565b83151581526060602082015260006120b56060830185612034565b9050826040830152949350505050565b6060815260006120d86060830186612034565b73ffffffffffffffffffffffffffffffffffffffff94851660208401529290931660409091015292915050565b6040815260006121186040830185612034565b905073ffffffffffffffffffffffffffffffffffffffff831660208301529392505050565b84815283602082015273ffffffffffffffffffffffffffffffffffffffff831660408201526080606082015260006121786080830184612034565b9695505050505050565b6040516080810167ffffffffffffffff811182821017156121a5576121a561237b565b60405290565b604051601f82017fffffffffffffffffffffffffffffffffffffffffffffffffffffffffffffffe016810167ffffffffffffffff811182821017156121f2576121f261237b565b604052919050565b600067ffffffffffffffff8211156122145761221461237b565b5060051b60200190565b600067ffffffffffffffff8211156122385761223861237b565b50601f017fffffffffffffffffffffffffffffffffffffffffffffffffffffffffffffffe01660200190565b600082198211156122775761227761234c565b500190565b60008282101561228e5761228e61234c565b500390565b60005b838110156122ae578181015183820152602001612296565b838111156105bd5750506000910152565b600181811c908216806122d357607f821691505b6020821081141561230d577f4e487b7100000000000000000000000000000000000000000000000000000000600052602260045260246000fd5b50919050565b60007fffffffffffffffffffffffffffffffffffffffffffffffffffffffffffffffff8214156123455761234561234c565b5060010190565b7f4e487b7100000000000000000000000000000000000000000000000000000000600052601160045260246000fd5b7f4e487b7100000000000000000000000000000000000000000000000000000000600052604160045260246000fd5b73ffffffffffffffffffffffffffffffffffffffff8116811461158657600080fd5b801515811461158657600080fdfea2646970667358221220d9aaa9eb2639a52eba21e4ed7445bf01efccbbeee4a702e5a72d0decdd70b2df64736f6c63430008040033",
  "linkReferences": {},
  "deployedLinkReferences": {}
}