{
  "_format": "hh-sol-artifact-1",
  "contractName": "DemoAdapter1",
  "sourceName": "contracts/DemoAdapter(Full).sol",
  "abi": [
    {
      "inputs": [
        {
          "internalType": "address",
          "name": "_weth",
          "type": "address"
        }
      ],
      "stateMutability": "nonpayable",
      "type": "constructor"
    },
    {
      "anonymous": false,
      "inputs": [
        {
          "indexed": false,
          "internalType": "address",
          "name": "partner",
          "type": "address"
        },
        {
          "indexed": false,
          "internalType": "address",
          "name": "tokenOut",
          "type": "address"
        },
        {
          "indexed": false,
          "internalType": "uint256",
          "name": "partnerFee",
          "type": "uint256"
        }
      ],
      "name": "ClaimPartnerFee",
      "type": "event"
    },
    {
      "anonymous": false,
      "inputs": [
        {
          "indexed": false,
          "internalType": "string",
          "name": "name",
          "type": "string"
        },
        {
          "indexed": false,
          "internalType": "address",
          "name": "partner",
          "type": "address"
        }
      ],
      "name": "DeactivePartner",
      "type": "event"
    },
    {
      "anonymous": false,
      "inputs": [
        {
          "indexed": true,
          "internalType": "address",
          "name": "previousOwner",
          "type": "address"
        },
        {
          "indexed": true,
          "internalType": "address",
          "name": "newOwner",
          "type": "address"
        }
      ],
      "name": "OwnershipTransferred",
      "type": "event"
    },
    {
      "anonymous": false,
      "inputs": [
        {
          "indexed": false,
          "internalType": "string",
          "name": "name",
          "type": "string"
        },
        {
          "indexed": false,
          "internalType": "address",
          "name": "partner",
          "type": "address"
        }
      ],
      "name": "SetPartner",
      "type": "event"
    },
    {
      "anonymous": false,
      "inputs": [
        {
          "indexed": false,
          "internalType": "uint256",
          "name": "_partnerFee",
          "type": "uint256"
        }
      ],
      "name": "SetPartnerFee",
      "type": "event"
    },
    {
      "anonymous": false,
      "inputs": [
        {
          "indexed": false,
          "internalType": "uint256",
          "name": "_protocolFee",
          "type": "uint256"
        }
      ],
      "name": "SetProtocolFee",
      "type": "event"
    },
    {
      "inputs": [],
      "name": "PARTNER_FEE",
      "outputs": [
        {
          "internalType": "uint256",
          "name": "",
          "type": "uint256"
        }
      ],
      "stateMutability": "view",
      "type": "function"
    },
    {
      "inputs": [],
      "name": "PROTOCOL_FEE",
      "outputs": [
        {
          "internalType": "uint256",
          "name": "",
          "type": "uint256"
        }
      ],
      "stateMutability": "view",
      "type": "function"
    },
    {
      "inputs": [
        {
          "internalType": "address",
          "name": "",
          "type": "address"
        }
      ],
      "name": "Partners",
      "outputs": [
        {
          "internalType": "bool",
          "name": "isActive",
          "type": "bool"
        },
        {
          "internalType": "string",
          "name": "name",
          "type": "string"
        },
        {
          "internalType": "uint256",
          "name": "registrationTime",
          "type": "uint256"
        }
      ],
      "stateMutability": "view",
      "type": "function"
    },
    {
      "inputs": [],
      "name": "owner",
      "outputs": [
        {
          "internalType": "address",
          "name": "",
          "type": "address"
        }
      ],
      "stateMutability": "view",
      "type": "function"
    },
    {
      "inputs": [],
      "name": "renounceOwnership",
      "outputs": [],
      "stateMutability": "nonpayable",
      "type": "function"
    },
    {
      "inputs": [
        {
          "internalType": "address",
          "name": "_partner",
          "type": "address"
        },
        {
          "internalType": "string",
          "name": "_name",
          "type": "string"
        },
        {
          "internalType": "bool",
          "name": "_isActive",
          "type": "bool"
        }
      ],
      "name": "setPartner",
      "outputs": [],
      "stateMutability": "nonpayable",
      "type": "function"
    },
    {
      "inputs": [
        {
          "internalType": "uint256",
          "name": "_partnerFee",
          "type": "uint256"
        }
      ],
      "name": "setPartnerFee",
      "outputs": [],
      "stateMutability": "nonpayable",
      "type": "function"
    },
    {
      "inputs": [
        {
          "internalType": "uint256",
          "name": "_protocolFee",
          "type": "uint256"
        }
      ],
      "name": "setProtocolFee",
      "outputs": [],
      "stateMutability": "nonpayable",
      "type": "function"
    },
    {
      "inputs": [
        {
          "internalType": "uint256",
          "name": "fromAmount",
          "type": "uint256"
        },
        {
          "internalType": "address",
          "name": "fromToken",
          "type": "address"
        },
        {
          "internalType": "address",
          "name": "toToken",
          "type": "address"
        },
        {
          "internalType": "bytes",
          "name": "data",
          "type": "bytes"
        },
        {
          "internalType": "contract IExecutor",
          "name": "executor",
          "type": "address"
        }
      ],
      "name": "swapRoutes",
      "outputs": [],
      "stateMutability": "payable",
      "type": "function"
    },
    {
      "inputs": [
        {
          "internalType": "address",
          "name": "newOwner",
          "type": "address"
        }
      ],
      "name": "transferOwnership",
      "outputs": [],
      "stateMutability": "nonpayable",
      "type": "function"
    },
    {
      "inputs": [],
      "name": "weth",
      "outputs": [
        {
          "internalType": "address",
          "name": "",
          "type": "address"
        }
      ],
      "stateMutability": "view",
      "type": "function"
    },
    {
      "stateMutability": "payable",
      "type": "receive"
    }
  ],
  "bytecode": "0x60806040526050600155600a60025561271060035534801561002057600080fd5b5060405161141038038061141083398101604081905261003f916100bd565b6100483361006d565b600480546001600160a01b0319166001600160a01b03929092169190911790556100eb565b600080546001600160a01b038381166001600160a01b0319831681178455604051919092169283917f8be0079c531659141344cd1fd0a4f28419497f9722a3daafe3b4186f6b6457e09190a35050565b6000602082840312156100ce578081fd5b81516001600160a01b03811681146100e4578182fd5b9392505050565b611316806100fa6000396000f3fe6080604052600436106100c05760003560e01c80638da5cb5b11610074578063c3ca7f311161004e578063c3ca7f3114610278578063f2fde38b1461028e578063feee9977146102ae57600080fd5b80638da5cb5b1461020b5780638e9b7ab8146102365780638ed3747c1461026557600080fd5b80633fc8cef3116100a55780633fc8cef314610184578063715018a6146101d6578063787dce3d146101eb57600080fd5b80630b4501fd1461013b5780633741454d1461016457600080fd5b366101365733321415610134576040517f08c379a000000000000000000000000000000000000000000000000000000000815260206004820152601460248201527f455448206465706f7369742072656a656374656400000000000000000000000060448201526064015b60405180910390fd5b005b600080fd5b34801561014757600080fd5b5061015160025481565b6040519081526020015b60405180910390f35b34801561017057600080fd5b5061013461017f366004611044565b6102ce565b34801561019057600080fd5b506004546101b19073ffffffffffffffffffffffffffffffffffffffff1681565b60405173ffffffffffffffffffffffffffffffffffffffff909116815260200161015b565b3480156101e257600080fd5b506101346103a2565b3480156101f757600080fd5b50610134610206366004611044565b6103b6565b34801561021757600080fd5b5060005473ffffffffffffffffffffffffffffffffffffffff166101b1565b34801561024257600080fd5b50610256610251366004610fa8565b610483565b60405161015b9392919061116c565b610134610273366004611074565b610532565b34801561028457600080fd5b5061015160015481565b34801561029a57600080fd5b506101346102a9366004610fa8565b6108b9565b3480156102ba57600080fd5b506101346102c9366004610fcb565b610970565b6102d6610b1f565b60008111610366576040517f08c379a000000000000000000000000000000000000000000000000000000000815260206004820152603e60248201527f53757065724c696e6b3a20466565206d757374206265206120706f736974697660448201527f65206e756d62657220616e642067726561746572207468616e207a65726f0000606482015260840161012b565b60018190556040518181527fd8a1a03d14cf70b1537a82ecf286cf743b3d756d06d6c3279d312b9279cb36c4906020015b60405180910390a150565b6103aa610b1f565b6103b46000610ba0565b565b6103be610b1f565b6000811161044e576040517f08c379a000000000000000000000000000000000000000000000000000000000815260206004820152603e60248201527f53757065724c696e6b3a20466565206d757374206265206120706f736974697660448201527f65206e756d62657220616e642067726561746572207468616e207a65726f0000606482015260840161012b565b60028190556040518181527fdc0410a296e1e33943a772020d333d5f99319d7fcad932a484c53889f7aaa2b190602001610397565b6005602052600090815260409020805460018201805460ff90921692916104a99061123b565b80601f01602080910402602001604051908101604052809291908181526020018280546104d59061123b565b80156105225780601f106104f757610100808354040283529160200191610522565b820191906000526020600020905b81548152906001019060200180831161050557829003601f168201915b5050505050908060020154905083565b73ffffffffffffffffffffffffffffffffffffffff84166105b757843410156105b7576040517f08c379a000000000000000000000000000000000000000000000000000000000815260206004820152601460248201527f4e6f7420656e6f75676820656666696369656e74000000000000000000000000604482015260640161012b565b6105c2848683610c15565b60008173ffffffffffffffffffffffffffffffffffffffff166379532f1460e01b8430876040516024016105f893929190611197565b604080517fffffffffffffffffffffffffffffffffffffffffffffffffffffffffffffffe08184030181529181526020820180517bffffffffffffffffffffffffffffffffffffffffffffffffffffffff167fffffffff000000000000000000000000000000000000000000000000000000009094169390931790925290516106819190611150565b6000604051808303816000865af19150503d80600081146106be576040519150601f19603f3d011682016040523d82523d6000602084013e6106c3565b606091505b505090508061072e576040517f08c379a000000000000000000000000000000000000000000000000000000000815260206004820152600660248201527f4661696c65640000000000000000000000000000000000000000000000000000604482015260640161012b565b73ffffffffffffffffffffffffffffffffffffffff841661080257600480546040517f70a08231000000000000000000000000000000000000000000000000000000008152309281019290925260009173ffffffffffffffffffffffffffffffffffffffff909116906370a082319060240160206040518083038186803b1580156107b857600080fd5b505afa1580156107cc573d6000803e3d6000fd5b505050506040513d601f19601f820116820180604052508101906107f0919061105c565b90506107fc8133610db2565b506108b1565b6040517f70a0823100000000000000000000000000000000000000000000000000000000815230600482015260009073ffffffffffffffffffffffffffffffffffffffff8616906370a082319060240160206040518083038186803b15801561086a57600080fd5b505afa15801561087e573d6000803e3d6000fd5b505050506040513d601f19601f820116820180604052508101906108a2919061105c565b90506108af858233610e2b565b505b505050505050565b6108c1610b1f565b73ffffffffffffffffffffffffffffffffffffffff8116610964576040517f08c379a000000000000000000000000000000000000000000000000000000000815260206004820152602660248201527f4f776e61626c653a206e6577206f776e657220697320746865207a65726f206160448201527f6464726573730000000000000000000000000000000000000000000000000000606482015260840161012b565b61096d81610ba0565b50565b610978610b1f565b73ffffffffffffffffffffffffffffffffffffffff8316600090815260056020526040902081610a9857805460ff16610a33576040517f08c379a000000000000000000000000000000000000000000000000000000000815260206004820152602360248201527f53757065724c696e6b3a20506172746e657220616c726561647920646561637460448201527f6976650000000000000000000000000000000000000000000000000000000000606482015260840161012b565b80547fffffffffffffffffffffffffffffffffffffffffffffffffffffffffffffff001681556040517fa21850025daabc70fe4a4d95cb5ff2b0220d335c70ec66ec912b3846f17368dd90610a8b90859087906111d7565b60405180910390a1610b19565b80547fffffffffffffffffffffffffffffffffffffffffffffffffffffffffffffff00168215151781558251610ad79060018301906020860190610e7b565b504260028201556040517fef384e7f5414ffff90018f9ab6c0621f523b5b11d1d17a831cc331baf00e26f790610b1090859087906111d7565b60405180910390a15b50505050565b60005473ffffffffffffffffffffffffffffffffffffffff1633146103b4576040517f08c379a000000000000000000000000000000000000000000000000000000000815260206004820181905260248201527f4f776e61626c653a2063616c6c6572206973206e6f7420746865206f776e6572604482015260640161012b565b6000805473ffffffffffffffffffffffffffffffffffffffff8381167fffffffffffffffffffffffff0000000000000000000000000000000000000000831681178455604051919092169283917f8be0079c531659141344cd1fd0a4f28419497f9722a3daafe3b4186f6b6457e09190a35050565b610c72565b3d6000803e3d6000fd5b7f08c379a0000000000000000000000000000000000000000000000000000000006000527c200000000000000000000000000000000000000000000000000000000060205280604052816000fd5b60405160c081016040528360008114610d04573415610cb357610cb360557c11696e76616c6964206d73672e76616c75650000000000000000000000610c24565b7f23b872dd0000000000000000000000000000000000000000000000000000000082523360048301528260248301528360448301526000806064846000895af1610cff57610cff610c1a565b610dab565b7fd0e30db00000000000000000000000000000000000000000000000000000000082526000806004848773ae13d989dac2f0debff460ac112a837c89baa7cd5af1610d5157610d51610c1a565b7fa9059cbb000000000000000000000000000000000000000000000000000000008252826004830152836024830152600080604484600073ae13d989dac2f0debff460ac112a837c89baa7cd5af1610dab57610dab610c1a565b5050505050565b60405160c081016040527f2e1a7d4d000000000000000000000000000000000000000000000000000000008152826004820152600080602483600073ae13d989dac2f0debff460ac112a837c89baa7cd5af1610e1057610e10610c1a565b5060008060008085855af1610e2757610e27610c1a565b5050565b60405160c081016040527fa9059cbb0000000000000000000000000000000000000000000000000000000081528160048201528260248201526000806044836000885af1610b1957610b19610c1a565b828054610e879061123b565b90600052602060002090601f016020900481019282610ea95760008555610eef565b82601f10610ec257805160ff1916838001178555610eef565b82800160010185558215610eef579182015b82811115610eef578251825591602001919060010190610ed4565b50610efb929150610eff565b5090565b5b80821115610efb5760008155600101610f00565b600067ffffffffffffffff80841115610f2f57610f2f61128f565b604051601f85017fffffffffffffffffffffffffffffffffffffffffffffffffffffffffffffffe0908116603f01168101908282118183101715610f7557610f7561128f565b81604052809350858152868686011115610f8e57600080fd5b858560208301376000602087830101525050509392505050565b600060208284031215610fb9578081fd5b8135610fc4816112be565b9392505050565b600080600060608486031215610fdf578182fd5b8335610fea816112be565b9250602084013567ffffffffffffffff811115611005578283fd5b8401601f81018613611015578283fd5b61102486823560208401610f14565b92505060408401358015158114611039578182fd5b809150509250925092565b600060208284031215611055578081fd5b5035919050565b60006020828403121561106d578081fd5b5051919050565b600080600080600060a0868803121561108b578081fd5b85359450602086013561109d816112be565b935060408601356110ad816112be565b9250606086013567ffffffffffffffff8111156110c8578182fd5b8601601f810188136110d8578182fd5b6110e788823560208401610f14565b92505060808601356110f8816112be565b809150509295509295909350565b6000815180845261111e81602086016020860161120f565b601f017fffffffffffffffffffffffffffffffffffffffffffffffffffffffffffffffe0169290920160200192915050565b6000825161116281846020870161120f565b9190910192915050565b83151581526060602082015260006111876060830185611106565b9050826040830152949350505050565b6060815260006111aa6060830186611106565b73ffffffffffffffffffffffffffffffffffffffff94851660208401529290931660409091015292915050565b6040815260006111ea6040830185611106565b905073ffffffffffffffffffffffffffffffffffffffff831660208301529392505050565b60005b8381101561122a578181015183820152602001611212565b83811115610b195750506000910152565b600181811c9082168061124f57607f821691505b60208210811415611289577f4e487b7100000000000000000000000000000000000000000000000000000000600052602260045260246000fd5b50919050565b7f4e487b7100000000000000000000000000000000000000000000000000000000600052604160045260246000fd5b73ffffffffffffffffffffffffffffffffffffffff8116811461096d57600080fdfea2646970667358221220b58ca75d802f1c6580c7d490beb73d5e7c6693aa84292863475845c343ac678f64736f6c63430008040033",
  "linkReferences": {},
  "deployedLinkReferences": {}
}