{
  "_format": "hh-sol-artifact-1",
  "contractName": "Coin98ZeroxV4",
  "sourceName": "contracts/0xV4/Coin98ZeroxV4.sol",
  "abi": [
    {
      "inputs": [
        {
          "internalType": "address",
          "name": "_weth",
          "type": "address"
        }
      ],
      "stateMutability": "nonpayable",
      "type": "constructor"
    },
    {
      "inputs": [],
      "name": "WETH",
      "outputs": [
        {
          "internalType": "address",
          "name": "",
          "type": "address"
        }
      ],
      "stateMutability": "view",
      "type": "function"
    },
    {
      "inputs": [
        {
          "internalType": "uint256",
          "name": "amount0Out",
          "type": "uint256"
        },
        {
          "internalType": "uint256",
          "name": "amount1Out",
          "type": "uint256"
        },
        {
          "internalType": "address",
          "name": "to",
          "type": "address"
        },
        {
          "internalType": "bytes",
          "name": "data",
          "type": "bytes"
        }
      ],
      "name": "swap",
      "outputs": [],
      "stateMutability": "payable",
      "type": "function"
    }
  ],
  "bytecode": "0x60a060405234801561001057600080fd5b5060405161185438038061185483398101604081905261002f91610044565b60601b6001600160601b031916608052610072565b600060208284031215610055578081fd5b81516001600160a01b038116811461006b578182fd5b9392505050565b60805160601c6117a96100ab600039600081816055015281816103b30152818161040e0152818161065b01526106b201526117a96000f3fe6080604052600436106100295760003560e01c8063022c0d9f1461002e578063ad5c464814610043575b600080fd5b61004161003c3660046112e8565b6100a0565b005b34801561004f57600080fd5b506100777f000000000000000000000000000000000000000000000000000000000000000081565b60405173ffffffffffffffffffffffffffffffffffffffff909116815260200160405180910390f35b6000818060200190518101906100b691906110f1565b9050806000015160ff1660011461012e576040517f08c379a000000000000000000000000000000000000000000000000000000000815260206004820152600d60248201527f496e76616c696420526f7574650000000000000000000000000000000000000060448201526064015b60405180910390fd5b61014b816020015182604001518784606001518560a001516102a8565b60408082015190517f70a0823100000000000000000000000000000000000000000000000000000000815230600482015260009173ffffffffffffffffffffffffffffffffffffffff16906370a082319060240160206040518083038186803b1580156101b757600080fd5b505afa1580156101cb573d6000803e3d6000fd5b505050506040513d601f19601f820116820180604052508101906101ef91906112d0565b60408084015190517fa9059cbb00000000000000000000000000000000000000000000000000000000815273ffffffffffffffffffffffffffffffffffffffff87811660048301526024820184905292935091169063a9059cbb90604401602060405180830381600087803b15801561026757600080fd5b505af115801561027b573d6000803e3d6000fd5b505050506040513d601f19601f8201168201806040525081019061029f91906110ca565b50505050505050565b6102b585858585856102bc565b5050505050565b6000818060200190518101906102d291906111b5565b9050858573ffffffffffffffffffffffffffffffffffffffff808316908216141561037f576040517f08c379a000000000000000000000000000000000000000000000000000000000815260206004820152602a60248201527f66726f6d546f6b656e2073686f756c6420626520646966666572656e7420667260448201527f6f6d20746f546f6b656e000000000000000000000000000000000000000000006064820152608401610125565b73ffffffffffffffffffffffffffffffffffffffff881673eeeeeeeeeeeeeeeeeeeeeeeeeeeeeeeeeeeeeeee14156103d9577f0000000000000000000000000000000000000000000000000000000000000000915061042e565b73ffffffffffffffffffffffffffffffffffffffff871673eeeeeeeeeeeeeeeeeeeeeeeeeeeeeeeeeeeeeeee141561042e57507f00000000000000000000000000000000000000000000000000000000000000005b8173ffffffffffffffffffffffffffffffffffffffff1683600001516020015173ffffffffffffffffffffffffffffffffffffffff16146104cb576040517f08c379a000000000000000000000000000000000000000000000000000000000815260206004820152601460248201527f496e76616c69642066726f6d20746f6b656e21210000000000000000000000006044820152606401610125565b82515173ffffffffffffffffffffffffffffffffffffffff82811691161461054f576040517f08c379a000000000000000000000000000000000000000000000000000000000815260206004820152601260248201527f496e76616c696420746f20746f6b656e212100000000000000000000000000006044820152606401610125565b61055a85838861072f565b825160208401516040517faa77476c00000000000000000000000000000000000000000000000000000000815273ffffffffffffffffffffffffffffffffffffffff88169263aa77476c926105b3928b9060040161144b565b6040805180830381600087803b1580156105cc57600080fd5b505af11580156105e0573d6000803e3d6000fd5b505050506040513d601f19601f82011682018060405250810190610604919061129e565b505061062173eeeeeeeeeeeeeeeeeeeeeeeeeeeeeeeeeeeeeeee90565b73ffffffffffffffffffffffffffffffffffffffff168773ffffffffffffffffffffffffffffffffffffffff1614156107255760006106807f00000000000000000000000000000000000000000000000000000000000000003061087c565b6040517f2e1a7d4d000000000000000000000000000000000000000000000000000000008152600481018290529091507f000000000000000000000000000000000000000000000000000000000000000073ffffffffffffffffffffffffffffffffffffffff1690632e1a7d4d90602401600060405180830381600087803b15801561070b57600080fd5b505af115801561071f573d6000803e3d6000fd5b50505050505b5050505050505050565b73ffffffffffffffffffffffffffffffffffffffff821673eeeeeeeeeeeeeeeeeeeeeeeeeeeeeeeeeeeeeeee14610877576040517fdd62ed3e00000000000000000000000000000000000000000000000000000000815230600482015273ffffffffffffffffffffffffffffffffffffffff8481166024830152839160009183169063dd62ed3e9060440160206040518083038186803b1580156107d257600080fd5b505afa1580156107e6573d6000803e3d6000fd5b505050506040513d601f19601f8201168201806040525081019061080a91906112d0565b9050828110156102b55761083673ffffffffffffffffffffffffffffffffffffffff8316866000610976565b6102b573ffffffffffffffffffffffffffffffffffffffff8316867fffffffffffffffffffffffffffffffffffffffffffffffffffffffffffffffff610b85565b505050565b600073ffffffffffffffffffffffffffffffffffffffff831673eeeeeeeeeeeeeeeeeeeeeeeeeeeeeeeeeeeeeeee14156108ce575073ffffffffffffffffffffffffffffffffffffffff811631610970565b6040517f70a0823100000000000000000000000000000000000000000000000000000000815273ffffffffffffffffffffffffffffffffffffffff83811660048301528416906370a082319060240160206040518083038186803b15801561093557600080fd5b505afa158015610949573d6000803e3d6000fd5b505050506040513d601f19601f8201168201806040525081019061096d91906112d0565b90505b92915050565b801580610a2557506040517fdd62ed3e00000000000000000000000000000000000000000000000000000000815230600482015273ffffffffffffffffffffffffffffffffffffffff838116602483015284169063dd62ed3e9060440160206040518083038186803b1580156109eb57600080fd5b505afa1580156109ff573d6000803e3d6000fd5b505050506040513d601f19601f82011682018060405250810190610a2391906112d0565b155b610ab1576040517f08c379a000000000000000000000000000000000000000000000000000000000815260206004820152603660248201527f5361666545524332303a20617070726f76652066726f6d206e6f6e2d7a65726f60448201527f20746f206e6f6e2d7a65726f20616c6c6f77616e6365000000000000000000006064820152608401610125565b60405173ffffffffffffffffffffffffffffffffffffffff83166024820152604481018290526108779084907f095ea7b300000000000000000000000000000000000000000000000000000000906064015b604080517fffffffffffffffffffffffffffffffffffffffffffffffffffffffffffffffe08184030181529190526020810180517bffffffffffffffffffffffffffffffffffffffffffffffffffffffff167fffffffff0000000000000000000000000000000000000000000000000000000090931692909217909152610c98565b6040517fdd62ed3e00000000000000000000000000000000000000000000000000000000815230600482015273ffffffffffffffffffffffffffffffffffffffff8381166024830152600091839186169063dd62ed3e9060440160206040518083038186803b158015610bf757600080fd5b505afa158015610c0b573d6000803e3d6000fd5b505050506040513d601f19601f82011682018060405250810190610c2f91906112d0565b610c3991906116b6565b60405173ffffffffffffffffffffffffffffffffffffffff8516602482015260448101829052909150610c929085907f095ea7b30000000000000000000000000000000000000000000000000000000090606401610b03565b50505050565b6000610cfa826040518060400160405280602081526020017f5361666545524332303a206c6f772d6c6576656c2063616c6c206661696c65648152508573ffffffffffffffffffffffffffffffffffffffff16610da49092919063ffffffff16565b8051909150156108775780806020019051810190610d1891906110ca565b610877576040517f08c379a000000000000000000000000000000000000000000000000000000000815260206004820152602a60248201527f5361666545524332303a204552433230206f7065726174696f6e20646964206e60448201527f6f742073756363656564000000000000000000000000000000000000000000006064820152608401610125565b6060610db38484600085610dbb565b949350505050565b606082471015610e4d576040517f08c379a000000000000000000000000000000000000000000000000000000000815260206004820152602660248201527f416464726573733a20696e73756666696369656e742062616c616e636520666f60448201527f722063616c6c00000000000000000000000000000000000000000000000000006064820152608401610125565b6000808673ffffffffffffffffffffffffffffffffffffffff168587604051610e7691906113de565b60006040518083038185875af1925050503d8060008114610eb3576040519150601f19603f3d011682016040523d82523d6000602084013e610eb8565b606091505b5091509150610ec987838387610ed4565b979650505050505050565b60608315610f67578251610f605773ffffffffffffffffffffffffffffffffffffffff85163b610f60576040517f08c379a000000000000000000000000000000000000000000000000000000000815260206004820152601d60248201527f416464726573733a2063616c6c20746f206e6f6e2d636f6e74726163740000006044820152606401610125565b5081610db3565b610db38383815115610f7c5781518083602001fd5b806040517f08c379a000000000000000000000000000000000000000000000000000000000815260040161012591906113fa565b8051610fbb8161174e565b919050565b600082601f830112610fd0578081fd5b8151610fe3610fde82611670565b611621565b818152846020838601011115610ff7578283fd5b610db38260208301602087016116f3565b600060808284031215611019578081fd5b6040516080810181811067ffffffffffffffff8211171561103c5761103c61171f565b806040525080915082516004811061105357600080fd5b8152611061602084016110b9565b602082015260408301516040820152606083015160608201525092915050565b80516fffffffffffffffffffffffffffffffff81168114610fbb57600080fd5b805167ffffffffffffffff81168114610fbb57600080fd5b805160ff81168114610fbb57600080fd5b6000602082840312156110db578081fd5b815180151581146110ea578182fd5b9392505050565b600060208284031215611102578081fd5b815167ffffffffffffffff80821115611119578283fd5b9083019060e0828603121561112c578283fd5b6111346115b1565b61113d836110b9565b815261114b60208401610fb0565b602082015261115c60408401610fb0565b604082015261116d60608401610fb0565b60608201526080830151608082015260a08301518281111561118d578485fd5b61119987828601610fc0565b60a08301525060c083015160c082015280935050505092915050565b60008183036101c08112156111c8578182fd5b6111d06115da565b610140808312156111df578384fd5b6111e76115fd565b92506111f285610fb0565b835261120060208601610fb0565b602084015261121160408601611081565b604084015261122260608601611081565b606084015261123360808601610fb0565b608084015261124460a08601610fb0565b60a084015261125560c08601610fb0565b60c084015260e085015160e08401526101006112728187016110a1565b90840152610120858101519084015282825261129086828701611008565b602083015250949350505050565b600080604083850312156112b0578081fd5b6112b983611081565b91506112c760208401611081565b90509250929050565b6000602082840312156112e1578081fd5b5051919050565b600080600080608085870312156112fd578182fd5b843593506020850135925060408501356113168161174e565b9150606085013567ffffffffffffffff811115611331578182fd5b8501601f81018713611341578182fd5b803561134f610fde82611670565b818152886020838501011115611363578384fd5b81602084016020830137908101602001929092525092959194509250565b8051600481106113ba577f4e487b7100000000000000000000000000000000000000000000000000000000600052602160045260246000fd5b825260208181015160ff169083015260408082015190830152606090810151910152565b600082516113f08184602087016116f3565b9190910192915050565b60208152600082518060208401526114198160408501602087016116f3565b601f017fffffffffffffffffffffffffffffffffffffffffffffffffffffffffffffffe0169190910160400192915050565b835173ffffffffffffffffffffffffffffffffffffffff1681526101e081016020850151611491602084018273ffffffffffffffffffffffffffffffffffffffff169052565b5060408501516114b560408401826fffffffffffffffffffffffffffffffff169052565b5060608501516114d960608401826fffffffffffffffffffffffffffffffff169052565b506080850151611501608084018273ffffffffffffffffffffffffffffffffffffffff169052565b5060a085015161152960a084018273ffffffffffffffffffffffffffffffffffffffff169052565b5060c085015161155160c084018273ffffffffffffffffffffffffffffffffffffffff169052565b5060e085015160e0830152610100808601516115788285018267ffffffffffffffff169052565b50506101208581015190830152611593610140830185611381565b6fffffffffffffffffffffffffffffffff83166101c0830152610db3565b60405160e0810167ffffffffffffffff811182821017156115d4576115d461171f565b60405290565b6040805190810167ffffffffffffffff811182821017156115d4576115d461171f565b604051610140810167ffffffffffffffff811182821017156115d4576115d461171f565b604051601f82017fffffffffffffffffffffffffffffffffffffffffffffffffffffffffffffffe016810167ffffffffffffffff811182821017156116685761166861171f565b604052919050565b600067ffffffffffffffff82111561168a5761168a61171f565b50601f017fffffffffffffffffffffffffffffffffffffffffffffffffffffffffffffffe01660200190565b600082198211156116ee577f4e487b710000000000000000000000000000000000000000000000000000000081526011600452602481fd5b500190565b60005b8381101561170e5781810151838201526020016116f6565b83811115610c925750506000910152565b7f4e487b7100000000000000000000000000000000000000000000000000000000600052604160045260246000fd5b73ffffffffffffffffffffffffffffffffffffffff8116811461177057600080fd5b5056fea26469706673582212206ee8a479653ffae05270ed620f55be4269290f81dbdb1aedeaf247fa96d5fcf064736f6c63430008040033",
  "linkReferences": {},
  "deployedLinkReferences": {}
}