{
  "_format": "hh-sol-artifact-1",
  "contractName": "Coin98BalancerV1",
  "sourceName": "contracts/BalancerV2/Coin98BalancerV2.sol",
  "abi": [
    {
      "inputs": [
        {
          "internalType": "uint256",
          "name": "amount0Out",
          "type": "uint256"
        },
        {
          "internalType": "uint256",
          "name": "amount1Out",
          "type": "uint256"
        },
        {
          "internalType": "address payable",
          "name": "to",
          "type": "address"
        },
        {
          "internalType": "bytes",
          "name": "data",
          "type": "bytes"
        }
      ],
      "name": "swap",
      "outputs": [],
      "stateMutability": "payable",
      "type": "function"
    }
  ],
  "bytecode": "0x608060405234801561001057600080fd5b506111ea806100206000396000f3fe60806040526004361061001e5760003560e01c8063022c0d9f14610023575b600080fd5b610036610031366004610e01565b610038565b005b60008180602001905181019061004e9190610d3d565b905061006d81600001518260200151878460400151856080015161012a565b60208101516040517f70a0823100000000000000000000000000000000000000000000000000000000815230600482015260009173ffffffffffffffffffffffffffffffffffffffff16906370a082319060240160206040518083038186803b1580156100d957600080fd5b505afa1580156100ed573d6000803e3d6000fd5b505050506040513d601f19601f820116820180604052508101906101119190610de9565b9050610122826020015185836102ef565b505050505050565b610135828685610411565b60008180602001905181019061014b9190610c80565b905060006040518060c0016040528083600001518152602001836020015160018111156101a1577f4e487b7100000000000000000000000000000000000000000000000000000000600052602160045260246000fd5b81526020018873ffffffffffffffffffffffffffffffffffffffff1681526020018773ffffffffffffffffffffffffffffffffffffffff16815260200186815260200183604001518152509050600060405180608001604052803073ffffffffffffffffffffffffffffffffffffffff1681526020018460600151151581526020013073ffffffffffffffffffffffffffffffffffffffff1681526020018460800151151581525090508473ffffffffffffffffffffffffffffffffffffffff166352bbbe2983838660a001518760c001516040518563ffffffff1660e01b81526004016102929493929190610f13565b602060405180830381600087803b1580156102ac57600080fd5b505af11580156102c0573d6000803e3d6000fd5b505050506040513d601f19601f820116820180604052508101906102e49190610de9565b505050505050505050565b801561040c5773ffffffffffffffffffffffffffffffffffffffff831673eeeeeeeeeeeeeeeeeeeeeeeeeeeeeeeeeeeeeeee14156104015760008273ffffffffffffffffffffffffffffffffffffffff168261271090604051600060405180830381858888f193505050503d8060008114610386576040519150601f19603f3d011682016040523d82523d6000602084013e61038b565b606091505b50509050806103fb576040517f08c379a000000000000000000000000000000000000000000000000000000000815260206004820152601860248201527f4661696c656420746f207472616e73666572204574686572000000000000000060448201526064015b60405180910390fd5b50505050565b61040c838284610560565b505050565b73ffffffffffffffffffffffffffffffffffffffff821673eeeeeeeeeeeeeeeeeeeeeeeeeeeeeeeeeeeeeeee1461040c576040517fdd62ed3e00000000000000000000000000000000000000000000000000000000815230600482015273ffffffffffffffffffffffffffffffffffffffff8481166024830152839160009183169063dd62ed3e9060440160206040518083038186803b1580156104b457600080fd5b505afa1580156104c8573d6000803e3d6000fd5b505050506040513d601f19601f820116820180604052508101906104ec9190610de9565b9050828110156105595761051873ffffffffffffffffffffffffffffffffffffffff83168660006105bf565b61055973ffffffffffffffffffffffffffffffffffffffff8316867fffffffffffffffffffffffffffffffffffffffffffffffffffffffffffffffff6107ce565b5050505050565b60405160c08101604052610579565b3d6000803e3d6000fd5b7fa9059cbb0000000000000000000000000000000000000000000000000000000081528160048201528260248201526000806044836000885af16103fb576103fb61056f565b80158061066e57506040517fdd62ed3e00000000000000000000000000000000000000000000000000000000815230600482015273ffffffffffffffffffffffffffffffffffffffff838116602483015284169063dd62ed3e9060440160206040518083038186803b15801561063457600080fd5b505afa158015610648573d6000803e3d6000fd5b505050506040513d601f19601f8201168201806040525081019061066c9190610de9565b155b6106fa576040517f08c379a000000000000000000000000000000000000000000000000000000000815260206004820152603660248201527f5361666545524332303a20617070726f76652066726f6d206e6f6e2d7a65726f60448201527f20746f206e6f6e2d7a65726f20616c6c6f77616e63650000000000000000000060648201526084016103f2565b60405173ffffffffffffffffffffffffffffffffffffffff831660248201526044810182905261040c9084907f095ea7b300000000000000000000000000000000000000000000000000000000906064015b604080517fffffffffffffffffffffffffffffffffffffffffffffffffffffffffffffffe08184030181529190526020810180517bffffffffffffffffffffffffffffffffffffffffffffffffffffffff167fffffffff00000000000000000000000000000000000000000000000000000000909316929092179091526108db565b6040517fdd62ed3e00000000000000000000000000000000000000000000000000000000815230600482015273ffffffffffffffffffffffffffffffffffffffff8381166024830152600091839186169063dd62ed3e9060440160206040518083038186803b15801561084057600080fd5b505afa158015610854573d6000803e3d6000fd5b505050506040513d601f19601f820116820180604052508101906108789190610de9565b61088291906110f7565b60405173ffffffffffffffffffffffffffffffffffffffff85166024820152604481018290529091506103fb9085907f095ea7b3000000000000000000000000000000000000000000000000000000009060640161074c565b600061093d826040518060400160405280602081526020017f5361666545524332303a206c6f772d6c6576656c2063616c6c206661696c65648152508573ffffffffffffffffffffffffffffffffffffffff166109e79092919063ffffffff16565b80519091501561040c578080602001905181019061095b9190610c5f565b61040c576040517f08c379a000000000000000000000000000000000000000000000000000000000815260206004820152602a60248201527f5361666545524332303a204552433230206f7065726174696f6e20646964206e60448201527f6f7420737563636565640000000000000000000000000000000000000000000060648201526084016103f2565b60606109f684846000856109fe565b949350505050565b606082471015610a90576040517f08c379a000000000000000000000000000000000000000000000000000000000815260206004820152602660248201527f416464726573733a20696e73756666696369656e742062616c616e636520666f60448201527f722063616c6c000000000000000000000000000000000000000000000000000060648201526084016103f2565b6000808673ffffffffffffffffffffffffffffffffffffffff168587604051610ab99190610ee4565b60006040518083038185875af1925050503d8060008114610af6576040519150601f19603f3d011682016040523d82523d6000602084013e610afb565b606091505b5091509150610b0c87838387610b17565b979650505050505050565b60608315610baa578251610ba35773ffffffffffffffffffffffffffffffffffffffff85163b610ba3576040517f08c379a000000000000000000000000000000000000000000000000000000000815260206004820152601d60248201527f416464726573733a2063616c6c20746f206e6f6e2d636f6e747261637400000060448201526064016103f2565b50816109f6565b6109f68383815115610bbf5781518083602001fd5b806040517f08c379a00000000000000000000000000000000000000000000000000000000081526004016103f29190610f00565b80518015158114610c0357600080fd5b919050565b600082601f830112610c18578081fd5b8151610c2b610c26826110b1565b611062565b818152846020838601011115610c3f578283fd5b6109f6826020830160208701611134565b805160028110610c0357600080fd5b600060208284031215610c70578081fd5b610c7982610bf3565b9392505050565b600060208284031215610c91578081fd5b815167ffffffffffffffff80821115610ca8578283fd5b9083019060e08286031215610cbb578283fd5b610cc3611016565b82518152610cd360208401610c50565b6020820152604083015182811115610ce9578485fd5b610cf587828601610c08565b604083015250610d0760608401610bf3565b6060820152610d1860808401610bf3565b608082015260a083015160a082015260c083015160c082015280935050505092915050565b600060208284031215610d4e578081fd5b815167ffffffffffffffff80821115610d65578283fd5b9083019060a08286031215610d78578283fd5b610d8061103f565b8251610d8b8161118f565b81526020830151610d9b8161118f565b60208201526040830151610dae8161118f565b604082015260608381015190820152608083015182811115610dce578485fd5b610dda87828601610c08565b60808301525095945050505050565b600060208284031215610dfa578081fd5b5051919050565b60008060008060808587031215610e16578283fd5b84359350602085013592506040850135610e2f8161118f565b9150606085013567ffffffffffffffff811115610e4a578182fd5b8501601f81018713610e5a578182fd5b8035610e68610c26826110b1565b818152886020838501011115610e7c578384fd5b81602084016020830137908101602001929092525092959194509250565b60008151808452610eb2816020860160208601611134565b601f017fffffffffffffffffffffffffffffffffffffffffffffffffffffffffffffffe0169290920160200192915050565b60008251610ef6818460208701611134565b9190910192915050565b602081526000610c796020830184610e9a565b60e08152845160e08201526000602086015160028110610f5a577f4e487b710000000000000000000000000000000000000000000000000000000082526021600452602482fd5b610100830152604086015173ffffffffffffffffffffffffffffffffffffffff908116610120840152606087015116610140830152608086015161016083015260a086015160c0610180840152610fb56101a0840182610e9a565b915050611004602083018673ffffffffffffffffffffffffffffffffffffffff808251168352602082015115156020840152806040830151166040840152506060810151151560608301525050565b60a082019390935260c0015292915050565b60405160e0810167ffffffffffffffff8111828210171561103957611039611160565b60405290565b60405160a0810167ffffffffffffffff8111828210171561103957611039611160565b604051601f82017fffffffffffffffffffffffffffffffffffffffffffffffffffffffffffffffe016810167ffffffffffffffff811182821017156110a9576110a9611160565b604052919050565b600067ffffffffffffffff8211156110cb576110cb611160565b50601f017fffffffffffffffffffffffffffffffffffffffffffffffffffffffffffffffe01660200190565b6000821982111561112f577f4e487b710000000000000000000000000000000000000000000000000000000081526011600452602481fd5b500190565b60005b8381101561114f578181015183820152602001611137565b838111156103fb5750506000910152565b7f4e487b7100000000000000000000000000000000000000000000000000000000600052604160045260246000fd5b73ffffffffffffffffffffffffffffffffffffffff811681146111b157600080fd5b5056fea2646970667358221220d1d4cfb679e7a232035148486f35a975160ae097aafb178848902d5c01e35e9f64736f6c63430008040033",
  "linkReferences": {},
  "deployedLinkReferences": {}
}