{
  "_format": "hh-sol-artifact-1",
  "contractName": "Coin98CurveV2",
  "sourceName": "contracts/CurveV2/Coin98CurveV2.sol",
  "abi": [
    {
      "inputs": [
        {
          "internalType": "address",
          "name": "_weth",
          "type": "address"
        }
      ],
      "stateMutability": "nonpayable",
      "type": "constructor"
    },
    {
      "anonymous": false,
      "inputs": [
        {
          "indexed": true,
          "internalType": "address",
          "name": "previousOwner",
          "type": "address"
        },
        {
          "indexed": true,
          "internalType": "address",
          "name": "newOwner",
          "type": "address"
        }
      ],
      "name": "OwnershipTransferred",
      "type": "event"
    },
    {
      "inputs": [],
      "name": "WETH",
      "outputs": [
        {
          "internalType": "address",
          "name": "",
          "type": "address"
        }
      ],
      "stateMutability": "view",
      "type": "function"
    },
    {
      "inputs": [],
      "name": "owner",
      "outputs": [
        {
          "internalType": "address",
          "name": "",
          "type": "address"
        }
      ],
      "stateMutability": "view",
      "type": "function"
    },
    {
      "inputs": [],
      "name": "renounceOwnership",
      "outputs": [],
      "stateMutability": "nonpayable",
      "type": "function"
    },
    {
      "inputs": [
        {
          "internalType": "uint256",
          "name": "amount0Out",
          "type": "uint256"
        },
        {
          "internalType": "uint256",
          "name": "amount1Out",
          "type": "uint256"
        },
        {
          "internalType": "address payable",
          "name": "to",
          "type": "address"
        },
        {
          "internalType": "bytes",
          "name": "data",
          "type": "bytes"
        }
      ],
      "name": "swap",
      "outputs": [],
      "stateMutability": "payable",
      "type": "function"
    },
    {
      "inputs": [
        {
          "internalType": "address",
          "name": "newOwner",
          "type": "address"
        }
      ],
      "name": "transferOwnership",
      "outputs": [],
      "stateMutability": "nonpayable",
      "type": "function"
    },
    {
      "inputs": [
        {
          "internalType": "address",
          "name": "_token",
          "type": "address"
        }
      ],
      "name": "withdrawStuckERC20",
      "outputs": [],
      "stateMutability": "payable",
      "type": "function"
    }
  ],
  "bytecode": "0x60a060405234801561001057600080fd5b506040516116f63803806116f683398101604081905261002f916100a4565b606081901b6001600160601b03191660805261004a33610054565b50600180556100d2565b600080546001600160a01b038381166001600160a01b0319831681178455604051919092169283917f8be0079c531659141344cd1fd0a4f28419497f9722a3daafe3b4186f6b6457e09190a35050565b6000602082840312156100b5578081fd5b81516001600160a01b03811681146100cb578182fd5b9392505050565b60805160601c6116066100f0600039600061010901526116066000f3fe6080604052600436106100655760003560e01c80638da5cb5b116100435780638da5cb5b146100a7578063ad5c4648146100f7578063f2fde38b1461012b57600080fd5b8063022c0d9f1461006a5780633963510b1461007f578063715018a614610092575b600080fd5b61007d610078366004611331565b61014b565b005b61007d61008d36600461119d565b610303565b34801561009e57600080fd5b5061007d6104e7565b3480156100b357600080fd5b5060005473ffffffffffffffffffffffffffffffffffffffff165b60405173ffffffffffffffffffffffffffffffffffffffff909116815260200160405180910390f35b34801561010357600080fd5b506100ce7f000000000000000000000000000000000000000000000000000000000000000081565b34801561013757600080fd5b5061007d61014636600461119d565b6104fb565b6101536105b7565b6000818060200190518101906101699190611239565b60208101516040517f70a0823100000000000000000000000000000000000000000000000000000000815230600482015291925060009173ffffffffffffffffffffffffffffffffffffffff909116906370a082319060240160206040518083038186803b1580156101da57600080fd5b505afa1580156101ee573d6000803e3d6000fd5b505050506040513d601f19601f820116820180604052508101906102129190611319565b905061023182600001518360200151888560400151866060015161062b565b60208201516040517f70a0823100000000000000000000000000000000000000000000000000000000815230600482015260009173ffffffffffffffffffffffffffffffffffffffff16906370a082319060240160206040518083038186803b15801561029d57600080fd5b505afa1580156102b1573d6000803e3d6000fd5b505050506040513d601f19601f820116820180604052508101906102d59190611319565b90506102f183602001518684846102ec919061150d565b61079e565b5050506102fd60018055565b50505050565b61030b6108b0565b6040517f70a0823100000000000000000000000000000000000000000000000000000000815230600482015260009073ffffffffffffffffffffffffffffffffffffffff8316906370a082319060240160206040518083038186803b15801561037357600080fd5b505afa158015610387573d6000803e3d6000fd5b505050506040513d601f19601f820116820180604052508101906103ab9190611319565b9050478115610496578273ffffffffffffffffffffffffffffffffffffffff1663a9059cbb6103ef60005473ffffffffffffffffffffffffffffffffffffffff1690565b6040517fffffffff0000000000000000000000000000000000000000000000000000000060e084901b16815273ffffffffffffffffffffffffffffffffffffffff909116600482015260248101859052604401602060405180830381600087803b15801561045c57600080fd5b505af1158015610470573d6000803e3d6000fd5b505050506040513d601f19601f8201168201806040525081019061049491906111c0565b505b80156104e2576000805460405173ffffffffffffffffffffffffffffffffffffffff9091169184156108fc02918591818181858888f193505050501580156102fd573d6000803e3d6000fd5b505050565b6104ef6108b0565b6104f96000610931565b565b6105036108b0565b73ffffffffffffffffffffffffffffffffffffffff81166105ab576040517f08c379a000000000000000000000000000000000000000000000000000000000815260206004820152602660248201527f4f776e61626c653a206e6577206f776e657220697320746865207a65726f206160448201527f646472657373000000000000000000000000000000000000000000000000000060648201526084015b60405180910390fd5b6105b481610931565b50565b60026001541415610624576040517f08c379a000000000000000000000000000000000000000000000000000000000815260206004820152601f60248201527f5265656e7472616e637947756172643a207265656e7472616e742063616c6c0060448201526064016105a2565b6002600155565b60008180602001905181019061064191906111da565b90508561064f8482876109a6565b8160400151156106f957815160208301516040517f65b2489b00000000000000000000000000000000000000000000000000000000815260048101929092526024820152604481018690526001606482015273ffffffffffffffffffffffffffffffffffffffff8516906365b2489b90608401600060405180830381600087803b1580156106dc57600080fd5b505af11580156106f0573d6000803e3d6000fd5b50505050610795565b815160208301516040517f5b41b90800000000000000000000000000000000000000000000000000000000815260048101929092526024820152604481018690526001606482015273ffffffffffffffffffffffffffffffffffffffff851690635b41b90890608401600060405180830381600087803b15801561077c57600080fd5b505af1158015610790573d6000803e3d6000fd5b505050505b50505050505050565b80156104e25773ffffffffffffffffffffffffffffffffffffffff831673eeeeeeeeeeeeeeeeeeeeeeeeeeeeeeeeeeeeeeee14156108a55760008273ffffffffffffffffffffffffffffffffffffffff168261271090604051600060405180830381858888f193505050503d8060008114610835576040519150601f19603f3d011682016040523d82523d6000602084013e61083a565b606091505b50509050806102fd576040517f08c379a000000000000000000000000000000000000000000000000000000000815260206004820152601860248201527f4661696c656420746f207472616e73666572204574686572000000000000000060448201526064016105a2565b6104e2838284610af5565b60005473ffffffffffffffffffffffffffffffffffffffff1633146104f9576040517f08c379a000000000000000000000000000000000000000000000000000000000815260206004820181905260248201527f4f776e61626c653a2063616c6c6572206973206e6f7420746865206f776e657260448201526064016105a2565b6000805473ffffffffffffffffffffffffffffffffffffffff8381167fffffffffffffffffffffffff0000000000000000000000000000000000000000831681178455604051919092169283917f8be0079c531659141344cd1fd0a4f28419497f9722a3daafe3b4186f6b6457e09190a35050565b73ffffffffffffffffffffffffffffffffffffffff821673eeeeeeeeeeeeeeeeeeeeeeeeeeeeeeeeeeeeeeee146104e2576040517fdd62ed3e00000000000000000000000000000000000000000000000000000000815230600482015273ffffffffffffffffffffffffffffffffffffffff8481166024830152839160009183169063dd62ed3e9060440160206040518083038186803b158015610a4957600080fd5b505afa158015610a5d573d6000803e3d6000fd5b505050506040513d601f19601f82011682018060405250810190610a819190611319565b905082811015610aee57610aad73ffffffffffffffffffffffffffffffffffffffff8316866000610b54565b610aee73ffffffffffffffffffffffffffffffffffffffff8316867fffffffffffffffffffffffffffffffffffffffffffffffffffffffffffffffff610d63565b5050505050565b60405160c08101604052610b0e565b3d6000803e3d6000fd5b7fa9059cbb0000000000000000000000000000000000000000000000000000000081528160048201528260248201526000806044836000885af16102fd576102fd610b04565b801580610c0357506040517fdd62ed3e00000000000000000000000000000000000000000000000000000000815230600482015273ffffffffffffffffffffffffffffffffffffffff838116602483015284169063dd62ed3e9060440160206040518083038186803b158015610bc957600080fd5b505afa158015610bdd573d6000803e3d6000fd5b505050506040513d601f19601f82011682018060405250810190610c019190611319565b155b610c8f576040517f08c379a000000000000000000000000000000000000000000000000000000000815260206004820152603660248201527f5361666545524332303a20617070726f76652066726f6d206e6f6e2d7a65726f60448201527f20746f206e6f6e2d7a65726f20616c6c6f77616e63650000000000000000000060648201526084016105a2565b60405173ffffffffffffffffffffffffffffffffffffffff83166024820152604481018290526104e29084907f095ea7b300000000000000000000000000000000000000000000000000000000906064015b604080517fffffffffffffffffffffffffffffffffffffffffffffffffffffffffffffffe08184030181529190526020810180517bffffffffffffffffffffffffffffffffffffffffffffffffffffffff167fffffffff0000000000000000000000000000000000000000000000000000000090931692909217909152610e70565b6040517fdd62ed3e00000000000000000000000000000000000000000000000000000000815230600482015273ffffffffffffffffffffffffffffffffffffffff8381166024830152600091839186169063dd62ed3e9060440160206040518083038186803b158015610dd557600080fd5b505afa158015610de9573d6000803e3d6000fd5b505050506040513d601f19601f82011682018060405250810190610e0d9190611319565b610e1791906114f5565b60405173ffffffffffffffffffffffffffffffffffffffff85166024820152604481018290529091506102fd9085907f095ea7b30000000000000000000000000000000000000000000000000000000090606401610ce1565b6000610ed2826040518060400160405280602081526020017f5361666545524332303a206c6f772d6c6576656c2063616c6c206661696c65648152508573ffffffffffffffffffffffffffffffffffffffff16610f7c9092919063ffffffff16565b8051909150156104e25780806020019051810190610ef091906111c0565b6104e2576040517f08c379a000000000000000000000000000000000000000000000000000000000815260206004820152602a60248201527f5361666545524332303a204552433230206f7065726174696f6e20646964206e60448201527f6f7420737563636565640000000000000000000000000000000000000000000060648201526084016105a2565b6060610f8b8484600085610f93565b949350505050565b606082471015611025576040517f08c379a000000000000000000000000000000000000000000000000000000000815260206004820152602660248201527f416464726573733a20696e73756666696369656e742062616c616e636520666f60448201527f722063616c6c000000000000000000000000000000000000000000000000000060648201526084016105a2565b6000808673ffffffffffffffffffffffffffffffffffffffff16858760405161104e91906113ca565b60006040518083038185875af1925050503d806000811461108b576040519150601f19603f3d011682016040523d82523d6000602084013e611090565b606091505b50915091506110a1878383876110ac565b979650505050505050565b6060831561113f5782516111385773ffffffffffffffffffffffffffffffffffffffff85163b611138576040517f08c379a000000000000000000000000000000000000000000000000000000000815260206004820152601d60248201527f416464726573733a2063616c6c20746f206e6f6e2d636f6e747261637400000060448201526064016105a2565b5081610f8b565b610f8b83838151156111545781518083602001fd5b806040517f08c379a00000000000000000000000000000000000000000000000000000000081526004016105a291906113e6565b8051801515811461119857600080fd5b919050565b6000602082840312156111ae578081fd5b81356111b9816115ae565b9392505050565b6000602082840312156111d1578081fd5b6111b982611188565b6000606082840312156111eb578081fd5b6040516060810181811067ffffffffffffffff8211171561120e5761120e61157f565b8060405250825181526020830151602082015261122d60408401611188565b60408201529392505050565b6000602080838503121561124b578182fd5b825167ffffffffffffffff80821115611262578384fd5b9084019060808287031215611275578384fd5b61127d611437565b8251611288816115ae565b815282840151611297816115ae565b8185015260408301516112a9816115ae565b60408201526060830151828111156112bf578586fd5b80840193505086601f8401126112d3578485fd5b825191506112e86112e3836114af565b611460565b82815287858486010111156112fb578586fd5b61130a83868301878701611524565b60608201529695505050505050565b60006020828403121561132a578081fd5b5051919050565b60008060008060808587031215611346578283fd5b8435935060208501359250604085013561135f816115ae565b9150606085013567ffffffffffffffff81111561137a578182fd5b8501601f8101871361138a578182fd5b80356113986112e3826114af565b8181528860208385010111156113ac578384fd5b81602084016020830137908101602001929092525092959194509250565b600082516113dc818460208701611524565b9190910192915050565b6020815260008251806020840152611405816040850160208701611524565b601f017fffffffffffffffffffffffffffffffffffffffffffffffffffffffffffffffe0169190910160400192915050565b6040516080810167ffffffffffffffff8111828210171561145a5761145a61157f565b60405290565b604051601f82017fffffffffffffffffffffffffffffffffffffffffffffffffffffffffffffffe016810167ffffffffffffffff811182821017156114a7576114a761157f565b604052919050565b600067ffffffffffffffff8211156114c9576114c961157f565b50601f017fffffffffffffffffffffffffffffffffffffffffffffffffffffffffffffffe01660200190565b6000821982111561150857611508611550565b500190565b60008282101561151f5761151f611550565b500390565b60005b8381101561153f578181015183820152602001611527565b838111156102fd5750506000910152565b7f4e487b7100000000000000000000000000000000000000000000000000000000600052601160045260246000fd5b7f4e487b7100000000000000000000000000000000000000000000000000000000600052604160045260246000fd5b73ffffffffffffffffffffffffffffffffffffffff811681146105b457600080fdfea26469706673582212205332b89636ba83f57bc82f51a5408bdf2f848acc4ca9daf492dcfa42f59618af64736f6c63430008040033",
  "linkReferences": {},
  "deployedLinkReferences": {}
}