{
  "_format": "hh-sol-artifact-1",
  "contractName": "Coin98Adapter1",
  "sourceName": "contracts/Curve/Coin98Curve.sol",
  "abi": [
    {
      "inputs": [
        {
          "internalType": "uint256",
          "name": "amountIn",
          "type": "uint256"
        },
        {
          "internalType": "address",
          "name": "to",
          "type": "address"
        },
        {
          "internalType": "bytes",
          "name": "data",
          "type": "bytes"
        }
      ],
      "name": "swap",
      "outputs": [],
      "stateMutability": "payable",
      "type": "function"
    }
  ],
  "bytecode": "0x608060405234801561001057600080fd5b506110c6806100206000396000f3fe60806040526004361061001e5760003560e01c80631c6da72414610023575b600080fd5b610036610031366004610e16565b610038565b005b60008180602001905181019061004e9190610d3a565b9050806000015160ff166003146100c6576040517f08c379a000000000000000000000000000000000000000000000000000000000815260206004820152600d60248201527f496e76616c696420726f7574650000000000000000000000000000000000000060448201526064015b60405180910390fd5b6100e3816020015182604001518684606001518560a0015161023f565b60408082015190517f70a0823100000000000000000000000000000000000000000000000000000000815230600482015260009173ffffffffffffffffffffffffffffffffffffffff16906370a082319060240160206040518083038186803b15801561014f57600080fd5b505afa158015610163573d6000803e3d6000fd5b505050506040513d601f19601f820116820180604052508101906101879190610dfe565b60408084015190517fa9059cbb00000000000000000000000000000000000000000000000000000000815273ffffffffffffffffffffffffffffffffffffffff87811660048301526024820184905292935091169063a9059cbb90604401602060405180830381600087803b1580156101ff57600080fd5b505af1158015610213573d6000803e3d6000fd5b505050506040513d601f19601f820116820180604052508101906102379190610ca4565b505050505050565b6000818060200190518101906102559190610cc5565b905061026283878661048f565b80606001511561031057805160208201516040517fa6417ed6000000000000000000000000000000000000000000000000000000008152600f92830b6004820152910b6024820152604481018590526001606482015273ffffffffffffffffffffffffffffffffffffffff84169063a6417ed690608401600060405180830381600087803b1580156102f357600080fd5b505af1158015610307573d6000803e3d6000fd5b50505050610237565b73ffffffffffffffffffffffffffffffffffffffff861673eeeeeeeeeeeeeeeeeeeeeeeeeeeeeeeeeeeeeeee14156103e857805160208201516040517f3df02124000000000000000000000000000000000000000000000000000000008152600f92830b6004820152910b6024820152604481018590526001606482015273ffffffffffffffffffffffffffffffffffffffff841690633df021249086906084016000604051808303818588803b1580156103ca57600080fd5b505af11580156103de573d6000803e3d6000fd5b5050505050610237565b805160208201516040517f3df02124000000000000000000000000000000000000000000000000000000008152600f92830b6004820152910b6024820152604481018590526001606482015273ffffffffffffffffffffffffffffffffffffffff841690633df0212490608401600060405180830381600087803b15801561046f57600080fd5b505af1158015610483573d6000803e3d6000fd5b50505050505050505050565b73ffffffffffffffffffffffffffffffffffffffff821673eeeeeeeeeeeeeeeeeeeeeeeeeeeeeeeeeeeeeeee146105da576040517fdd62ed3e00000000000000000000000000000000000000000000000000000000815230600482015273ffffffffffffffffffffffffffffffffffffffff8481166024830152839160009183169063dd62ed3e9060440160206040518083038186803b15801561053257600080fd5b505afa158015610546573d6000803e3d6000fd5b505050506040513d601f19601f8201168201806040525081019061056a9190610dfe565b9050828110156105d75761059673ffffffffffffffffffffffffffffffffffffffff83168660006105df565b6105d773ffffffffffffffffffffffffffffffffffffffff8316867fffffffffffffffffffffffffffffffffffffffffffffffffffffffffffffffff6107ee565b50505b505050565b80158061068e57506040517fdd62ed3e00000000000000000000000000000000000000000000000000000000815230600482015273ffffffffffffffffffffffffffffffffffffffff838116602483015284169063dd62ed3e9060440160206040518083038186803b15801561065457600080fd5b505afa158015610668573d6000803e3d6000fd5b505050506040513d601f19601f8201168201806040525081019061068c9190610dfe565b155b61071a576040517f08c379a000000000000000000000000000000000000000000000000000000000815260206004820152603660248201527f5361666545524332303a20617070726f76652066726f6d206e6f6e2d7a65726f60448201527f20746f206e6f6e2d7a65726f20616c6c6f77616e63650000000000000000000060648201526084016100bd565b60405173ffffffffffffffffffffffffffffffffffffffff83166024820152604481018290526105da9084907f095ea7b300000000000000000000000000000000000000000000000000000000906064015b604080517fffffffffffffffffffffffffffffffffffffffffffffffffffffffffffffffe08184030181529190526020810180517bffffffffffffffffffffffffffffffffffffffffffffffffffffffff167fffffffff0000000000000000000000000000000000000000000000000000000090931692909217909152610901565b6040517fdd62ed3e00000000000000000000000000000000000000000000000000000000815230600482015273ffffffffffffffffffffffffffffffffffffffff8381166024830152600091839186169063dd62ed3e9060440160206040518083038186803b15801561086057600080fd5b505afa158015610874573d6000803e3d6000fd5b505050506040513d601f19601f820116820180604052508101906108989190610dfe565b6108a29190610fd3565b60405173ffffffffffffffffffffffffffffffffffffffff85166024820152604481018290529091506108fb9085907f095ea7b3000000000000000000000000000000000000000000000000000000009060640161076c565b50505050565b6000610963826040518060400160405280602081526020017f5361666545524332303a206c6f772d6c6576656c2063616c6c206661696c65648152508573ffffffffffffffffffffffffffffffffffffffff16610a0d9092919063ffffffff16565b8051909150156105da57808060200190518101906109819190610ca4565b6105da576040517f08c379a000000000000000000000000000000000000000000000000000000000815260206004820152602a60248201527f5361666545524332303a204552433230206f7065726174696f6e20646964206e60448201527f6f7420737563636565640000000000000000000000000000000000000000000060648201526084016100bd565b6060610a1c8484600085610a24565b949350505050565b606082471015610ab6576040517f08c379a000000000000000000000000000000000000000000000000000000000815260206004820152602660248201527f416464726573733a20696e73756666696369656e742062616c616e636520666f60448201527f722063616c6c000000000000000000000000000000000000000000000000000060648201526084016100bd565b6000808673ffffffffffffffffffffffffffffffffffffffff168587604051610adf9190610ea8565b60006040518083038185875af1925050503d8060008114610b1c576040519150601f19603f3d011682016040523d82523d6000602084013e610b21565b606091505b5091509150610b3287838387610b3d565b979650505050505050565b60608315610bd0578251610bc95773ffffffffffffffffffffffffffffffffffffffff85163b610bc9576040517f08c379a000000000000000000000000000000000000000000000000000000000815260206004820152601d60248201527f416464726573733a2063616c6c20746f206e6f6e2d636f6e747261637400000060448201526064016100bd565b5081610a1c565b610a1c8383815115610be55781518083602001fd5b806040517f08c379a00000000000000000000000000000000000000000000000000000000081526004016100bd9190610ec4565b8051610c248161106b565b919050565b80518015158114610c2457600080fd5b600082601f830112610c49578081fd5b8151610c5c610c5782610f8d565b610f3e565b818152846020838601011115610c70578283fd5b610a1c826020830160208701611010565b8051600f81900b8114610c2457600080fd5b805160ff81168114610c2457600080fd5b600060208284031215610cb5578081fd5b610cbe82610c29565b9392505050565b600060808284031215610cd6578081fd5b6040516080810181811067ffffffffffffffff82111715610cf957610cf961103c565b604052610d0583610c81565b8152610d1360208401610c81565b602082015260408301516040820152610d2e60608401610c29565b60608201529392505050565b600060208284031215610d4b578081fd5b815167ffffffffffffffff80821115610d62578283fd5b9083019060e08286031215610d75578283fd5b610d7d610f15565b610d8683610c93565b8152610d9460208401610c19565b6020820152610da560408401610c19565b6040820152610db660608401610c19565b60608201526080830151608082015260a083015182811115610dd6578485fd5b610de287828601610c39565b60a08301525060c083015160c082015280935050505092915050565b600060208284031215610e0f578081fd5b5051919050565b600080600060608486031215610e2a578182fd5b833592506020840135610e3c8161106b565b9150604084013567ffffffffffffffff811115610e57578182fd5b8401601f81018613610e67578182fd5b8035610e75610c5782610f8d565b818152876020838501011115610e89578384fd5b8160208401602083013783602083830101528093505050509250925092565b60008251610eba818460208701611010565b9190910192915050565b6020815260008251806020840152610ee3816040850160208701611010565b601f017fffffffffffffffffffffffffffffffffffffffffffffffffffffffffffffffe0169190910160400192915050565b60405160e0810167ffffffffffffffff81118282101715610f3857610f3861103c565b60405290565b604051601f82017fffffffffffffffffffffffffffffffffffffffffffffffffffffffffffffffe016810167ffffffffffffffff81118282101715610f8557610f8561103c565b604052919050565b600067ffffffffffffffff821115610fa757610fa761103c565b50601f017fffffffffffffffffffffffffffffffffffffffffffffffffffffffffffffffe01660200190565b6000821982111561100b577f4e487b710000000000000000000000000000000000000000000000000000000081526011600452602481fd5b500190565b60005b8381101561102b578181015183820152602001611013565b838111156108fb5750506000910152565b7f4e487b7100000000000000000000000000000000000000000000000000000000600052604160045260246000fd5b73ffffffffffffffffffffffffffffffffffffffff8116811461108d57600080fd5b5056fea264697066735822122048d55f59458357b9160b8753699dde6a6302a9ead245953ee0220af751ae731464736f6c63430008040033",
  "linkReferences": {},
  "deployedLinkReferences": {}
}