{
  "_format": "hh-sol-artifact-1",
  "contractName": "Coin98Adapter1",
  "sourceName": "contracts/Curve/Coin98Curve.sol",
  "abi": [
    {
      "inputs": [
        {
          "internalType": "uint256",
          "name": "amountIn",
          "type": "uint256"
        },
        {
          "internalType": "address",
          "name": "to",
          "type": "address"
        },
        {
          "internalType": "bytes",
          "name": "data",
          "type": "bytes"
        }
      ],
      "name": "swap",
      "outputs": [],
      "stateMutability": "payable",
      "type": "function"
    }
  ],
  "bytecode": "0x608060405234801561001057600080fd5b50610d07806100206000396000f3fe60806040526004361061001e5760003560e01c80631c6da72414610023575b600080fd5b610036610031366004610a9e565b610038565b005b60008180602001905181019061004e91906109c3565b9050806000015160ff1660031461009c5760405162461bcd60e51b815260206004820152600d60248201526c496e76616c696420726f75746560981b60448201526064015b60405180910390fd5b6100b9816020015182604001518684606001518560a001516101c5565b60408082015190516370a0823160e01b81523060048201526000916001600160a01b0316906370a082319060240160206040518083038186803b1580156100ff57600080fd5b505afa158015610113573d6000803e3d6000fd5b505050506040513d601f19601f820116820180604052508101906101379190610a86565b905081604001516001600160a01b031663a9059cbb85836040518363ffffffff1660e01b815260040161016b929190610b65565b602060405180830381600087803b15801561018557600080fd5b505af1158015610199573d6000803e3d6000fd5b505050506040513d601f19601f820116820180604052508101906101bd919061092e565b505050505050565b6000818060200190518101906101db919061094f565b90506101e8838786610365565b80606001511561025f5780516020820151604051635320bf6b60e11b81526001600160a01b0386169263a6417ed692610228928990600190600401610b7e565b600060405180830381600087803b15801561024257600080fd5b505af1158015610256573d6000803e3d6000fd5b505050506101bd565b6001600160a01b03861673eeeeeeeeeeeeeeeeeeeeeeeeeeeeeeeeeeeeeeee14156102f55780516020820151604051630f7c084960e21b81526001600160a01b03861692633df021249288926102be9291908490600190600401610b7e565b6000604051808303818588803b1580156102d757600080fd5b505af11580156102eb573d6000803e3d6000fd5b50505050506101bd565b80516020820151604051630f7c084960e21b81526001600160a01b03861692633df021249261032b928990600190600401610b7e565b600060405180830381600087803b15801561034557600080fd5b505af1158015610359573d6000803e3d6000fd5b50505050505050505050565b6001600160a01b03821673eeeeeeeeeeeeeeeeeeeeeeeeeeeeeeeeeeeeeeee1461044457604051636eb1769f60e11b815282906000906001600160a01b0383169063dd62ed3e906103bc9030908990600401610b4b565b60206040518083038186803b1580156103d457600080fd5b505afa1580156103e8573d6000803e3d6000fd5b505050506040513d601f19601f8201168201806040525081019061040c9190610a86565b9050828110156104415761042b6001600160a01b038316866000610449565b6104416001600160a01b03831686600019610592565b50505b505050565b8015806104d15750604051636eb1769f60e11b81526001600160a01b0384169063dd62ed3e9061047f9030908690600401610b4b565b60206040518083038186803b15801561049757600080fd5b505afa1580156104ab573d6000803e3d6000fd5b505050506040513d601f19601f820116820180604052508101906104cf9190610a86565b155b61053c5760405162461bcd60e51b815260206004820152603660248201527f5361666545524332303a20617070726f76652066726f6d206e6f6e2d7a65726f60448201527520746f206e6f6e2d7a65726f20616c6c6f77616e636560501b6064820152608401610093565b6104448363095ea7b360e01b848460405160240161055b929190610b65565b60408051601f198184030181529190526020810180516001600160e01b03166001600160e01b031990931692909217909152610644565b600081846001600160a01b031663dd62ed3e30866040518363ffffffff1660e01b81526004016105c3929190610b4b565b60206040518083038186803b1580156105db57600080fd5b505afa1580156105ef573d6000803e3d6000fd5b505050506040513d601f19601f820116820180604052508101906106139190610a86565b61061d9190610c53565b905061063e8463095ea7b360e01b858460405160240161055b929190610b65565b50505050565b6000610699826040518060400160405280602081526020017f5361666545524332303a206c6f772d6c6576656c2063616c6c206661696c6564815250856001600160a01b03166107169092919063ffffffff16565b80519091501561044457808060200190518101906106b7919061092e565b6104445760405162461bcd60e51b815260206004820152602a60248201527f5361666545524332303a204552433230206f7065726174696f6e20646964206e6044820152691bdd081cdd58d8d9595960b21b6064820152608401610093565b6060610725848460008561072d565b949350505050565b60608247101561078e5760405162461bcd60e51b815260206004820152602660248201527f416464726573733a20696e73756666696369656e742062616c616e636520666f6044820152651c8818d85b1b60d21b6064820152608401610093565b600080866001600160a01b031685876040516107aa9190610b2f565b60006040518083038185875af1925050503d80600081146107e7576040519150601f19603f3d011682016040523d82523d6000602084013e6107ec565b606091505b50915091506107fd87838387610808565b979650505050505050565b6060831561087457825161086d576001600160a01b0385163b61086d5760405162461bcd60e51b815260206004820152601d60248201527f416464726573733a2063616c6c20746f206e6f6e2d636f6e74726163740000006044820152606401610093565b5081610725565b61072583838151156108895781518083602001fd5b8060405162461bcd60e51b81526004016100939190610ba1565b80516108ae81610cb9565b919050565b805180151581146108ae57600080fd5b600082601f8301126108d3578081fd5b81516108e66108e182610c2c565b610bfc565b8181528460208386010111156108fa578283fd5b610725826020830160208701610c77565b8051600f81900b81146108ae57600080fd5b805160ff811681146108ae57600080fd5b60006020828403121561093f578081fd5b610948826108b3565b9392505050565b600060808284031215610960578081fd5b604051608081016001600160401b038111828210171561098257610982610ca3565b60405261098e8361090b565b815261099c6020840161090b565b6020820152604083015160408201526109b7606084016108b3565b60608201529392505050565b6000602082840312156109d4578081fd5b81516001600160401b03808211156109ea578283fd5b9083019060e082860312156109fd578283fd5b610a05610bd4565b610a0e8361091d565b8152610a1c602084016108a3565b6020820152610a2d604084016108a3565b6040820152610a3e606084016108a3565b60608201526080830151608082015260a083015182811115610a5e578485fd5b610a6a878286016108c3565b60a08301525060c083015160c082015280935050505092915050565b600060208284031215610a97578081fd5b5051919050565b600080600060608486031215610ab2578182fd5b833592506020840135610ac481610cb9565b915060408401356001600160401b03811115610ade578182fd5b8401601f81018613610aee578182fd5b8035610afc6108e182610c2c565b818152876020838501011115610b10578384fd5b8160208401602083013783602083830101528093505050509250925092565b60008251610b41818460208701610c77565b9190910192915050565b6001600160a01b0392831681529116602082015260400190565b6001600160a01b03929092168252602082015260400190565b600f94850b81529290930b60208301526040820152606081019190915260800190565b6020815260008251806020840152610bc0816040850160208701610c77565b601f01601f19169190910160400192915050565b60405160e081016001600160401b0381118282101715610bf657610bf6610ca3565b60405290565b604051601f8201601f191681016001600160401b0381118282101715610c2457610c24610ca3565b604052919050565b60006001600160401b03821115610c4557610c45610ca3565b50601f01601f191660200190565b60008219821115610c7257634e487b7160e01b81526011600452602481fd5b500190565b60005b83811015610c92578181015183820152602001610c7a565b8381111561063e5750506000910152565b634e487b7160e01b600052604160045260246000fd5b6001600160a01b0381168114610cce57600080fd5b5056fea2646970667358221220c6827bfd702cc90edb09ab84f9a9229cbadd7e70cdfc941e33525aa5c03e761364736f6c63430008040033",
  "linkReferences": {},
  "deployedLinkReferences": {}
}