{
  "_format": "hh-sol-artifact-1",
  "contractName": "Coin98AaveeV2",
  "sourceName": "contracts/AaveeV2/Coin98AaveeV2.sol",
  "abi": [
    {
      "inputs": [
        {
          "internalType": "uint16",
          "name": "_aaveeRefCode",
          "type": "uint16"
        },
        {
          "internalType": "address",
          "name": "_aaveeLendingPool",
          "type": "address"
        },
        {
          "internalType": "address",
          "name": "_aaveeWethGateway",
          "type": "address"
        }
      ],
      "stateMutability": "nonpayable",
      "type": "constructor"
    },
    {
      "inputs": [],
      "name": "lendingPool",
      "outputs": [
        {
          "internalType": "address",
          "name": "",
          "type": "address"
        }
      ],
      "stateMutability": "view",
      "type": "function"
    },
    {
      "inputs": [],
      "name": "refCode",
      "outputs": [
        {
          "internalType": "uint16",
          "name": "",
          "type": "uint16"
        }
      ],
      "stateMutability": "view",
      "type": "function"
    },
    {
      "inputs": [
        {
          "internalType": "uint256",
          "name": "amount0Out",
          "type": "uint256"
        },
        {
          "internalType": "uint256",
          "name": "amount1Out",
          "type": "uint256"
        },
        {
          "internalType": "address",
          "name": "to",
          "type": "address"
        },
        {
          "internalType": "bytes",
          "name": "data",
          "type": "bytes"
        }
      ],
      "name": "swap",
      "outputs": [],
      "stateMutability": "payable",
      "type": "function"
    },
    {
      "inputs": [],
      "name": "wethGateway",
      "outputs": [
        {
          "internalType": "address",
          "name": "",
          "type": "address"
        }
      ],
      "stateMutability": "view",
      "type": "function"
    }
  ],
  "bytecode": "0x60e060405234801561001057600080fd5b506040516200158f3803806200158f83398101604081905261003191610080565b60f09290921b6001600160f01b031916608052606090811b6001600160601b031990811660a05291901b1660c0526100ca565b80516001600160a01b038116811461007b57600080fd5b919050565b600080600060608486031215610094578283fd5b835161ffff811681146100a5578384fd5b92506100b360208501610064565b91506100c160408501610064565b90509250925092565b60805160f01c60a05160601c60c05160601c6114416200014e60003960008181610110015281816103ce0152818161046601526106b001526000818160b701528181610431015281816104cd01528181610545015281816106580152818161071801526107ba015260008181606b01528181610686015261079301526114416000f3fe60806040526004361061003f5760003560e01c8063022c0d9f14610044578063635677f214610059578063a59a9973146100a5578063c5e10eef146100fe575b600080fd5b61005761005236600461118a565b610132565b005b34801561006557600080fd5b5061008d7f000000000000000000000000000000000000000000000000000000000000000081565b60405161ffff90911681526020015b60405180910390f35b3480156100b157600080fd5b506100d97f000000000000000000000000000000000000000000000000000000000000000081565b60405173ffffffffffffffffffffffffffffffffffffffff909116815260200161009c565b34801561010a57600080fd5b506100d97f000000000000000000000000000000000000000000000000000000000000000081565b60008180602001905181019061014891906110ae565b9050806000015160ff166006146101c0576040517f08c379a000000000000000000000000000000000000000000000000000000000815260206004820152600d60248201527f496e76616c696420526f7574650000000000000000000000000000000000000060448201526064015b60405180910390fd5b6101d881602001518260400151878460a00151610335565b60408082015190517f70a0823100000000000000000000000000000000000000000000000000000000815230600482015260009173ffffffffffffffffffffffffffffffffffffffff16906370a082319060240160206040518083038186803b15801561024457600080fd5b505afa158015610258573d6000803e3d6000fd5b505050506040513d601f19601f8201168201806040525081019061027c9190611172565b60408084015190517fa9059cbb00000000000000000000000000000000000000000000000000000000815273ffffffffffffffffffffffffffffffffffffffff87811660048301526024820184905292935091169063a9059cbb90604401602060405180830381600087803b1580156102f457600080fd5b505af1158015610308573d6000803e3d6000fd5b505050506040513d601f19601f8201168201806040525081019061032c919061103c565b50505050505050565b61034184848484610347565b50505050565b60008180602001905181019061035d9190611063565b9050806000015173ffffffffffffffffffffffffffffffffffffffff168573ffffffffffffffffffffffffffffffffffffffff1614156105c75773ffffffffffffffffffffffffffffffffffffffff841673eeeeeeeeeeeeeeeeeeeeeeeeeeeeeeeeeeeeeeee14156104c8576103f47f00000000000000000000000000000000000000000000000000000000000000008685610852565b6040517f80500d2000000000000000000000000000000000000000000000000000000000815273ffffffffffffffffffffffffffffffffffffffff7f000000000000000000000000000000000000000000000000000000000000000081166004830152602482018590523060448301527f000000000000000000000000000000000000000000000000000000000000000016906380500d20906064015b600060405180830381600087803b1580156104ab57600080fd5b505af11580156104bf573d6000803e3d6000fd5b5050505061084b565b6104f37f00000000000000000000000000000000000000000000000000000000000000008685610852565b6040517f69328dec00000000000000000000000000000000000000000000000000000000815273ffffffffffffffffffffffffffffffffffffffff8581166004830152602482018590523060448301527f000000000000000000000000000000000000000000000000000000000000000016906369328dec90606401602060405180830381600087803b15801561058957600080fd5b505af115801561059d573d6000803e3d6000fd5b505050506040513d601f19601f820116820180604052508101906105c19190611172565b5061084b565b805173ffffffffffffffffffffffffffffffffffffffff858116911614156107e95773ffffffffffffffffffffffffffffffffffffffff851673eeeeeeeeeeeeeeeeeeeeeeeeeeeeeeeeeeeeeeee1415610713576040517f474cf53d00000000000000000000000000000000000000000000000000000000815273ffffffffffffffffffffffffffffffffffffffff7f0000000000000000000000000000000000000000000000000000000000000000811660048301523060248301527f000000000000000000000000000000000000000000000000000000000000000061ffff1660448301527f0000000000000000000000000000000000000000000000000000000000000000169063474cf53d9085906064016000604051808303818588803b1580156106f557600080fd5b505af1158015610709573d6000803e3d6000fd5b505050505061084b565b61073e7f00000000000000000000000000000000000000000000000000000000000000008685610852565b6040517fe8eda9df00000000000000000000000000000000000000000000000000000000815273ffffffffffffffffffffffffffffffffffffffff86811660048301526024820185905230604483015261ffff7f00000000000000000000000000000000000000000000000000000000000000001660648301527f0000000000000000000000000000000000000000000000000000000000000000169063e8eda9df90608401610491565b6040517f08c379a000000000000000000000000000000000000000000000000000000000815260206004820152600e60248201527f496e76616c69642061546f6b656e00000000000000000000000000000000000060448201526064016101b7565b5050505050565b73ffffffffffffffffffffffffffffffffffffffff821673eeeeeeeeeeeeeeeeeeeeeeeeeeeeeeeeeeeeeeee1461099a576040517fdd62ed3e00000000000000000000000000000000000000000000000000000000815230600482015273ffffffffffffffffffffffffffffffffffffffff8481166024830152839160009183169063dd62ed3e9060440160206040518083038186803b1580156108f557600080fd5b505afa158015610909573d6000803e3d6000fd5b505050506040513d601f19601f8201168201806040525081019061092d9190611172565b90508281101561084b5761095973ffffffffffffffffffffffffffffffffffffffff831686600061099f565b61084b73ffffffffffffffffffffffffffffffffffffffff8316867fffffffffffffffffffffffffffffffffffffffffffffffffffffffffffffffff610bae565b505050565b801580610a4e57506040517fdd62ed3e00000000000000000000000000000000000000000000000000000000815230600482015273ffffffffffffffffffffffffffffffffffffffff838116602483015284169063dd62ed3e9060440160206040518083038186803b158015610a1457600080fd5b505afa158015610a28573d6000803e3d6000fd5b505050506040513d601f19601f82011682018060405250810190610a4c9190611172565b155b610ada576040517f08c379a000000000000000000000000000000000000000000000000000000000815260206004820152603660248201527f5361666545524332303a20617070726f76652066726f6d206e6f6e2d7a65726f60448201527f20746f206e6f6e2d7a65726f20616c6c6f77616e63650000000000000000000060648201526084016101b7565b60405173ffffffffffffffffffffffffffffffffffffffff831660248201526044810182905261099a9084907f095ea7b300000000000000000000000000000000000000000000000000000000906064015b604080517fffffffffffffffffffffffffffffffffffffffffffffffffffffffffffffffe08184030181529190526020810180517bffffffffffffffffffffffffffffffffffffffffffffffffffffffff167fffffffff0000000000000000000000000000000000000000000000000000000090931692909217909152610cbb565b6040517fdd62ed3e00000000000000000000000000000000000000000000000000000000815230600482015273ffffffffffffffffffffffffffffffffffffffff8381166024830152600091839186169063dd62ed3e9060440160206040518083038186803b158015610c2057600080fd5b505afa158015610c34573d6000803e3d6000fd5b505050506040513d601f19601f82011682018060405250810190610c589190611172565b610c62919061134e565b60405173ffffffffffffffffffffffffffffffffffffffff85166024820152604481018290529091506103419085907f095ea7b30000000000000000000000000000000000000000000000000000000090606401610b2c565b6000610d1d826040518060400160405280602081526020017f5361666545524332303a206c6f772d6c6576656c2063616c6c206661696c65648152508573ffffffffffffffffffffffffffffffffffffffff16610dc79092919063ffffffff16565b80519091501561099a5780806020019051810190610d3b919061103c565b61099a576040517f08c379a000000000000000000000000000000000000000000000000000000000815260206004820152602a60248201527f5361666545524332303a204552433230206f7065726174696f6e20646964206e60448201527f6f7420737563636565640000000000000000000000000000000000000000000060648201526084016101b7565b6060610dd68484600085610dde565b949350505050565b606082471015610e70576040517f08c379a000000000000000000000000000000000000000000000000000000000815260206004820152602660248201527f416464726573733a20696e73756666696369656e742062616c616e636520666f60448201527f722063616c6c000000000000000000000000000000000000000000000000000060648201526084016101b7565b6000808673ffffffffffffffffffffffffffffffffffffffff168587604051610e999190611223565b60006040518083038185875af1925050503d8060008114610ed6576040519150601f19603f3d011682016040523d82523d6000602084013e610edb565b606091505b5091509150610eec87838387610ef7565b979650505050505050565b60608315610f8a578251610f835773ffffffffffffffffffffffffffffffffffffffff85163b610f83576040517f08c379a000000000000000000000000000000000000000000000000000000000815260206004820152601d60248201527f416464726573733a2063616c6c20746f206e6f6e2d636f6e747261637400000060448201526064016101b7565b5081610dd6565b610dd68383815115610f9f5781518083602001fd5b806040517f08c379a00000000000000000000000000000000000000000000000000000000081526004016101b7919061123f565b8051610fde816113e6565b919050565b600082601f830112610ff3578081fd5b815161100661100182611308565b6112b9565b81815284602083860101111561101a578283fd5b610dd682602083016020870161138b565b805160ff81168114610fde57600080fd5b60006020828403121561104d578081fd5b8151801515811461105c578182fd5b9392505050565b600060208284031215611074578081fd5b6040516020810181811067ffffffffffffffff82111715611097576110976113b7565b60405282516110a5816113e6565b81529392505050565b6000602082840312156110bf578081fd5b815167ffffffffffffffff808211156110d6578283fd5b9083019060e082860312156110e9578283fd5b6110f1611290565b6110fa8361102b565b815261110860208401610fd3565b602082015261111960408401610fd3565b604082015261112a60608401610fd3565b60608201526080830151608082015260a08301518281111561114a578485fd5b61115687828601610fe3565b60a08301525060c083015160c082015280935050505092915050565b600060208284031215611183578081fd5b5051919050565b6000806000806080858703121561119f578283fd5b843593506020850135925060408501356111b8816113e6565b9150606085013567ffffffffffffffff8111156111d3578182fd5b8501601f810187136111e3578182fd5b80356111f161100182611308565b818152886020838501011115611205578384fd5b81602084016020830137908101602001929092525092959194509250565b6000825161123581846020870161138b565b9190910192915050565b602081526000825180602084015261125e81604085016020870161138b565b601f017fffffffffffffffffffffffffffffffffffffffffffffffffffffffffffffffe0169190910160400192915050565b60405160e0810167ffffffffffffffff811182821017156112b3576112b36113b7565b60405290565b604051601f82017fffffffffffffffffffffffffffffffffffffffffffffffffffffffffffffffe016810167ffffffffffffffff81118282101715611300576113006113b7565b604052919050565b600067ffffffffffffffff821115611322576113226113b7565b50601f017fffffffffffffffffffffffffffffffffffffffffffffffffffffffffffffffe01660200190565b60008219821115611386577f4e487b710000000000000000000000000000000000000000000000000000000081526011600452602481fd5b500190565b60005b838110156113a657818101518382015260200161138e565b838111156103415750506000910152565b7f4e487b7100000000000000000000000000000000000000000000000000000000600052604160045260246000fd5b73ffffffffffffffffffffffffffffffffffffffff8116811461140857600080fd5b5056fea26469706673582212200d2f5183a0dac4fcb65fb100ab92a220255953ac1dd1bf51fcc9150c971ad70564736f6c63430008040033",
  "linkReferences": {},
  "deployedLinkReferences": {}
}