{
  "_format": "hh-sol-artifact-1",
  "contractName": "Coin98AaveeV2",
  "sourceName": "contracts/AaveeV2/Coin98AaveeV2.sol",
  "abi": [
    {
      "inputs": [
        {
          "internalType": "uint16",
          "name": "_aaveeRefCode",
          "type": "uint16"
        },
        {
          "internalType": "address",
          "name": "_aaveeLendingPool",
          "type": "address"
        },
        {
          "internalType": "address",
          "name": "_aaveeWethGateway",
          "type": "address"
        }
      ],
      "stateMutability": "nonpayable",
      "type": "constructor"
    },
    {
      "inputs": [],
      "name": "lendingPool",
      "outputs": [
        {
          "internalType": "address",
          "name": "",
          "type": "address"
        }
      ],
      "stateMutability": "view",
      "type": "function"
    },
    {
      "inputs": [],
      "name": "refCode",
      "outputs": [
        {
          "internalType": "uint16",
          "name": "",
          "type": "uint16"
        }
      ],
      "stateMutability": "view",
      "type": "function"
    },
    {
      "inputs": [
        {
          "internalType": "uint256",
          "name": "amount0Out",
          "type": "uint256"
        },
        {
          "internalType": "uint256",
          "name": "amount1Out",
          "type": "uint256"
        },
        {
          "internalType": "address",
          "name": "to",
          "type": "address"
        },
        {
          "internalType": "bytes",
          "name": "data",
          "type": "bytes"
        }
      ],
      "name": "swap",
      "outputs": [],
      "stateMutability": "payable",
      "type": "function"
    },
    {
      "inputs": [],
      "name": "wethGateway",
      "outputs": [
        {
          "internalType": "address",
          "name": "",
          "type": "address"
        }
      ],
      "stateMutability": "view",
      "type": "function"
    }
  ],
  "bytecode": "0x60e060405234801561001057600080fd5b5060405161117d38038061117d83398101604081905261002f9161007e565b60f09290921b6001600160f01b031916608052606090811b6001600160601b031990811660a05291901b1660c0526100c8565b80516001600160a01b038116811461007957600080fd5b919050565b600080600060608486031215610092578283fd5b835161ffff811681146100a3578384fd5b92506100b160208501610062565b91506100bf60408501610062565b90509250925092565b60805160f01c60a05160601c60c05160601c61103361014a6000396000818160f80152818161031501528181610352015261055a01526000818160b70152818161037f015281816103e70152818161042401528181610502015281816105c2015261063e015260008181606b01528181610530015261061701526110336000f3fe60806040526004361061003f5760003560e01c8063022c0d9f14610044578063635677f214610059578063a59a9973146100a5578063c5e10eef146100e6575b600080fd5b610057610052366004610daf565b61011a565b005b34801561006557600080fd5b5061008d7f000000000000000000000000000000000000000000000000000000000000000081565b60405161ffff90911681526020015b60405180910390f35b3480156100b157600080fd5b506100d97f000000000000000000000000000000000000000000000000000000000000000081565b60405161009c9190610e63565b3480156100f257600080fd5b506100d97f000000000000000000000000000000000000000000000000000000000000000081565b6000818060200190518101906101309190610cd4565b9050806000015160ff1660061461017e5760405162461bcd60e51b815260206004820152600d60248201526c496e76616c696420526f75746560981b60448201526064015b60405180910390fd5b61019681602001518260400151878460a001516102a7565b600081604001516001600160a01b03166370a08231306040518263ffffffff1660e01b81526004016101c89190610e63565b60206040518083038186803b1580156101e057600080fd5b505afa1580156101f4573d6000803e3d6000fd5b505050506040513d601f19601f820116820180604052508101906102189190610d97565b905081604001516001600160a01b031663a9059cbb85836040518363ffffffff1660e01b815260040161024c929190610e91565b602060405180830381600087803b15801561026657600080fd5b505af115801561027a573d6000803e3d6000fd5b505050506040513d601f19601f8201168201806040525081019061029e9190610c63565b50505050505050565b6102b3848484846102b9565b50505050565b6000818060200190518101906102cf9190610c8a565b905080600001516001600160a01b0316856001600160a01b031614156104b5576102f76106ad565b6001600160a01b0316846001600160a01b031614156103e25761033b7f000000000000000000000000000000000000000000000000000000000000000086856106c5565b604051630402806960e51b81526001600160a01b037f000000000000000000000000000000000000000000000000000000000000000016906380500d20906103ab907f00000000000000000000000000000000000000000000000000000000000000009087903090600401610eaa565b600060405180830381600087803b1580156103c557600080fd5b505af11580156103d9573d6000803e3d6000fd5b505050506106a6565b61040d7f000000000000000000000000000000000000000000000000000000000000000086856106c5565b604051631a4ca37b60e21b81526001600160a01b037f000000000000000000000000000000000000000000000000000000000000000016906369328dec9061045d90879087903090600401610eaa565b602060405180830381600087803b15801561047757600080fd5b505af115801561048b573d6000803e3d6000fd5b505050506040513d601f19601f820116820180604052508101906104af9190610d97565b506106a6565b80516001600160a01b038581169116141561066d576104d26106ad565b6001600160a01b0316856001600160a01b031614156105bd5760405163474cf53d60e01b81526001600160a01b037f0000000000000000000000000000000000000000000000000000000000000000811660048301523060248301527f000000000000000000000000000000000000000000000000000000000000000061ffff1660448301527f0000000000000000000000000000000000000000000000000000000000000000169063474cf53d9085906064016000604051808303818588803b15801561059f57600080fd5b505af11580156105b3573d6000803e3d6000fd5b50505050506106a6565b6105e87f000000000000000000000000000000000000000000000000000000000000000086856106c5565b60405163e8eda9df60e01b81526001600160a01b0386811660048301526024820185905230604483015261ffff7f00000000000000000000000000000000000000000000000000000000000000001660648301527f0000000000000000000000000000000000000000000000000000000000000000169063e8eda9df906084016103ab565b60405162461bcd60e51b815260206004820152600e60248201526d24b73b30b634b21030aa37b5b2b760911b6044820152606401610175565b5050505050565b73eeeeeeeeeeeeeeeeeeeeeeeeeeeeeeeeeeeeeeee90565b6001600160a01b03821673eeeeeeeeeeeeeeeeeeeeeeeeeeeeeeeeeeeeeeee146107a157604051636eb1769f60e11b815282906000906001600160a01b0383169063dd62ed3e9061071c9030908990600401610e77565b60206040518083038186803b15801561073457600080fd5b505afa158015610748573d6000803e3d6000fd5b505050506040513d601f19601f8201168201806040525081019061076c9190610d97565b9050828110156106a65761078b6001600160a01b0383168660006107a6565b6106a66001600160a01b038316866000196108ef565b505050565b80158061082e5750604051636eb1769f60e11b81526001600160a01b0384169063dd62ed3e906107dc9030908690600401610e77565b60206040518083038186803b1580156107f457600080fd5b505afa158015610808573d6000803e3d6000fd5b505050506040513d601f19601f8201168201806040525081019061082c9190610d97565b155b6108995760405162461bcd60e51b815260206004820152603660248201527f5361666545524332303a20617070726f76652066726f6d206e6f6e2d7a65726f60448201527520746f206e6f6e2d7a65726f20616c6c6f77616e636560501b6064820152608401610175565b6107a18363095ea7b360e01b84846040516024016108b8929190610e91565b60408051601f198184030181529190526020810180516001600160e01b03166001600160e01b03199093169290921790915261099b565b600081846001600160a01b031663dd62ed3e30866040518363ffffffff1660e01b8152600401610920929190610e77565b60206040518083038186803b15801561093857600080fd5b505afa15801561094c573d6000803e3d6000fd5b505050506040513d601f19601f820116820180604052508101906109709190610d97565b61097a9190610f7f565b90506102b38463095ea7b360e01b85846040516024016108b8929190610e91565b60006109f0826040518060400160405280602081526020017f5361666545524332303a206c6f772d6c6576656c2063616c6c206661696c6564815250856001600160a01b0316610a6d9092919063ffffffff16565b8051909150156107a15780806020019051810190610a0e9190610c63565b6107a15760405162461bcd60e51b815260206004820152602a60248201527f5361666545524332303a204552433230206f7065726174696f6e20646964206e6044820152691bdd081cdd58d8d9595960b21b6064820152608401610175565b6060610a7c8484600085610a84565b949350505050565b606082471015610ae55760405162461bcd60e51b815260206004820152602660248201527f416464726573733a20696e73756666696369656e742062616c616e636520666f6044820152651c8818d85b1b60d21b6064820152608401610175565b600080866001600160a01b03168587604051610b019190610e47565b60006040518083038185875af1925050503d8060008114610b3e576040519150601f19603f3d011682016040523d82523d6000602084013e610b43565b606091505b5091509150610b5487838387610b5f565b979650505050505050565b60608315610bcb578251610bc4576001600160a01b0385163b610bc45760405162461bcd60e51b815260206004820152601d60248201527f416464726573733a2063616c6c20746f206e6f6e2d636f6e74726163740000006044820152606401610175565b5081610a7c565b610a7c8383815115610be05781518083602001fd5b8060405162461bcd60e51b81526004016101759190610ecd565b8051610c0581610fe5565b919050565b600082601f830112610c1a578081fd5b8151610c2d610c2882610f58565b610f28565b818152846020838601011115610c41578283fd5b610a7c826020830160208701610fa3565b805160ff81168114610c0557600080fd5b600060208284031215610c74578081fd5b81518015158114610c83578182fd5b9392505050565b600060208284031215610c9b578081fd5b604051602081016001600160401b0381118282101715610cbd57610cbd610fcf565b6040528251610ccb81610fe5565b81529392505050565b600060208284031215610ce5578081fd5b81516001600160401b0380821115610cfb578283fd5b9083019060e08286031215610d0e578283fd5b610d16610f00565b610d1f83610c52565b8152610d2d60208401610bfa565b6020820152610d3e60408401610bfa565b6040820152610d4f60608401610bfa565b60608201526080830151608082015260a083015182811115610d6f578485fd5b610d7b87828601610c0a565b60a08301525060c083015160c082015280935050505092915050565b600060208284031215610da8578081fd5b5051919050565b60008060008060808587031215610dc4578283fd5b84359350602085013592506040850135610ddd81610fe5565b915060608501356001600160401b03811115610df7578182fd5b8501601f81018713610e07578182fd5b8035610e15610c2882610f58565b818152886020838501011115610e29578384fd5b81602084016020830137908101602001929092525092959194509250565b60008251610e59818460208701610fa3565b9190910192915050565b6001600160a01b0391909116815260200190565b6001600160a01b0392831681529116602082015260400190565b6001600160a01b03929092168252602082015260400190565b6001600160a01b0393841681526020810192909252909116604082015260600190565b6020815260008251806020840152610eec816040850160208701610fa3565b601f01601f19169190910160400192915050565b60405160e081016001600160401b0381118282101715610f2257610f22610fcf565b60405290565b604051601f8201601f191681016001600160401b0381118282101715610f5057610f50610fcf565b604052919050565b60006001600160401b03821115610f7157610f71610fcf565b50601f01601f191660200190565b60008219821115610f9e57634e487b7160e01b81526011600452602481fd5b500190565b60005b83811015610fbe578181015183820152602001610fa6565b838111156102b35750506000910152565b634e487b7160e01b600052604160045260246000fd5b6001600160a01b0381168114610ffa57600080fd5b5056fea2646970667358221220ceb560afc1224f9af44ac974e6b80fe49eac533c54d277f09713a351ec96abc064736f6c63430008040033",
  "linkReferences": {},
  "deployedLinkReferences": {}
}