{
  "_format": "hh-sol-artifact-1",
  "contractName": "PancakeStableSwap",
  "sourceName": "contracts/PancakeStableSwap/PancakeStableSwap.sol",
  "abi": [
    {
      "inputs": [],
      "stateMutability": "nonpayable",
      "type": "constructor"
    },
    {
      "anonymous": false,
      "inputs": [
        {
          "indexed": true,
          "internalType": "address",
          "name": "provider",
          "type": "address"
        },
        {
          "indexed": false,
          "internalType": "uint256[2]",
          "name": "token_amounts",
          "type": "uint256[2]"
        },
        {
          "indexed": false,
          "internalType": "uint256[2]",
          "name": "fees",
          "type": "uint256[2]"
        },
        {
          "indexed": false,
          "internalType": "uint256",
          "name": "invariant",
          "type": "uint256"
        },
        {
          "indexed": false,
          "internalType": "uint256",
          "name": "token_supply",
          "type": "uint256"
        }
      ],
      "name": "AddLiquidity",
      "type": "event"
    },
    {
      "anonymous": false,
      "inputs": [
        {
          "indexed": true,
          "internalType": "uint256",
          "name": "deadline",
          "type": "uint256"
        },
        {
          "indexed": false,
          "internalType": "uint256",
          "name": "fee",
          "type": "uint256"
        },
        {
          "indexed": false,
          "internalType": "uint256",
          "name": "admin_fee",
          "type": "uint256"
        }
      ],
      "name": "CommitNewFee",
      "type": "event"
    },
    {
      "anonymous": false,
      "inputs": [
        {
          "indexed": false,
          "internalType": "uint256",
          "name": "fee",
          "type": "uint256"
        },
        {
          "indexed": false,
          "internalType": "uint256",
          "name": "admin_fee",
          "type": "uint256"
        }
      ],
      "name": "NewFee",
      "type": "event"
    },
    {
      "anonymous": false,
      "inputs": [
        {
          "indexed": true,
          "internalType": "address",
          "name": "previousOwner",
          "type": "address"
        },
        {
          "indexed": true,
          "internalType": "address",
          "name": "newOwner",
          "type": "address"
        }
      ],
      "name": "OwnershipTransferred",
      "type": "event"
    },
    {
      "anonymous": false,
      "inputs": [
        {
          "indexed": false,
          "internalType": "uint256",
          "name": "old_A",
          "type": "uint256"
        },
        {
          "indexed": false,
          "internalType": "uint256",
          "name": "new_A",
          "type": "uint256"
        },
        {
          "indexed": false,
          "internalType": "uint256",
          "name": "initial_time",
          "type": "uint256"
        },
        {
          "indexed": false,
          "internalType": "uint256",
          "name": "future_time",
          "type": "uint256"
        }
      ],
      "name": "RampA",
      "type": "event"
    },
    {
      "anonymous": false,
      "inputs": [
        {
          "indexed": true,
          "internalType": "address",
          "name": "provider",
          "type": "address"
        },
        {
          "indexed": false,
          "internalType": "uint256[2]",
          "name": "token_amounts",
          "type": "uint256[2]"
        },
        {
          "indexed": false,
          "internalType": "uint256[2]",
          "name": "fees",
          "type": "uint256[2]"
        },
        {
          "indexed": false,
          "internalType": "uint256",
          "name": "token_supply",
          "type": "uint256"
        }
      ],
      "name": "RemoveLiquidity",
      "type": "event"
    },
    {
      "anonymous": false,
      "inputs": [
        {
          "indexed": true,
          "internalType": "address",
          "name": "provider",
          "type": "address"
        },
        {
          "indexed": false,
          "internalType": "uint256[2]",
          "name": "token_amounts",
          "type": "uint256[2]"
        },
        {
          "indexed": false,
          "internalType": "uint256[2]",
          "name": "fees",
          "type": "uint256[2]"
        },
        {
          "indexed": false,
          "internalType": "uint256",
          "name": "invariant",
          "type": "uint256"
        },
        {
          "indexed": false,
          "internalType": "uint256",
          "name": "token_supply",
          "type": "uint256"
        }
      ],
      "name": "RemoveLiquidityImbalance",
      "type": "event"
    },
    {
      "anonymous": false,
      "inputs": [
        {
          "indexed": true,
          "internalType": "address",
          "name": "provider",
          "type": "address"
        },
        {
          "indexed": false,
          "internalType": "uint256",
          "name": "token_amount",
          "type": "uint256"
        },
        {
          "indexed": false,
          "internalType": "uint256",
          "name": "coin_amount",
          "type": "uint256"
        }
      ],
      "name": "RemoveLiquidityOne",
      "type": "event"
    },
    {
      "anonymous": false,
      "inputs": [
        {
          "indexed": false,
          "internalType": "uint256",
          "name": "A",
          "type": "uint256"
        },
        {
          "indexed": false,
          "internalType": "uint256",
          "name": "t",
          "type": "uint256"
        }
      ],
      "name": "StopRampA",
      "type": "event"
    },
    {
      "anonymous": false,
      "inputs": [
        {
          "indexed": true,
          "internalType": "address",
          "name": "buyer",
          "type": "address"
        },
        {
          "indexed": false,
          "internalType": "uint256",
          "name": "sold_id",
          "type": "uint256"
        },
        {
          "indexed": false,
          "internalType": "uint256",
          "name": "tokens_sold",
          "type": "uint256"
        },
        {
          "indexed": false,
          "internalType": "uint256",
          "name": "bought_id",
          "type": "uint256"
        },
        {
          "indexed": false,
          "internalType": "uint256",
          "name": "tokens_bought",
          "type": "uint256"
        }
      ],
      "name": "TokenExchange",
      "type": "event"
    },
    {
      "inputs": [],
      "name": "A",
      "outputs": [
        {
          "internalType": "uint256",
          "name": "",
          "type": "uint256"
        }
      ],
      "stateMutability": "view",
      "type": "function"
    },
    {
      "inputs": [],
      "name": "ADMIN_ACTIONS_DELAY",
      "outputs": [
        {
          "internalType": "uint256",
          "name": "",
          "type": "uint256"
        }
      ],
      "stateMutability": "view",
      "type": "function"
    },
    {
      "inputs": [],
      "name": "FEE_DENOMINATOR",
      "outputs": [
        {
          "internalType": "uint256",
          "name": "",
          "type": "uint256"
        }
      ],
      "stateMutability": "view",
      "type": "function"
    },
    {
      "inputs": [],
      "name": "KILL_DEADLINE_DT",
      "outputs": [
        {
          "internalType": "uint256",
          "name": "",
          "type": "uint256"
        }
      ],
      "stateMutability": "view",
      "type": "function"
    },
    {
      "inputs": [],
      "name": "MAX_A",
      "outputs": [
        {
          "internalType": "uint256",
          "name": "",
          "type": "uint256"
        }
      ],
      "stateMutability": "view",
      "type": "function"
    },
    {
      "inputs": [],
      "name": "MAX_ADMIN_FEE",
      "outputs": [
        {
          "internalType": "uint256",
          "name": "",
          "type": "uint256"
        }
      ],
      "stateMutability": "view",
      "type": "function"
    },
    {
      "inputs": [],
      "name": "MAX_A_CHANGE",
      "outputs": [
        {
          "internalType": "uint256",
          "name": "",
          "type": "uint256"
        }
      ],
      "stateMutability": "view",
      "type": "function"
    },
    {
      "inputs": [],
      "name": "MAX_DECIMAL",
      "outputs": [
        {
          "internalType": "uint256",
          "name": "",
          "type": "uint256"
        }
      ],
      "stateMutability": "view",
      "type": "function"
    },
    {
      "inputs": [],
      "name": "MAX_FEE",
      "outputs": [
        {
          "internalType": "uint256",
          "name": "",
          "type": "uint256"
        }
      ],
      "stateMutability": "view",
      "type": "function"
    },
    {
      "inputs": [],
      "name": "MIN_RAMP_TIME",
      "outputs": [
        {
          "internalType": "uint256",
          "name": "",
          "type": "uint256"
        }
      ],
      "stateMutability": "view",
      "type": "function"
    },
    {
      "inputs": [],
      "name": "N_COINS",
      "outputs": [
        {
          "internalType": "uint256",
          "name": "",
          "type": "uint256"
        }
      ],
      "stateMutability": "view",
      "type": "function"
    },
    {
      "inputs": [],
      "name": "PRECISION",
      "outputs": [
        {
          "internalType": "uint256",
          "name": "",
          "type": "uint256"
        }
      ],
      "stateMutability": "view",
      "type": "function"
    },
    {
      "inputs": [
        {
          "internalType": "uint256",
          "name": "",
          "type": "uint256"
        }
      ],
      "name": "PRECISION_MUL",
      "outputs": [
        {
          "internalType": "uint256",
          "name": "",
          "type": "uint256"
        }
      ],
      "stateMutability": "view",
      "type": "function"
    },
    {
      "inputs": [
        {
          "internalType": "uint256",
          "name": "",
          "type": "uint256"
        }
      ],
      "name": "RATES",
      "outputs": [
        {
          "internalType": "uint256",
          "name": "",
          "type": "uint256"
        }
      ],
      "stateMutability": "view",
      "type": "function"
    },
    {
      "inputs": [],
      "name": "STABLESWAP_FACTORY",
      "outputs": [
        {
          "internalType": "address",
          "name": "",
          "type": "address"
        }
      ],
      "stateMutability": "view",
      "type": "function"
    },
    {
      "inputs": [
        {
          "internalType": "uint256[2]",
          "name": "amounts",
          "type": "uint256[2]"
        },
        {
          "internalType": "uint256",
          "name": "min_mint_amount",
          "type": "uint256"
        }
      ],
      "name": "add_liquidity",
      "outputs": [],
      "stateMutability": "nonpayable",
      "type": "function"
    },
    {
      "inputs": [],
      "name": "admin_actions_deadline",
      "outputs": [
        {
          "internalType": "uint256",
          "name": "",
          "type": "uint256"
        }
      ],
      "stateMutability": "view",
      "type": "function"
    },
    {
      "inputs": [
        {
          "internalType": "uint256",
          "name": "i",
          "type": "uint256"
        }
      ],
      "name": "admin_balances",
      "outputs": [
        {
          "internalType": "uint256",
          "name": "",
          "type": "uint256"
        }
      ],
      "stateMutability": "view",
      "type": "function"
    },
    {
      "inputs": [],
      "name": "admin_fee",
      "outputs": [
        {
          "internalType": "uint256",
          "name": "",
          "type": "uint256"
        }
      ],
      "stateMutability": "view",
      "type": "function"
    },
    {
      "inputs": [],
      "name": "apply_new_fee",
      "outputs": [],
      "stateMutability": "nonpayable",
      "type": "function"
    },
    {
      "inputs": [
        {
          "internalType": "uint256",
          "name": "",
          "type": "uint256"
        }
      ],
      "name": "balances",
      "outputs": [
        {
          "internalType": "uint256",
          "name": "",
          "type": "uint256"
        }
      ],
      "stateMutability": "view",
      "type": "function"
    },
    {
      "inputs": [
        {
          "internalType": "uint256[2]",
          "name": "amounts",
          "type": "uint256[2]"
        },
        {
          "internalType": "bool",
          "name": "deposit",
          "type": "bool"
        }
      ],
      "name": "calc_token_amount",
      "outputs": [
        {
          "internalType": "uint256",
          "name": "",
          "type": "uint256"
        }
      ],
      "stateMutability": "view",
      "type": "function"
    },
    {
      "inputs": [
        {
          "internalType": "uint256",
          "name": "_token_amount",
          "type": "uint256"
        },
        {
          "internalType": "uint256",
          "name": "i",
          "type": "uint256"
        }
      ],
      "name": "calc_withdraw_one_coin",
      "outputs": [
        {
          "internalType": "uint256",
          "name": "",
          "type": "uint256"
        }
      ],
      "stateMutability": "view",
      "type": "function"
    },
    {
      "inputs": [
        {
          "internalType": "uint256",
          "name": "",
          "type": "uint256"
        }
      ],
      "name": "coins",
      "outputs": [
        {
          "internalType": "address",
          "name": "",
          "type": "address"
        }
      ],
      "stateMutability": "view",
      "type": "function"
    },
    {
      "inputs": [
        {
          "internalType": "uint256",
          "name": "new_fee",
          "type": "uint256"
        },
        {
          "internalType": "uint256",
          "name": "new_admin_fee",
          "type": "uint256"
        }
      ],
      "name": "commit_new_fee",
      "outputs": [],
      "stateMutability": "nonpayable",
      "type": "function"
    },
    {
      "inputs": [],
      "name": "donate_admin_fees",
      "outputs": [],
      "stateMutability": "nonpayable",
      "type": "function"
    },
    {
      "inputs": [
        {
          "internalType": "uint256",
          "name": "i",
          "type": "uint256"
        },
        {
          "internalType": "uint256",
          "name": "j",
          "type": "uint256"
        },
        {
          "internalType": "uint256",
          "name": "dx",
          "type": "uint256"
        },
        {
          "internalType": "uint256",
          "name": "min_dy",
          "type": "uint256"
        }
      ],
      "name": "exchange",
      "outputs": [],
      "stateMutability": "nonpayable",
      "type": "function"
    },
    {
      "inputs": [],
      "name": "fee",
      "outputs": [
        {
          "internalType": "uint256",
          "name": "",
          "type": "uint256"
        }
      ],
      "stateMutability": "view",
      "type": "function"
    },
    {
      "inputs": [],
      "name": "future_A",
      "outputs": [
        {
          "internalType": "uint256",
          "name": "",
          "type": "uint256"
        }
      ],
      "stateMutability": "view",
      "type": "function"
    },
    {
      "inputs": [],
      "name": "future_A_time",
      "outputs": [
        {
          "internalType": "uint256",
          "name": "",
          "type": "uint256"
        }
      ],
      "stateMutability": "view",
      "type": "function"
    },
    {
      "inputs": [],
      "name": "future_admin_fee",
      "outputs": [
        {
          "internalType": "uint256",
          "name": "",
          "type": "uint256"
        }
      ],
      "stateMutability": "view",
      "type": "function"
    },
    {
      "inputs": [],
      "name": "future_fee",
      "outputs": [
        {
          "internalType": "uint256",
          "name": "",
          "type": "uint256"
        }
      ],
      "stateMutability": "view",
      "type": "function"
    },
    {
      "inputs": [
        {
          "internalType": "uint256",
          "name": "i",
          "type": "uint256"
        },
        {
          "internalType": "uint256",
          "name": "j",
          "type": "uint256"
        },
        {
          "internalType": "uint256",
          "name": "dx",
          "type": "uint256"
        }
      ],
      "name": "get_dy",
      "outputs": [
        {
          "internalType": "uint256",
          "name": "",
          "type": "uint256"
        }
      ],
      "stateMutability": "view",
      "type": "function"
    },
    {
      "inputs": [
        {
          "internalType": "uint256",
          "name": "i",
          "type": "uint256"
        },
        {
          "internalType": "uint256",
          "name": "j",
          "type": "uint256"
        },
        {
          "internalType": "uint256",
          "name": "dx",
          "type": "uint256"
        }
      ],
      "name": "get_dy_underlying",
      "outputs": [
        {
          "internalType": "uint256",
          "name": "",
          "type": "uint256"
        }
      ],
      "stateMutability": "view",
      "type": "function"
    },
    {
      "inputs": [],
      "name": "get_virtual_price",
      "outputs": [
        {
          "internalType": "uint256",
          "name": "",
          "type": "uint256"
        }
      ],
      "stateMutability": "view",
      "type": "function"
    },
    {
      "inputs": [],
      "name": "initial_A",
      "outputs": [
        {
          "internalType": "uint256",
          "name": "",
          "type": "uint256"
        }
      ],
      "stateMutability": "view",
      "type": "function"
    },
    {
      "inputs": [],
      "name": "initial_A_time",
      "outputs": [
        {
          "internalType": "uint256",
          "name": "",
          "type": "uint256"
        }
      ],
      "stateMutability": "view",
      "type": "function"
    },
    {
      "inputs": [
        {
          "internalType": "address[2]",
          "name": "_coins",
          "type": "address[2]"
        },
        {
          "internalType": "uint256",
          "name": "_A",
          "type": "uint256"
        },
        {
          "internalType": "uint256",
          "name": "_fee",
          "type": "uint256"
        },
        {
          "internalType": "uint256",
          "name": "_admin_fee",
          "type": "uint256"
        },
        {
          "internalType": "address",
          "name": "_owner",
          "type": "address"
        }
      ],
      "name": "initialize",
      "outputs": [],
      "stateMutability": "nonpayable",
      "type": "function"
    },
    {
      "inputs": [],
      "name": "isInitialized",
      "outputs": [
        {
          "internalType": "bool",
          "name": "",
          "type": "bool"
        }
      ],
      "stateMutability": "view",
      "type": "function"
    },
    {
      "inputs": [],
      "name": "is_killed",
      "outputs": [
        {
          "internalType": "bool",
          "name": "",
          "type": "bool"
        }
      ],
      "stateMutability": "view",
      "type": "function"
    },
    {
      "inputs": [],
      "name": "kill_deadline",
      "outputs": [
        {
          "internalType": "uint256",
          "name": "",
          "type": "uint256"
        }
      ],
      "stateMutability": "view",
      "type": "function"
    },
    {
      "inputs": [],
      "name": "kill_me",
      "outputs": [],
      "stateMutability": "nonpayable",
      "type": "function"
    },
    {
      "inputs": [],
      "name": "owner",
      "outputs": [
        {
          "internalType": "address",
          "name": "",
          "type": "address"
        }
      ],
      "stateMutability": "view",
      "type": "function"
    },
    {
      "inputs": [
        {
          "internalType": "uint256",
          "name": "_future_A",
          "type": "uint256"
        },
        {
          "internalType": "uint256",
          "name": "_future_time",
          "type": "uint256"
        }
      ],
      "name": "ramp_A",
      "outputs": [],
      "stateMutability": "nonpayable",
      "type": "function"
    },
    {
      "inputs": [
        {
          "internalType": "uint256",
          "name": "_amount",
          "type": "uint256"
        },
        {
          "internalType": "uint256[2]",
          "name": "min_amounts",
          "type": "uint256[2]"
        }
      ],
      "name": "remove_liquidity",
      "outputs": [],
      "stateMutability": "nonpayable",
      "type": "function"
    },
    {
      "inputs": [
        {
          "internalType": "uint256[2]",
          "name": "amounts",
          "type": "uint256[2]"
        },
        {
          "internalType": "uint256",
          "name": "max_burn_amount",
          "type": "uint256"
        }
      ],
      "name": "remove_liquidity_imbalance",
      "outputs": [],
      "stateMutability": "nonpayable",
      "type": "function"
    },
    {
      "inputs": [
        {
          "internalType": "uint256",
          "name": "_token_amount",
          "type": "uint256"
        },
        {
          "internalType": "uint256",
          "name": "i",
          "type": "uint256"
        },
        {
          "internalType": "uint256",
          "name": "min_amount",
          "type": "uint256"
        }
      ],
      "name": "remove_liquidity_one_coin",
      "outputs": [],
      "stateMutability": "nonpayable",
      "type": "function"
    },
    {
      "inputs": [],
      "name": "renounceOwnership",
      "outputs": [],
      "stateMutability": "nonpayable",
      "type": "function"
    },
    {
      "inputs": [],
      "name": "revert_new_parameters",
      "outputs": [],
      "stateMutability": "nonpayable",
      "type": "function"
    },
    {
      "inputs": [],
      "name": "stop_rampget_A",
      "outputs": [],
      "stateMutability": "nonpayable",
      "type": "function"
    },
    {
      "inputs": [],
      "name": "token",
      "outputs": [
        {
          "internalType": "contract PancakeStableSwapLP",
          "name": "",
          "type": "address"
        }
      ],
      "stateMutability": "view",
      "type": "function"
    },
    {
      "inputs": [
        {
          "internalType": "address",
          "name": "newOwner",
          "type": "address"
        }
      ],
      "name": "transferOwnership",
      "outputs": [],
      "stateMutability": "nonpayable",
      "type": "function"
    },
    {
      "inputs": [],
      "name": "unkill_me",
      "outputs": [],
      "stateMutability": "nonpayable",
      "type": "function"
    },
    {
      "inputs": [],
      "name": "withdraw_admin_fees",
      "outputs": [],
      "stateMutability": "nonpayable",
      "type": "function"
    }
  ],
  "bytecode": "0x60a06040523480156200001157600080fd5b506200001d336200002e565b600180553360601b6080526200007e565b600080546001600160a01b038381166001600160a01b0319831681178455604051919092169283917f8be0079c531659141344cd1fd0a4f28419497f9722a3daafe3b4186f6b6457e09190a35050565b60805160601c61551d620000a4600039600081816104c90152610dbc015261551d6000f3fe60806040523480156200001157600080fd5b5060043610620002aa5760003560e01c806306e9481c14620002af5780630b4c7e4d14620002cd5780631405228814620002e65780632081066c14620002f0578063226840fb14620002fa5780632935775014620003045780632a426896146200030d5780632e83739514620003175780633046f972146200032e57806330c540851462000338578063392e53cd14620003425780633969841514620003665780633c157e641462000371578063405e28f814620003885780634903b0d114620003925780634f12fe9714620003a95780634fb08c5e14620003b3578063524c390114620003ca5780635409491a14620003d4578063556d6e9f14620003de57806358680d0b14620003f55780635b36389c14620003ff5780635b41b90814620004165780635b5a1467146200042d57806362203d7414620004445780636d4366b7146200045b578063715018a614620004645780637dafa364146200046e57806385f11d1e14620004855780638da5cb5b146200049c5780639c868ac014620004b5578063a6b0a71814620004c3578063aaf5eb6814620004eb578063ab5ac06114620004fb578063b4b577ad1462000504578063bb7b8b80146200050e578063bc063e1a1462000518578063c66106571462000525578063ca8ca154146200053c578063d73792a91462000546578063ddca3f431462000553578063e2e7d264146200055d578063e31032731462000574578063e3698853146200058b578063e38244621462000595578063e5d9e903146200059f578063ed8e84f314620005aa578063edfb780114620005c1578063f1dc3cc914620005cc578063f2fde38b14620005e3578063f3de03621462000546578063f446c1d014620005fa578063fc0c546a1462000604578063fee3f7f91462000618575b600080fd5b620002ba6201518081565b6040519081526020015b60405180910390f35b620002e4620002de36600462004276565b62000622565b005b620002ba60105481565b620002ba600f5481565b620002e462000d46565b620002ba600281565b620002ba60145481565b620002e46200032836600462004198565b62000d57565b620002e462001130565b620002e462001146565b6015546200035590610100900460ff1681565b6040519015158152602001620002c4565b620002ba620f424081565b620002e46200038236600462004323565b6200127c565b620002ba60115481565b620002ba620003a3366004620042c2565b6200146e565b620002e462001486565b620002ba620003c436600462004323565b6200156c565b620002e462001586565b620002ba600d5481565b620002ba620003ef36600462004345565b6200167d565b620002ba60125481565b620002e462000410366004620042f4565b6200181b565b620002e46200042736600462004371565b62001b10565b620002e46200043e36600462004323565b62001f3b565b620002ba62000455366004620042c2565b6200209b565b620002ba601281565b620002e4620020ac565b620002ba6200047f366004620042c2565b620020c4565b620002ba6200049636600462004345565b620020d5565b620004a6620021fa565b604051620002c491906200445f565b601554620003559060ff1681565b620004a67f000000000000000000000000000000000000000000000000000000000000000081565b620002ba670de0b6b3a764000081565b620002ba600a81565b620002ba600e5481565b620002ba62002209565b620002ba64012a05f20081565b620004a662000536366004620042c2565b620022e2565b620002e462002303565b620002ba6402540be40081565b620002ba600a5481565b620002ba6200056e366004620042c2565b62002374565b620002e46200058536600462004276565b6200244d565b620002e462002ae2565b620002ba60135481565b620002ba6203f48081565b620002ba620005bb3660046200423a565b62002b42565b620002ba624f1a0081565b620002e4620005dd36600462004345565b62002d70565b620002e4620005f43660046200417b565b62002f43565b620002ba62002fbf565b600c54620004a6906001600160a01b031681565b620002ba600b5481565b6200062c62002fd0565b60155460ff16156200065b5760405162461bcd60e51b815260040162000652906200451f565b60405180910390fd5b6200066562004036565b6000620006756001600262004752565b6200068290600462004730565b6002600a5462000693919062004730565b6200069f91906200460a565b600b549091506000620006b16200302c565b90506000600c60009054906101000a90046001600160a01b03166001600160a01b03166318160ddd6040518163ffffffff1660e01b815260040160206040518083038186803b1580156200070457600080fd5b505afa15801562000719573d6000803e3d6000fd5b505050506040513d601f19601f820116820180604052508101906200073f9190620042db565b6040805180820191829052919250600091829160089060029082845b8154815260200190600101908083116200075b575050505050905060008311156200078f576200078c8185620030e7565b91505b8060005b6002811015620008b85784620008255760008b8260028110620007c657634e487b7160e01b600052603260045260246000fd5b602002015111620008255760405162461bcd60e51b815260206004820152602260248201527f496e697469616c206465706f73697420726571756972657320616c6c20636f696044820152616e7360f01b606482015260840162000652565b8a81600281106200084657634e487b7160e01b600052603260045260246000fd5b60200201518382600281106200086c57634e487b7160e01b600052603260045260246000fd5b60200201516200087d9190620045ef565b8282600281106200089e57634e487b7160e01b600052603260045260246000fd5b602002015280620008af816200479b565b91505062000793565b506000620008c78287620030e7565b9050838111620009175760405162461bcd60e51b815260206004820152601a60248201527904431206d7573742062652067726561746572207468616e2044360341b604482015260640162000652565b80851562000b795760005b600281101562000b64576000868683600281106200095057634e487b7160e01b600052603260045260246000fd5b602002015162000961908662004730565b6200096d91906200460a565b905060008583600281106200099257634e487b7160e01b600052603260045260246000fd5b6020020151821115620009d957858360028110620009c057634e487b7160e01b600052603260045260246000fd5b6020020151620009d1908362004752565b905062000a0f565b81868460028110620009fb57634e487b7160e01b600052603260045260246000fd5b602002015162000a0c919062004752565b90505b6402540be40062000a21828e62004730565b62000a2d91906200460a565b8d846002811062000a4e57634e487b7160e01b600052603260045260246000fd5b60200201526402540be4008b8e856002811062000a7b57634e487b7160e01b600052603260045260246000fd5b602002015162000a8c919062004730565b62000a9891906200460a565b86846002811062000ab957634e487b7160e01b600052603260045260246000fd5b602002015162000aca919062004752565b6008846002811062000aec57634e487b7160e01b600052603260045260246000fd5b01558c836002811062000b0f57634e487b7160e01b600052603260045260246000fd5b602002015186846002811062000b3557634e487b7160e01b600052603260045260246000fd5b6020020181815162000b48919062004752565b90525082915062000b5b9050816200479b565b91505062000922565b5062000b718388620030e7565b905062000b8a565b62000b88600884600262004054565b505b60008662000b9a57508162000bc2565b8562000ba7818462004752565b62000bb3908962004730565b62000bbf91906200460a565b90505b8b81101562000be55760405162461bcd60e51b815260040162000652906200453f565b60005b600281101562000c765760008e826002811062000c1557634e487b7160e01b600052603260045260246000fd5b60200201519050801562000c605762000c603330836006866002811062000c4c57634e487b7160e01b600052603260045260246000fd5b01546001600160a01b031692919062003106565b508062000c6d816200479b565b91505062000be8565b50600c546040516340c10f1960e01b81526001600160a01b03909116906340c10f199062000cab903390859060040162004473565b600060405180830381600087803b15801562000cc657600080fd5b505af115801562000cdb573d6000803e3d6000fd5b503392507f26f55a85081d24974e85c6c00045d0f0453991e95873f52bff0d21af4079a76891508f90508d8662000d13868d620045ef565b60405162000d259493929190620044b9565b60405180910390a2505050505050505050505062000d4260018055565b5050565b62000d5062003173565b6000601155565b601554610100900460ff161562000db15760405162461bcd60e51b815260206004820152601f60248201527f4f7065726174696f6e733a20416c726561647920696e697469616c697a656400604482015260640162000652565b336001600160a01b037f0000000000000000000000000000000000000000000000000000000000000000161462000e255760405162461bcd60e51b81526020600482015260176024820152764f7065726174696f6e733a204e6f7420666163746f727960481b604482015260640162000652565b6015805461ff00191661010017905560005b60028110156200106057600086826002811062000e6457634e487b7160e01b600052603260045260246000fd5b60200201516001600160a01b0316141562000eb15760405162461bcd60e51b815260206004820152600c60248201526b5a45524f204164647265737360a01b604482015260640162000652565b600086826002811062000ed457634e487b7160e01b600052603260045260246000fd5b60200201516001600160a01b031663313ce5676040518163ffffffff1660e01b815260040160206040518083038186803b15801562000f1257600080fd5b505afa15801562000f27573d6000803e3d6000fd5b505050506040513d601f19601f8201168201806040525081019062000f4d9190620043a3565b60ff169050601281111562000fb15760405162461bcd60e51b8152602060048201526024808201527f546865206d6178696d756d20646563696d616c2063616e6e6f742065786365656044820152630c84062760e31b606482015260840162000652565b62000fbe81601262004752565b62000fcb90600a62004674565b6002836002811062000fed57634e487b7160e01b600052603260045260246000fd5b01556002828181106200101057634e487b7160e01b600052603260045260246000fd5b01546200102690670de0b6b3a764000062004730565b600483600281106200104857634e487b7160e01b600052603260045260246000fd5b0155508062001057816200479b565b91505062000e37565b50600060405180602001620010759062004093565b6020820181038252601f19601f8201166040525090506000863342604051602001620010a493929190620043eb565b6040516020818303038152906040528051906020012090506000818351602085016000f59050620010d96006896002620040a1565b50600d879055600e879055600a869055600b859055620010fd624f1a0042620045ef565b601455600c80546001600160a01b0319166001600160a01b038316179055620011268462002f43565b5050505050505050565b6200113a62003173565b6015805460ff19169055565b6200115062003173565b60005b600281101562001279576000600682600281106200118157634e487b7160e01b600052603260045260246000fd5b01546001600160a01b03169050600060088360028110620011b257634e487b7160e01b600052603260045260246000fd5b01546040516370a0823160e01b81526001600160a01b038416906370a0823190620011e29030906004016200445f565b60206040518083038186803b158015620011fb57600080fd5b505afa15801562001210573d6000803e3d6000fd5b505050506040513d601f19601f82011682018060405250810190620012369190620042db565b62001242919062004752565b905080156200126157620012616001600160a01b0383163383620031d6565b5050808062001270906200479b565b91505062001153565b50565b6200128662003173565b62015180600f54620012999190620045ef565b421015620012dc5760405162461bcd60e51b815260206004820152600f60248201526e646576203a20746f6f206561726c7960881b604482015260640162000652565b620012eb6201518042620045ef565b8110156200130d5760405162461bcd60e51b815260040162000652906200456d565b6000620013196200302c565b90506000831180156200132e5750620f424083105b6200138a5760405162461bcd60e51b815260206004820152602560248201527f5f6675747572655f41206d757374206265206265747765656e203020616e64206044820152644d41585f4160d81b606482015260840162000652565b808310158015620013a75750620013a3600a8262004730565b8311155b80620013ca57508083108015620013ca575080620013c7600a8562004730565b10155b620014165760405162461bcd60e51b815260206004820152601b60248201527a496c6c6567616c20706172616d65746572205f6675747572655f4160281b604482015260640162000652565b600d819055600e83905542600f81905560108390556040517fa2b71ec6df949300b59aab36b55e189697b750119dd349fcfa8c0f779e83c2549162001461918491879187906200459d565b60405180910390a1505050565b600881600281106200147f57600080fd5b0154905081565b6200149062003173565b601154421015620014b55760405162461bcd60e51b815260040162000652906200456d565b601154620015155760405162461bcd60e51b815260206004820152602660248201527f61646d696e5f616374696f6e735f646561646c696e652073686f756c64206e6f60448201526507420626520360d41b606482015260840162000652565b6000601155601254600a819055601354600b8190556040517fbe12859b636aed607d5230b2cc2711f68d70e51060e6cca1f575ef5d2fcc95d1926200156292908252602082015260400190565b60405180910390a1565b6000806200157b8484620031f8565b509150505b92915050565b6200159062003173565b60005b6002811015620012795760068160028110620015bf57634e487b7160e01b600052603260045260246000fd5b01546040516370a0823160e01b81526001600160a01b03909116906370a0823190620015f09030906004016200445f565b60206040518083038186803b1580156200160957600080fd5b505afa1580156200161e573d6000803e3d6000fd5b505050506040513d601f19601f82011682018060405250810190620016449190620042db565b600882600281106200166657634e487b7160e01b600052603260045260246000fd5b01558062001674816200479b565b91505062001593565b604080518082019182905260009182919060049060029082845b8154815260200190600101908083116200169757505050505090506000620016be620035c0565b90506000670de0b6b3a7640000838860028110620016ec57634e487b7160e01b600052603260045260246000fd5b6020020151620016fd908762004730565b6200170991906200460a565b8288600281106200172a57634e487b7160e01b600052603260045260246000fd5b60200201516200173b9190620045ef565b905060006200174d88888486620036b1565b905060008488600281106200177257634e487b7160e01b600052603260045260246000fd5b6020020151670de0b6b3a7640000600184878c60028110620017a457634e487b7160e01b600052603260045260246000fd5b6020020151620017b5919062004752565b620017c1919062004752565b620017cd919062004730565b620017d991906200460a565b905060006402540be40082600a54620017f3919062004730565b620017ff91906200460a565b90506200180d818362004752565b9a9950505050505050505050565b6200182562002fd0565b600c54604080516318160ddd60e01b815290516000926001600160a01b0316916318160ddd916004808301926020929190829003018186803b1580156200186b57600080fd5b505afa15801562001880573d6000803e3d6000fd5b505050506040513d601f19601f82011682018060405250810190620018a69190620042db565b9050620018b262004036565b620018bc62004036565b60005b600281101562001a4e576000848760088460028110620018ef57634e487b7160e01b600052603260045260246000fd5b0154620018fd919062004730565b6200190991906200460a565b90508582600281106200192c57634e487b7160e01b600052603260045260246000fd5b60200201518110156200199b5760405162461bcd60e51b815260206004820152603060248201527f5769746864726177616c20726573756c74656420696e20666577657220636f6960448201526f1b9cc81d1a185b88195e1c1958dd195960821b606482015260840162000652565b8060088360028110620019be57634e487b7160e01b600052603260045260246000fd5b016000828254620019d0919062004752565b90915550819050848360028110620019f857634e487b7160e01b600052603260045260246000fd5b602002015262001a3833826006856002811062001a2557634e487b7160e01b600052603260045260246000fd5b01546001600160a01b03169190620031d6565b508062001a45816200479b565b915050620018bf565b50600c5460405163079cc67960e41b81526001600160a01b03909116906379cc67909062001a83903390899060040162004473565b600060405180830381600087803b15801562001a9e57600080fd5b505af115801562001ab3573d6000803e3d6000fd5b503392507f7c363854ccf79623411f8995b362bce5eddff18c927edc6f5dbbb5e05819a82c91508490508362001aea898862004752565b60405162001afb939291906200448c565b60405180910390a250505062000d4260018055565b62001b1a62002fd0565b60155460ff161562001b405760405162461bcd60e51b815260040162000652906200451f565b604080518082019182905260009160089060029082845b81548152602001906001019080831162001b575750505050509050600062001b7f82620038fd565b90506000670de0b6b3a76400006004886002811062001bae57634e487b7160e01b600052603260045260246000fd5b015462001bbc908762004730565b62001bc891906200460a565b82886002811062001be957634e487b7160e01b600052603260045260246000fd5b602002015162001bfa9190620045ef565b9050600062001c0c88888486620036b1565b90506000600182858a6002811062001c3457634e487b7160e01b600052603260045260246000fd5b602002015162001c45919062004752565b62001c51919062004752565b905060006402540be400600a548362001c6b919062004730565b62001c7791906200460a565b90506004896002811062001c9b57634e487b7160e01b600052603260045260246000fd5b0154670de0b6b3a764000062001cb2838562004752565b62001cbe919062004730565b62001cca91906200460a565b91508682101562001d355760405162461bcd60e51b815260206004820152602e60248201527f45786368616e676520726573756c74656420696e20666577657220636f696e7360448201526d081d1a185b88195e1c1958dd195960921b606482015260840162000652565b60006402540be400600b548362001d4d919062004730565b62001d5991906200460a565b905060048a6002811062001d7d57634e487b7160e01b600052603260045260246000fd5b015462001d93670de0b6b3a76400008362004730565b62001d9f91906200460a565b905088878c6002811062001dc357634e487b7160e01b600052603260045260246000fd5b602002015162001dd49190620045ef565b60088c6002811062001df657634e487b7160e01b600052603260045260246000fd5b01558083888c6002811062001e1b57634e487b7160e01b600052603260045260246000fd5b602002015162001e2c919062004752565b62001e38919062004752565b60088b6002811062001e5a57634e487b7160e01b600052603260045260246000fd5b0155600060068c6002811062001e8057634e487b7160e01b600052603260045260246000fd5b01546001600160a01b0316905062001e9b8133308d62003106565b600060068c6002811062001ebf57634e487b7160e01b600052603260045260246000fd5b01546001600160a01b0316905062001ed9813387620031d6565b336001600160a01b03167fb2e76ae99761dc136e598d4a629bb347eccb9532a5f8bbd72e18467c3c34cc988e8d8f8960405162001f1a94939291906200459d565b60405180910390a250505050505050505062001f3560018055565b50505050565b62001f4562003173565b6011541562001f975760405162461bcd60e51b815260206004820181905260248201527f61646d696e5f616374696f6e735f646561646c696e65206d7573742062652030604482015260640162000652565b64012a05f20082111562001fe95760405162461bcd60e51b81526020600482015260186024820152776465763a206665652065786365656473206d6178696d756d60401b604482015260640162000652565b6402540be400811115620020405760405162461bcd60e51b815260206004820152601e60248201527f6465763a2061646d696e206665652065786365656473206d6178696d756d0000604482015260640162000652565b6200204f6203f48042620045ef565b60118190556012839055601382905560408051848152602081018490527f351fc5da2fbf480f2225debf3664a4bc90fa9923743aad58b4603f648e931fe0910160405180910390a25050565b600481600281106200147f57600080fd5b620020b662003173565b620020c26000620039f2565b565b600281600281106200147f57600080fd5b600080620020e2620035c0565b604080518082019182905291925060009190600290819081845b815481526020019060010190808311620020fc575050505050905060008187600281106200213a57634e487b7160e01b600052603260045260246000fd5b60200201516200214b908662004730565b8388600281106200216c57634e487b7160e01b600052603260045260246000fd5b60200201516200217d9190620045ef565b905060006200218f88888487620036b1565b90506000838860028110620021b457634e487b7160e01b600052603260045260246000fd5b6020020151600183878b60028110620021dd57634e487b7160e01b600052603260045260246000fd5b6020020151620021ee919062004752565b620017cd919062004752565b6000546001600160a01b031690565b6000806200222a6200221a620035c0565b620022246200302c565b62003a42565b90506000600c60009054906101000a90046001600160a01b03166001600160a01b03166318160ddd6040518163ffffffff1660e01b815260040160206040518083038186803b1580156200227d57600080fd5b505afa15801562002292573d6000803e3d6000fd5b505050506040513d601f19601f82011682018060405250810190620022b89190620042db565b905080620022cf670de0b6b3a76400008462004730565b620022db91906200460a565b9250505090565b60068160028110620022f357600080fd5b01546001600160a01b0316905081565b6200230d62003173565b6000620023196200302c565b600d819055600e81905542600f81905560108190556040519192507f46e22fb3709ad289f62ce63d469248536dbc78d82b84a3d7e74ad606dc201938916200236991848252602082015260400190565b60405180910390a150565b6000600882600281106200239857634e487b7160e01b600052603260045260246000fd5b015460068360028110620023bc57634e487b7160e01b600052603260045260246000fd5b01546040516370a0823160e01b81526001600160a01b03909116906370a0823190620023ed9030906004016200445f565b60206040518083038186803b1580156200240657600080fd5b505afa1580156200241b573d6000803e3d6000fd5b505050506040513d601f19601f82011682018060405250810190620024419190620042db565b62001580919062004752565b6200245762002fd0565b60155460ff16156200247d5760405162461bcd60e51b815260040162000652906200451f565b600c54604080516318160ddd60e01b815290516000926001600160a01b0316916318160ddd916004808301926020929190829003018186803b158015620024c357600080fd5b505afa158015620024d8573d6000803e3d6000fd5b505050506040513d601f19601f82011682018060405250810190620024fe9190620042db565b9050600081116200254b5760405162461bcd60e51b81526020600482015260166024820152756465763a207a65726f20746f74616c20737570706c7960501b604482015260640162000652565b60006200255b6001600262004752565b6200256890600462004730565b6002600a5462002579919062004730565b6200258591906200460a565b600b549091506000620025976200302c565b60408051808201918290529192506000919060089060029082845b815481526020019060010190808311620025b2575050505050905060008190506000620025e08385620030e7565b905060005b600281101562002661578981600281106200261057634e487b7160e01b600052603260045260246000fd5b60200201518382600281106200263657634e487b7160e01b600052603260045260246000fd5b6020020181815162002649919062004752565b9052508062002658816200479b565b915050620025e5565b506000620026708386620030e7565b90506200267c62004036565b60005b6002811015620028c157600084878360028110620026ad57634e487b7160e01b600052603260045260246000fd5b6020020151620026be908662004730565b620026ca91906200460a565b90506000868360028110620026ef57634e487b7160e01b600052603260045260246000fd5b602002015182111562002736578683600281106200271d57634e487b7160e01b600052603260045260246000fd5b60200201516200272e908362004752565b90506200276c565b818784600281106200275857634e487b7160e01b600052603260045260246000fd5b602002015162002769919062004752565b90505b6402540be4006200277e828d62004730565b6200278a91906200460a565b848460028110620027ab57634e487b7160e01b600052603260045260246000fd5b60200201526402540be4008a858560028110620027d857634e487b7160e01b600052603260045260246000fd5b6020020151620027e9919062004730565b620027f591906200460a565b8784600281106200281657634e487b7160e01b600052603260045260246000fd5b602002015162002827919062004752565b600884600281106200284957634e487b7160e01b600052603260045260246000fd5b01558383600281106200286c57634e487b7160e01b600052603260045260246000fd5b60200201518784600281106200289257634e487b7160e01b600052603260045260246000fd5b60200201818151620028a5919062004752565b905250829150620028b89050816200479b565b9150506200267f565b506000620028d08588620030e7565b90506000848b620028e2848362004752565b620028ee919062004730565b620028fa91906200460a565b9050600081116200295a5760405162461bcd60e51b815260206004820152602360248201527f746f6b656e5f616d6f756e74206d75737420626520677265617465722074686160448201526206e20360ec1b606482015260840162000652565b62002967600182620045ef565b90508b8111156200298c5760405162461bcd60e51b815260040162000652906200453f565b600c5460405163079cc67960e41b81526001600160a01b03909116906379cc679090620029c0903390859060040162004473565b600060405180830381600087803b158015620029db57600080fd5b505af1158015620029f0573d6000803e3d6000fd5b5050505060005b600281101562002a925760008e826002811062002a2457634e487b7160e01b600052603260045260246000fd5b6020020151111562002a7d5762002a7d338f836002811062002a5657634e487b7160e01b600052603260045260246000fd5b60200201516006846002811062001a2557634e487b7160e01b600052603260045260246000fd5b8062002a89816200479b565b915050620029f7565b5062002a9f818c62004752565b9a50336001600160a01b03167f2b5508378d7e19e0d5fa338419034731416c4f5b219a10379956f764317fd47e8e85878f60405162000d259493929190620044b9565b62002aec62003173565b426014541162002b335760405162461bcd60e51b8152602060048201526011602482015270457863656564656420646561646c696e6560781b604482015260640162000652565b6015805460ff19166001179055565b604080518082019182905260009182919060089060029082845b81548152602001906001019080831162002b5c5750505050509050600062002b836200302c565b9050600062002b938383620030e7565b905060005b600281101562002c7f57851562002c0c5786816002811062002bca57634e487b7160e01b600052603260045260246000fd5b602002015184826002811062002bf057634e487b7160e01b600052603260045260246000fd5b6020020181815162002c039190620045ef565b90525062002c6a565b86816002811062002c2d57634e487b7160e01b600052603260045260246000fd5b602002015184826002811062002c5357634e487b7160e01b600052603260045260246000fd5b6020020181815162002c66919062004752565b9052505b8062002c76816200479b565b91505062002b98565b50600062002c8e8484620030e7565b90506000600c60009054906101000a90046001600160a01b03166001600160a01b03166318160ddd6040518163ffffffff1660e01b815260040160206040518083038186803b15801562002ce157600080fd5b505afa15801562002cf6573d6000803e3d6000fd5b505050506040513d601f19601f8201168201806040525081019062002d1c9190620042db565b90506000871562002d3b5762002d33848462004752565b905062002d4a565b62002d47838562004752565b90505b8362002d57838362004730565b62002d6391906200460a565b9998505050505050505050565b62002d7a62002fd0565b60155460ff161562002da05760405162461bcd60e51b815260040162000652906200451f565b60008062002daf8585620031f8565b915091508282101562002e005760405162461bcd60e51b8152602060048201526018602482015277139bdd08195b9bdd59da0818dbda5b9cc81c995b5bdd995960421b604482015260640162000652565b6402540be400600b548262002e16919062004730565b62002e2291906200460a565b62002e2e9083620045ef565b6008856002811062002e5057634e487b7160e01b600052603260045260246000fd5b01600082825462002e62919062004752565b9091555050600c5460405163079cc67960e41b81526001600160a01b03909116906379cc67909062002e9b903390899060040162004473565b600060405180830381600087803b15801562002eb657600080fd5b505af115801562002ecb573d6000803e3d6000fd5b5050505062002ef733836006876002811062001a2557634e487b7160e01b600052603260045260246000fd5b604080518681526020810184905233917f9e96dd3b997a2a257eec4df9bb6eaf626e206df5f543bd963682d143300be310910160405180910390a2505062002f3e60018055565b505050565b62002f4d62003173565b6001600160a01b03811662002fb45760405162461bcd60e51b815260206004820152602660248201527f4f776e61626c653a206e6577206f776e657220697320746865207a65726f206160448201526564647265737360d01b606482015260840162000652565b6200127981620039f2565b600062002fcb6200302c565b905090565b60026001541415620030255760405162461bcd60e51b815260206004820152601f60248201527f5265656e7472616e637947756172643a207265656e7472616e742063616c6c00604482015260640162000652565b6002600155565b601054600e5460009190428211156200158057600d54600f54818311156200309f576200305a818562004752565b62003066824262004752565b62003072848662004752565b6200307e919062004730565b6200308a91906200460a565b620030969083620045ef565b94505050505090565b620030ab818562004752565b620030b7824262004752565b620030c3858562004752565b620030cf919062004730565b620030db91906200460a565b62003096908362004752565b6000620030ff620030f884620038fd565b8362003a42565b9392505050565b6040516001600160a01b038085166024830152831660448201526064810182905262001f359085906323b872dd60e01b906084015b60408051601f198184030181529190526020810180516001600160e01b03166001600160e01b03199093169290921790915262003c2c565b336200317e620021fa565b6001600160a01b031614620020c25760405162461bcd60e51b815260206004820181905260248201527f4f776e61626c653a2063616c6c6572206973206e6f7420746865206f776e6572604482015260640162000652565b62002f3e8363a9059cbb60e01b84846040516024016200313b92919062004473565b6000806000620032076200302c565b90506000620032196001600262004752565b6200322690600462004730565b6002600a5462003237919062004730565b6200324391906200460a565b604080518082019182905291925060009190600290819081845b8154815260200190600101908083116200325d57505050505090506000600c60009054906101000a90046001600160a01b03166001600160a01b03166318160ddd6040518163ffffffff1660e01b815260040160206040518083038186803b158015620032c957600080fd5b505afa158015620032de573d6000803e3d6000fd5b505050506040513d601f19601f82011682018060405250810190620033049190620042db565b9050600062003312620035c0565b9050600062003322828762003a42565b905060008362003333838d62004730565b6200333f91906200460a565b6200334b908362004752565b90508260006200335e898d848662003d05565b90506000878d600281106200338357634e487b7160e01b600052603260045260246000fd5b602002015182878f60028110620033aa57634e487b7160e01b600052603260045260246000fd5b6020020151620033bb919062004752565b620033c791906200460a565b905060005b6002811015620035175760008e82141562003436578387878a85600281106200340557634e487b7160e01b600052603260045260246000fd5b602002015162003416919062004730565b6200342291906200460a565b6200342e919062004752565b9050620034ab565b86868984600281106200345957634e487b7160e01b600052603260045260246000fd5b60200201516200346a919062004730565b6200347691906200460a565b8883600281106200349757634e487b7160e01b600052603260045260246000fd5b6020020151620034a8919062004752565b90505b6402540be400620034bd828d62004730565b620034c991906200460a565b858360028110620034ea57634e487b7160e01b600052603260045260246000fd5b60200201818151620034fd919062004752565b9052508190506200350e816200479b565b915050620033cc565b506000620035288b8f868862003d05565b848f600281106200354957634e487b7160e01b600052603260045260246000fd5b60200201516200355a919062004752565b9050888e600281106200357d57634e487b7160e01b600052603260045260246000fd5b60200201516200358f60018362004752565b6200359b91906200460a565b905080620035aa818462004752565b9c509c5050505050505050505050509250929050565b620035ca62004036565b60408051808201918290529060049060029082845b815481526020019060010190808311620035df575050505050905060005b6002811015620036ad57670de0b6b3a7640000600882600281106200363257634e487b7160e01b600052603260045260246000fd5b01548383600281106200365557634e487b7160e01b600052603260045260246000fd5b602002015162003666919062004730565b6200367291906200460a565b8282600281106200369357634e487b7160e01b600052603260045260246000fd5b602002015280620036a4816200479b565b915050620035fd565b5090565b6000838514158015620036c45750600285105b8015620036d15750600284105b620037135760405162461bcd60e51b815260206004820152601160248201527024b63632b3b0b6103830b930b6b2ba32b960791b604482015260640162000652565b60006200371f6200302c565b905060006200372f848362003a42565b9050806000806200374260028662004730565b90506000805b6002811015620037eb578b8114156200376457899150620037a0565b8a81146200379a578881600281106200378d57634e487b7160e01b600052603260045260246000fd5b60200201519150620037a0565b620037d6565b620037ac8285620045ef565b9350620037bb60028362004730565b620037c7878762004730565b620037d391906200460a565b94505b80620037e2816200479b565b91505062003748565b50620037f960028362004730565b62003805868662004730565b6200381191906200460a565b935060006200382183876200460a565b6200382d9085620045ef565b9050600086815b60ff811015620038e957819250888483600262003852919062004730565b6200385e9190620045ef565b6200386a919062004752565b8862003877848062004730565b620038839190620045ef565b6200388f91906200460a565b915082821115620038ba576001620038a8848462004752565b11620038b457620038e9565b620038d4565b6001620038c8838562004752565b11620038d457620038e9565b80620038e0816200479b565b91505062003834565b50985050505050505050505b949350505050565b6200390762004036565b60408051808201918290529060049060029082845b8154815260200190600101908083116200391c575050505050905060005b6002811015620039ec57670de0b6b3a76400008382600281106200396e57634e487b7160e01b600052603260045260246000fd5b60200201518383600281106200399457634e487b7160e01b600052603260045260246000fd5b6020020151620039a5919062004730565b620039b191906200460a565b828260028110620039d257634e487b7160e01b600052603260045260246000fd5b602002015280620039e3816200479b565b9150506200393a565b50919050565b600080546001600160a01b038381166001600160a01b0319831681178455604051919092169283917f8be0079c531659141344cd1fd0a4f28419497f9722a3daafe3b4186f6b6457e09190a35050565b60008060005b600281101562003a9b5784816002811062003a7357634e487b7160e01b600052603260045260246000fd5b602002015162003a849083620045ef565b91508062003a92816200479b565b91505062003a48565b508062003aad57600091505062001580565b6000818162003abe60028762004730565b905060005b60ff81101562003c20578260005b600281101562003b3e5760028a826002811062003afe57634e487b7160e01b600052603260045260246000fd5b602002015162003b0f919062004730565b62003b1b868462004730565b62003b2791906200460a565b91508062003b35816200479b565b91505062003ad1565b50839450806002600162003b539190620045ef565b62003b5f919062004730565b8462003b6d60018662004752565b62003b79919062004730565b62003b859190620045ef565b8462003b9360028462004730565b62003b9f898762004730565b62003bab9190620045ef565b62003bb7919062004730565b62003bc391906200460a565b93508484111562003bef57600162003bdc868662004752565b1162003be9575062003c20565b62003c0a565b600162003bfd858762004752565b1162003c0a575062003c20565b508062003c17816200479b565b91505062003ac3565b50909695505050505050565b600062003c83826040518060400160405280602081526020017f5361666545524332303a206c6f772d6c6576656c2063616c6c206661696c6564815250856001600160a01b031662003f069092919063ffffffff16565b80519091501562002f3e578080602001905181019062003ca49190620042a3565b62002f3e5760405162461bcd60e51b815260206004820152602a60248201527f5361666545524332303a204552433230206f7065726174696f6e20646964206e6044820152691bdd081cdd58d8d9595960b21b606482015260840162000652565b60006002841062003d505760405162461bcd60e51b81526020600482015260146024820152736465763a20692061626f7665204e5f434f494e5360601b604482015260640162000652565b8160008062003d6160028962004730565b90506000805b600281101562003df85788811462003da75787816002811062003d9a57634e487b7160e01b600052603260045260246000fd5b6020020151915062003dad565b62003de3565b62003db98285620045ef565b935062003dc860028362004730565b62003dd4888762004730565b62003de091906200460a565b94505b8062003def816200479b565b91505062003d67565b5062003e0660028362004730565b62003e12878662004730565b62003e1e91906200460a565b9350600062003e2e83886200460a565b62003e3a9085620045ef565b9050600087815b60ff81101562003ef657819250898483600262003e5f919062004730565b62003e6b9190620045ef565b62003e77919062004752565b8862003e84848062004730565b62003e909190620045ef565b62003e9c91906200460a565b91508282111562003ec757600162003eb5848462004752565b1162003ec15762003ef6565b62003ee1565b600162003ed5838562004752565b1162003ee15762003ef6565b8062003eed816200479b565b91505062003e41565b509b9a5050505050505050505050565b6060620038f5848460008585600080866001600160a01b0316858760405162003f30919062004441565b60006040518083038185875af1925050503d806000811462003f6f576040519150601f19603f3d011682016040523d82523d6000602084013e62003f74565b606091505b509150915062003f878783838762003f92565b979650505050505050565b606083156200400357825162003ffb576001600160a01b0385163b62003ffb5760405162461bcd60e51b815260206004820152601d60248201527f416464726573733a2063616c6c20746f206e6f6e2d636f6e7472616374000000604482015260640162000652565b5081620038f5565b620038f583838151156200401a5781518083602001fd5b8060405162461bcd60e51b8152600401620006529190620044ea565b60405180604001604052806002906020820280368337509192915050565b826002810192821562004085579160200282015b828111156200408557825182559160200191906001019062004068565b50620036ad929150620040ec565b610d0980620047df83390190565b826002810192821562004085579160200282015b828111156200408557825182546001600160a01b0319166001600160a01b03909116178255602090920191600190910190620040b5565b5b80821115620036ad5760008155600101620040ed565b80356001600160a01b03811681146200411b57600080fd5b919050565b600082601f83011262004131578081fd5b6200413b620045b8565b8083856040860111156200414d578384fd5b835b6002811015620041705781358452602093840193909101906001016200414f565b509095945050505050565b6000602082840312156200418d578081fd5b620030ff8262004103565b600080600080600060c08688031215620041b0578081fd5b86601f870112620041bf578081fd5b620041c9620045b8565b8087604089018a811115620041dc578485fd5b845b60028110156200420957620041f38362004103565b85526020948501949290920191600101620041de565b50919750503594505060608601359250608086013591506200422e60a0870162004103565b90509295509295909350565b600080606083850312156200424d578182fd5b62004259848462004120565b915060408301356200426b81620047cf565b809150509250929050565b6000806060838503121562004289578182fd5b62004295848462004120565b946040939093013593505050565b600060208284031215620042b5578081fd5b8151620030ff81620047cf565b600060208284031215620042d4578081fd5b5035919050565b600060208284031215620042ed578081fd5b5051919050565b6000806060838503121562004307578182fd5b823591506200431a846020850162004120565b90509250929050565b6000806040838503121562004336578182fd5b50508035926020909101359150565b6000806000606084860312156200435a578283fd5b505081359360208301359350604090920135919050565b6000806000806080858703121562004387578384fd5b5050823594602084013594506040840135936060013592509050565b600060208284031215620043b5578081fd5b815160ff81168114620030ff578182fd5b8060005b600281101562001f35578151845260209384019390910190600101620043ca565b60008185825b60028110156200441b5781516001600160a01b0316835260209283019290910190600101620043f1565b5050505060609290921b6001600160601b03191660408301526054820152607401919050565b60008251620044558184602087016200476c565b9190910192915050565b6001600160a01b0391909116815260200190565b6001600160a01b03929092168252602082015260400190565b60a081016200449c8286620043c6565b620044ab6040830185620043c6565b826080830152949350505050565b60c08101620044c98287620043c6565b620044d86040830186620043c6565b608082019390935260a0015292915050565b60208152600082518060208401526200450b8160408501602087016200476c565b601f01601f19169190910160400192915050565b60208082526006908201526512da5b1b195960d21b604082015260600190565b602080825260149082015273536c697070616765207363726577656420796f7560601b604082015260600190565b6020808252601690820152756465763a20696e73756666696369656e742074696d6560501b604082015260600190565b93845260208401929092526040830152606082015260800190565b604080519081016001600160401b0381118282101715620045e957634e487b7160e01b600052604160045260246000fd5b60405290565b60008219821115620046055762004605620047b9565b500190565b6000826200462657634e487b7160e01b81526012600452602481fd5b500490565b600181815b808511156200466c578160001904821115620046505762004650620047b9565b808516156200465e57918102915b93841c939080029062004630565b509250929050565b6000620030ff83836000826200468d5750600162001580565b816200469c5750600062001580565b8160018114620046b55760028114620046c057620046e0565b600191505062001580565b60ff841115620046d457620046d4620047b9565b50506001821b62001580565b5060208310610133831016604e8410600b841016171562004705575081810a62001580565b6200471183836200462b565b8060001904821115620047285762004728620047b9565b029392505050565b60008160001904831182151516156200474d576200474d620047b9565b500290565b600082821015620047675762004767620047b9565b500390565b60005b83811015620047895781810151838201526020016200476f565b8381111562001f355750506000910152565b6000600019821415620047b257620047b2620047b9565b5060010190565b634e487b7160e01b600052601160045260246000fd5b80151581146200127957600080fdfe60a060405234801561001057600080fd5b50604080518082018252601681527f50616e63616b6520537461626c6553776170204c5073000000000000000000006020808301918252835180850190945260098452680537461626c652d4c560bc1b90840152815191929161007591600391610098565b508051610089906004906020840190610098565b5050503360601b60805261016c565b8280546100a490610131565b90600052602060002090601f0160209004810192826100c6576000855561010c565b82601f106100df57805160ff191683800117855561010c565b8280016001018555821561010c579182015b8281111561010c5782518255916020019190600101906100f1565b5061011892915061011c565b5090565b5b80821115610118576000815560010161011d565b600181811c9082168061014557607f821691505b6020821081141561016657634e487b7160e01b600052602260045260246000fd5b50919050565b60805160601c610b7062000199600039600081816101390152818161031301526103720152610b706000f3fe608060405234801561001057600080fd5b50600436106100ba5760003560e01c806306fdde03146100bf578063095ea7b3146100dd57806318160ddd1461010057806323b872dd14610112578063313ce56714610125578063349dc32914610134578063395093511461017357806340c10f191461018657806370a082311461019b57806379cc6790146101c457806395d89b41146101d7578063a457c2d7146101df578063a9059cbb146101f2578063dd62ed3e14610205575b600080fd5b6100c7610218565b6040516100d49190610a45565b60405180910390f35b6100f06100eb366004610a1c565b6102aa565b60405190151581526020016100d4565b6002545b6040519081526020016100d4565b6100f06101203660046109e1565b6102c2565b604051601281526020016100d4565b61015b7f000000000000000000000000000000000000000000000000000000000000000081565b6040516001600160a01b0390911681526020016100d4565b6100f0610181366004610a1c565b6102e6565b610199610194366004610a1c565b610308565b005b6101046101a936600461098e565b6001600160a01b031660009081526020819052604090205490565b6101996101d2366004610a1c565b610367565b6100c76103b9565b6100f06101ed366004610a1c565b6103c8565b6100f0610200366004610a1c565b610443565b6101046102133660046109af565b610451565b60606003805461022790610adf565b80601f016020809104026020016040519081016040528092919081815260200182805461025390610adf565b80156102a05780601f10610275576101008083540402835291602001916102a0565b820191906000526020600020905b81548152906001019060200180831161028357829003601f168201915b5050505050905090565b6000336102b881858561047c565b5060019392505050565b6000336102d08582856105a1565b6102db85858561061b565b506001949350505050565b6000336102b88185856102f98383610451565b6103039190610abb565b61047c565b336001600160a01b037f000000000000000000000000000000000000000000000000000000000000000016146103595760405162461bcd60e51b815260040161035090610a98565b60405180910390fd5b61036382826107ad565b5050565b336001600160a01b037f000000000000000000000000000000000000000000000000000000000000000016146103af5760405162461bcd60e51b815260040161035090610a98565b610363828261085a565b60606004805461022790610adf565b600033816103d68286610451565b9050838110156104365760405162461bcd60e51b815260206004820152602560248201527f45524332303a2064656372656173656420616c6c6f77616e63652062656c6f77604482015264207a65726f60d81b6064820152608401610350565b6102db828686840361047c565b6000336102b881858561061b565b6001600160a01b03918216600090815260016020908152604080832093909416825291909152205490565b6001600160a01b0383166104de5760405162461bcd60e51b8152602060048201526024808201527f45524332303a20617070726f76652066726f6d20746865207a65726f206164646044820152637265737360e01b6064820152608401610350565b6001600160a01b03821661053f5760405162461bcd60e51b815260206004820152602260248201527f45524332303a20617070726f766520746f20746865207a65726f206164647265604482015261737360f01b6064820152608401610350565b6001600160a01b0383811660008181526001602090815260408083209487168084529482529182902085905590518481527f8c5be1e5ebec7d5bd14f71427d1e84f3dd0314c0f7b2291e5b200ac8c7c3b92591015b60405180910390a3505050565b60006105ad8484610451565b9050600019811461061557818110156106085760405162461bcd60e51b815260206004820152601d60248201527f45524332303a20696e73756666696369656e7420616c6c6f77616e63650000006044820152606401610350565b610615848484840361047c565b50505050565b6001600160a01b03831661067f5760405162461bcd60e51b815260206004820152602560248201527f45524332303a207472616e736665722066726f6d20746865207a65726f206164604482015264647265737360d81b6064820152608401610350565b6001600160a01b0382166106e15760405162461bcd60e51b815260206004820152602360248201527f45524332303a207472616e7366657220746f20746865207a65726f206164647260448201526265737360e81b6064820152608401610350565b6001600160a01b038316600090815260208190526040902054818110156107595760405162461bcd60e51b815260206004820152602660248201527f45524332303a207472616e7366657220616d6f756e7420657863656564732062604482015265616c616e636560d01b6064820152608401610350565b6001600160a01b0384811660008181526020818152604080832087870390559387168083529184902080548701905592518581529092600080516020610b1b833981519152910160405180910390a3610615565b6001600160a01b0382166108035760405162461bcd60e51b815260206004820152601f60248201527f45524332303a206d696e7420746f20746865207a65726f2061646472657373006044820152606401610350565b80600260008282546108159190610abb565b90915550506001600160a01b03821660008181526020818152604080832080548601905551848152600080516020610b1b833981519152910160405180910390a35050565b6001600160a01b0382166108ba5760405162461bcd60e51b815260206004820152602160248201527f45524332303a206275726e2066726f6d20746865207a65726f206164647265736044820152607360f81b6064820152608401610350565b6001600160a01b0382166000908152602081905260409020548181101561092e5760405162461bcd60e51b815260206004820152602260248201527f45524332303a206275726e20616d6f756e7420657863656564732062616c616e604482015261636560f01b6064820152608401610350565b6001600160a01b038316600081815260208181526040808320868603905560028054879003905551858152919291600080516020610b1b8339815191529101610594565b80356001600160a01b038116811461098957600080fd5b919050565b60006020828403121561099f578081fd5b6109a882610972565b9392505050565b600080604083850312156109c1578081fd5b6109ca83610972565b91506109d860208401610972565b90509250929050565b6000806000606084860312156109f5578081fd5b6109fe84610972565b9250610a0c60208501610972565b9150604084013590509250925092565b60008060408385031215610a2e578182fd5b610a3783610972565b946020939093013593505050565b6000602080835283518082850152825b81811015610a7157858101830151858201604001528201610a55565b81811115610a825783604083870101525b50601f01601f1916929092016040019392505050565b6020808252600990820152682737ba1036b4b732b960b91b604082015260600190565b60008219821115610ada57634e487b7160e01b81526011600452602481fd5b500190565b600181811c90821680610af357607f821691505b60208210811415610b1457634e487b7160e01b600052602260045260246000fd5b5091905056feddf252ad1be2c89b69c2b068fc378daa952ba7f163c4a11628f55a4df523b3efa2646970667358221220257c0f935bba40a95b8305edf3c3153b3eb688d8702bbfc43beb0a86d94644b264736f6c63430008040033a2646970667358221220d18335806451a893fc2227077b1911a48ed30e2cabc5c297593775fd3763cbb564736f6c63430008040033",
  "linkReferences": {},
  "deployedLinkReferences": {}
}