{
  "_format": "hh-sol-artifact-1",
  "contractName": "Delegate",
  "sourceName": "contracts/Delegate.sol",
  "abi": [
    {
      "inputs": [],
      "name": "addAdapter",
      "outputs": [],
      "stateMutability": "nonpayable",
      "type": "function"
    },
    {
      "inputs": [
        {
          "internalType": "uint256",
          "name": "amount0Out",
          "type": "uint256"
        },
        {
          "internalType": "uint256",
          "name": "amount1Out",
          "type": "uint256"
        },
        {
          "internalType": "bytes",
          "name": "data",
          "type": "bytes"
        }
      ],
      "name": "swapCurveV2",
      "outputs": [],
      "stateMutability": "nonpayable",
      "type": "function"
    },
    {
      "inputs": [
        {
          "internalType": "uint256",
          "name": "amount0Out",
          "type": "uint256"
        },
        {
          "internalType": "uint256",
          "name": "amount1Out",
          "type": "uint256"
        },
        {
          "internalType": "bytes",
          "name": "data",
          "type": "bytes"
        }
      ],
      "name": "swapUniV2",
      "outputs": [],
      "stateMutability": "nonpayable",
      "type": "function"
    },
    {
      "inputs": [],
      "name": "token0",
      "outputs": [
        {
          "internalType": "address",
          "name": "",
          "type": "address"
        }
      ],
      "stateMutability": "view",
      "type": "function"
    },
    {
      "inputs": [],
      "name": "token1",
      "outputs": [
        {
          "internalType": "address",
          "name": "",
          "type": "address"
        }
      ],
      "stateMutability": "view",
      "type": "function"
    }
  ],
  "bytecode": "0x608060405234801561001057600080fd5b50611114806100206000396000f3fe608060405234801561001057600080fd5b50600436106100675760003560e01c8063a2d6906611610050578063a2d69066146100ca578063d21220a7146100dd578063de01a85b146100fd57600080fd5b80630dfe16811461006c57806348d7b2f8146100b5575b600080fd5b60005461008c9073ffffffffffffffffffffffffffffffffffffffff1681565b60405173ffffffffffffffffffffffffffffffffffffffff909116815260200160405180910390f35b6100c86100c3366004610e6d565b61018a565b005b6100c86100d8366004610e6d565b6101c5565b60015461008c9073ffffffffffffffffffffffffffffffffffffffff1681565b6100c860026020527fac33ff75c19e70fe83507db0d683fd3465c996598dc972688b7ace676c89077b80547fffffffffffffffffffffffffffffffffffffffffffffffffffffffff000000009081166348d7b2f81790915560016000527fe90b7bceb6e7df5418fb78d8ee546e97c83a08bbccc01a0644d599ccd2a7c2e0805490911663a2d69066179055565b6000818060200190518101906101a09190610e22565b90506101bf8160000151826020015186846040015185606001516102d1565b50505050565b6000818060200190518101906101db9190610e22565b90506101f08160000151858360400151610444565b806000015173ffffffffffffffffffffffffffffffffffffffff16816040015173ffffffffffffffffffffffffffffffffffffffff16630dfe16816040518163ffffffff1660e01b8152600401602060405180830381600087803b15801561025757600080fd5b505af115801561026b573d6000803e3d6000fd5b505050506040513d601f19601f8201168201806040525081019061028f9190610d86565b73ffffffffffffffffffffffffffffffffffffffff16146102c0576102bb8382604001516000306104a3565b6101bf565b6101bf8382604001516001306104a3565b6000818060200190518101906102e79190610dc3565b9050856102f584828761052b565b81604001511561039f57815160208301516040517f65b2489b00000000000000000000000000000000000000000000000000000000815260048101929092526024820152604481018690526001606482015273ffffffffffffffffffffffffffffffffffffffff8516906365b2489b90608401600060405180830381600087803b15801561038257600080fd5b505af1158015610396573d6000803e3d6000fd5b5050505061043b565b815160208301516040517f5b41b90800000000000000000000000000000000000000000000000000000000815260048101929092526024820152604481018690526001606482015273ffffffffffffffffffffffffffffffffffffffff851690635b41b90890608401600060405180830381600087803b15801561042257600080fd5b505af1158015610436573d6000803e3d6000fd5b505050505b50505050505050565b60405160c0810160405261045d565b3d6000803e3d6000fd5b7fa9059cbb0000000000000000000000000000000000000000000000000000000081528160048201528260248201526000806044836000885af16101bf576101bf610453565b60405160c081016040527f022c0d9f000000000000000000000000000000000000000000000000000000008152821580156104ea57856004830152600060248301526104f8565b600060048301528560248301525b50816044820152608060648201526000608482015260008060a4836000885af161052457610524610453565b5050505050565b73ffffffffffffffffffffffffffffffffffffffff821673eeeeeeeeeeeeeeeeeeeeeeeeeeeeeeeeeeeeeeee14610673576040517fdd62ed3e00000000000000000000000000000000000000000000000000000000815230600482015273ffffffffffffffffffffffffffffffffffffffff8481166024830152839160009183169063dd62ed3e9060440160206040518083038186803b1580156105ce57600080fd5b505afa1580156105e2573d6000803e3d6000fd5b505050506040513d601f19601f820116820180604052508101906106069190610e55565b9050828110156105245761063273ffffffffffffffffffffffffffffffffffffffff8316866000610678565b61052473ffffffffffffffffffffffffffffffffffffffff8316867fffffffffffffffffffffffffffffffffffffffffffffffffffffffffffffffff61088c565b505050565b80158061072757506040517fdd62ed3e00000000000000000000000000000000000000000000000000000000815230600482015273ffffffffffffffffffffffffffffffffffffffff838116602483015284169063dd62ed3e9060440160206040518083038186803b1580156106ed57600080fd5b505afa158015610701573d6000803e3d6000fd5b505050506040513d601f19601f820116820180604052508101906107259190610e55565b155b6107b8576040517f08c379a000000000000000000000000000000000000000000000000000000000815260206004820152603660248201527f5361666545524332303a20617070726f76652066726f6d206e6f6e2d7a65726f60448201527f20746f206e6f6e2d7a65726f20616c6c6f77616e63650000000000000000000060648201526084015b60405180910390fd5b60405173ffffffffffffffffffffffffffffffffffffffff83166024820152604481018290526106739084907f095ea7b300000000000000000000000000000000000000000000000000000000906064015b604080517fffffffffffffffffffffffffffffffffffffffffffffffffffffffffffffffe08184030181529190526020810180517bffffffffffffffffffffffffffffffffffffffffffffffffffffffff167fffffffff0000000000000000000000000000000000000000000000000000000090931692909217909152610999565b6040517fdd62ed3e00000000000000000000000000000000000000000000000000000000815230600482015273ffffffffffffffffffffffffffffffffffffffff8381166024830152600091839186169063dd62ed3e9060440160206040518083038186803b1580156108fe57600080fd5b505afa158015610912573d6000803e3d6000fd5b505050506040513d601f19601f820116820180604052508101906109369190610e55565b6109409190611021565b60405173ffffffffffffffffffffffffffffffffffffffff85166024820152604481018290529091506101bf9085907f095ea7b3000000000000000000000000000000000000000000000000000000009060640161080a565b60006109fb826040518060400160405280602081526020017f5361666545524332303a206c6f772d6c6576656c2063616c6c206661696c65648152508573ffffffffffffffffffffffffffffffffffffffff16610aa59092919063ffffffff16565b8051909150156106735780806020019051810190610a199190610da9565b610673576040517f08c379a000000000000000000000000000000000000000000000000000000000815260206004820152602a60248201527f5361666545524332303a204552433230206f7065726174696f6e20646964206e60448201527f6f7420737563636565640000000000000000000000000000000000000000000060648201526084016107af565b6060610ab48484600085610abc565b949350505050565b606082471015610b4e576040517f08c379a000000000000000000000000000000000000000000000000000000000815260206004820152602660248201527f416464726573733a20696e73756666696369656e742062616c616e636520666f60448201527f722063616c6c000000000000000000000000000000000000000000000000000060648201526084016107af565b6000808673ffffffffffffffffffffffffffffffffffffffff168587604051610b779190610ef6565b60006040518083038185875af1925050503d8060008114610bb4576040519150601f19603f3d011682016040523d82523d6000602084013e610bb9565b606091505b5091509150610bca87838387610bd5565b979650505050505050565b60608315610c68578251610c615773ffffffffffffffffffffffffffffffffffffffff85163b610c61576040517f08c379a000000000000000000000000000000000000000000000000000000000815260206004820152601d60248201527f416464726573733a2063616c6c20746f206e6f6e2d636f6e747261637400000060448201526064016107af565b5081610ab4565b610ab48383815115610c7d5781518083602001fd5b806040517f08c379a00000000000000000000000000000000000000000000000000000000081526004016107af9190610f12565b80518015158114610cc157600080fd5b919050565b600060808284031215610cd7578081fd5b610cdf610f63565b90508151610cec816110b9565b81526020820151610cfc816110b9565b60208201526040820151610d0f816110b9565b6040820152606082015167ffffffffffffffff811115610d2e57600080fd5b8201601f81018413610d3f57600080fd5b8051610d52610d4d82610fdb565b610f8c565b818152856020838501011115610d6757600080fd5b610d7882602083016020860161105e565b606084015250909392505050565b600060208284031215610d97578081fd5b8151610da2816110b9565b9392505050565b600060208284031215610dba578081fd5b610da282610cb1565b600060608284031215610dd4578081fd5b6040516060810181811067ffffffffffffffff82111715610df757610df761108a565b80604052508251815260208301516020820152610e1660408401610cb1565b60408201529392505050565b600060208284031215610e33578081fd5b815167ffffffffffffffff811115610e49578182fd5b610ab484828501610cc6565b600060208284031215610e66578081fd5b5051919050565b600080600060608486031215610e81578182fd5b8335925060208401359150604084013567ffffffffffffffff811115610ea5578182fd5b8401601f81018613610eb5578182fd5b8035610ec3610d4d82610fdb565b818152876020838501011115610ed7578384fd5b8160208401602083013783602083830101528093505050509250925092565b60008251610f0881846020870161105e565b9190910192915050565b6020815260008251806020840152610f3181604085016020870161105e565b601f017fffffffffffffffffffffffffffffffffffffffffffffffffffffffffffffffe0169190910160400192915050565b6040516080810167ffffffffffffffff81118282101715610f8657610f8661108a565b60405290565b604051601f82017fffffffffffffffffffffffffffffffffffffffffffffffffffffffffffffffe016810167ffffffffffffffff81118282101715610fd357610fd361108a565b604052919050565b600067ffffffffffffffff821115610ff557610ff561108a565b50601f017fffffffffffffffffffffffffffffffffffffffffffffffffffffffffffffffe01660200190565b60008219821115611059577f4e487b710000000000000000000000000000000000000000000000000000000081526011600452602481fd5b500190565b60005b83811015611079578181015183820152602001611061565b838111156101bf5750506000910152565b7f4e487b7100000000000000000000000000000000000000000000000000000000600052604160045260246000fd5b73ffffffffffffffffffffffffffffffffffffffff811681146110db57600080fd5b5056fea264697066735822122062ef934870d44af6e805d2f41ae5f8b141167bdd566366cfa721bad25027797364736f6c63430008040033",
  "linkReferences": {},
  "deployedLinkReferences": {}
}