{
  "_format": "hh-sol-artifact-1",
  "contractName": "Coin98ZeroxV2",
  "sourceName": "contracts/oneinch/Coin98OneInch.sol",
  "abi": [
    {
      "inputs": [
        {
          "internalType": "uint256",
          "name": "amount0Out",
          "type": "uint256"
        },
        {
          "internalType": "uint256",
          "name": "amount1Out",
          "type": "uint256"
        },
        {
          "internalType": "address",
          "name": "to",
          "type": "address"
        },
        {
          "internalType": "bytes",
          "name": "data",
          "type": "bytes"
        }
      ],
      "name": "swap",
      "outputs": [],
      "stateMutability": "payable",
      "type": "function"
    }
  ],
  "bytecode": "0x608060405234801561001057600080fd5b50610c21806100206000396000f3fe60806040526004361061001e5760003560e01c8063022c0d9f14610023575b600080fd5b6100366100313660046109d4565b610038565b005b60008180602001905181019061004e91906108f9565b9050806000015160ff1660071461009c5760405162461bcd60e51b815260206004820152600d60248201526c496e76616c696420526f75746560981b60448201526064015b60405180910390fd5b6100b4816020015182604001518784606001516101c1565b60408082015190516370a0823160e01b81523060048201526000916001600160a01b0316906370a082319060240160206040518083038186803b1580156100fa57600080fd5b505afa15801561010e573d6000803e3d6000fd5b505050506040513d601f19601f8201168201806040525081019061013291906109bc565b905081604001516001600160a01b031663a9059cbb85836040518363ffffffff1660e01b8152600401610166929190610aa2565b602060405180830381600087803b15801561018057600080fd5b505af1158015610194573d6000803e3d6000fd5b505050506040513d601f19601f820116820180604052508101906101b891906108d2565b50505050505050565b60006101cb610313565b6001600160a01b0316856001600160a01b0316146101e957846101ec565b60005b905060006101f8610313565b6001600160a01b0316856001600160a01b0316146102165784610219565b60005b9050610223610313565b6001600160a01b0316866001600160a01b0316146102465761024683838661032b565b826001600160a01b031663d5bcb9b561025d610313565b6001600160a01b0316886001600160a01b03161461027c57600061027e565b855b6040516001600160e01b031960e084901b1681526001600160a01b0380871660048301528516602482015260448101889052600160648201526000608482015260a4016020604051808303818588803b1580156102da57600080fd5b505af11580156102ee573d6000803e3d6000fd5b50505050506040513d601f19601f820116820180604052508101906101b891906109bc565b73eeeeeeeeeeeeeeeeeeeeeeeeeeeeeeeeeeeeeeee90565b6001600160a01b03821673eeeeeeeeeeeeeeeeeeeeeeeeeeeeeeeeeeeeeeee1461040a57604051636eb1769f60e11b815282906000906001600160a01b0383169063dd62ed3e906103829030908990600401610a88565b60206040518083038186803b15801561039a57600080fd5b505afa1580156103ae573d6000803e3d6000fd5b505050506040513d601f19601f820116820180604052508101906103d291906109bc565b905082811015610407576103f16001600160a01b03831686600061040f565b6104076001600160a01b03831686600019610558565b50505b505050565b8015806104975750604051636eb1769f60e11b81526001600160a01b0384169063dd62ed3e906104459030908690600401610a88565b60206040518083038186803b15801561045d57600080fd5b505afa158015610471573d6000803e3d6000fd5b505050506040513d601f19601f8201168201806040525081019061049591906109bc565b155b6105025760405162461bcd60e51b815260206004820152603660248201527f5361666545524332303a20617070726f76652066726f6d206e6f6e2d7a65726f60448201527520746f206e6f6e2d7a65726f20616c6c6f77616e636560501b6064820152608401610093565b61040a8363095ea7b360e01b8484604051602401610521929190610aa2565b60408051601f198184030181529190526020810180516001600160e01b03166001600160e01b03199093169290921790915261060a565b600081846001600160a01b031663dd62ed3e30866040518363ffffffff1660e01b8152600401610589929190610a88565b60206040518083038186803b1580156105a157600080fd5b505afa1580156105b5573d6000803e3d6000fd5b505050506040513d601f19601f820116820180604052508101906105d991906109bc565b6105e39190610b6d565b90506106048463095ea7b360e01b8584604051602401610521929190610aa2565b50505050565b600061065f826040518060400160405280602081526020017f5361666545524332303a206c6f772d6c6576656c2063616c6c206661696c6564815250856001600160a01b03166106dc9092919063ffffffff16565b80519091501561040a578080602001905181019061067d91906108d2565b61040a5760405162461bcd60e51b815260206004820152602a60248201527f5361666545524332303a204552433230206f7065726174696f6e20646964206e6044820152691bdd081cdd58d8d9595960b21b6064820152608401610093565b60606106eb84846000856106f3565b949350505050565b6060824710156107545760405162461bcd60e51b815260206004820152602660248201527f416464726573733a20696e73756666696369656e742062616c616e636520666f6044820152651c8818d85b1b60d21b6064820152608401610093565b600080866001600160a01b031685876040516107709190610a6c565b60006040518083038185875af1925050503d80600081146107ad576040519150601f19603f3d011682016040523d82523d6000602084013e6107b2565b606091505b50915091506107c3878383876107ce565b979650505050505050565b6060831561083a578251610833576001600160a01b0385163b6108335760405162461bcd60e51b815260206004820152601d60248201527f416464726573733a2063616c6c20746f206e6f6e2d636f6e74726163740000006044820152606401610093565b50816106eb565b6106eb838381511561084f5781518083602001fd5b8060405162461bcd60e51b81526004016100939190610abb565b805161087481610bd3565b919050565b600082601f830112610889578081fd5b815161089c61089782610b46565b610b16565b8181528460208386010111156108b0578283fd5b6106eb826020830160208701610b91565b805160ff8116811461087457600080fd5b6000602082840312156108e3578081fd5b815180151581146108f2578182fd5b9392505050565b60006020828403121561090a578081fd5b81516001600160401b0380821115610920578283fd5b9083019060e08286031215610933578283fd5b61093b610aee565b610944836108c1565b815261095260208401610869565b602082015261096360408401610869565b604082015261097460608401610869565b60608201526080830151608082015260a083015182811115610994578485fd5b6109a087828601610879565b60a08301525060c083015160c082015280935050505092915050565b6000602082840312156109cd578081fd5b5051919050565b600080600080608085870312156109e9578283fd5b84359350602085013592506040850135610a0281610bd3565b915060608501356001600160401b03811115610a1c578182fd5b8501601f81018713610a2c578182fd5b8035610a3a61089782610b46565b818152886020838501011115610a4e578384fd5b81602084016020830137908101602001929092525092959194509250565b60008251610a7e818460208701610b91565b9190910192915050565b6001600160a01b0392831681529116602082015260400190565b6001600160a01b03929092168252602082015260400190565b6020815260008251806020840152610ada816040850160208701610b91565b601f01601f19169190910160400192915050565b60405160e081016001600160401b0381118282101715610b1057610b10610bbd565b60405290565b604051601f8201601f191681016001600160401b0381118282101715610b3e57610b3e610bbd565b604052919050565b60006001600160401b03821115610b5f57610b5f610bbd565b50601f01601f191660200190565b60008219821115610b8c57634e487b7160e01b81526011600452602481fd5b500190565b60005b83811015610bac578181015183820152602001610b94565b838111156106045750506000910152565b634e487b7160e01b600052604160045260246000fd5b6001600160a01b0381168114610be857600080fd5b5056fea26469706673582212206580a089ed14ce39a5fa3905b810e37016435750cfacd35846d7e307ff639ff664736f6c63430008040033",
  "linkReferences": {},
  "deployedLinkReferences": {}
}