{
  "_format": "hh-sol-artifact-1",
  "contractName": "PancakeStableSwapLP",
  "sourceName": "contracts/PancakeStableSwap/PancakeStableSwapLP.sol",
  "abi": [
    {
      "inputs": [],
      "stateMutability": "nonpayable",
      "type": "constructor"
    },
    {
      "anonymous": false,
      "inputs": [
        {
          "indexed": true,
          "internalType": "address",
          "name": "owner",
          "type": "address"
        },
        {
          "indexed": true,
          "internalType": "address",
          "name": "spender",
          "type": "address"
        },
        {
          "indexed": false,
          "internalType": "uint256",
          "name": "value",
          "type": "uint256"
        }
      ],
      "name": "Approval",
      "type": "event"
    },
    {
      "anonymous": false,
      "inputs": [
        {
          "indexed": true,
          "internalType": "address",
          "name": "from",
          "type": "address"
        },
        {
          "indexed": true,
          "internalType": "address",
          "name": "to",
          "type": "address"
        },
        {
          "indexed": false,
          "internalType": "uint256",
          "name": "value",
          "type": "uint256"
        }
      ],
      "name": "Transfer",
      "type": "event"
    },
    {
      "inputs": [
        {
          "internalType": "address",
          "name": "owner",
          "type": "address"
        },
        {
          "internalType": "address",
          "name": "spender",
          "type": "address"
        }
      ],
      "name": "allowance",
      "outputs": [
        {
          "internalType": "uint256",
          "name": "",
          "type": "uint256"
        }
      ],
      "stateMutability": "view",
      "type": "function"
    },
    {
      "inputs": [
        {
          "internalType": "address",
          "name": "spender",
          "type": "address"
        },
        {
          "internalType": "uint256",
          "name": "amount",
          "type": "uint256"
        }
      ],
      "name": "approve",
      "outputs": [
        {
          "internalType": "bool",
          "name": "",
          "type": "bool"
        }
      ],
      "stateMutability": "nonpayable",
      "type": "function"
    },
    {
      "inputs": [
        {
          "internalType": "address",
          "name": "account",
          "type": "address"
        }
      ],
      "name": "balanceOf",
      "outputs": [
        {
          "internalType": "uint256",
          "name": "",
          "type": "uint256"
        }
      ],
      "stateMutability": "view",
      "type": "function"
    },
    {
      "inputs": [
        {
          "internalType": "address",
          "name": "_to",
          "type": "address"
        },
        {
          "internalType": "uint256",
          "name": "_amount",
          "type": "uint256"
        }
      ],
      "name": "burnFrom",
      "outputs": [],
      "stateMutability": "nonpayable",
      "type": "function"
    },
    {
      "inputs": [],
      "name": "decimals",
      "outputs": [
        {
          "internalType": "uint8",
          "name": "",
          "type": "uint8"
        }
      ],
      "stateMutability": "view",
      "type": "function"
    },
    {
      "inputs": [
        {
          "internalType": "address",
          "name": "spender",
          "type": "address"
        },
        {
          "internalType": "uint256",
          "name": "subtractedValue",
          "type": "uint256"
        }
      ],
      "name": "decreaseAllowance",
      "outputs": [
        {
          "internalType": "bool",
          "name": "",
          "type": "bool"
        }
      ],
      "stateMutability": "nonpayable",
      "type": "function"
    },
    {
      "inputs": [
        {
          "internalType": "address",
          "name": "spender",
          "type": "address"
        },
        {
          "internalType": "uint256",
          "name": "addedValue",
          "type": "uint256"
        }
      ],
      "name": "increaseAllowance",
      "outputs": [
        {
          "internalType": "bool",
          "name": "",
          "type": "bool"
        }
      ],
      "stateMutability": "nonpayable",
      "type": "function"
    },
    {
      "inputs": [],
      "name": "miner",
      "outputs": [
        {
          "internalType": "address",
          "name": "",
          "type": "address"
        }
      ],
      "stateMutability": "view",
      "type": "function"
    },
    {
      "inputs": [
        {
          "internalType": "address",
          "name": "_to",
          "type": "address"
        },
        {
          "internalType": "uint256",
          "name": "_amount",
          "type": "uint256"
        }
      ],
      "name": "mint",
      "outputs": [],
      "stateMutability": "nonpayable",
      "type": "function"
    },
    {
      "inputs": [],
      "name": "name",
      "outputs": [
        {
          "internalType": "string",
          "name": "",
          "type": "string"
        }
      ],
      "stateMutability": "view",
      "type": "function"
    },
    {
      "inputs": [],
      "name": "symbol",
      "outputs": [
        {
          "internalType": "string",
          "name": "",
          "type": "string"
        }
      ],
      "stateMutability": "view",
      "type": "function"
    },
    {
      "inputs": [],
      "name": "totalSupply",
      "outputs": [
        {
          "internalType": "uint256",
          "name": "",
          "type": "uint256"
        }
      ],
      "stateMutability": "view",
      "type": "function"
    },
    {
      "inputs": [
        {
          "internalType": "address",
          "name": "to",
          "type": "address"
        },
        {
          "internalType": "uint256",
          "name": "amount",
          "type": "uint256"
        }
      ],
      "name": "transfer",
      "outputs": [
        {
          "internalType": "bool",
          "name": "",
          "type": "bool"
        }
      ],
      "stateMutability": "nonpayable",
      "type": "function"
    },
    {
      "inputs": [
        {
          "internalType": "address",
          "name": "from",
          "type": "address"
        },
        {
          "internalType": "address",
          "name": "to",
          "type": "address"
        },
        {
          "internalType": "uint256",
          "name": "amount",
          "type": "uint256"
        }
      ],
      "name": "transferFrom",
      "outputs": [
        {
          "internalType": "bool",
          "name": "",
          "type": "bool"
        }
      ],
      "stateMutability": "nonpayable",
      "type": "function"
    }
  ],
  "bytecode": "0x60a060405234801561001057600080fd5b50604080518082018252601681527f50616e63616b6520537461626c6553776170204c5073000000000000000000006020808301918252835180850190945260098452680537461626c652d4c560bc1b90840152815191929161007591600391610098565b508051610089906004906020840190610098565b5050503360601b60805261016c565b8280546100a490610131565b90600052602060002090601f0160209004810192826100c6576000855561010c565b82601f106100df57805160ff191683800117855561010c565b8280016001018555821561010c579182015b8281111561010c5782518255916020019190600101906100f1565b5061011892915061011c565b5090565b5b80821115610118576000815560010161011d565b600181811c9082168061014557607f821691505b6020821081141561016657634e487b7160e01b600052602260045260246000fd5b50919050565b60805160601c610b7062000199600039600081816101390152818161031301526103720152610b706000f3fe608060405234801561001057600080fd5b50600436106100ba5760003560e01c806306fdde03146100bf578063095ea7b3146100dd57806318160ddd1461010057806323b872dd14610112578063313ce56714610125578063349dc32914610134578063395093511461017357806340c10f191461018657806370a082311461019b57806379cc6790146101c457806395d89b41146101d7578063a457c2d7146101df578063a9059cbb146101f2578063dd62ed3e14610205575b600080fd5b6100c7610218565b6040516100d49190610a45565b60405180910390f35b6100f06100eb366004610a1c565b6102aa565b60405190151581526020016100d4565b6002545b6040519081526020016100d4565b6100f06101203660046109e1565b6102c2565b604051601281526020016100d4565b61015b7f000000000000000000000000000000000000000000000000000000000000000081565b6040516001600160a01b0390911681526020016100d4565b6100f0610181366004610a1c565b6102e6565b610199610194366004610a1c565b610308565b005b6101046101a936600461098e565b6001600160a01b031660009081526020819052604090205490565b6101996101d2366004610a1c565b610367565b6100c76103b9565b6100f06101ed366004610a1c565b6103c8565b6100f0610200366004610a1c565b610443565b6101046102133660046109af565b610451565b60606003805461022790610adf565b80601f016020809104026020016040519081016040528092919081815260200182805461025390610adf565b80156102a05780601f10610275576101008083540402835291602001916102a0565b820191906000526020600020905b81548152906001019060200180831161028357829003601f168201915b5050505050905090565b6000336102b881858561047c565b5060019392505050565b6000336102d08582856105a1565b6102db85858561061b565b506001949350505050565b6000336102b88185856102f98383610451565b6103039190610abb565b61047c565b336001600160a01b037f000000000000000000000000000000000000000000000000000000000000000016146103595760405162461bcd60e51b815260040161035090610a98565b60405180910390fd5b61036382826107ad565b5050565b336001600160a01b037f000000000000000000000000000000000000000000000000000000000000000016146103af5760405162461bcd60e51b815260040161035090610a98565b610363828261085a565b60606004805461022790610adf565b600033816103d68286610451565b9050838110156104365760405162461bcd60e51b815260206004820152602560248201527f45524332303a2064656372656173656420616c6c6f77616e63652062656c6f77604482015264207a65726f60d81b6064820152608401610350565b6102db828686840361047c565b6000336102b881858561061b565b6001600160a01b03918216600090815260016020908152604080832093909416825291909152205490565b6001600160a01b0383166104de5760405162461bcd60e51b8152602060048201526024808201527f45524332303a20617070726f76652066726f6d20746865207a65726f206164646044820152637265737360e01b6064820152608401610350565b6001600160a01b03821661053f5760405162461bcd60e51b815260206004820152602260248201527f45524332303a20617070726f766520746f20746865207a65726f206164647265604482015261737360f01b6064820152608401610350565b6001600160a01b0383811660008181526001602090815260408083209487168084529482529182902085905590518481527f8c5be1e5ebec7d5bd14f71427d1e84f3dd0314c0f7b2291e5b200ac8c7c3b92591015b60405180910390a3505050565b60006105ad8484610451565b9050600019811461061557818110156106085760405162461bcd60e51b815260206004820152601d60248201527f45524332303a20696e73756666696369656e7420616c6c6f77616e63650000006044820152606401610350565b610615848484840361047c565b50505050565b6001600160a01b03831661067f5760405162461bcd60e51b815260206004820152602560248201527f45524332303a207472616e736665722066726f6d20746865207a65726f206164604482015264647265737360d81b6064820152608401610350565b6001600160a01b0382166106e15760405162461bcd60e51b815260206004820152602360248201527f45524332303a207472616e7366657220746f20746865207a65726f206164647260448201526265737360e81b6064820152608401610350565b6001600160a01b038316600090815260208190526040902054818110156107595760405162461bcd60e51b815260206004820152602660248201527f45524332303a207472616e7366657220616d6f756e7420657863656564732062604482015265616c616e636560d01b6064820152608401610350565b6001600160a01b0384811660008181526020818152604080832087870390559387168083529184902080548701905592518581529092600080516020610b1b833981519152910160405180910390a3610615565b6001600160a01b0382166108035760405162461bcd60e51b815260206004820152601f60248201527f45524332303a206d696e7420746f20746865207a65726f2061646472657373006044820152606401610350565b80600260008282546108159190610abb565b90915550506001600160a01b03821660008181526020818152604080832080548601905551848152600080516020610b1b833981519152910160405180910390a35050565b6001600160a01b0382166108ba5760405162461bcd60e51b815260206004820152602160248201527f45524332303a206275726e2066726f6d20746865207a65726f206164647265736044820152607360f81b6064820152608401610350565b6001600160a01b0382166000908152602081905260409020548181101561092e5760405162461bcd60e51b815260206004820152602260248201527f45524332303a206275726e20616d6f756e7420657863656564732062616c616e604482015261636560f01b6064820152608401610350565b6001600160a01b038316600081815260208181526040808320868603905560028054879003905551858152919291600080516020610b1b8339815191529101610594565b80356001600160a01b038116811461098957600080fd5b919050565b60006020828403121561099f578081fd5b6109a882610972565b9392505050565b600080604083850312156109c1578081fd5b6109ca83610972565b91506109d860208401610972565b90509250929050565b6000806000606084860312156109f5578081fd5b6109fe84610972565b9250610a0c60208501610972565b9150604084013590509250925092565b60008060408385031215610a2e578182fd5b610a3783610972565b946020939093013593505050565b6000602080835283518082850152825b81811015610a7157858101830151858201604001528201610a55565b81811115610a825783604083870101525b50601f01601f1916929092016040019392505050565b6020808252600990820152682737ba1036b4b732b960b91b604082015260600190565b60008219821115610ada57634e487b7160e01b81526011600452602481fd5b500190565b600181811c90821680610af357607f821691505b60208210811415610b1457634e487b7160e01b600052602260045260246000fd5b5091905056feddf252ad1be2c89b69c2b068fc378daa952ba7f163c4a11628f55a4df523b3efa2646970667358221220257c0f935bba40a95b8305edf3c3153b3eb688d8702bbfc43beb0a86d94644b264736f6c63430008040033",
  "linkReferences": {},
  "deployedLinkReferences": {}
}